:020000040800F2
:10000000102A00206D02000845390008EF3500086D
:100010004139000819060008A1420008000000004C
:100020000000000000000000000000004B39000844
:10003000030F000800000000493900086539000876
:10004000870200088702000887020008870200086C
:10005000870200088702000887020008870200085C
:10006000870200088702000887020008870200084C
:10007000870200088702000887020008870200083C
:10008000870200088702000887020008870200082C
:100090001D0600082D0600088702000887020008D8
:1000A000870200088702000887020008870200080C
:1000B00087020008870200088702000887020008FC
:1000C00087020008870200088702000887020008EC
:1000D0008702000871420008870200088142000878
:1000E00087020008870200088702000887020008CC
:1000F00087020008870200088702000887020008BC
:100100008702000887020008353A000887020008C5
:100110008702000887020008453A000887020008A5
:1001200087020008B90D0008C90D00088702000801
:10013000870200088702000887020008870200087B
:100140003D0600084D0600088702000887020008E7
:1001500087020008D90D0008E90D00089142000847
:10016000870200088702000887020008870200084B
:1001700087020008870200088702000800000000CC
:10018000870200088702000800F002F800F05EF81D
:100190000AA090E8000C82448344AAF10107DA45E2
:1001A00001D100F053F8AFF2090EBAE80F0013F0D6
:1001B000010F18BFFB1A43F00103184784860000A3
:1001C000A48600000A444FF0000C10F8013B13F025
:1001D000070408BF10F8014B1D1108BF10F8015BA0
:1001E000641E05D010F8016B641E01F8016BF9D193
:1001F00013F0080F1EBF10F8014BAD1C0C1B09D1EA
:100200006D1E58BF01F801CBFAD505E014F8016B5B
:1002100001F8016B6D1EF9D59142D6D370470000ED
:100220000023002400250026103A28BF78C1FBD8FF
:10023000520728BF30C148BF0B6070471FB507F099
:10024000D8FF00F06BF91FBD10B510BD00F08CF9A0
:100250001146FFF7F3FF07F09DF900F0AAF903B488
:10026000FFF7F2FF03BC00F0ADF90000094880473A
:1002700009480047FEE7FEE7FEE7FEE7FEE7FEE788
:10028000FEE7FEE7FEE7FEE704480549054A064BA0
:1002900070470000213A000889010008102400205E
:1002A000102A0020102600201026002053EA020CFD
:1002B00000F069802DE9F04B4FF00006002B1FBFC6
:1002C000B3FA83F503FA05F424FA05F65E4012BF8B
:1002D0001643B2FA82F502FA05F4C5F120051EBFF5
:1002E00022FA05FC44EA0C04203556EA044C4FEA95
:1002F000144418BF641C4FF000084FF000099042EE
:1003000071EB030C39D3002919BFB1FA81F701FA57
:1003100007F6B0FA80F700FA07F6C7F120071EBF0C
:1003200020FA07FC46EA0C062037B6FBF4FCA7EBE4
:100330000507103F07F01F0BCBF120060CFA0BFB53
:100340002CFA06F644BFB3460026202FA4BF5E4613
:100350004FF0000B5BEA060C08BF4FF0010B19EBE6
:100360000B09ABFB027C48EB0608C01B06FB02CC6A
:100370000BFB03CC71EB0C01C1E70B460246414677
:100380004846BDE8F08B13B54FF000004FF0000178
:10039000AFF30080BDE81C40704710B5431C02E07D
:1003A00010F8011B71B18107FAD14FF0013202C878
:1003B0008C1A8C4314EAC211F9D0C01A0A0603D071
:1003C000C01E10BDC01A10BD0A0401D0801E10BD91
:1003D0000902FCD0401E10BD032A40F2308010F00C
:1003E000030C00F0158011F8013BBCF1020F6244D0
:1003F00098BF11F801CB00F8013B38BF11F8013B61
:10040000A2F1040298BF00F801CB38BF00F8013B0D
:1004100011F0030300F02580083AC0F0088051F87D
:10042000043B083A51F804CBA0E80810F5E7121D88
:100430005CBF51F8043B40F8043BAFF30080D207A7
:1004400024BF11F8013B11F801CB48BF11F8012B73
:1004500024BF00F8013B00F801CB48BF00F8012B96
:10046000704710B5203AC0F00B80B1E81850203A20
:10047000A0E81850B1E81850A0E81850BFF4F5AF44
:100480005FEA027C24BFB1E81850A0E8185044BFCE
:1004900018C918C0BDE810405FEA827C24BF51F83B
:1004A000043B40F8043B08BF7047D20728BF31F82F
:1004B000023B48BF11F8012B28BF20F8023B48BF80
:1004C00000F8012B70474FF0000200B51346944628
:1004D0009646203922BFA0E80C50A0E80C50B1F19C
:1004E0002001BFF4F7AF090728BFA0E80C5048BFB0
:1004F0000CC05DF804EB890028BF40F8042B08BF4E
:10050000704748BF20F8022B11F0804F18BF00F849
:10051000012B7047704770477047000070B5064C5C
:100520007C44064D7D4403E0206820448047241D20
:10053000AC42F9D170BD00003C8300003C83000058
:1005400010B500F009F8006810BD10B5044600F0C1
:1005500003F8046010BD000000487047AC23002081
:1005600000487047AC2300207546FFF7F9FFAE4600
:1005700005006946534620F00700854618B020B5AF
:10058000FFF782FEBDE820404FF000064FF0000765
:100590004FF000084FF0000B21F00701AC46ACE82B
:1005A000C009ACE8C009ACE8C009ACE8C0098D4698
:1005B000704710B50446AFF300802046BDE81040F8
:1005C000FFF74DBE01491820ABBEFEE72600020032
:1005D0007047000070B505464FF42A720D49284651
:1005E000FFF73FFF2C4605F1280005F005FFA0F1BD
:1005F0002804A03005F000FFA0F1C804A03005F0E9
:10060000FBFEA0F5B474A03005F0F6FEA0F5027470
:1006100070BD00002885000800BFFEE710B5024845
:1006200000F084FE10BD00003801002010B5024823
:1006300000F07CFE10BD00003801002010B502481B
:1006400000F074FE10BD00006001002010B50248EB
:1006500000F06CFE10BD00006001002010B52DED13
:100660000C8BFE480078002874D19FEDFD0AFD48F0
:1006700080ED000AFC4880ED000AFC49B1F9081041
:10068000484207F05AFA41EC190B9FEDF90B53EC75
:10069000102B07F07DFA41EC180B06F0EDFFF64940
:1006A00008600846006807F033FD41EC190B9FED28
:1006B000F30B53EC102B07F06BFA41EC180B06F020
:1006C000DBFFF0490860084690ED000A06F0E4FA06
:1006D000ED4880ED000AEB4890ED000A06F084FB3F
:1006E000EA4880ED000AE148C07D01280BD0DF48D0
:1006F000007E012807D0DD48407E012803D0DB487A
:10070000807E01287ED1D948C07D012823D1D749D8
:10071000B1F9060007F011FA41EC1A0B9FEDDC0B62
:1007200053EC102B07F034FA41EC190B9FEDDA0B68
:1007300053EC102B07F02CFA41EC180B06F09CFF41
:10074000D74908600021D64890ED000AD54804F04A
:1007500089FC30E00BE2C548007E01282BD1C3485C
:10076000007C01281BD1C149B1F9060007F0E5F969
:1007700041EC1A0B9FEDC60B53EC102B07F008FA57
:1007800041EC190B9FEDC40B53EC102B07F000FA52
:1007900041EC180B06F070FFC149086004E09FEDC2
:1007A000B00ABF4880ED000A0121BD4890ED000A63
:1007B000BC4804F057FCAD48407E01282CD1BA4813
:1007C00090F9000007F0B9F941EC1B0B9FEDB70B56
:1007D00053EC102B07F0DCF941EC1A0B9FEDB50B35
:1007E00053EC102B06F07AFF41EC190B9FEDB30B85
:1007F00053EC102B07F0CCF941EC180B06F03CFF42
:10080000A74900E0B8E008600121A54890ED000A82
:10081000A44804F027FC6DE09448807E01281ED196
:100820009249B1F90A0007F088F941EC190B9FEDE4
:10083000A50B53EC102B07F0ABF941EC180B07F0AC
:100840004DF900EE100AB8EEC00A954880ED000A96
:10085000002190ED000A934804F004FC4AE083482C
:10086000C07D012823D1904890F9000007F065F978
:1008700041EC1B0B9FED950B53EC102B07F088F907
:1008800041EC1A0B9FED930B53EC102B06F026FF57
:1008900041EC190B9FED910B53EC102B06F01EFF52
:1008A00041EC180B06F0E8FE8E49086022E07E4815
:1008B00090F9000007F041F941EC1B0B9FED830B11
:1008C00053EC102B07F064F941EC1A0B9FED810BF0
:1008D00053EC102B06F002FF41EC190B9FED7F0B40
:1008E00053EC102B07F02AFB41EC180B06F0C4FE6A
:1008F0007C4908605D48807EF0BB5C48B0F90A0026
:1009000000EE900AF8EEE00AB0EE600A01217648A7
:1009100004F0A8FB5548B0F90C0000EE900AF8EE80
:10092000E00AB0EE600A0121704804F09BFB6E48BB
:1009300090ED010A5448D0ED000A20EE200A6B48E1
:10094000D0ED010A514890ED001A00EEC10A654849
:10095000D0ED000A20EE200A434880ED000A6248EC
:1009600090ED010A4948D0ED000A20EE200A5F48C8
:10097000D0ED010A444800E00BE090ED001A00EED3
:10098000810A5848D0ED000A20EE200A354880ED53
:10099000000A364AB2F90A10002901DB0A4600E0D3
:1009A0004A420F2A09DC314AB2F90C00002801DB67
:1009B000024600E042420F2A0FDD2C48407E01280B
:1009C00005D19FED4B0A4B4880ED000A14E09FEDE6
:1009D000480A484880ED000A0EE02448407E01287D
:1009E00005D19FED430A434880ED000A04E09FEDE6
:1009F000420A404880ED000A3E48006807F088FB44
:100A000041EC1B0B274890ED010A10EE101A084626
:100A100007F07EFB41EC1D0B9FED380B53EC102BC8
:100A200007F0B6F841EC1C0B53EC1B2B07F0B0F8A9
:100A300041EC1A0B06F020FE08EE100A0948006887
:100A400007F066FB41EC1C0B9FED2E0B53EC102BBB
:100A500007F09EF841EC1B0B58E00000A4000020BA
:100A6000000000008400002080000020C41B002043
:100A7000AA8251499D80A63F8C000020514CDE0087
:100A800033DF913F900000207000002074000020B0
:100A90009A9999999999E93F000000000000F0BFE8
:100AA00078000020641B0020C2000020B81E85EBE7
:100AB00051B8AE3F666666666666D63F00000000C7
:100AC0000070B740CDCCCCCCCCCCF43F0AD7A370CF
:100AD0003D0AB73F9A9999999999D93F333333335E
:100AE0003333C33FA0000020841B0020A41B002040
:100AF0006666A63F880000203333134000000000E4
:100B00000000F03FFB5C6DC5FED238409FED970BB7
:100B100053EC102B07F03CF841EC1A0B06F0ACFD3F
:100B200008EE900A9348006807F0F2FA41EC1C0BBB
:100B30001FED0C0B53EC102B07F02AF841EC1B0BAC
:100B40009FED8A0B53EC102B07F022F841EC1A0BA7
:100B500006F092FD09EE100ADFED871AB0EE481A92
:100B6000F0EE680AB0EE490A844804F0CBFB8448F2
:100B700000788449097F012900D100E00021084361
:100B800078B11FED490A7D4880ED030A80ED020A25
:100B900080ED010A80ED000A1FED4F0A7A4880EDD2
:100BA000000A40F20121794805F0F0FC00EE100A3D
:100BB000B8EEC00AB0EE408A7048D0ED030A74481F
:100BC00090ED031A70EE810AB0EE600A0122114620
:100BD000F0EE480A6F4805F0B7F840F202216B4882
:100BE00005F0D4FC00EE100AB8EEC00AB0EE408A60
:100BF0006248D0ED020A664890ED021A70EE810A52
:100C0000F1EE600AB0EE600A01221146F0EE480AE9
:100C1000614805F099F840F203215C4805F0B6FC04
:100C200000EE100AB8EEC00AB0EE408A5348D0ED8C
:100C3000010A574890ED011A70EE810AF1EE600A40
:100C4000B0EE600A01221146F0EE480A534805F062
:100C50007BF84FF401714D4805F098FC00EE100A46
:100C6000B8EEC00AB0EE408A4448D0ED000A4848C9
:100C700090ED001A70EE810AB0EE600A0122114672
:100C8000F0EE480A464805F05FF840F201213F487F
:100C900005F07CFC404200EE100AB8EEC00AB0EE4F
:100CA000408A01213F4804F0DDF940F20221374833
:100CB00005F06CFC404200EE100AB8EEC00AB0EE3F
:100CC000408A0121384804F0CDF940F203212F4831
:100CD00005F05CFC00EE100AB8EEC00AB0EE408AE7
:100CE0000121324804F0BEF94FF40171274805F0A4
:100CF0004DFC00EE100AB8EEC00AB0EE408A0121A9
:100D00002B4804F0AFF9234890ED0C0ABDEEC00A61
:100D100010EE100A01B20122264804F099F81E488C
:100D200090ED0C0ABDEEC00A10EE100A01B20222CC
:100D3000204804F08DF8194890ED0C0ABDEEC00A69
:100D400010EE100A01B203221A4804F081F8144888
:100D500090ED0C0ABDEEC00A10EE100A01B204229A
:100D6000144804F075F8BDEC0C8B10BD9A99999954
:100D70009999C93F80000020000080469C180020FF
:100D8000A4000020C41B00207800002000180020D0
:100D9000B8180020D418002058190020DC190020B1
:100DA000601A0020E41A0020041B0020241B0020ED
:100DB000441B00205900002010B5024800F03CFE02
:100DC00010BD00000404002010B5024800F034FEFD
:100DD00010BD00004403002010B5024800F02CFEB6
:100DE00010BD0000A403002010B5024800F024FE4E
:100DF00010BD0000E40200200146087810381823D6
:100E0000B0FBF3F20848805CC865032A05D908687E
:100E10006FF30900001D886503E008686FF309009F
:100E20008865886D70470000068200080146002032
:100E30008A6A8B69CBB932B1012A0DD0022A03D05C
:100E4000032A10D10EE000BFCB6A03F08073B3F128
:100E5000807F00D1012007E0CB6AB3F1C07F00D1D1
:100E6000012001E000E000BF34E08B69B3F5005FD2
:100E70001AD132B1012A07D0022A03D0032A11D194
:100E80000AE000BF01200EE0CB6A03F08073B3F1EB
:100E9000807F00D1012006E0CB6AB3F1C07F00D192
:100EA000012000E000BF15E032B1012A05D0022A7E
:100EB00004D0032A0CD103E000BF00BF012008E0EA
:100EC000CB6A03F08073B3F1807F00D1012000E092
:100ED00000BF00BF704730B50468246824F4802444
:100EE00005682C60046863608468402C04D1046841
:100EF000A2600468E16003E00468A1600468E26045
:100F000030BD704772B600BFFEE710B5024692F8DA
:100F10002030012B01D0022B06D110684069084314
:100F200014686061002010BD506A40F48020506257
:100F30000120F8E7F0B504460D461E4694F82070EF
:100F400020688368A86800B900E000BF012F01D0C5
:100F5000022F7CD103F0806030B903F0006018B933
:100F600003F08050002873D0C3F30161022905D932
:100F7000606A40F4000060620120F0BD01208840FA
:100F80003060A86860B9B5F800C0E86840EA4C5C19
:100F9000206800F5C07000EB0110C0F800C00FE041
:100FA000D5E901C040EACC00D5F80CC040EA0C00FD
:100FB000D4F800C00CF5C07C0CEB011CCCF8000090
:100FC000D5F810C0206800F5C07000EB0110C0F823
:100FD00004C0287D01280ED1206800F5C07000EB08
:100FE0000110406840F4807C206800F5C07000EB80
:100FF0000110C0F804C0D079000692F806C040EA9B
:101000000C4092F805C040EA0C2C10794CEA000C18
:10101000206800F5C07000EB0110C0F80CC0D0785B
:10102000000692F802C040EA0C4092F801C040EA83
:101030000C2092F800C040EA0C00D4F800C00CF577
:10104000C07C0CEB011CCCF80800206801E016E025
:101050000FE000F5C07000EB0110006840F0010CDB
:10106000206800F5C07000EB0110C0F800C000203F
:1010700083E7606A40F40010606201207DE7606AE7
:1010800040F480206062012077E70000F0B504465C
:101090000A46216894F82050012D01D0022D7ED1FE
:1010A000424901F50071086840F0010008600868D5
:1010B00020F47C5008600868566A40EA0620086000
:1010C000107D00F01F06012000FA06F3C86998435E
:1010D000C861A1F50071D069C8B9D1F80C02984374
:1010E000C1F80C02908880B2968940EA064601F564
:1010F0001070576940F83760108880B2168940EA4E
:10110000064601F51070576900EBC7004660D069CC
:10111000012819D1D1F80C021843C1F80C029088AB
:1011200080B2168840EA064601F51070576940F80B
:101130003760908980B2168940EA064601F5107042
:10114000576900EBC7004660906928B9D1F80402DE
:101150009843C1F8040204E0D1F804021843C1F82E
:101160000402106928B9D1F814029843C1F8140296
:1011700004E0D1F814021843C1F81402106A0128DF
:1011800004D1D1F81C021843C1F81C02D1F80002A6
:1011900020F00100C1F800020020F0BDFFE7606A06
:1011A00040F4802060620120F7E700000064004006
:1011B000704770B5044694F82050012D01D0022DDF
:1011C0007DD151B92068C06800F0030080B9606A21
:1011D00040F400106062012070BD2068006900F0DA
:1011E000030028B9606A40F4001060620120F3E750
:1011F000206800F5D87000EB0110006800F00400D2
:101200009060906840B9206800F5D87000EB01103C
:101210000068400D106007E0206800F5D87000EB12
:1012200001100068C0085060206800F5D87000EB1D
:101230000110006800F00200D060206800F5D8704E
:1012400000EB0110406800F00F001061206800F50D
:10125000D87000EB0110406800F47F40000A9061F4
:10126000206800F5D87000EB01104068000C506158
:10127000206800F5D87000EB0110806818702068B5
:1012800000F5D87000EB0110806800F47F40000A80
:101290005870206800F5D87000EB0110806800F4E9
:1012A0007F00000C9870206800F5D87000EB0110EA
:1012B0008068000ED870206800F5D87000E02FE03C
:1012C00000EB0110C0681871206800F5D87000EBC1
:1012D0000110C06800F47F40000A5871206800F5D2
:1012E000D87000EB0110C06800F47F00000C98710A
:1012F000206800F5D87000EB0110C068000ED871AE
:1013000031B92068C06840F020002668F06005E030
:101310002068006940F020002668306100205BE70B
:10132000606A40F480206062012055E72DE9F05F9B
:1013300004460025206846692068D0F8049020689B
:1013400087682068D0F80CA02068D0F810B020681A
:10135000D0F8188006F00100002855D007F00100F1
:10136000C0B101202168886007F0020018B1204652
:1013700000F0F1FA0EE007F0040010B145F400654A
:1013800008E007F0080010B145F4805502E020465F
:1013900000F0E0FA07F48070C8B14FF48070216863
:1013A000886007F4007018B1204600F0D6FA0EE00D
:1013B00007F4806010B145F4005508E007F40060C0
:1013C00010B145F4804502E0204600F0C5FA07F46C
:1013D0008030C8B14FF480302168886007F4003055
:1013E00018B1204600F0BBFA0EE007F4802010B1DF
:1013F00045F4004508E007F4002010B145F48035BD
:1014000002E0204600F0AAFA06F0080038B10AF01F
:10141000100020B145F4007510202168C86006F066
:10142000040040B10AF0080028B108202168C86013
:10143000204600F01DFA06F0020038B12068C068AE
:1014400000F0030010B1204600F014FA06F040004E
:1014500038B10BF0100020B145F4806510202168F0
:10146000086106F0200040B10BF0080028B1082008
:1014700021680861204600F03BFA06F0100038B100
:101480002068006900F0030010B1204600F031FA36
:1014900006F4003040B109F0100028B11020216896
:1014A0004860204600F026FA06F4803040B109F08A
:1014B000080028B1082021684860204600F050FA52
:1014C00006F4004088B309F0040078B306F4807095
:1014D00020B108F0010008B145F0010506F40070E4
:1014E00020B108F0020008B145F0020506F4806062
:1014F00020B108F0040008B145F0040506F40060CE
:10150000A0B108F0700088B108F07000402817D032
:1015100006DC10280BD020280CD0302819D10CE084
:10152000502810D0602814D110E01DE019E045F0DB
:1015300008050FE045F010050CE045F0200509E036
:1015400045F0400506E045F0800503E045F4807570
:1015500000E000BF00BF2068806920F070002168B3
:1015600088610420216848602DB1606A2843606268
:101570002046FFF71DFEBDE8F09F70B504460CB98C
:10158000012070BD94F8200010B9204600F0B0F89A
:101590002068006840F001002168086000F040FD0C
:1015A00005460DE000F03CFD401B0A2808D9606AA2
:1015B00040F400306062052084F820000120E0E75C
:1015C0002068406800F001000028EBD02068006827
:1015D00020F002002168086000F022FD05460DE0C1
:1015E00000F01EFD401B0A2808D9606A40F4003054
:1015F0006062052084F820000120C2E7206840686E
:1016000000F002000028EBD1207E012806D12068DE
:10161000006840F080002168086005E020680068EC
:1016200020F0800021680860607E012806D12068D3
:10163000006840F040002168086005E0206800680C
:1016400020F0400021680860A07E012806D12068B3
:10165000006840F020002168086005E0206800680C
:1016600020F0200021680860E07E012806D1206873
:10167000006820F010002168086005E0206800681C
:1016800040F0100021680860207F012806D1206802
:10169000006840F008002168086005E020680068E4
:1016A00020F0080021680860607F012806D12068CA
:1016B000006840F004002168086005E020680068C8
:1016C00020F0040021680860D4E902010843216980
:1016D0000843616908436168491E08432168C8617D
:1016E00000206062012084F82000002049E700000B
:1016F00010B586B00446142101A8FEF7E4FE564951
:101700002068884249D155480068401C5349086008
:101710000846006801280FD100BF00200090504803
:10172000006840F000704E4908600846006800F00C
:101730000070009000BF00BF00BF0020009048482C
:101740001038006840F00800454910390860084624
:10175000006800F00800009000BF00BF0320019067
:10176000022002900020039003200490092005909D
:1017700001A93C4800F054FB00221146142000F05F
:10178000D9FC142000F0C6FC00221146152000F000
:10179000D1FC152000F0BEFC5CE033492068884293
:1017A00058D100BF002000902D48006840F08060B4
:1017B0002B4908600846006800F08060009000BF78
:1017C00000BF26480068401C24490860084600689D
:1017D00001280FD100BF002000902148006840F090
:1017E00000701F4908600846006800F00070009013
:1017F00000BF00BF00BF00200090194810380068EB
:1018000040F002001649103908600846006800F0F0
:101810000200009000BF00BF6020019002200290F3
:1018200000200390032004900920059001A90F488F
:1018300000F0F6FA00221146402000F07BFC402028
:1018400000F068FC00221146412000F073FC4120AA
:1018500000F060FC06B010BD0064004000000020F5
:1018600040380240000C0240006800400004024082
:101870007047000010B586B00446174B174A002188
:101880002046FFF796FC164884420FD11248049078
:101890001248D0E90413C2688069CDE901130092AF
:1018A00003900E480EC80F4804F081FE0E48844293
:1018B0000FD10948094B0490D3E90402D9689B6908
:1018C000CDE90223CDE9001004480EC8074804F012
:1018D000B9FD06B010BD0000EC000020F01C002097
:1018E000380100200018002060010020401800206E
:1018F00070477047704770B5044694F8200001287F
:1019000022D1022084F820002068006820F0010025
:101910002168086000F084FB05460DE000F080FBC4
:10192000401B0A2808D9606A40F400306062052034
:1019300084F82000012070BD2068406800F001009C
:101940000028EBD16062F6E7606A40F40020606234
:101950000120F0E770477047704770477047704745
:10196000704770B50446A56D00F05AFB064694F822
:101970003500022808D08020606500BF002084F870
:10198000340000BF012070BD2068006820F0160000
:10199000216808602068406920F080002168486163
:1019A000206C08B9A06C28B12068006820F00800FD
:1019B000216808602068006820F001002168086044
:1019C00010E000F02DFB801B05280BD9202060655E
:1019D000032084F8350000BF002084F8340000BFE5
:1019E0000320D0E72068006800F001000028E8D15B
:1019F00094F85C103F208840A860012084F83500EE
:101A000000BF002084F8340000BF00BFBBE70146E0
:101A100091F83500022803D08020486501207047E6
:101A2000052081F835000868006820F001000A6888
:101A300010600020F3E70000F8B504460020009095
:101A40008C4800684FF41651B0FBF1F7A56D2E6875
:101A500094F85C1008208840304098B120680068F5
:101A600000F0040070B12068006820F004002168D4
:101A7000086094F85C1008208840A860606D40F011
:101A80000100606594F85C1001208840304068B126
:101A90002068406900F0800040B194F85C1001209B
:101AA0008840A860606D40F00200606594F85C10AA
:101AB00004208840304068B12068006800F00200CF
:101AC00040B194F85C1004208840A860606D40F03C
:101AD0000400606594F85C1010208840304078B3B2
:101AE0002068006800F0080050B394F85C101020E3
:101AF0008840A8602068006800F4802080B12068D9
:101B0000006800F4002028B9206CC8B12046216C80
:101B1000884715E0A06C98B12046A16C88470FE07B
:101B20002068006800F4807028B92068006820F000
:101B3000080021680860206C10B12046216C88479D
:101B400094F85C10202088403040002865D0206840
:101B5000006800F0100000285FD094F85C1020208E
:101B60008840A86094F83500052828D120680068CE
:101B700020F01600216808602068406920F080008D
:101B800021684861206C08B9A06C28B12068006801
:101B900020F008002168086094F85C103F2088401D
:101BA000A860012084F8350000BF002084F83400CC
:101BB00000BF206D10B12046216D8847F8BD206818
:101BC000006800F4802080B12068006800F40020E4
:101BD00028B9606C10B12046616C88471DE0E06B4D
:101BE000D8B12046E16B884717E02068006800F410
:101BF000807068B92068006820F0100021680860D3
:101C0000012084F8350000BF002084F8340000BFB4
:101C1000E06B10B12046E16B8847606D38B3606DB2
:101C200000F00100F0B1052084F83500206800685C
:101C300020F001002168086000BF0098401C00905F
:101C4000B84200D905E02068006800F001000028D3
:101C5000F3D100BF012084F8350000BF002084F8D4
:101C6000340000BFE06C10B12046E16C884700BF33
:101C7000A4E70000100000202DE9F04104460025F3
:101C800000F0CEF9074614B90120BDE8F081606A82
:101C900000B100BF022084F8350000BF002084F8A6
:101CA000340000BF2068006820F00100216808604F
:101CB0000AE000F0B5F9C01B052805D920206065B1
:101CC000032084F83500E0E72068006800F0010098
:101CD0000028EED12068056821480540D4E90101BB
:101CE0000843E16808432169084361690843A16921
:101CF0000843E1690843216A08430543606A0428F0
:101D000003D1D4E90B01084305432068056020682E
:101D1000456925F00705606A0543606A04280DD10E
:101D2000A06A0543E06A48B12046FFF77FF828B172
:101D300040206065012084F83500A6E720684561F1
:101D40002046FFF759F8064694F85C103F2088407B
:101D5000B06000206065012084F83500002094E721
:101D60003F8010F02DE9F04704460D4616461F4609
:101D70004FF00008D4F8589000BF94F834000128C0
:101D800002D10220BDE8F087012084F8340000BFB2
:101D900094F83500012825D1022084F83500002070
:101DA00060653B46324629462046FFF794F894F892
:101DB0005C103F208840C9F808002068006840F0A7
:101DC000160021680860206C28B12068006840F087
:101DD0000800216808602068006840F00100216860
:101DE000086006E000BF002084F8340000BF4FF018
:101DF00002084046C6E7000070B5044600F010F93E
:101E000006462546681C10B104480078054400BF0A
:101E100000F006F9801BA842FAD370BD0C00002028
:101E2000F8B502460B460025002400200021D6E02C
:101E3000012606FA01F51E6806EA0504AC4274D1D3
:101E40001E7906F00306012E04D01E7906F0030663
:101E5000022E13D190684F000326BE40B0434F00BE
:101E6000DE68BE4030439060506801268E40B0432B
:101E70001E79C6F300168E40304350601E7906F07E
:101E80000306032E09D0D0684F000326BE40B0439E
:101E90004F009E68BE403043D0601E7906F00306B6
:101EA000022E13D1CF0802F1200656F827004E0764
:101EB000F70E0F26BE40B0434F07FF0E1E69BE400F
:101EC0003043CF0802F1200646F8270010684F0083
:101ED0000326BE40B0431E7906F003064F00BE4005
:101EE000304310605E6806F44036002E76D000BFA6
:101EF000002600963C4E366846F480463A4F3E60D7
:101F00003E46366806F48046009600BF00BF374E56
:101F10008F0856F827008E07370F0F26BE40B043B4
:101F2000334EB24202D1002624E057E0314EB24295
:101F300001D101261EE0304EB24201D1022619E045
:101F40002E4EB24201D1032614E02D4EB24201D1F1
:101F500004260FE02B4EB24201D105260AE02A4E9C
:101F6000B24201D1062605E0284EB24201D1072631
:101F700000E008268F073F0FBE4030431B4E8F08FE
:101F800046F82700224E3068A0435E6806F48016AB
:101F900006B120431E4E3060361D3068A0435E6897
:101FA00006F4001606B12043194E361D3060184E57
:101FB000361F3068A0435E6806F4003606B1204341
:101FC000134E361F3060361F3068A0435E6806F43B
:101FD000803606B120430E4E083E3060491C102961
:101FE000FFF426AFF8BD0000443802400838014035
:101FF000000002400004024000080240000C0240C1
:10200000001002400014024000180240001C024070
:10201000083C01400AB1816101E00B048361704713
:102020000148006870470000040000200348006871
:1020300003490978084401490860704704000020FA
:102040000C00002010B50D48006840F400700B49EA
:1020500008600846006840F4806008600846006830
:1020600040F480700860032000F0A2F80F2000F018
:1020700007F800F02BF8002010BD0000003C0240E3
:1020800070B504460E4800784FF47A71B1FBF0F059
:102090000C490968B1FBF0F5284600F02BFC08B1AB
:1020A000012070BD102C07D200222146501E00F0E6
:1020B00041F80548046001E00120F2E70020F0E764
:1020C0000C000020100000200800002008B500BF10
:1020D000002000900E48006840F480400C490860E1
:1020E0000846006800F48040009000BF00BF00BFB9
:1020F00000200090081F006840F08050091F086011
:102100000846006800F08050009000BF00BF08BD86
:102110004438024001460846002809DB00F01F034E
:1021200001229A4043099B0003F1E023C3F80021F8
:1021300000BF70472DE9F05F80460D461646002728
:1021400004F0CCFB074639462A46334601F0070027
:10215000C0F1070ABAF1040F02D94FF0040A01E0F6
:10216000C0F1070AD14600F1040ABAF1070F02D202
:102170004FF0000A01E0A0F1030AD4464FF0010A33
:102180000AFA09FAAAF1010A0AEA020A0AFA0CFA98
:102190004FF0010B0BFA0CFBABF1010B0BEA030B3D
:1021A0004AEA0B042146404604F0A0FBBDE8F09F3C
:1021B00000BF00F00702064B19684FF6FF031940F5
:1021C000044B0B4343EA0221014B196000BF7047E7
:1021D0000CED00E00000FA0570B504460D460CB9A0
:1021E000012070BD5848006800F00700A84209D2DD
:1021F00055490D700846006800F00700A84201D05C
:102200000120EEE7207800F0020002281DD120789E
:1022100000F00400042805D14C48006840F4E05068
:102220004A490860207800F00800082805D147488E
:10223000006840F46040454908604448006820F068
:10224000F000A168084341490860207800F00100CF
:10225000A8B36068012807D13C4808380068C0F37B
:102260004040B8B90120BCE76068022802D060682D
:10227000032807D1354808380068C0F3406048B9E2
:102280000120AEE7314808380068C0F3400008B9C3
:102290000120A6E72D48006820F00300616808438C
:1022A0002A490860FFF7BCFE064609E0FFF7B8FEC2
:1022B000801B41F28831884202D9032091E707E070
:1022C0002248006800F00C006168B0EB810FEDD18E
:1022D0001D48006800F00700A84209D91A490D708E
:1022E0000846006800F00700A84201D0012078E706
:1022F000207800F00400042807D11448006820F476
:10230000E050E168084311490860207800F00800B7
:10231000082808D10D48006820F46040216940EA8F
:10232000C1000A49086000F03FF808490968C1F394
:102330000311074A515CC840064908600648006816
:10234000FFF79EFE00204CE7003C024008380240A8
:102350000E820008100000200800002001480068DC
:10236000704700001000002000B5FFF7F7FF044998
:102370000968C1F38221034A515CC84000BD0000D6
:10238000083802401E82000800B5FFF7E7FF044945
:102390000968C1F34231034A515CC84000BD0000E6
:1023A000083802401E8200082DE9F047002400256D
:1023B0000026A1462548006800F00C0020B1042842
:1023C00005D008283AD105E0DFF8849039E0DFF83D
:1023D000849036E01D48001F006800F03F041B4851
:1023E000001F006800F4800078B11A481749091FDF
:1023F0000968C1F38811A0FB017001462246002341
:102400003846FDF753FF05460EE011480F49091FF6
:102410000968C1F38811A0FB017001462246002320
:102420003846FDF743FF05460848001F0068C0F323
:102430000140401C4600B5FBF6F902E0DFF81090C1
:1024400000BF00BF4846BDE8F087000008380240E2
:102450000024F400001BB700F8B504460CB90120B5
:10246000F8BD207800F00100002874D0F948006819
:1024700000F00C0004280DD0F648006800F00C00B5
:10248000082813D1F348001F006800F48000B0F55D
:10249000800F0BD1EF4808380068C0F34040002897
:1024A00059D06068002856D10120D9E700BF606884
:1024B000B0F5803F08D1E7480838006840F4803024
:1024C000E449083908601EE06068B0F5A02F0DD11E
:1024D000E0480838006840F48020DE490839086088
:1024E0000846006840F4803008600CE0D94808389D
:1024F000006820F48030D749083908600846006831
:1025000020F48020086000BF606890B1FFF788FD6C
:10251000054606E0FFF784FD401B642801D903202F
:102520009EE7CC4808380068C0F340400028F1D04E
:1025300011E0FFF775FD054606E0FFF771FD401B52
:10254000642801D903208BE7C24808380068C0F32B
:1025500040400028F1D1207800F0020002285FD12D
:10256000BC48006800F00C0058B1BA48006800F0A0
:102570000C0008281CD1B748001F006800F4800038
:10258000B0B9B44808380068C0F3400020B1E06832
:10259000012801D0012063E7AE480838006820F028
:1025A000F800216940EAC100AA490839086037E00B
:1025B000E06800B30120A8490860FFF731FD054637
:1025C00006E0FFF72DFD401B022801D9032047E755
:1025D000A04808380068C0F340000028F1D09D48AA
:1025E0000838006820F0F800216940EAC1009949E4
:1025F0000839086014E0002097490860FFF710FDD3
:10260000054606E0FFF70CFD401B022801D9032018
:1026100026E7904808380068C0F340000028F1D150
:10262000207800F0080008282CD16069A8B10120AA
:102630008A490860FFF7F4FC054606E0FFF7F0FC66
:10264000401B022801D903200AE782486C30006849
:10265000C0F340000028F1D014E000207F4908605A
:10266000FFF7DEFC054606E0FFF7DAFC401B022818
:1026700001D90320F4E677486C300068C0F34000CD
:102680000028F1D1207800F00400042870D1002740
:1026900070483830006800F0805090B900BF0020CA
:1026A00000906C483830006840F0805069493831FB
:1026B00008600846006800F08050009000BF00BF2E
:1026C00001276748006800F48070B0B9644800686A
:1026D00040F4807062490860FFF7A2FC054606E0FE
:1026E000FFF79EFC401B022801D90320B8E65C4896
:1026F000006800F480700028F2D000BFA0680128B4
:1027000008D154486830006840F0010051496831F0
:1027100008601DE0A06805280DD14E4868300068AB
:1027200040F004004B49683108600846006840F0FA
:10273000010008600CE047486830006820F00100A4
:102740004449683108600846006820F004000860C9
:1027500000BFA068A8B1FFF763FC054609E0FFF7DA
:102760005FFC401B41F28831884202D9032077E6A2
:1027700026E0384868300068C0F340000028EED0FA
:1027800013E0FFF74DFC054608E0FFF749FC401B4E
:1027900041F28831884201D9032061E62D48683032
:1027A0000068C0F340000028EFD1012F07D129486D
:1027B0003830006820F0805026493831086000BF6A
:1027C000A069002845D02348006800F00C000828C4
:1027D0005DD0A069022845D100201F490866FFF797
:1027E0001FFC054606E0FFF71BFC401B022801D931
:1027F000032035E6174808380068C0F34060002819
:10280000F1D1D4E907010843616A40EA811101224C
:10281000A06AC2EB500041EA00412C20005D41EA71
:1028200000600C49091F086001200B490866FFF78A
:10283000F7FB054606E0FFF7F3FB401B022801D932
:1028400003200DE6034808380068C0F34060002804
:10285000F1D049E00838024000004742800E47426C
:1028600000700040002021490866FFF7D9FB0546AB
:1028700006E0FFF7D5FB401B022801D90320EFE556
:102880001B480068C0F340600028F2D12CE0A0692A
:10289000012800D1E4E51648001D0668A06901285A
:1028A00020D006F48001E06981421BD106F03F018F
:1028B000206A814216D147F6C0703040616AB0EBA1
:1028C000811F0FD106F440310122A06AC2EB5000F3
:1028D000B1EB004F06D106F070612C20005DB1EB2A
:1028E000006F01D00120BBE50020B9E500004742A0
:1028F0000038024070B504462546681EB0F1807F5E
:1029000001D301200FE0681E4FF0E02148610F2144
:102910004FF0FF3003F0EAFF00204FF0E021886124
:1029200007200861002070BD7047704730B502462F
:102930000B4600BF92F83C00012801D1022030BDB7
:10294000012082F83C0000BF022082F83D001068A0
:1029500044681068816824F07004186804431068A3
:102960004460184D1068A8421BD01068B0F1804F29
:1029700017D0154D1068A84213D0144D1068A84206
:102980000FD0134D1068A8420BD0124D1068A8420A
:1029900007D0114D1068A84203D0104D1068A8420E
:1029A00005D121F080015868014310688160012041
:1029B00082F83D0000BF002082F83C0000BF00BF4D
:1029C000BDE7000000000140000400400008004096
:1029D000000C00400004014000400140001800408D
:1029E00010B504460CB9012010BD94F83D0028B97B
:1029F000002084F83C00204600F026F8022084F8ED
:102A00003D00211D206801F025F8012084F84600D2
:102A100000BF84F83E0001213F20015540200155B0
:102A20004120015500BF00BF012084F8420043202F
:102A30000155442001554520015500BF012084F86F
:102A40003D000020D0E7000038B504461C4920684E
:102A5000884218D100BF002000901A48006840F05A
:102A60000800184908600846006800F00800009057
:102A700000BF00BF002201213220FFF75BFB3220A4
:102A8000FFF748FB1BE010492068884217D100BFC0
:102A9000002000900B48006840F0100009490860D1
:102AA0000846006800F01000009000BF00BF002240
:102AB00001213620FFF73EFB3620FFF72BFB38BD08
:102AC000000C00404038024000100040014691F8E0
:102AD0003D00012801D001207047022081F83D000F
:102AE0000868C06840F001000B68D8601A4B08689D
:102AF00098421BD00868B0F1804F17D0174B086878
:102B0000984213D0164B086898420FD0154B0868AE
:102B100098420BD0144B0868984207D0134B0868B2
:102B2000984203D0124B086898420CD1086880681C
:102B300000F00702062A0CD00868006840F0010087
:102B40000B68186005E00868006840F001000B6839
:102B500018600020C0E700000000014000040040B1
:102B600000080040000C004000040140004001400B
:102B7000001800402DE9F04104460D46002700BF33
:102B800094F83C00012802D10220BDE8F081012028
:102B900084F83C0000BF022084F83D00206886686D
:102BA00026F0770626F47F4620688660286850283D
:102BB00033D00CDC202850D004DC00284BD0102867
:102BC00051D149E0302849D040284CD139E0602823
:102BD0002DD0702807D0B0F5805F03D0B0F5005F2E
:102BE00041D10DE041E0D5E902136A68206800F0A8
:102BF0009DFF2068866846F077062068866034E08E
:102C0000D5E902136A68206800F090FF20688068A8
:102C100040F480402168886027E0EA68696820689D
:102C200000F098FF5021206800F08BFF1DE0EA685B
:102C30006968206800F0A1FF6021206800F081FF32
:102C400013E0EA686968206800F084FF402120688A
:102C500000F077FF09E000BF00BF00BF29682068CF
:102C600000F06FFF01E0012700BF00BF012084F8E2
:102C70003D0000BF002084F83C0000BF384684E7D8
:102C8000704710B5044620680069C0F34000D8B111
:102C90002068C068C0F34000B0B16FF00200216846
:102CA0000861012020772068806900F0030018B1D6
:102CB0002046FFF7E5FF05E0204600F0ADF820468E
:102CC00000F0ABF80020207720680069C0F3800096
:102CD000D8B12068C068C0F38000B0B16FF00400C4
:102CE00021680861022020772068806900F4407024
:102CF00018B12046FFF7C4FF05E0204600F08CF82D
:102D0000204600F08AF80020207720680069C0F390
:102D1000C000D8B12068C068C0F3C000B0B16FF087
:102D2000080021680861042020772068C06900F04D
:102D3000030018B12046FFF7A3FF05E0204600F08E
:102D40006BF8204600F069F80020207720680069C1
:102D5000C0F30010D8B12068C068C0F30010B0B153
:102D60006FF0100021680861082020772068C06992
:102D700000F4407018B12046FFF782FF05E02046BE
:102D800000F04AF8204600F048F80020207720683C
:102D9000006900F0010058B12068C06800F001002F
:102DA00030B16FF0010021680861204600F036F86C
:102DB00020680069C0F3C01058B12068C068C0F333
:102DC000C01030B16FF08000216808612046FFF725
:102DD000ABFD20680069C0F3801058B12068C0685E
:102DE000C0F3801030B16FF04000216808612046C8
:102DF00000F026F820680069C0F3401058B1206840
:102E0000C068C0F3401030B16FF020002168086145
:102E10002046FFF78AFD10BD7047704710B5044685
:102E20000548844201D1FDF719FC0448844201D1D0
:102E300000F08CFD10BD0000D001002088010020B2
:102E40007047F8B504460E46174694F83E00202811
:102E500036D106B10FB90120F8BD00BF94F83C008F
:102E6000012801D10220F7E7012084F83C0000BFCF
:102E700020633A463146204601F0A4F90546EDB9F3
:102E8000206B012819D100BF002000902068006845
:102E9000009020684068009000BF00BF00BF00BFE6
:102EA00021680C3151E8001F41F0100021680C31FD
:102EB00041E80002002AF3D100E001252846CBE7D3
:102EC0000220C9E7F0B587B004460D4627462E46D6
:102ED0000B4887420CD1122E0AD101A802F04EF8FD
:102EE000162201A90748FDF777FA074802F019FDF5
:102EF000122206490248FFF7A4FF00BF07B0F0BD49
:102F00005C0200208223002014010020982300206E
:102F1000704700002DE9F84F0446206805682068D6
:102F2000C668206847694FF00009CA4605F00F09D6
:102F3000B9F1000F0AD105F0200038B106F02000E9
:102F400020B1204600F043FFBDE8F88FB9F1000F33
:102F50007CD007F0010018B906F49070002875D0F5
:102F600005F0010030B106F4807018B1206C40F01B
:102F70000100206405F0040030B107F0010018B131
:102F8000206C40F00200206405F0020030B107F030
:102F9000010018B1206C40F00400206405F0080026
:102FA00048B106F0200010B907F0010018B1206CFC
:102FB00040F008002064206C002846D005F0200076
:102FC00028B106F0200010B1204600F000FF206874
:102FD0004069C0F3801A206C00F0080010B9BAF103
:102FE000000F2DD0204600F099FE2068406900F0C7
:102FF0004000402820D100BF00BF2168143151E8B3
:10300000001F21F040002168143141E80002002A2D
:10301000F3D100BFA06B50B17548A16B0865A06BE0
:10302000FEF7F5FC88B1A06B016D88470DE02046E6
:10303000FFF76EFF09E009E02046FFF769FF04E0B3
:103040002046FFF765FF002020647DE7206B012804
:1030500076D105F01000002872D006F0100000288C
:10306000FAD000BF0020009020680068009020681F
:103070004068009000BF00BF2068406900F0400039
:1030800040285ED1A06B006840681FFA80F8B8F154
:10309000000F54D0A08D404551DDA4F82E80A06BC8
:1030A000C069B0F5807F43D000BF00BF21680C31FC
:1030B00051E8001F21F4807021680C3141E80002C2
:1030C000002AF3D100BF00BF00BF2168143151E8CE
:1030D000001F21F001002168143141E80002002A9C
:1030E000F3D100BF00BF00BF2168143151E8001FB9
:1030F00021F040002168143141E80002002AF3D198
:1031000000BF202084F83E000020206300BF00BFE5
:1031100021680C3151E8001F21F0100021680C31AA
:1031200041E80002002AF3D100BFA06BFEF719FCB2
:10313000A08DE28D801A81B22046FFF7C3FE03E71F
:1031400040E0A08DE18D401A1FFA80F8E08DC0B3F9
:10315000B8F1000F35D000BF00BF21680C3151E835
:10316000001F21F4907021680C3141E80002002A10
:10317000F3D100BF00BF00BF2168143151E8001F28
:1031800021F001002168143141E80002002AF3D146
:1031900000BF202084F83E000020206300BF00BF55
:1031A00021680C3151E8001F21F0100021680C311A
:1031B00041E80002002AF3D100BF41462046FFF754
:1031C00081FEC1E605F0800030B106F0800018B144
:1031D000204601F01CF8B7E605F0400030B106F0DB
:1031E000400018B1204600F0CFFDADE600BFABE6D1
:1031F000E93B000810B504460CB9012010BDA069D8
:1032000000B100E000BF94F83D0028B9002084F828
:103210003C00204600F028F8242084F83D00206877
:10322000C06820F400502168C860204600F04CFEC1
:103230002068006920F49040216808612068406996
:1032400020F02A00216848612068C06840F40050DE
:103250002168C86000202064202084F83D0084F8A4
:103260003E000020CAE7000010B586B004461421D5
:1032700001A8FDF728F9AA49206888427ED100BF3D
:1032800000200090A748006840F01000A5490860A1
:103290000846006800F01000009000BF00BF00BFAB
:1032A000002000909F481438006840F002009D49BB
:1032B000143908600846006800F00200009000BF62
:1032C00000BF00BF002000900846006840F00100E9
:1032D00008600846006800F00100009000BF00BFD1
:1032E000802001900220029000200390032004908F
:1032F0000720059001A98C48FEF792FD4FF400705D
:1033000001900220029000200390032004900720E7
:10331000059001A98548FEF783FD85488549086029
:103320004FF0006048604021824881600021C16008
:103330004FF480610161002141618161C1610162DD
:103340004162FEF799FC08B1FDF7DCFD00BF79484A
:103350006063846300BF76487838774908604FF02F
:1033600000604860002174488160C1604FF4806152
:103370000161002141618161C16100E014E00162ED
:103380004162FEF779FC08B1FDF7BCFD00BF6A4859
:10339000A063846300BF002211462520FEF7CAFE09
:1033A0002520FEF7B7FEB8E06449206888423BD18B
:1033B00000BF002000905B48001F006840F48020A0
:1033C0005849091F08600846006800F480200090F2
:1033D00000BF00BF00BF00200090524814380068B2
:1033E00040F004004F49143908600846006800F0B6
:1033F0000400009000BF00BF4FF440600190022025
:10340000029000200390032004900720059001A95A
:103410004B48FEF705FD002211462720FEF78AFEE5
:103420002720FEF777FE78E046492068884274D16D
:1034300000BF002000903B48006840F02000394960
:1034400008600846006800F02000009000BF00BF40
:1034500000BF0020009033481438006840F040005E
:103460003049143908600846006800F040000090B8
:1034700000BF00BF4FF48440019002200290002062
:103480000390032004900820059001A92E48FEF720
:10349000C7FC274818382D4908604FF02060486065
:1034A00040212A4881600021C1604FF480610161A0
:1034B000002141618161C16101624162FEF7DCFB73
:1034C00008B1FDF71FFD00BF20486063846300BFA3
:1034D000174890381E4908608005486000211C4844
:1034E0008160C1604FF480610161002141618161AF
:1034F000C16101624162FEF7BFFB08B1FDF702FD49
:1035000000BF1348A063846300BF00221146472018
:10351000FEF710FE4720FEF7FDFD06B010BD0000CF
:103520000010014044380240000402400000024004
:10353000B8640240E4020020440300200048004038
:10354000000802400014014000180240A4030020BB
:103550000404002070B504460D46164694F83E005B
:10356000202816D105B10EB9012070BD00BF94F816
:103570003C00012801D10220F7E7012084F83C003B
:1035800000BF0020206332462946204600F0B2FDED
:10359000EBE70220E9E770B504460D46164694F8BD
:1035A0003E00202816D105B10EB9012070BD00BF24
:1035B00094F83C00012801D10220F7E7012084F8AB
:1035C0003C0000BF0020206332462946204600F020
:1035D000F9FDEBE70220E9E710B50446204600F0CC
:1035E0002DFF204602F00CFC10BD7047704700BF55
:1035F000FEE7000010B50E480E490860062048603E
:1036000000210C488160C1604FF4403101614FF4EA
:10361000801141610021017641768176C176017782
:103620004177FDF7AAFF08B1FDF76CFC10BD000063
:10363000006400403801002010B50E480E490860B3
:103640000620486000210C488160C1604FF4403181
:1036500001614FF48011416100210176417681764C
:10366000C17601774177FDF788FF08B1FDF74AFC85
:1036700010BD0000006800406001002008B500BFD8
:10368000002000901648006840F48000144908604B
:103690000846006800F48000009000BF00BF0022D0
:1036A00011463920FEF746FD3920FEF733FD002292
:1036B00011463A20FEF73EFD3A20FEF72BFD002290
:1036C00011464520FEF736FD4520FEF723FD00227A
:1036D00011464620FEF72EFD4620FEF71BFD08BDD5
:1036E0003038024000B587B0142102A8FCF7EBFE89
:1036F00000BF002001903548006840F002003349C7
:1037000008600846006800F00200019000BF00BF9A
:1037100000BF002001900846006840F040000860AB
:103720000846006800F04000019000BF00BF00BFE5
:10373000002001900846006840F00100086008463B
:10374000006800F00100019000BF00BF00BF002032
:1037500001900846006840F00800086008460068CC
:1037600000F00800019000BF00BF00BF00200190E2
:103770000846006840F0040008600846006800F051
:103780000400019000BF00BF00BF00200190084668
:10379000006840F0800008600846006800F0800083
:1037A000019000BF00BF002209150948FEF732FC56
:1037B0004FF4806002900120039000200490059057
:1037C00002A90348FEF72CFB07B000BD30380240C9
:1037D000001C024000B587B00020039004900590C3
:1037E00006900190029015481549086053204860E2
:1037F00000211348816040F2E731C160002101617E
:1038000080218161FFF7ECF808B1FDF77BFB4FF4F5
:103810008050039003A90A48FFF7ACF908B1FDF7FF
:1038200071FB00200190029001A90548FFF77EF886
:1038300008B1FDF767FB07B000BD0000000C0040B9
:10384000880100201CB50020009001900E480F490F
:1038500008605320486000210C48816040F2E73145
:10386000C16080218161FFF7BBF808B1FDF74AFB19
:1038700000200090019069460448FFF757F808B10E
:10388000FDF740FB1CBD000000100040D0010020EF
:1038900010B50B480B4908604FF4E1304860002137
:1038A00008488160C16001610C2141610021816192
:1038B000C161FFF79FFC08B1FDF724FB10BD0000BC
:1038C000001001401802002010B50C480C49086097
:1038D0000C4848604FF48051094881600021C16064
:1038E0004FF4806101610C21416100218161C1615E
:1038F000FFF780FC08B1FDF705FB10BD0048004054
:103900005C020020A086010010B50B480B4908603E
:103910004FF4E1304860002108488160C1600161D6
:103920000C21416100218161C161FFF763FC08B195
:10393000FDF7E8FA10BD000000140140A0020020CD
:1039400000BFFEE700BFFEE77047704710B50223D7
:10395000024A1902024800F039FD10BD590000204A
:103960003801002010B5FEF761FB10BD00B593B023
:10397000302107A8FCF7A7FD142102A8FCF7A3FD3E
:1039800000BF002001902448006840F08050224988
:1039900008600846006800F08050019000BF00BF3A
:1039A00000BF002001901D48006840F480401B4982
:1039B00008600846006800F48040019000BF00BF26
:1039C000012007900004089002200D9041050E91FF
:1039D00006210F91A8211091022111910421129129
:1039E00007A8FEF739FD08B1FDF78CFA0F20029009
:1039F00002200390002004904FF4A05005904FF453
:103A000080500690052102A8FEF7E6FB08B1FDF7FD
:103A100079FA13B000BD0000403802400070004049
:103A20000348006840F470000149086070470000D6
:103A300088ED00E010B50248FFF723F910BD000043
:103A40008801002010B50248FFF71BF910BD0000E7
:103A5000D001002010B50268294B98420ED0B0F179
:103A6000804F0BD0274B984208D0274B984205D067
:103A7000264B984202D0264B984203D122F0700286
:103A80004B681A431E4B984220D0B0F1804F1DD096
:103A90001C4B98421AD01C4B984217D01B4B984293
:103AA00014D01B4B984211D01A4B98420ED01A4B8F
:103AB00098420BD0194B984208D0194B984205D028
:103AC000184B984202D0184B984203D122F440720E
:103AD000CB681A4322F080034C6943EA0402026077
:103AE0008B68C3620B688362054B984202D0084B17
:103AF000984201D10B6903630123436110BD0000AB
:103B0000000001400004004000080040000C00409C
:103B100000040140004001400044014000480140D1
:103B200000180040001C00400020004030B50C464A
:103B3000816821F47F4142EA0325254329438160BE
:103B400030BD0A46816821F0700142F00703194335
:103B50008160704730B50B461446026A056A25F04D
:103B600001050562816921F0F00141EA041122F0AA
:103B70000A021A438161026230BD30B50B46144619
:103B8000056A25F0100505628169026A21F4704119
:103B900041EA043122F0A00242EA0312816102628A
:103BA00030BD70B500F0FCFB01F0DCF900F098FDD1
:103BB00002F01AF900F0A0FD0A20FEF71DF9FEF749
:103BC0002FFA002504460CE0FEF72AFA0021021B1A
:103BD00061EB05014FF4FA7300209A1A884100D274
:103BE00000E0F1E700BF70BD70B50546AC6B00208A
:103BF000E085E0842046FFF78BF970BD70B506467E
:103C00000025B46B20684069C0F3C01594F83D00EE
:103C1000212805D125B10020E084204600F0C4F819
:103C200020684069C0F3801594F83E00222805D131
:103C300025B10020E085204600F070F8206C40F0AF
:103C4000100020642046FFF763F970BD70B505468B
:103C5000AC6B2868006800F48070002842D1E085D1
:103C600000BF00BF21680C3151E8001F21F48070B3
:103C700021680C3141E80002002AF3D100BF00BFE7
:103C800000BF2168143151E8001F21F001002168B4
:103C9000143141E80002002AF3D100BF00BF00BF89
:103CA0002168143151E8001F21F0400021681431CF
:103CB00041E80002002AF3D100BF202084F83E0032
:103CC000206B01280ED100BF00BF21680C3151E8E4
:103CD000001F21F0100021680C3141E80002002A89
:103CE000F3D100BF206B012804D1A18D2046FFF73E
:103CF000E9F802E02046FFF76FFC70BD70B505469D
:103D0000AC6B206B012805D1A08D41082046FFF740
:103D1000D9F802E02046FFF768FC70BD00BF00BF85
:103D200002680C3252E8002F22F4907102680C32C3
:103D300042E80013002BF3D100BF00BF00BF0268B0
:103D4000143252E8002F22F001010268143242E8D6
:103D50000013002BF3D100BF016B01290ED100BF6E
:103D600000BF02680C3252E8002F22F010010268F6
:103D70000C3242E80013002BF3D100BF202180F861
:103D80003E1000210163704710B504462068C068EA
:103D900020F040002168C860202084F83D002046C3
:103DA000FFF724FC002010BD00BF00BF02680C32EA
:103DB00052E8002F22F0C00102680C3242E80013E2
:103DC000002BF3D100BF202180F83D107047F8B5DB
:103DD000044694F83E00222873D1A068B0F5805FB5
:103DE0000CD1206950B90025A66A20684068C0F34C
:103DF00008003080A06A801CA06215E0A56A002639
:103E0000A068B0F5805F03D0A06828B9206918B910
:103E100020684068287004E02068406800F07F0057
:103E20002870A06A401CA062E08D401E80B2E08530
:103E3000002844D12068C06820F020002168C860B4
:103E40002068C06820F480702168C86020684069DC
:103E500020F0010021684861202084F83E00206B9A
:103E6000012826D10020206300BF00BF21680C314B
:103E700051E8001F21F0100021680C3141E80002D8
:103E8000002AF3D100BF2068006800F0100010285D
:103E90000AD100BF002000902068006800902068D0
:103EA0004068009000BF00BFA18D2046FFF70AF8D0
:103EB00002E02046FFF790FB0020F8BD01E0002063
:103EC000FBE70220F9E700002DE9F84F04462068DF
:103ED000006920F44050E1680843216808612169C5
:103EE000A068084361690843E169084300902068BD
:103EF000C06849F20C618843009908432168C86092
:103F00002068406920F44070A16908432168486135
:103F100076492068884203D075492068884203D1D9
:103F2000FEF732FA814602E0FEF71EFA8146E069AA
:103F3000B0F5004F6CD102206168A0FB0150034630
:103F40001920A9FB007001462A463846FCF7AEF955
:103F50006421B0FBF1F04FEA001A02206168A0FB77
:103F600001510B461920A9FB00712A463846FCF77F
:103F70009DF9834602206168A0FB01500346192089
:103F8000A9FB00712A463846FCF790F96421B0FB82
:103F9000F1F000EBC00101EB0010ABEB800032212F
:103FA00001EBC0006421B0FBF1F000F0F8000AEB77
:103FB000400A02206168A0FB015003461920A9FBBA
:103FC000007001462A463846FCF770F98346022005
:103FD0006168A0FB015003461920A9FB00712A4625
:103FE0003846FCF763F96421B0FBF1F000EBC00147
:103FF00001EB0010ABEB8000322101EBC00064212B
:10400000B0FBF1F000F007005044216888606AE0DE
:1040100004206168A0FB015003461920A9FB007031
:1040200001462A463846FCF741F982460420616879
:10403000A0FB015003461920A9FB007001462A4647
:104040003846FCF733F96421B0FBF1F000EBC00116
:1040500001EB0010AAEB8000322101EB001064217B
:10406000B0FBF1F000F0F00A04206168A0FB0170E1
:1040700003461920A9FB00513A462846FCF716F9D9
:104080006421B0FBF1F00AEB001A04206168A0FB88
:1040900001510B461920A9FB00712A463846FCF74E
:1040A00005F9834604206168A0FB015003461920EE
:1040B000A9FB007001462A463846FCF7F7F8642150
:1040C000B0FBF1F000EBC00101EB0010ABEB8000A6
:1040D000322101EB00106421B0FBF1F000F00F0081
:1040E000504421688860BDE8F88F0000001001404E
:1040F0000014014077B581B0044615460298A062CD
:10410000A58500202064222084F83E002A48A16B67
:10411000C8632A48A16B08642948A16BC8640020C1
:10412000A16B086502AE32682368191D2B46A06B8F
:10413000FDF718FE00BF0020009020680068009086
:1041400020684068009000BF00BF00BF002084F8D6
:104150003C0000BF206970B100BF00BF21680C3176
:1041600051E8001F41F4807021680C3141E80002E1
:10417000002AF3D100BF00BF00BF2168143151E80D
:10418000001F41F001002168143141E80002002ABB
:10419000F3D100BF00BF00BF2168143151E8001FF8
:1041A00041F040002168143141E80002002AF3D1B7
:1041B00000BF002004B070BD4D3C0008FD3C00086D
:1041C000FD3B000810B5034699629A85DA85002008
:1041D0001864222083F83E0000BF002083F83C00D2
:1041E00000BF186928B11868C06840F480701C6866
:1041F000E0601868406940F001001C686061186860
:10420000C06840F020001C68E060002010BD01463E
:1042100091F83D00212828D18868B0F5805F0BD146
:10422000086948B90A6A1088C0F308000B6858602A
:10423000086A801C086205E00B6A581C086218783E
:104240000B685860C88C401E80B2C88458B9086892
:10425000C06820F080000B68D8600868C06840F033
:1042600040000B68D860002070470220FCE7000087
:1042700010B50248FEF74EFE10BD000018020020E7
:1042800010B50248FEF746FE10BD00005C0200209B
:1042900010B50248FEF73EFE10BD0000A00200204F
:1042A00000BFFEE730B595B005460C46284601F044
:1042B000EBFF022001F0B8FE1E2001F0DFFF03201B
:1042C00001F0B8FE012C15D14FF43970142116A35A
:1042D0000122CDE9001016A109A801F0ADFD2122AF
:1042E0000CA96846FCF7BDF8124809A90EC901F0EF
:1042F000ECFF14E04FF4397014210FA30122CDE933
:1043000000100BA109A801F097FD21220CA9684615
:10431000FCF7A7F8074809A90EC901F0D6FF01F07C
:10432000F3FD15B030BD00004D434C3A4F4E000038
:104330006D636C000C1D00204D434C3A4F46460007
:1043400030B595B004460D46204601F09DFF022091
:1043500001F06AFE142001F091FF032001F06AFED3
:1043600040F2073040F2AA510AA30022CDE9001022
:1043700009A109A801F060FD21220CA96846FCF7FB
:1043800070F8064809A90EC901F09FFF01F0BCFDB5
:1043900015B030BD58544C00787400000C1D00203E
:1043A00010B500F029F80748FDF7A5FA02210548E5
:1043B000FCF7ABFD0448FDF79EFA02210248FCF72A
:1043C000A4FD10BD38010020600100207FB586B03B
:1043D00005460C46164608200490002001900290E5
:1043E000039000948DF8140009AB324669462846C4
:1043F000FCF7A0FD0AB070BD00B58BB0012009909C
:104400000020069005900190029003900490079080
:10441000012008900E200A9001A90648FCF736FEFC
:104420000E2006901C200A9001A90348FCF72EFEDE
:104430000BB000BD380100206001002010B52DED4B
:10444000048B04468F4884427DD18F480078AA2887
:104450007AD10C228C4921318A48FFF77BF88A48AF
:1044600090F82C00AA2805D000208749087000F099
:1044700037F900E1844890F82100C0118249C870E2
:10448000084690F8210000F07F0008710846007986
:1044900000EB4000400088810846C07820B90846FB
:1044A0008089404200B28881774890F82200C0118C
:1044B00075494870084690F8220000F07F00887027
:1044C0000846807800EB400040004881084640786C
:1044D00020B908464089404200B248816A48B0F895
:1044E00023006949C8800846408D0881084690F835
:1044F0002500C0090877084690F82500C0F3801011
:10450000C875084690F82500C0F3401008760846A4
:1045100090F82500C0F3C0004876084690F82500C2
:10452000C0F300108876084690F82500C0F380009C
:10453000C876084690F82500C0F340004877084642
:1045400090F8250001E09AE090E000F00100887703
:10455000084690F82600801008B1012000E00020F5
:1045600049498873084690F8260000F0020091F847
:10457000261001F0010108434349C8730874084636
:10458000807B012804D10846007C404240B2087478
:104590003D4890F8290000F001003B49C8770846E3
:1045A00090F82700001108B1012000E000203649F2
:1045B0000875084690F8270000F00F004875487D00
:1045C00003F0D2FA41EC190B9FED300B53EC102B9A
:1045D00003F0DEFA41EC180B03F080FA40B22A49EE
:1045E00088750846007D012804D10846807D404238
:1045F00040B28875244890F8280040B22249C87417
:104600000846C17E234801F0E3FE2248807818B1B5
:1046100000F016FC00F070F81F4890F900001F49E8
:1046200008701948C07C1C4908701748417F1C4815
:1046300001F0CEFE1A4880781949C978084320B1A4
:104640001148417F0220FFF72DFE0F48817F15485A
:1046500001F0BEFE134880781249C978084350B172
:104660000948817F022000F0FFFB04E00122064997
:104670000448FEF790FF0448543001F052F9BDECB5
:10468000048B10BD18020020C41B0020F6285C8F8C
:10469000C2F5F83FAA000020C2000020C30000209D
:1046A000AE000020B200002002460B46B2F9000026
:1046B000191A002902DA4FF0FF307047052902DB92
:1046C0004FF0FF30F9E702F10900405CFF2802D10A
:1046D0004FF0FF30F1E702F10900405CEDE7000028
:1046E00010B5012202490348FEF755FF10BD000036
:1046F000C41B00201802002000B597B00020FE491E
:104700000870FE4981F8EE02012001F0BDFD06208F
:1047100001F08AFC022001F08DFC002001F084FCF5
:10472000022001F087FC0C2040F2E1114FF470737D
:104730000122CDE90010F2A111A801F0F1FCBDF8B1
:104740005000ADF800009DF852008DF80200EB48D3
:1047500011A90EC901F09EFD07204FF4E1714FF43D
:1047600070730022CDE90010E7A111A801F0D8FC78
:10477000BDF85000ADF800009DF852008DF8020021
:10478000DE4811A90EC901F085FD062001F04CFCA0
:10479000022001F04FFCDE4890F916000F9003F064
:1047A000CCF99FEDDC0B53EC102BCDE910019DED06
:1047B000100B51EC100B02F091FFCDE912019DEDB1
:1047C000120B51EC100B02F057FFD4490860084659
:1047D000006803F09DFC9FEDD20B53EC102BCDE94C
:1047E00008019DED080B51EC100B03F01FF89FED35
:1047F000CE0B53EC102BCDE90A019DED0A0B51ECC9
:10480000100B03F0C5F9CDE90C019DED0C0B02F086
:1048100093F88DED0E0B9FEDC60B53EC102B9DED19
:104820000E0B51EC100B03F0B3F99FEDC30B53ECDF
:10483000102BCDE910019DED100B51EC100B03F086
:10484000A7F9CDE912019DED120B51EC100B02F00E
:1048500013FFBB490860AE48B0F906000D9003F0A5
:104860006CF99FEDB80B53EC102BCDE90E019DEDCB
:104870000E0B51EC100B03F08BF99FEDB40B53ECC6
:10488000102BCDE910019DED100B51EC100B03F036
:104890007FF9CDE912019DED120B51EC100B02F0E6
:1048A000EBFEAC490860084690ED000A02F0F4F90E
:1048B0008DED160AA74890ED000A02F095FA8DEDED
:1048C000150A052001F0B6FB022001F0ADFB9C4863
:1048D00090ED000ABCEEC00A40F28A200021CDE92A
:1048E00000108DED020A40F226230A469AA111A873
:1048F00001F040FBBDF85000ADF800009DF85200FB
:104900008DF802007D4811A90EC901F0C3FC8C4846
:1049100090ED000ABCEEC00A40F2F6400021CDE95D
:1049200000108DED020A40F25A530A468BA111A8DD
:1049300001F020FBBDF85000ADF800009DF85200DA
:104940008DF802006D4811A90EC901F0A3FC0420E6
:1049500001F06AFB7A4890ED000ABCEEC00A40F212
:10496000F6407749D1ED000AFCEEE00ACDED000AF1
:1049700001908DED020A40F28A23002278A111A84D
:1049800001F0F8FABDF85000ADF800009DF85200B3
:104990008DF80200594811A90EC901F07BFC5C4852
:1049A000407F014614900120FFF77CFC5848807F2F
:1049B00001461490012000F057FA0021012000F078
:1049C000A1FA00210120FFF7BBFC022001F02CFB23
:1049D000142001F053FC012001F02CFBFA2081008F
:1049E00060A30022CDE900105FA109A801F024FA1C
:1049F00021220CA96846FBF734FD404809A90EC9DD
:104A000001F063FC052001F00FFB032001F012FB15
:104A10004FF4A57040F2532140F2EE2240F232539F
:104A2000CDE900210290022250A111A801F0CCFB97
:104A3000BDF85000ADF800009DF852008DF802005E
:104A40002E4811A90EC901F025FC072001F0ECFA4F
:104A5000012001F0EFFA4FF4827040F2B451DC22F1
:104A600040F22443CDE900210290002240A111A888
:104A700001F0AAFBBDF85000ADF800009DF852000F
:104A80008DF802001D4811A90EC901F003FC002099
:104A900001F0CAFA052001F0CDFAFA2040F2B55132
:104AA000E62240F22443CDE900210290012231A107
:104AB00011A801F089FBBDF85000ADF800009DF889
:104AC00052008DF802000D4811A90EC901F0E2FB59
:104AD000022001F0A9FA012001F0ACFA4FF4917024
:104AE00040F21E51BE220B46CDE900210290002269
:104AF00021A111A842E00000C40000200C1D0020EC
:104B00007175757500000000717554540000000047
:104B1000C41B00209EEFA7C64B773F400C0100202E
:104B200000000000008066404AD8124DFB21094079
:104B30000000000000804540000000000000084028
:104B400010010020AA8251499D80A63F514CDE00F1
:104B500033DF913F900000206D7A31006D7A320092
:104B60006D7A330043443A006364770076697300DA
:104B7000636400006364630063646C0001F024FB01
:104B8000BDF85000ADF800009DF852008DF802000D
:104B90009D4811A90EC901F07DFB002001F044FAE7
:104BA000042001F047FA4FF4257040F262214FF4DF
:104BB000E1720B46CDE900210290012293A111A8D8
:104BC00001F0D8F9BDF85000ADF800009DF8520092
:104BD0008DF802008C4811A90EC901F05BFB4FF45F
:104BE000E1704FF41B71CDE9000140F26223012214
:104BF00087A1029011A801F0BDF9BDF85000ADF8F1
:104C000000009DF852008DF802007F4811A90EC9DE
:104C100001F040FB40F2E5104FF41B71CDE90001BB
:104C200040F2622301227BA1029011A801F0A2F9B7
:104C3000BDF85000ADF800009DF852008DF802005C
:104C4000714811A90EC901F025FB4FF402704FF411
:104C50001B71CDE9000140F2622301226EA1029096
:104C600011A801F087F9BDF85000ADF800009DF8DB
:104C700052008DF80200644811A90EC901F00AFB28
:104C800040F22B204FF41B71CDE9000140F262236A
:104C9000012262A1029011A801F06CF9BDF8500048
:104CA000ADF800009DF852008DF80200564811A999
:104CB0000EC901F0EFFA40F24E204FF41B71CDE91E
:104CC000000140F26223012255A1029011A801F0D7
:104CD00051F9BDF85000ADF800009DF852008DF874
:104CE0000200494811A90EC901F0D4FA40F271201E
:104CF000411FCDE9000140F26223012249A1029047
:104D000011A801F037F9BDF85000ADF800009DF88A
:104D100052008DF802003C4811A90EC901F0BAFA00
:104D20004FF425704FF41B71CDE9000140F262236E
:104D300001223DA1029011A801F01CF9BDF850001C
:104D4000ADF800009DF852008DF802002E4811A920
:104D50000EC901F09FFA022001F066F9082001F067
:104D600069F94FF4257040F26F214FF4E1720B4660
:104D7000CDE90021029000222CA111A801F0FAF83F
:104D8000BDF85000ADF800009DF852008DF802000B
:104D90001D4811A90EC901F07DFA0D2040F2FD2138
:104DA0004FF4AF630022CDE9001021A111A801F05A
:104DB000B7F9BDF85000ADF800009DF852008DF82D
:104DC0000200114811A90EC901F064FA0D204FF438
:104DD0002F714B000022CDE9001017A111A801F09E
:104DE0009FF9BDF85000ADF800009DF852008DF815
:104DF0000200054811A90EC901F04CFA01200F4923
:104E0000087017B000BD00000C1D00207364000086
:104E10007364320073643300736434007364350068
:104E20007364360073643700736438007364390048
:104E300078746C640000000063736400C400002098
:104E40000120024981F87506704700000C1D002002
:104E500030B5C1F30724531E00F81340012505EBBC
:104E60004303C15430BD000030B595B005460C4633
:104E7000284601F009FA022001F0D6F81E2001F0C0
:104E8000FDF9032001F0D6F8012C15D140F2B22033
:104E9000142116A30122CDE9001016A109A800F0E3
:104EA000CBFF21220CA96846FBF7DBFA124809A9BF
:104EB0000EC901F00AFA14E040F2B22014210FA347
:104EC0000122CDE900100BA109A800F0B5FF2122B5
:104ED0000CA96846FBF7C5FA074809A90EC901F0F5
:104EE000F4F901F011F815B030BD0000434D3A4F10
:104EF0004E000000636D00000C1D0020434D3A4F32
:104F00004646000030B595B004460D46204601F0F7
:104F1000BBF9022001F088F8142001F0AFF903205A
:104F200001F088F840F2C62040F2AA510AA30122FB
:104F3000CDE9001009A109A800F07EFF21220CA9EB
:104F40006846FBF78EFA064809A90EC901F0BDF9BB
:104F500000F0DAFF15B030BD43530000637300006A
:104F60000C1D002010B5122202490348FDF769FF0D
:104F700010BD0000982300205C02002010B586B010
:104F8000044618216846FBF79EFA354800783449F4
:104F9000497840EA0120C0F30A00ADF8000030482B
:104FA0004078C0102E49897840EA4110C0F30A00C9
:104FB000ADF802002A48807880112949C97840EA72
:104FC00081002749097940EA8120C0F30A00ADF841
:104FD00004002348007940102149497940EAC11072
:104FE000C0F30A00ADF806001D48407900118008A2
:104FF0008DF808001A484079C0F301108DF80900B7
:10500000174880791649C97940EA012000B2ADF805
:105010000A001348007A1249497A40EA012001B295
:10502000ADF80C100E48807A0D49C97A40EA01208B
:1050300001B2ADF80E100A48017B8DF81010417BCB
:105040008DF81110807B0649C97B40EA0120ADF83C
:105050001200162269462046FBF7BEF906B010BDC5
:105060009823002030B52DED108B87B00446B0EEAC
:10507000408A0D4684ED008A5DB994ED000A84ED06
:10508000010A9FED950A84ED020A07B0BDEC108B72
:1050900030BD207F20B1012873D0032870D1C5E036
:1050A00094ED010AD4ED020A94ED051A00EE810A8E
:1050B00084ED010A94ED050A10EE101A084603F07B
:1050C00027F841EC1C0B94ED040A20EE000AD4ED05
:1050D000010A94ED001A70EEC10A20EE200A10EECB
:1050E000101A084603F014F841EC1E0B94ED020A66
:1050F00010EE101A084603F00BF8CDE9040194ED08
:10510000040A10EE101A084603F002F89FED730B24
:1051100053EC102BCDE900019DED000B51EC100B71
:1051200002F036FDCDE902019DED040B53EC102B8E
:105130009DED020B51EC100B02F02AFD41EC1F0B10
:1051400053EC1E2B02F0FAFE41EC1D0B53EC1C2B12
:1051500002F01EFD41EC1A0B94ED020A10EE101A3B
:10516000084602F0D5FF41EC1B0B53EC1A2B02F062
:10517000B5FA41EC190B02F07FFAA06082E000E082
:105180007FE094ED040A10EE101A084602F0C0FF0A
:1051900041EC1B0B9FED530B53EC102B02F0F8FC72
:1051A00041EC1A0B53EC1A2B9FED500B51EC100BEA
:1051B00002F03CFB41EC190B02F05EFAA061D4ED69
:1051C000020AB0EE600A01F059FBD4ED020A60EE6B
:1051D000200A94ED010A94ED001A30EE410A94ED94
:1051E000061A00EE810AB0EE409A00F089FB00EE4C
:1051F000100AB8EEC00AD4ED040AF1EE600A20EEFF
:10520000200AF0EE408A94ED010AD4ED020A94EDF2
:10521000051A00EE810A84ED010A94ED020AD4ED2C
:10522000050A08EEA00A84ED020A2BE094ED012A9B
:10523000D4ED002A32EE622AB0EE420A94ED052A3D
:10524000F0EE421A94ED042AB0EE421A94ED022ACE
:10525000F0EE420A00F016FAF0EE408A94ED010AF0
:10526000D4ED020A94ED051A00EE810A84ED010ADC
:1052700094ED020AD4ED050A08EEA00A84ED020AB4
:1052800000E000BF00BF94ED030AB5EEC00AF1EEE6
:1052900010FA1ED094ED020AD4ED030AB4EEE00A2F
:1052A000F1EE10FA04DD94ED030A84ED020A10E039
:1052B00094ED020AD4ED030AF1EE600AB4EEE00ABE
:1052C000F1EE10FA05D294ED030AB1EE400A84ED36
:1052D000020A00BFD9E60000000000000000000044
:1052E000000000C0000000000000004000000000BE
:1052F0000000F03FC0ED030A80ED040A80ED051ABE
:105300000177704710B52DED108B84B00446F0EE98
:10531000408AB0EE608AB0EE419AF0EE619A9FED5D
:10532000BF0A84ED060A84ED050AF5EEC09AF1EE97
:1053300010FA17D0B0EE680A01F0A0FAF0EE000AF9
:1053400069EEA00A80EE201A84ED051AB0EE480A34
:1053500001F094FAF0EE000A69EEA00A80EE201A3D
:1053600084ED061A19EE100A02F0D2FECDE9000112
:1053700018EE100A02F0CCFE41EC1B0B94ED050A6E
:1053800010EE101A084602F0C3FE41EC1D0B9FED13
:10539000A40B53EC102B02F0F9FC41EC1C0B53EC6A
:1053A0001B2B02F0F5FB41EC1E0B18EE900A02F0ED
:1053B000AFFE41EC1B0B94ED060A10EE101A0846E6
:1053C00002F0A6FE41EC1D0B9FED950B53EC102B4C
:1053D00002F0DCFC41EC1C0B53EC1B2B02F0D8FB65
:1053E00041EC1A0B53EC1E2B02F078F941EC1F0B29
:1053F0009DED000B53EC102B02F0A0FDCDE9020156
:105400009DED020B51EC100B02F036F9206019EE05
:10541000100A02F07DFE41EC1E0B18EE100A02F09D
:1054200077FE41EC1B0B94ED050A10EE101A0846AE
:1054300002F06EFE41EC1D0B9FED790B53EC102B2F
:1054400002F0A4FC41EC1C0B53EC1B2B02F0A0FB64
:10545000CDE9000118EE900A02F05AFE41EC1B0B58
:1054600094ED060A10EE101A084602F051FE41ECC7
:105470001D0B9FED6B0B53EC102B02F087FC41ECE6
:105480001C0B53EC1B2B02F083FB41EC1A0B9DED24
:10549000000B53EC102B02F051FD41EC1F0B53ECB1
:1054A0001E2B02F01BF9CDE902019DED020B51EC20
:1054B000100B02F0E1F8606019EE100A02F028FE0D
:1054C00041EC1F0B18EE100A02F022FE41EC1B0B00
:1054D00094ED050A10EE101A084602F019FE41EC90
:1054E0001D0B9FED4F0B53EC102B02F04FFC41ECCA
:1054F0001C0B53EC1B2B02F04BFB41EC1E0B18EE6C
:10550000900A02F005FE41EC1B0B94ED060A10EE2A
:10551000101A084602F0FCFD41EC1D0B9FED400BFC
:1055200053EC102B02F032FC41EC1C0B53EC1B2B08
:1055300002F02EFB41EC1A0B53EC1E2B02F0CEF8BE
:1055400053EC1F2BCDE900019DED000B51EC100B2E
:1055500002F0C4F8CDE902019DED020B51EC100BF5
:1055600002F08AF8A06019EE100A02F0D1FD41ECB9
:105570001E0B18EE100A02F0CBFD41EC1B0B94ED54
:10558000050A10EE101A084602F0C2FD41EC1D0B90
:105590009FED230B53EC102B02F0F8FB41EC1C0B9E
:1055A00053EC1B2B02F0F4FA41EC1F0B18EE900A9F
:1055B00002F0AEFD41EC1B0B94ED060A10EE101A42
:1055C000084602F0A5FD41EC1D0B9FED150B53ECB9
:1055D000102B02F0DBFB41EC1C0B53EC1B2B02F0FD
:1055E000D7FA41EC1A0B53EC1F2B02F0A7FC53EC3B
:1055F0001E2BCDE900019DED000B51EC100B02F0CC
:105600009DFCCDE902019DED020B51EC100B02F067
:1056100033F8E06004B0BDEC108B10BD000000005A
:10562000000000000000F03F10B52DED068BB0EE3D
:10563000408AF0EE608A78EE280AB0EE600A00F048
:105640005FF9014678EE680AB0EE600A00F058F99A
:105650000C1A204602F071FA41EC1A0B9FED070B71
:1056600053EC102B02F094FA41EC190B02F004F801
:1056700000EE100ABDEC068B10BD0000000000001B
:105680000000E03F10B52DED108B82B0B0EE40FA77
:10569000F0EE60FAB0EE418AF0EE618A28EE280A58
:1056A00020EE280A8A4880ED000A28EEAF0A8948D1
:1056B00080ED000A90ED000A3FEE000A864880ED7A
:1056C000000A90ED000A01F0D9F810EE104A2046C9
:1056D00002F01EFD41EC1E0B9FED800B53EC102BD6
:1056E00002F056FA41EC1C0B7948006802F010FDFC
:1056F00041EC1D0B53EC1C2B01F0F0FF41EC1A0B9D
:105700007348006802F004FD41EC1B0B53EC1A2BAC
:1057100002F03EFA41EC190B01F0AEFF01909DED55
:10572000010A01F029FC6F4880ED000A6A4890EDFB
:10573000000A00F0E5F800EE100AB8EEC00A694869
:10574000D0ED000A624890ED001A70EEC10A20EE1A
:10575000200A10EE104A204602F0DAFC41EC1C0B45
:105760009FED610B53EC102B02F012FA41EC1A0B77
:105770005848006802F0CCFC41EC1B0B53EC1A2B90
:1057800001F0ACFF41EC190B01F076FF58490860BD
:105790004F48D0ED000A504890ED000AFFF744FF53
:1057A00010EE104A204602F0B3FC41EC1E0B9FEDB8
:1057B000510B53EC102B02F0E9FA41EC1D0B4C4855
:1057C000006802F0A5FC41EC1C0B53EC1D2B02F011
:1057D000DFF941EC1A0B3E48D0ED000A3E4890ED4F
:1057E000000AFFF721FF3B48D0ED000A3A4890ED50
:1057F000001A70EE810A20EE200A10EE104A2046B0
:1058000002F086FC41EC1B0B53EC1A2B01F066FFF7
:1058100041EC190B01F030FF384908602C48D0EDFD
:10582000000A084690ED000AFFF7FEFE10EE104A4F
:10583000204602F06DFC41EC1C0B9FED2E0B53EC4F
:10584000102B02F0A3FA41EC1A0B2C4890ED000A41
:1058500000F056F800EE100AB8EEC00A20EE080A72
:1058600010EE104A204602F053FC41EC1B0B53ECA7
:105870001A2B02F08DF941EC190B2048D0ED000AEB
:10588000134890ED001A80EE810AF1EE480A20EEEE
:1058900020AAD0ED000A194890ED000AFFF7C4FED7
:1058A0002AEE000A10EE104A204602F031FC41ECCC
:1058B0001D0B53EC192B02F041FB41EC1E0B01F0C8
:1058C000DBFE00EE100A02B0BDEC108B10BD000034
:1058D0001C01002020010020240100200000000005
:1058E0000000204028010020000000000000E03FF0
:1058F0002C010020000000000000F03F30010020DB
:10590000B5EEC00AF1EE10FA01DD01207047B5EEE8
:10591000C00AF1EE10FA02D24FF0FF30F6E7002095
:10592000F4E710B50446FCF77BFB206010BD0000D7
:1059300010B52DED108B0446B0EE408AB0EE60FA43
:10594000F0EE418AF0EE61FA94ED010A08EE2F0ABA
:1059500084ED000A1FEE100A02F0DAFB41EC1C0B8A
:1059600018EE900A02F0D4FB41EC1E0B9FED120BD7
:1059700053EC102B02F00AFA41EC1D0B53EC1C2BDC
:1059800002F006F941EC1A0B28EE880A10EE101A04
:10599000084602F0BDFB41EC1B0B53EC1A2B01F047
:1059A0009DFE41EC190B01F067FE606094ED010A69
:1059B000BDEC108B10BD0000000000000000F03FA7
:1059C00070B52DED0A8B0446B0EE408A0D4684ED8D
:1059D0000B8A012D02D0022D7ED149E094F84D00B2
:1059E000C8B994ED0E0A10EE101A084602F090FBAA
:1059F00041EC1A0B9FED630B53EC102B02F0C8F82F
:105A000041EC190B01F038FEA06594ED0E0A20EE72
:105A1000000A84ED170A94ED0B0AD4ED080A30EE63
:105A2000600A84ED100A94ED090AD4ED160A94ED8B
:105A3000101A00EE810AD4ED0D0A94ED0C1A00EE56
:105A4000810A94ED121AD4ED080A40EE010AC4ED61
:105A5000080A94ED170AD4ED100A60EE200A94EDBE
:105A6000121A94ED090A00EE810A84ED090A84E015
:105A700094F84D0088BB94ED0E0A10EE101A0846FB
:105A800002F046FB41EC1A0B9FED400B53EC102B40
:105A900002F07EF841EC190B01F0EEFDA06594EDEB
:105AA0000E0A10EE101A084602F032FB41EC1A0BF7
:105AB00094ED0E0A10EE101A084602F029FB41EC94
:105AC0001C0B9FED320B53EC102B02F061F841ECF4
:105AD0001B0B53EC1A2B01E04EE010E002F058F8DB
