:020000040800F2
:100000003027002051020008FF380008D7340008CC
:10001000FD3800088B040008DD3E000800000000E9
:10002000000000000000000000000000033900088C
:1000300053050008000000000139000805390008D8
:100040006B0200086B0200086B0200086B020008DC
:100050006B0200086B0200086B0200086B020008CC
:100060006B0200086B0200086B020008B504000870
:10007000C10400086B020008CD0400086B020008F0
:100080006B020008D90400086B0200086B0200082C
:100090008D040008950400086B0200086B0200083C
:1000A0006B0200086B0200086B0200086B0200087C
:1000B000193900086B0200086B0200086B02000887
:1000C0006B0200086B0200086B0200086B0200085C
:1000D0006B020008B93E00086B020008C53E00082C
:1000E0006B0200086B0200086B0200086B0200083C
:1000F0006B0200086B0200086B0200086B0200082C
:100100006B0200086B020008253900086B0200082A
:100110006B0200086B020008313900083D39000805
:100120006B020008E50400086B0200086B0200087F
:100130006B0200086B0200086B0200086B020008EB
:10014000A1040008A90400086B0200086B02000863
:100150006B020008F10400086B020008D13E0008A1
:100160006B0200086B0200086B0200086B020008BB
:100170006B0200086B0200086B0200080000000020
:100180006B0200086B020008DD3B0008E93B000839
:100190006B0200086B0200086B0200086B0200088B
:1001A00000000000000000006B02000800F002F8F0
:1001B00000F03EF80AA090E8000C82448344AAF1C3
:1001C0000107DA4501D100F033F8AFF2090EBAE8C1
:1001D0000F0013F0010F18BFFB1A43F0010318477B
:1001E0007065000090650000103A24BF78C878C19F
:1001F000FAD8520724BF30C830C144BF04680C602D
:10020000704700000023002400250026103A28BF74
:1002100078C1FBD8520728BF30C148BF0B60704778
:100220001FB506F076FA00F0D5F81FBD10B510BD69
:1002300000F0F6F81146FFF7F3FF05F031FC00F08F
:1002400014F903B4FFF7F2FF03BC00F017F9000044
:100250000948804709480047FEE7FEE7FEE7FEE75A
:10026000FEE7FEE7FEE7FEE7FEE7FEE70448054996
:10027000054A064B7047000009390008AD01000827
:1002800030210020302700203023002030230020A0
:1002900053EA020C00F069802DE9F04B4FF00006A4
:1002A000002B1FBFB3FA83F503FA05F424FA05F611
:1002B0005E4012BF1643B2FA82F502FA05F4C5F1A8
:1002C00020051EBF22FA05FC44EA0C04203556EA3C
:1002D000044C4FEA144418BF641C4FF000084FF060
:1002E0000009904271EB030C39D3002919BFB1FA10
:1002F00081F701FA07F6B0FA80F700FA07F6C7F1BE
:1003000020071EBF20FA07FC46EA0C062037B6FB82
:10031000F4FCA7EB0507103F07F01F0BCBF12006FD
:100320002CFA06F60CFA0BFB44BFB3460026202F2E
:10033000A4BF5E464FF0000B5BEA060C08BF4FF00F
:10034000010B19EB0B0948EB0608ABFB027C06FB23
:1003500002CC0BFB03CCC01B71EB0C01C1E70B46BD
:10036000024641464846BDE8F08B13B5084318BF26
:100370004FF0FF300146AFF30080BDE81C407047EE
:100380004FF0000200B5134694469646203922BF2E
:10039000A0E80C50A0E80C50B1F12001BFF4F7AF79
:1003A000090728BFA0E80C5048BF0CC05DF804EB5B
:1003B000890028BF40F8042B08BF704748BF20F8C9
:1003C000022B11F0804F18BF00F8012B70477047C7
:1003D0007047704770B5064C7C44064D7D4404E080
:1003E0002046016808448047241DAC42F8D170BD06
:1003F000946300009463000010B500F009F80068F1
:1004000010BD10B5044600F003F8046010BD0000F4
:1004100000487047A000002000487047A00000205E
:100420007546FFF7F9FFAE4605006946534620F0D2
:100430000700854618B020B5FFF718FFBDE820403B
:100440004FF000064FF000074FF000084FF0000B90
:10045000AC46ACE8C009ACE8C009ACE8C009ACE8FF
:10046000C00921F007018D46704710B50446AFF36F
:1004700000802046BDE81040FFF7E3BE0149182088
:10048000ABBEFEE7260002007047FEE7034800F01F
:10049000B3B900BF014800F0AFB900BF001700209A
:1004A000034800F0A9B900BF014800F0A5B900BF9A
:1004B00028170020014800F08DBC00BF70180020F4
:1004C000014800F087BC00BFB0170020014800F0D1
:1004D00081BC00BF50170020014800F07BBC00BF6A
:1004E00010180020014800F075BC00BFD018002093
:1004F000014800F06FBC00BF3019002010B5016842
:100500006FF00F02182308A452FA81F2B2FBF3F342
:100510005F2AE35C40F2FF3421EA040188BF043122
:10052000C0E91613084610BD000610160006101686
:10053000B0B50468806825684028084625F4802501
:100540002560636008BF1046A06008BF0A46E260ED
:10055000B0BD7047EFF3108072B6FEE790F8202030
:10056000013A012A04D8006800F11402002004E0D6
:1005700000F1240201204FF4802113681943116017
:10058000704770B590F820600468013EA568012EA0
:100590000CD815F0E05F0FD0C5F30165032D11D124
:1005A00000F1240101204FF4000232E000F12401A7
:1005B00001204FF480222CE000F1240101204FF4AF
:1005C000001226E00120A8401860886818B14B6826
:1005D00040EAC30301E00868430504EB0510D1E9D4
:1005E00003452343C0F88031C0F88451097D0129B7
:1005F00005D100F5C2710B6843F480730B6051683C
:10060000C0F88C1111680122C0F8881100F5C07182
:1006100000200B681A430A6070BD0000F0B590F826
:100620002020013A012A29D83048026842F001020C
:100630000260026822F47C520260CD694C694A6A09
:10064000036843EA02220123012D026004F01F0225
:1006500003FA02F2C36923EA0203C3616FEA0203E9
:1006600012D025BBC5681D40C56000EBC405CE682F
:100670008F8847EA06462E640D4611E0416A41F430
:10068000802141620120F0BDC5681543C56000EBC3
:10069000C4050E688F8847EA06462E6401F10C05F2
:1006A0008E682D8800EBC40445EA064565644468FD
:1006B0008F690E69096A44EA0205002F08BF04EA3F
:1006C00003054560002E446944EA020508BF04EAB8
:1006D00003050129456102D1C1691143C161016866
:1006E00021F0010101600020F0BD00BF0066004064
:1006F000704770B590F82040013C012C03D8046885
:1007000039B1256906E000F1240101204FF480226F
:100710006DE0E568AD0760D004EB0114D4F8B0518A
:1007200015F00405956004F5D875D4F8B06119BFCB
:10073000F6085660760D16602D6805F00205D56046
:10074000D4F8B45105F00F051561D4F8B451C5F3D0
:1007500007259561D4F8B4514FEA15455561D4F891
:10076000B8211A70026802EB0112D2F8B8214FEAE0
:1007700012225A70026802EB0112D2F8B8214FEA35
:1007800012429A70026802EB0112D2F8B8214FEAC5
:100790001262DA70026802EB0112D2F8BC211A71FF
:1007A000026802EB0112D2F8BC214FEA12225A7100
:1007B000026802EB0112D2F8BC214FEA12429A7190
:1007C000026802EB0112D2F8BC214FEA1262DA7120
:1007D000006841B100F1100107E000F1240101209F
:1007E0004FF4001203E000F10C01002020220B68FE
:1007F0001A430A6070BD00002DE9F84F04460068F6
:100800004669D0F804908768D0F80CB0D0F810A0F2
:10081000D0F81880F10701D1002545E0F9070FD085
:1008200001218160B80708D4780720D4380700F187
:10083000BB80204600F074FA02E0204600F071FA16
:100840000025F80518D520684FF480718160B8053F
:1008500009D478050ED438054EBF05F580452046ED
:1008600000F060FA08E0204600F05DFA04E04FF482
:100870000065E6E705F50055F80315D520684FF447
:1008800080318160B80309D478030BD438034EBF9C
:1008900005F58035204600F047FA05E0204600F0D7
:1008A00044FA01E005F50045300707D51BF01000BC
:1008B00004D02068102145F40075C160700708D588
:1008C0001BF0080005D020680821C160204600F018
:1008D0008BF9B00706D52068C068800702D0204693
:1008E00000F084F9700607D51AF0100004D02068D3
:1008F000102145F480650161B00608D51AF00800A2
:1009000005D0206808210161204600F0DBF9F006DF
:1009100006D520680069800702D0204600F0D3F990
:10092000B00308D519F0100005D0206810214160EF
:10093000204600F0C9F9F00308D519F0080005D0E9
:10094000206808214160204600F0F0F9300444D5C9
:100950005FEA49703ED506F480705FEA887108EA64
:10096000102040EA0500014648BF41F00201B205EF
:1009700058BF01465FEA48700D4648BF45F0040580
:10098000700558BF0D46300524D518F0700021D0F1
:1009900010380009052818D8DFE800F003090C0F0B
:1009A000121545F0080510E04FF4805549E745F071
:1009B00010050AE045F0200507E045F0400504E099
:1009C00045F0800501E045F480752068816921F0DB
:1009D000700181612068042141603DB1606A284353
:1009E00060622046BDE8F84FFFF782BEBDE8F88F91
:1009F00070B5C0B1044690F8200010B9204600F050
:100A00006FF82068016841F00101016000F048FCC6
:100A1000054620684168C90707D100F041FC401B2A
:100A20000B28F6D311E0012070BD016821F002010E
:100A3000016000F035FC05462068416889070BD548
:100A400000F02EFC401B0B28F6D3606A052140F411
:100A500000306062012040E0217E0268261D22F005
:100A60008003012908BF42F080030360617E0268B1
:100A700022F04003012908BF42F040030360A17E39
:100A8000026822F02003012908BF42F0200303601E
:100A9000E17E026842F01003012908BF22F0100332
:100AA0000360217F026822F00803012908BF42F099
:100AB00008030360617F026822F00403012908BF74
:100AC00042F0040303606ECE1A432A4301393243D5
:100AD0001143C16100200121606284F8201070BDC3
:100AE000B0B586B0044601A81421FFF749FC206880
:100AF0003849884226D03849884269D13848016847
:100B00004A1C0260354851B900210091016941F049
:100B100000710161016901F00071009100990021EB
:100B2000152414250091016841F008010160006856
:100B300000F008000090032001900098294800F57B
:100B400000602AE000212548254B0091026942F00F
:100B50008062026102691C68651C02F080621D608F
:100B60000092009A4CB90091026942F00072026151
:100B7000026902F000720092009A0091412440251F
:100B8000016841F002010160006800F0020000907D
:100B90004FF440500190009812480921059103211B
:100BA0000491002103910221029101A900F098FA19
:100BB00028460021002200F0E1FB284600F0D0FB8F
:100BC00020460021002200F0D9FB204600F0C8FB9F
:100BD00006B0B0BD006800400064004030380240FC
:100BE0000004002000040240704700002DE9F0439B
:100BF00085B005462D482C4E002100F1680406F111
:100C0000300228462346FFF774FD294885421AD052
:100C10002848854244D106F13C0C06F130039CE89B
:100C2000A1100ECB8DE8A1100494234C204603F0B4
:100C30001FFF94ED010A06F14C00012105B0BDE84B
:100C4000F04304F0CDB806F13C0C06F13003DFF8B8
:100C50006C90DFF86C809CE8A1100ECB8DE8A110A1
:100C600009F120000494C04706F13003D6E90F07CC
:100C7000D6E9115C0ECBCDE9000709F11000CDE9F2
:100C8000025C0494C04706F13C0706F13003B66CE1
:100C9000A1CF0ECB8DE8A1004846CDE90364C04743
:100CA00005B0BDE8F08300BF600200207C01002099
:100CB0000017002028170020C0160020EC0100209B
:100CC00091560008704770477047B0B5044690F8D9
:100CD000200001281BD1022084F820002068016830
:100CE00021F00101016000F0DBFA05462068406850
:100CF000C00712D000F0D4FA401B0B28F6D3606A6C
:100D000040F400306062052084F8200003E0606A4F
:100D100040F4002060620120B0BD00206062B0BDE0
:100D2000704770477047704770477047704770B59D
:100D3000866D044600F0B4FA054694F835000228A2
:100D40001ED12068216C026822F0160202604269FE
:100D500022F08002426109B9A16C19B1016821F049
:100D600008010160016821F0010101600068C0070D
:100D70000AD000F095FA401B05280FD82068F5E747
:100D80008020606501200EE0E06D3F2101FA00F057
:100D9000B060012084F83500002004E02020606568
:100DA000032084F83500002184F8341070BD90F8D9
:100DB0003510022909D1052180F835100068016835
:100DC00021F0010101600020704780214165012070
:100DD00070470000F8B504460020594A08210090E9
:100DE000D4E9166015683768814039420CD0226812
:100DF00013685B0708D5136823F004031360B16020
:100E0000616D41F00101616501218140394208D0E5
:100E100022685269120604D5B160616D41F0020189
:100E2000616504218140394208D022681268920726
:100E300004D5B160616D41F004016165102181400C
:100E4000394217D020680268120713D5B1600268D2
:100E50000168520306D4C90506D4016821F00801CF
:100E6000016001E0080301D4216C00E0A16C09B12C
:100E700020468847E16D202000FA01F23A423BD03B
:100E800020680368DB0637D5B26094F83530026815
:100E9000052B19D122F016020260426922F080026D
:100EA0004261226C0AB9A26C1AB1026822F00802EF
:100EB00002603F208840B060002084F834000120A8
:100EC00084F83500216D37E0016852030CD4C90560
:100ED0000ED4016821F010010160002084F8340074
:100EE000012084F8350003E0080301D4616C00E0C0
:100EF000E16B09B120468847606D00B3606DC007A3
:100F000019D005214FF4165084F83510B5FBF0F0D8
:100F100021680A6822F001020A60009A01328242C6
:100F2000009202D80A68D207F7D1002084F8340072
:100F3000012084F83500E16C09B120468847F8BDEE
:100F4000340000202DE9F041044600F0A9F9ACB1CD
:100F50000546022084F835000020216884F834001A
:100F6000086820F0010008600868C00709D000F098
:100F700097F9401B052838D82168F5E70120BDE81E
:100F8000F0810868271D344AE8CF00EA020ED4E950
:100F9000050CD4E9072843EA0E032B4333433B43B4
:100FA0001843636A40EA0C001043042B40EA08022D
:100FB0001FD1D4E90A53206B1A4340EA02000860AB
:100FC00051F8140F20F0030040EA050040F004023D
:100FD000B3B1BCF5005F24D0BCF1000F31D1022DBC
:100FE00032D0012D27D0002D2DE00326202703200D
:100FF00012E00A6051F8140F20F0070040EA0302E3
:1010000020460A60FFF77AFAE16D3F2200270126A9
:1010100002FA01F181600020676584F83560BDE85F
:10102000F081032DECD8012640270120DFE805F0F0
:10103000020C0203F0E7A3F1C070B0FA80F040099F
:1010400004E0032D04D3DBD1C3F300600028D7D024
:10105000012640270120DFE73F8010F0B0B50446AD
:1010600090F83400012828D00120A56D84F83400C0
:1010700094F8350001281DD1022084F835000020A5
:1010800060652046FFF754FAE26D3F232068216C2B
:1010900003FA02F2AA60026842F01602026019B175
:1010A000016841F008010160016841F0010101603F
:1010B0000020B0BD002084F834000220B0BD000044
:1010C000B0B5044600F0ECF805469748611C00787E
:1010D00018BF044400F0E4F8401BA042FAD3B0BDAE
:1010E0002DE9FC4F654A0A244FF0010B4FF000092F
:1010F0004FF0000A9042624A08BF092402444FEAB6
:10110000B223092B4FF0000338BF4FEAB2240094FA
:10111000202B08BFBDE8FC8F0F680BFA0AF6374298
:1011200000F0A5804F6807F00308A8F10104012C26
:1011300018D8032285684FEA4A0E02FA03F425EA1A
:10114000040CCD689D4045EA0C058560C7F3001589
:1011500005FA0AFC4568B54345EA0C056FEA040C3C
:1011600045600CE00324B8F1030F9E4604FA03F433
:101170006FEA040C03D19E464FF0030821E0C468D7
:101180008D68B8F1020F04EA0C0405FA0EF544EA82
:101190000504C46015D109F01C040F2202FA04F8FA
:1011A0006FF0030202EA5A0707443D6A25EA08087D
:1011B0000D6905FA04F444EA08043C624F6807F03C
:1011C0000308056808FA0EF417F4403F05EA0C0519
:1011D00044EA050404604AD000222AF00307019281
:1011E0002A4A146844F48044146014680F2204F4FA
:1011F0008044019409F00C0402FA04FC214A019D88
:1012000096461744224ABD589046009A25EA0C0596
:1012100002FA04F42C4347F80840DEF808404F680F
:10122000FA0244EA0605184A58BF24EA0605CEF831
:101230000850BD029446126842EA060458BF22EAEA
:101240000604CCF80040BD03DEF8042042EA0604A0
:1012500058BF22EA0604CEF80440FD03DEF8002061
:1012600042EA060458BF22EA0604CEF8004009F11B
:10127000040902330AF1010A4AE700BF00240240D0
:101280000000FEBF003C01400C3C014044380240DD
:1012900008FCFFFF002A08BF0904816170470000B5
:1012A00005480068704700BF1F48034900780A6876
:1012B00010440860704700BF781F002080B50B48BD
:1012C000016841F400710160016841F480610160CE
:1012D000016841F480710160032000F06BF80F2079
:1012E00000F006F800F022F8002080BD003C02402B
:1012F00070B50D4E04464FF47A713078B1FBF0F0C2
:10130000A2490968B1FBF0F000F010FB01250F2C99
:1013100008D838B94FF0FF3021460022002500F0F0
:101320002DF87460284670BD2C00002082B000208B
:10133000404901904A6842F480424A604A6802F497
:1013400080420192019A0090086840F08050086045
:10135000086800F080500090009802B0704700BF0D
:10136000002808D400F01F010122400902FA01F10F
:10137000014A42F82010704700E100E070B5134BBD
:101380004FF0FF351B68C3F30223DC1E83F0070315
:1013900038BF0024042B28BF042305FA04F605FAFD
:1013A00003F3B2439943A1401143BDE8704004F0F8
:1013B00065BB00BF05494FF6FF030A681A4060F39A
:1013C0000A22034810430860704700BF0CED00E09C
:1013D0000000FA057CB50020174E184D0190154805
:1013E000016841F080510160006800F08050019078
:1013F000019801203060FFF753FF04462868C003BE
:1014000006D4FFF74DFF001BB0F57A7FF6D90DE04B
:1014100001207060FFF744FF04462868800307D46A
:10142000FFF73EFF001BB0F57A7FF6D903207CBDA5
:1014300000207CBD4038024040000E420470004055
:101440002DE9F041002860D0434B04468846D3F88C
:10145000000400F00F00884207D283F80084D3F81C
:10146000000400F00F0040454FD12068810711D5DE
:10147000410703D5996841F4E0519960010703D50C
:10148000996841F460419960A1689A6822F0F0027D
:1014900011439960C00731D1D3F8000400F00F0068
:1014A000404507D983F80084D3F8000400F00F000A
:1014B00040452AD12068410705D5E1689A6822F4A1
:1014C000E05211439960000706D52069996821F41C
:1014D000604141EAC00098601C4600F05DF8A168D8
:1014E0001E4AC1F30311515CC840284908601C48DA
:1014F0000068FFF7FDFE0020BDE8F0816068811EF6
:10150000022905D21968890107D40120BDE8F081BC
:1015100001281DD119688903F7D599681D4621F066
:10152000030108439860FFF7BBFE064641F2883787
:101530006068A9682B4601F00C01B1EB800FABD0BD
:10154000FFF7AEFE801BB842F2D90320BDE8F08160
:1015500019688907D9D5E0E70038024036670008E6
:101560003000002009480A490A4A00680968C1F3A6
:101570008221515CC840704704480549054A00680B
:101580000968C1F34231515CC84070473400002003
:10159000083802404667000810B5134C606800F038
:1015A0000C00082804D0042814BF1048104810BDAF
:1015B000226820680023400202F03F020C485CBF12
:1015C00042F20040C0F2F4002168C1F38811A0FB90
:1015D0000101FEF75DFE21680222C1F3014102EB29
:1015E0004101B0FBF1F010BD043802400024F400CA
:1015F000001BB7002DE9FC41002864D004460078A8
:10160000C74EC0070BD0B06800F00C00042840F0B3
:1016100097803068800302D56068002853D0207816
:1016200080071AD5B06810F00C0F09D0B06800F030
:101630000C00082840F0AA807068400200F1A680E3
:101640003068800702D5E06801283CD12069316804
:1016500021F0F80141EAC00030602078000735D45D
:101660002078400746D4A76957B3B06800F00C0053
:10167000082840F0CB80012F25D0E169706800F484
:1016800080028A421FD1216A00F03F028A421AD1A9
:1016900047F6C071626A0140B1EB821F13D1A16AA3
:1016A0004FF6FF72C903914300F44032A1F5803137
:1016B0008A4208D1E16A00F07060B0EB016F02D19C
:1016C0000020BDE8FC810120BDE8FC8161699548EE
:1016D000002900F089800121C0F8801EFFF7E0FD9D
:1016E0000546706F8007BBD4FFF7DAFD401B022868
:1016F000F7D988E0306C4FF00008C0000CD4CDF86A
:1017000004804FF00108306C40F080503064306C41
:1017100000F0805001900198834F3868C00548D48C
:10172000386840F480703860FFF7BAFD05463868C5
:10173000C0053ED4FFF7B4FD401B0228F7D962E094
:10174000B06800F00C00082803D1706840023FF533
:1017500060AF6768B7F5803F07D03068B7F5A02F56
:1017600040F0A58040F480203060306840F4803044
:101770003060FFF795FD0546306880033FF54FAFB9
:10178000FFF78EFD401B6428F6D93CE0E068002896
:101790005BD0644801210160FFF782FD0546306897
:1017A00080073FF553AFFFF77BFD401B0228F6D9BA
:1017B00029E0A768012F05D0306F052F56D140F0E2
:1017C00004003067306F40F001003067FFF768FDBC
:1017D000054641F28837306F80075FD4FFF760FD20
:1017E000401BB842F7D90EE00021C0F8801EFFF779
:1017F00057FD0546706F80077FF532AFFFF750FD4C
:10180000401B0228F6D90320BDE8FC814549002091
:1018100088460866FFF744FD0546022F0AD1474671
:10182000306880015CD5FFF73BFD411B0320022996
:10183000F6D946E7306880017FF542AFFFF730FD0B
:10184000411B03200229F5D93BE7364800210160FE
:10185000FFF726FD0546306880077FF5FEAEFFF7EF
:101860001FFD411B03200229F5D92AE720F00100C2
:101870003067306F20F004003067FFF711FD054638
:10188000002FA6D141F28837306F800706D5FFF7C9
:1018900007FD411B0320B942F6D912E7B8F1000F4A
:1018A0003FF4E1AE306C20F080503064DBE620F491
:1018B00080303060306820F480203060FFF7F0FC2A
:1018C0000546002F7FF458AF06E0FFF7E9FC411B07
:1018D000032064293FF6F5AE30688003F5D49EE618
:1018E0001C341FCC0843D90340EA82104FF6FF7224
:1018F000914340EA0460A1F5803108437060012003
:101900003866FFF7CDFC0446306880013FF5D8AE5D
:10191000FFF7C6FC011B03200229F5D9D1E600BF61
:10192000003802400000474200700040411E002085
:10193000B0EB116F1CBF01207047044AF0235160C7
:1019400003490B70072190601160704710E000E0C0
:1019500023ED00E07047704710B590F83C3002224C
:10196000012B30D080F83D20012280F83C20026815
:101970000B685468B2F1804F24F0700444EA030409
:101980009368546014D07F4CA24211D07E4CA24286
:101990000ED07E4CA2420BD07D4CA24208D07D4C92
:1019A000A24205D07C4CA24202D07C4CA24204D17F
:1019B000496823F08003194391600022012180F8D7
:1019C0003C2080F83D10104610BD00BF40B310B55C
:1019D000044690F83D0028B9002084F83C002046D9
:1019E00000F020F80220211D84F83D00206801F05D
:1019F000ABFF012084F8460084F83E0084F83F00E5
:101A000084F8400084F8410084F8420084F84300E0
:101A100084F8440084F8450084F83D00002010BD9F
:101A20000120704710B586B0044601A81421FEF7C6
:101A3000A7FC206800F140404FEAB02005286AD892
:101A4000DFE800F00369692F425500203349009018
:101A50000A6842F001020A600A6802F0010200927C
:101A6000009A009051F8102C42F0010241F8102C1D
:101A700051F8101C01F00101009101210591CDE9FF
:101A80000300022001A90290032001900098F14870
:101A9000FFF726FB1C2000210022FFF76FFC1C2013
:101AA00037E00020002200901C48016841F0080146
:101AB00001600121006800F00800009000983220C9
:101AC000FFF75CFC322024E0002000220090134845
:101AD000016841F0100101600121006800F0100070
:101AE000009000983620FFF749FC362011E00020D6
:101AF000002200900948016841F0200101600121A5
:101B0000006800F02000009000983720FFF736FCB6
:101B10003720FFF725FC06B010BD00BF403802405B
:101B200090F83D1001291CBF01207047022180F868
:101B30003D100068C168B0F1804F41F00101C16003
:101B400014D01049884211D00F4988420ED00F4955
:101B500088420BD00E49884208D00E49884205D0F1
:101B60000D49884202D00D49884204D1816801F0B4
:101B70000701062903D0016841F00101016000203E
:101B8000704700BF0004004000080040000C004007
:101B900000180040000001400040014000040140E6
:101BA00010B590F83C2004460220012A70D084F839
:101BB0003D0001204FF6777384F83C00206882686E
:101BC0009A4382600A6812B3102A20D0202A1ED0BD
:101BD000302A1CD0402A21D0502A2BD0602A35D060
:101BE000B2F5005F3ED0B2F5805F4AD0702A50D186
:101BF000D1E90123C9681A4342EA0121826822F42B
:101C00007F4211438160816841F0770138E081684B
:101C100021F07001114341F0070131E04B68CA68BF
:101C2000194601F0B9FF2068816841F0470121F0B1
:101C3000300125E04B68CA68194601F0ADFF206805
:101C4000816841F0570121F0200119E04B68CA6812
:101C5000194601F0B2FF2068816841F0670121F068
:101C600010010DE0D1E90123C9681A4342EA0121BC
:101C7000826822F47F4211438160816841F480418F
:101C800081600020002184F83C10012184F83D107F
:101C900010BD0120F6E7704710B5044600680169E1
:101CA000890744BFC1685FEA817139D40169490776
:101CB00044BFC1685FEA41713ED40169090744BF6E
:101CC000C1685FEA017144D40169C90644BFC168B3
:101CD0005FEAC16149D40169C9071CBFC1685FEAF5
:101CE000C1714FD10169090644BFC1685FEA016152
:101CF00050D40169490644BFC1685FEA416151D4CB
:101D00000169890644BFC1685FEA816100D410BDE2
:101D10006FF0200101612046BDE81040FFF71BBEB7
:101D20006FF002010161012121778069800741D0B4
:101D30002046FFF7B0FF43E06FF00401016102218C
:101D40002177806910F4407F3ED02046FFF7A3FF43
:101D500040E06FF00801016104212177C06980072C
:101D60003CD02046FFF797FF3EE06FF01001016185
:101D700008212177C06910F4407F39D02046FFF751
:101D80008AFF3BE06FF001010161204600F054F949
:101D90002068A7E76FF0800101612046FFF7DAFDB8
:101DA0002068A6E76FF040010161204600F0D8FFEF
:101DB0002068A5E7204600F04FF8204600F0C7F85D
:101DC00000202077206871E7204600F045F8204683
:101DD00000F0BDF80020207720686EE7204600F074
:101DE0003BF8204600F0B3F80020207720686BE72E
:101DF000204600F031F8204600F0A9F800202077B6
:101E0000206868E710B586B0044601A81421FEF7E3
:101E1000B7FA2068B0F1804F17D100200C4900902C
:101E20000A6842F001020A60096801F001010091AC
:101E300001210591CDE90300022001A902900420AF
:101E4000019000980348FFF74BF906B010BD00BFA2
:101E5000303802400000024070470000B0B5044630
:101E600090F83C00012804BF0220B0BD0D464FEAA7
:101E7000B2010120032984F83C0037D8DFE801F0E3
:101E8000020A12222068294601F0D6FD206850F887
:101E9000181F0EE02068294601F0F8FD206850F870
:101EA000181F16E02068294601F020FE206850F82F
:101EB0001C1F41F008010160016821F0040101606C
:101EC00029690FE02068294601F042FE206850F899
:101ED0001C1F41F400610160016821F48061016010
:101EE000296909020268114301600020002184F879
:101EF0003C10B0BD40B310B5044690F83D0028B981
:101F0000002084F83C00204600F020F80220211D2B
:101F100084F83D00206801F017FD012084F8460098
:101F200084F83E0084F83F0084F8400084F84100C3
:101F300084F8420084F8430084F8440084F84500A3
:101F400084F83D00002010BD0120704770477047A5
:101F500070B5044641B1082909D0042914BF04F121
:101F6000410004F13F0004E004F13E0001E004F10F
:101F70004000007801281CBF012070BD022041B143
:101F8000082909D0042914BF84F8410084F83F00CF
:101F900004E084F83E0001E084F84000206801225B
:101FA00001F03AFD2068B0F1804F1FD01B498842F4
:101FB0001CD01B4A904219D01A4B984216D01A4C8A
:101FC000A04213D0194DA84205D0194EB0420DD0F1
:101FD000184EB0420FD1466CB0F1804F46F4004627
:101FE000466403D0884218BF90420AD1816801F04C
:101FF0000701062903D0016841F0010101600020BA
:1020000070BD9842F2D0A042F0D0A842EED008496C
:102010008842EBD007498842E8D0ECE70004004052
:1020200000080040000C0040001800400000014083
:1020300000400140000401402DE9F84F2DED0A7BDE
:10204000DFF8841C88422FD0DFF8801C884200F023
:102050009D82DFF87C1C884240F0A08402F032FBB5
:10206000DFF8704C94F8720020B102F065FB00209C
:1020700084F87200DFF8600C00680168090740F11D
:102080008D8400210D2201910168019104F152011A
:10209000406801900198DFF8400CBDEC0A7B01B06C
:1020A000BDE8F04F00F05DBEDFF8349CA14CDFF8D6
:1020B000345C022199F86E00B0FA80F042092046A3
:1020C000A847DFF8248C042198F83C0080F0010236
:1020D0002046A847D9F804000821C07E80F00102FC
:1020E0002046A847D9F81400C17E90F8830308431E
:1020F000102180F001022046A847D9F82400C17EB3
:1021000090F883030843202180F001022046A8476D
:10211000DFF8D80B9FED88AA9FED881ADFF8BCABDB
:1021200009F12005DFF8C86B40F2052190ED0B0A9C
:102130003AEE400A80EE010ABDEEC00A10EE100A27
:102140008AF80C002846B047B0F90200DFF8A4BBBB
:1021500040F2052100EE100A2846B8EEC0BA9BED09
:10216000050AB8EEC09AB047B0F902009FED748A34
:10217000DFF8847B00EE100AB0EE481AF8EEC00AD1
:10218000B0EE490AB8473BEE400ADFF8704B2846EC
:1021900040F20521B0EEC00ABDEEC00A84ED020A8D
:1021A000B047B0F9020040F2052100EE100A2846BF
:1021B000B8EEC0BA9BED060AB8EEC09AB047B0F9C7
:1021C0000200B0EE481A00EE100AF8EEC00AB0EEB7
:1021D000490AB8473BEE400A284640F20521B0EED6
:1021E000C00ABDEEC00A84ED030AB047B0F9020090
:1021F00040F2052100EE100A2846B8EEC0BA9BED69
:10220000070AB8EEC09AB047B0F90200B0EE481A1B
:1022100000EE100AF8EEC00AB0EE490AB8473BEEED
:10222000400A284640F20521B0EEC00ABDEEC00AC1
:1022300084ED040AB047B0F9020040F2052100EE37
:10224000100A2846B8EEC0BA9BED080AB8EEC09A4C
:10225000B047B0F90200B0EE481A00EE100AF8EEEE
:10226000C00AB0EE490AB8473BEE400A284640F2A1
:102270000521B0EEC00ABDEEC00A84ED050AB047E4
:10228000B0F9020040F2052100EE100A2846B8EE2F
:10229000C0BA9BED090AB8EEC09AB047B0F9020087
:1022A000B0EE481A00EE100AF8EEC00AB0EE490A85
:1022B000B8473BEE400A284640F20521B0EEC00A7E
:1022C000BDEEC00A84ED060AB047B0F9020040F244
:1022D000052100EE100A2846B8EEC0BA9BED0A0AA6
:1022E000B8EEC09AB047B0F90200B0EE481A00EE5E
:1022F000100AF8EEC00AB0EE490AB8473BEE400AB1
:10230000B0EEC00ABDEEC00AA068216984ED070ADC
:102310008842BCBFDBF81420CBF810208142BCBF40
:10232000DBF81C00CBF810009AF80700002845D114
:102330001CE000BF0018024000809D445E0BB641C7
:1023400000F8FF4500BF00BFFCA9F1D24D6250BFAD
:102350007B14AE47E17A84BF9A9999999999B9BF4C
:102360009A9999999999B93F00E0D3449BED040A51
:10237000284640F20521B8EEC08A03F0F0F9B0F922
:1023800002001FED111A00EE100AF8EEC00AB0EEBE
:10239000480A02F01DFB284640F20521B0EE408AB3
:1023A00003F0DDF9B0F9020000EE100AB8EEC00A41
:1023B00038EE400ABDEEC00A8AED0F0A9BED070A0F
:1023C000284640F20521B8EEC09A03F0C8F9B0F9EA
:1023D00002001FED258A00EE100AB0EE481AF8EE52
:1023E000C00AB0EE490A02F0F3FA284640F205218D
:1023F000B0EE409A03F0B3F9B0F9020000EE100A13
:10240000B8EEC00A39EE400ABDEEC00A9AF80700DD
:102410008AED100A012837D1D4E906018842BCBFF1
:10242000DBF82420CBF810208142BABFDBF828402B
:10243000CBF81040DBF81040284640F2052103F0AD
:102440008EF9B0F902001FED421A00EE100AF8EE04
:10245000C00A00EE104AB8EEC00A02F0B9FA2846E7
:1024600040F20521B0EE409A03F079F9B0F902008C
:10247000DFF8884800EE100AB8EEC00A39EE400ACC
:10248000BDEEC00A8AED0F0A99F8600099F8611054
:1024900041F00202012808BF032A6BD0012808BFBF
:1024A000022967D0032840F08E81033A8B1EB2FACE
:1024B00082F2B3FA83F352095B091A4300F0838175
:1024C000B9F8640050B300B200EE100AB8EEC00ACA
:1024D00010EE100A04F082F81FED650B53EC102B80
:1024E00003F094FE0546DAF830000E4604F076F864
:1024F00002460B462846314603F082FB03F04EFBB2
:10250000CAF83000606804F069F802460B462846B5
:10251000314603F075FB03F041FB6060DFF8E8072C
:10252000B9F86610B0F97003002900F05182542800
:1025300000F34E8208B200EE100AB8EEC00A10EEA8
:10254000100A04F04BF81FED7E0B53EC102B03F038
:102550005DFE0546DBF808000E4604F03FF82A460B
:10256000334603F04DFB03F019FBCBF8080000EEF7
:10257000100A31E2B9F858006FF00E07A0F580603C
:1025800000B20F2809DD1FED8C9B0AE0DFF84C47F5
:10259000A07870B302F02CF82DE0B8421DDA1FEDE0
:1025A000909BDAF8300004F019F856EC195B0246FB
:1025B0000B462846314603F023FB03F0EFFACAF836
:1025C0003000606804F00AF802460B46284631469F
:1025D00003F016FB03F0E2FA6060606B022816D08D
:1025E000012817D194ED0E0AB8EEC00A8AED0C0A44
:1025F00010E001F0C1FEA078012121EA0000A070E6
:10260000BDEC0A7B01B0BDE8F04F02F0F1B8606AA2
:10261000CAF83000206B022804BF206ACBF80800FB
:10262000B9F85A00A0F5806000B2102804DB9BEDD9
:10263000020AB6EE001A05E09BED020AB84205DA7E
:10264000BEEE001A30EE010A8BED020A1FEDBA1A37
:10265000B4EE410AF1EE10FA01DDD34807E09FED38
:10266000D31AB4EE410AF1EE10FA02DACF48CBF8F1
:102670000800DFF8B8769AED0B0A9AED0C1A4FF0C5
:102680008040DFF8AC56CA49DFF8A866C94CDFF8CD
:10269000A8B64FF0010930EE010A7861C648A7F8E4
:1026A0003C907C658AED0D0A8AED0E0A98ED0C0AC5
:1026B000C5E9151006F140000121D84798ED050A3B
:1026C000DAED0C0ADFF874863846C047D7ED1B0AEE
:1026D00096ED110A2846C047DFF864764FF4807003
:1026E0008AF803900121B887B448C7E90640E86E2C
:1026F000DFF81446CAF84C00B4F96C0300EE100A77
:102700003046B8EEC00AD847DFF8E805D0ED020A37
:10271000B4F96A0300EE100A3846B8EEC00AC047A2
:10272000DFF82096D7ED1B0A96ED010A4846C04710
:10273000DFF818A6DFF81056A148BAF9041068654A
:1027400006F1200000EE101A0121B8EEC00AD847A9
:10275000DFF8A815BAF90200BFEE002A91ED0B0AC6
:1027600001EE100AB8EEC11AB4EE420AF1EE10FA08
:1027700016D0B4EE410AF1EE10FA11D09FED913A65
:1027800031EE402AB4EE432AF1EE10FA0BDA38EEBD
:10279000400A91ED0A2A30EE010A30EE020A2DE0DD
:1027A00091ED0A0A2CE09FED883AB4EE432AF1EE4F
:1027B00010FA1FDD9FED852A31EE022A32EE400A23
:1027C00091ED0A2A18E081F0010180F00200002258
:1027D0000843AAF809200FF2285008BF0430006807
:1027E000CBF80C009AF8050000287FF442AFCAF835
:1027F00044203EE791ED0A0A32EE000A81ED0A0A12
:10280000DFF8D87481ED0B1ADFF8D444284697ED31
:10281000121AF1EE410A03F02BF8DFF83485D5EDFA
:102820001B0A96ED090A404603F022F8BAF90600A1
:10283000002800D5404242F6F921884204DBDFF847
:10284000BC140120C86304E0DFF8B004C06B0128A9
:1028500002D10020C8F86C0004F1100597ED118A30
:1028600040F20121284602F07AFFB0F90400DFF8B7
:10287000E4640221012200EE100A3046F8EEC00A9C
:10288000B0EE480A02F05EFE97ED118A284640F24B
:10289000022102F064FFB0F90400DFF8BC54022109
:1028A000012200EE100A2846F8EEC00AB1EE480AEE
:1028B00002F048FE94F8600094F8611081F0020183
:1028C00080F0020008433978B0FA80F040090843EC
:1028D0002BD0DFF8880400241821C0E90244183006
:1028E000FDF74EFDDFF8140498ED1B0A8464BDEE7D
:1028F000C00A014610EE100A96ED0C0A00BA000C50
:10290000A1F85400BDEEC00A10EE100A95ED0C0AB5
:1029100000BA000CA1F85000BDEEC00A10EE100A7B
:1029200000BA000CA1F8520038E099ED1B0ADFF85C
:10293000CC13BDEEC00A10EE100A98ED1B0A00BAC7
:10294000000CA1F84A00BDEEC00A10EE100A96ED88
:102950000C0A00BA000CA1F85400BDEEC00A10EE3B
:10296000100A95ED0C0A00BA000CA1F85000BDEE5B
:10297000C00A97ED131A10EE100A00BA000CA1F865
:102980005200D44890ED0E0A31EE000ABDEEC00AA6
:1029900010EE100A00BA000CA1F84800BDEC0A7B4A
:1029A00001B0BDE8F08F00BF00E0D34400404E44CA
:1029B00000004843000020420000F0410000964320
:1029C0000000204100F87FC500F87F4500F8FFC5F2
:1029D00055280FDC9BED020A9FEDCCAAB4EE4A0A03
:1029E000F1EE10FA06DC9FEDCAAAB4EE4A0AF1EE47
:1029F00010FA01DA8BED02AAB9F96C00002100246B
:102A000000280AF1580048BF012102F0F5FDB9F88D
:102A10006C100AF15C00C1F3802102F0EDFD9AF820
:102A20005B0018B1CAF84440AAF8094099F8600060
:102A300099F8611081F0010180F003000843B0FAB9
:102A400080F041090AF1740002F0D6FD9AF80900FD
:102A50009AF87710084499F8611000F001008AF89C
:102A6000090099F8600081F0020180F0030008433A
:102A7000B0FA80F041090AF1780002F0BDFD9AF841
:102A80007B0010B101208AF80A00B9F86C009B4C59
:102A9000C0F34031204602F0AFFDB9F86C100AF1E6
:102AA0005400C1F3803102F0A7FDA07828B1994805
:102AB000CBF80C0001208AF80B009AF8560028B1D8
:102AC0009548CBF80C0000208AF80B00B9F86C1080
:102AD000880605D59048CBF80C0000208AF80B003A
:102AE0000AF15000C1F3801102F086FD9AF804004B
:102AF0009AF852100844B9F86C1000F001008AF8F6
:102B000004000AF16000C1F3001102F075FDB9F88C
:102B10006C10C1F300108AF8060010B100208AF88A
:102B200007009AF8520010B100208AF806009AF8BF
:102B3000620010B100208AF80400C9B20AF16800EE
:102B4000C90902F059FD9AF86A0038B19AED0C0AE9
:102B50009FED711A30EE010A8AED0C0AB9F86C107B
:102B60006E4C0AF16400C1F30021A0479AF80700F7
:102B70009AF866100844010600EBD17101F0FE01DD
:102B8000401AB9F86C108AF807000AF16C00C1F31A
:102B9000C021A047B9F86C100AF17000C1F30031F0
:102BA000A0479AF808009AF86E109AF87220401A16
:102BB00010448AF8080040B2052801DD062002E032
:102BC000002802DC00208AF808009AF85F0078B933
:102BD0009AF8090001280BD09AED110A9FED501ABE
:102BE0000020B4EE410AF1EE10FA08BF012003E024
:102BF0004B48CAF84400012099F86A10012909D10C
:102C000040B19AED120A9FED481A30EE010A8AEDA2
:102C1000120A2EE5A9B999F86B10012911D12D4995
:102C200080F0010091F87120013A18BF0122104391
:102C300007D100209AED120A9FED3A1A81F871002F
:102C4000E3E79AF80A0001287FF413ADB9F85C00B5
:102C5000A0F5806000B2012818DB03F048FA9FED70
:102C6000180B53EC102B03F0D1FA0546DAF84800A4
:102C70000E4603F0B3FC02460B462846314602F0EE
:102C8000BFFF02F08BFFCAF84800F2E4B0F1FF3F4B
:102C90003FF7EFAC03F02BFA9FED070B53EC102B33
:102CA00003F0B4FA0546DAF848000E4603F096FC45
:102CB0002A463346E3E700BF9A9999999999E9BF63
:102CC0009A9999999999E93F201A0020D8190020DA
:102CD000681A00208C030020F41A00200001002054
:102CE000EC01002095120008C0160020901D002065
:102CF0005F57000800000020D14900087C01002037
:102D0000000034430000B443100F002000E0D3441F
:102D100000404E440000B44300003443F95500081D
:102D20000000E14500F8FF460000D243502000209B
:102D3000C0200020CC020020E14D0008715800089E
:102D4000981E0020081F0020E0150020D804002055
:102D500050160020881C00200C1D0020801F002021
:102D60007047BCB5044690F83E00202806D10125E6
:102D700029B122B194F83C00012802D1022528464D
:102D8000BCBD01252046256384F83C5001F078F84D
:102D9000206B0128F3D10020019020680168019187
:102DA00041680191019950E8030F216840F010003B
:102DB00041E803020AB12068F5E70025DFE70000DB
:102DC00010B5044601F0A0FF0748844218BF10BDAB
:102DD000064801210D2280F8721000F152010248CC
:102DE000BDE81040FFF7BDBFF41A00208C0300209F
:102DF00070470000F8B5044600680168C26846697B
:102E000001F02F0502F02003202D05D123B120462B
:102E1000BDE8F84000F071BF5FEA017E08D006F01F
:102E2000010612F4907F86F0010750D1002F4ED09A
:102E30001140CA06226B39D5012A37D100210091F1
:102E4000016800914168009100994169490600F1CB
:102E50008C80E18DA28DE38D13B1511A0A0401D14A
:102E6000F8BD206850E8030F226820F4907042E813
:102E70000303002BF5D1206850E8050F226820F0ED
:102E8000010042E80503002BF5D1202084F83E0024
:102E900000202063206850E8030F226820F0100013
:102EA00042E80303002BF5D189B2A2E00A0600F143
:102EB000A5804906D4D5C16821F04001C160202019
:102EC00084F83D002046BDE8F84000F002BBCD0785
:102ED00018BF12F4807503D0256C45F001052564F8
:102EE00001F004054FF0010C8CEA95053D4303D138
:102EF000256C45F00205256401F002058CEA5505B4
:102F00003D4303D1256C45F004052564334318BFC8
:102F10000123BEF1000F04D51BB1236C43F008035D
:102F20002364236C002B9BD01140890603D52046D7
:102F300000F0E3FE20684069216C00F0400001F0E1
:102F4000080140186BD0204600F0A2FE20684169BD
:102F5000490678D550E8050F216820F0400041E887
:102F60000502002A61D02068F4E7A26B11684B6863
:102F70009DB2002D3FF474AFA18D8D42BFF470AFB0
:102F8000E385D269B2F5807F30D050E8030F216825
:102F900020F4807041E803020AB12068F5E7206858
:102FA00050E8050F216820F0010041E80502002AE1
:102FB000F5D1206850E8050F216820F0400041E875
:102FC0000502002AF5D1202084F83E00002020636D
:102FD000206850E8030F216820F0100041E8030248
:102FE000002AF5D1A06BFDF7A2FEA18DE08D081A95
:102FF00081B22046BDE8F840FFF7E2BE94F83D10EC
:1030000021297FF42DAFA168B1F5805F01D121693D
:10301000F1B1216A4A1C2262097841601FE0204612
:10302000FFF7E6FE00202064F8BDA06B58B11349FD
:103030000165FDF7BCFE00283FF412AFA06B016DE7
:10304000BDE8F84008472046BDE8F840FFF7D0BE8D
:10305000216A31F8022B6FF35F2221624260E18C1A
:103060000139E18409047FF4FBAEC16821F08001DD
:10307000C160C16841F04001C160F8BDF53B000886
:1030800050B310B5044690F83D0028B9002084F8EC
:103090003C00204600F022F8242084F83D002068FF
:1030A000C16821F40051C160204600F087FE20680D
:1030B000016921F490410161416921F02A014161D6
:1030C000C16841F40051C16000202021206484F8CF
:1030D0003D1084F83E1010BD012070472DE9F043EB
:1030E00087B0044602A81421FDF74AF92068BA49BE
:1030F000884269D0B949884200F08E80B849884238
:1031000000F0E480B749884200F03681B649884231
:1031100040F05E810026B5480196016941F080418A
:103120000161016901F080410191019901960168F5
:1031300041F01001016002A9006800F01000019048
:10314000082006900320CDE90460022003904FF48C
:10315000C07002900198A64800F54060FDF7C0FFDE
:10316000A54FA94D4FF020694FF48068142107F155
:103170004800C5E9000905F11400C5E90266C5F873
:103180001080FDF7FDF82846FDF7DCFE08B1FDF7DD
:10319000E1F9AC63A5639D4D07F118014020C5E935
:1031A000001905F1080181E8410105F1140014211D
:1031B000FDF7E6F82846FDF7C5FE08B1FDF7CAF9A8
:1031C000AC6365635224FBE00020884901900A69E2
:1031D00042F480220A610A6902F480220192019A73
:1031E00001900A6842F008020A60096801F00801CB
:1031F0000191072106910321CDE90401022002A9D2
:1032000003904FF4407002900198794800F50060F7
:10321000FDF766FF2724D3E00026ED4801964169BB
:1032200041F020014161416901F0200101910199C2
:103230000196016841F04001016002A9006800F0B8
:1032400040000190082006900320CDE90460022090
:1032500003904FF4844002900198654800F5A05017
:10326000FDF73EFF644F634D4FF020694FF48068D7
:10327000142107F58360C5E9000905F11400C5E9CB
:103280000266C5F81080FDF77BF82846FDF75AFE68
:1032900008B1FDF75FF9AC63A563584D07F592617E
:1032A0004020C5E9001905F1080181E8410105F157
:1032B00014001421FDF764F82846FDF743FE08B119
:1032C000FDF748F9AC636563472479E00026E448DC
:1032D0000196016941F000410161016901F000417D
:1032E000019101990196016841F0100101600221EC
:1032F000006800F010000190082006900320CDE93E
:103300000460CDE9020102A90198394800F5406046
:10331000FDF7E6FE384F3A4D4FF020694FF48068D4
:10332000142107F19000C5E9000905F11400C5E971
:103330000266C5F81080FDF723F82846FDF702FE67
:1033400008B1FDF707F9AC63A5632E4D402005F1E8
:103350000801C5E9007981E8410105F11400142153
:10336000FDF70EF82846FDF7EDFD08B1FDF7F2F880
:10337000AC636563532423E00020B94901904A6996
:1033800042F010024A614A6902F010020192019A69
:1033900001900A6842F002020A60096801F0020125
:1033A0000191072106910321CDE90401022002A920
:1033B0000390C020029001980D48FDF791FE25244E
:1033C000204600210022FDF7D9FF2046FDF7C8FF67
:1033D00007B0BDE8F08300BF004800400014014082
:1033E000007C00400010014000780040303802406E
:1033F00000040240D0180020106002403019002064
:10340000101800207018002050170020B01700205E
:1034100070470000F8B5044690F83D00202806D11A
:1034200039B113462AB194F83C00012803D1022097
:10343000F8BD0120F8BD0025E3840120124E144F91
:10344000256484F83C00A3842162606B2268C0E993
:1034500013650E4E0432C0E90F76212684F83D60D4
:10346000FDF7FCFD20686FF0400184F83C500160DE
:1034700050E8050F216840F0800041E805020AB1DC
:103480002068F5E70020F8BD013C00088B3C0008EF
:103490004F3C000810B5034690F83D00202806D1A7
:1034A0000120A9B1A2B193F83C00012801D102206A
:1034B00010BD00202124DA84186483F83D4019628D
:1034C0009A8483F83C001968CA6842F08002CA6096
:1034D00010BD70477047FEE7B0B50C480C4D09248D
:1034E00000214FF480124FF48033C0E90054C0E94A
:1034F0000211C0E9043281618183FDF779FA18B1C4
:10350000BDE8B040FDF726B8B0BD00BF00170020F1
:1035100000640040B0B50C480C4D122400214FF45B
:1035200080124FF48033C0E90054C0E90211C0E9B1
:10353000043281618183FDF75BFA18B1BDE8B040C8
:10354000FDF708B8B0BD00BF281700200068004094
:10355000BCB5002042491F4C01900A6842F4001299
:103560000A600A6802F400120192019A0090086849
:10357000002240F4800008600868002100F4800008
:10358000009000980B20A047134D0B20A8470C205B
:1035900000210022A0470C20A8470E200021002275
:1035A000A0470E20A847112000210022A04711208B
:1035B000A847392000210022A0473920A8474520EC
:1035C00000210022A04745202946BDE8BC4008470D
:1035D000303802407D1300086113000881B00021DB
:1035E0001F480091026842F010020260026802F077
:1035F00010020092009A0091026842F040020260BC
:10360000026802F040020092009A0091026842F0C3
:1036100001020260026802F001020092009A009129
:10362000026842F002020260026802F002020092A6
:10363000009A0091026842F008020260026802F0FB
:1036400008020092009A0091016841F08001016037
:10365000006800F080000090009801B0704700BF43
:103660003038024010B58EB0002401A81C21CDE9ED
:103670000C44CDE90A44CDE90844FCF781FEA84892
:1036800080212C224FF08043816144F68F41C0E9B4
:103690000032C0E902410461FEF798F908B1FCF775
:1036A00059FF4FF480500AA90A909D48FEF778FA16
:1036B00008B1FCF74FFF9A48FEF71CFC08B1FCF775
:1036C00049FF9748002408A9CDE90844FEF744F9CA
:1036D00008B1FCF73FFF4FF4FA7001A908220594E6
:1036E00003940290602001908D48FEF7B7FB08B16B
:1036F000FCF730FF8A48FEF785FB0EB010BD00BF17
:1037000010B586B089488021BB4C40F2E73259237E
:1037100081610021C0E90043C0E90212CDE9041132
:103720000161CDE90211CDE90011FEF74FF908B1B1
:10373000FCF710FF4FF4805002A902907B48FEF77F
:103740002FFA08B1FCF706FF00206946CDE900001A
:103750007648FEF701F908B1FCF7FCFE06B010BD93
:103760001CB5754880210D4B00245922CDE9004439
:10377000816140F2E731C0E90032C0E90241FEF761
:1037800025F908B1FCF7E6FE6B486946CDE900442F
:10379000FEF7E2F808B1FCF7DDFE1CBD00100040AA
:1037A0001CB5684880210D4B00245922CDE9004406
:1037B000816141F28731C0E90032C0E90241FEF780
:1037C00005F908B1FCF7C6FE5E486946CDE900443C
:1037D000FEF7C2F808B1FCF7BDFE1CBD00140040A6
:1037E00010B50B480B4C4FF4E13300210C22C0E91B
:1037F0000043C0E90211C0E90412C0E90611FFF755
:103800003FFC18B1BDE81040FCF7A4BE10BD00BFDE
:103810007C1B00200078004010B5F5480A4C4FF49E
:10382000E13300210C22C0E90043C0E90211C0E9E4
:103830000412C0E90611FFF723FC18B1BDE81040DF
:10384000FCF788BE10BD00BF007C004070B50C487E
:103850000C4D0D4E00210C224FF480634FF4805428
:10386000C0E90065C0E90241C0E90432C0E90611BF
:10387000FFF706FC18B1BDE87040FCF76BBE70BDE9
:10388000B01A0020A08601000010014010B50B48BE
:103890000B4C4FF4E13300210C22C0E90043C0E996
:1038A0000211C0E90412C0E90611FFF7E9FB18B1E3
:1038B000BDE81040FCF74EBE10BD00BFF41A00205A
:1038C0000048004010B50B480B4C4FF4E133002189
:1038D0000C22C0E90043C0E90211C0E90412C0E9AA
:1038E0000611FFF7CDFB18B1BDE81040FCF732BE62
:1038F00010BD00BF381B002000140140FEE7FEE7AA
:1039000070477047FDF7D0BC0248016841F4700170
:103910000160704788ED00E00148FEF7BDB900BFC7
:10392000901900200148FEF7B7B900BFD819002050
:103930000148FEF7B1B900BF201A00200148FEF788
:10394000ABB900BF681A0020B0B50268B0F1804F73
:103950000ED0274B98420BD0264B984208D0264BCE
:10396000984205D08B4B984202D0244B984203D109
:103970004B6822F070021A43B0F1804F20D01C4BEC
:1039800098421DD01B4B98421AD01B4B984217D01F
:103990001B4B984214D01B4B984211D01A4B9842A3
:1039A0000ED0164B98420BD07A4B984208D0174B4A
:1039B000984205D0164B984202D0164B984203D13C
:1039C000CB6822F440721A434D6922F080020B68E2
:1039D0008C682A430260C46283626E4B40F480624A
:1039E0009A4204BF0969016301214161B0BD00BF72
:1039F0000004004000080040000C004000000140AE
:103A000000180040001C0040002000400040014021
:103A1000004801400044014010B501F01F0101239E
:103A2000046A8B4002FA01F124EA03030362026A8A
:103A30001143016210BD0000F0B5026A554E22F03C
:103A4000010202620B688A68046A24F002042243BD
:103A50004468856925F073052B4340F48065B542C1
:103A600005D1CF6822F00C0227F004073A43B54293
:103A700005D1D1E9055624F440742C433443446005
:103A80008361496841630262F0BD00BFF0B5026A1C
:103A9000404E22F0100202620B688A68046A24F029
:103AA000200444EA02124468856925F4E64545EAA3
:103AB000032C40F48065B54207D1CF686FF0400316
:103AC00022F0C00203EA07131A43B54207D1D1E935
:103AD000053524F4406444EA830343EA85044460E2
:103AE000C0F818C0496881630262F0BDF0B5026A8F
:103AF000284E22F4807202620B688A68046A24F4F9
:103B0000007444EA02224468C56925F0730545EA59
:103B1000030C40F48065B54208D1CF6840F2FF4302
:103B200022F440623F0227EA03031A43B54207D159
:103B3000D1E9053524F4405444EA031343EA05145B
:103B40004460C0F81CC04968C1630262F0BD00BF98
:103B500070B5026A0F4E22F4805202620C688A68C5
:103B6000036A23F4005343EA02324368C56925F42B
:103B7000E64545EA042440F48065B54204D14D6928
:103B800023F4804343EA85134360C46149680164B8
:103B9000026270BD0004014010B5036A046A24F09B
:103BA00001040462846924F0F00444EA0212826190
:103BB00023F00A021143016210BD036A23F01003CF
:103BC0000362836923F4704343EA0232036A826129
:103BD00023F0A00242EA0111016270470148FFF799
:103BE00009B900BF7C1B00200148FFF703B900BFE3
:103BF000C01B0020806B0021C185C184FFF7F8B88D
:103C000010B5846B2068416994F83D20212A08D1C1
:103C100011F0800105D00020E084204600F05FF81C
:103C20002068406994F83E10222907D110F0400026
:103C300004D00020E085204600F02AF8206C40F0F7
:103C4000100020642046BDE81040FFF7D1B801689D
:103C5000806B0968C90548BFFFF73BBC0021C184E0
:103C6000016851E8051F026821F0800142E8051350
:103C7000002BF5D1016851E8031F026841F04001B3
:103C800042E80313002BF5D17047806BFFF722BC8D
:103C9000016851E8031F026821F4907142E80313A0
:103CA000002BF5D1016851E8051F026821F00101E0
:103CB00042E80513002BF5D1016B012909D10168F8
:103CC00051E8031F026821F0100142E80313002BA2
:103CD000F5D1202180F83E10002101637047016872
:103CE00051E8031F026821F0C00142E80313002BD2
:103CF000F5D1202180F83D10704781B090F83E103A
:103D0000222920D18368B3F5805F08D10169002999
:103D100048D000F128010A6803685B680AE00146A0
:103D200051F8282F13B90369002BF5D003685B689D
:103D300003F07F0313700A6801320A60C18D0139F4
:103D4000C185090401D001B070470168CA6822F03A
:103D50002002CA60CA6822F48072CA604A6922F0EE
:103D600001024A61202280F83E20026B012A22D102
:103D70000022026351E8031F026821F0100142E8AB
:103D800003130168002BF5D10A68D20606D500227C
:103D900000920A680092496800910099818D01B0F3
:103DA000FFF70EB80168826A49686FF35F2122F855
:103DB000021B8262C2E701B0FFF72ABBB0B504461E
:103DC000006804F108030ECB056925F4405519433A
:103DD0002A4349F20C650261C26863691943E369C9
:103DE000AA4319431143C1604169A26921F440719A
:103DF00011434161214940F48060884202D1FDF7BE
:103E0000BBFB01E0FDF7AEFBE26919216368A0FB93
:103E10000101B2F5004F16D15A00DB0FFCF738FA5A
:103E200064216FF06303B0FBF1F202FB0300322365
:103E300003EBC000B0FBF1F14FF4F87000EA410071
:103E400001F0070113E09A009B0FFCF721FA6421AF
:103E50006FF06303B0FBF1F202FB0300322303EBCC
:103E60000010B0FBF1F101F0F00001F00F0100EBE8
:103E70000210084321688860B0BD00BF00140140F3
:103E80000023C285036481622221828580F83C3050
:103E900080F83E100168006918B1C86840F480706D
:103EA000C860486940F001004861C86840F02000DF
:103EB000C8600020704700000148FEF79BBF00BFAC
:103EC000B01A00200148FEF795BF00BFF41A002089
:103ED0000148FEF78FBF00BF381B0020FEE700003F
:103EE0002DE9F84F2DED125B00F0C8FEDFF81493BA
:103EF00012214846FCF744FADFF80CB3002509F11B
:103F00002800C9E90555C9E90755D84709F1F8005E
:103F1000D84709F5E470D84709F52670D847BB4E55
:103F200012213046FCF72CFA06F12800C6E90555A7
:103F3000C6E90755D84706F1F800D84706F5E470FA
:103F4000D84706F52670D84706F55A701221FCF7B7
:103F500017FA06F56470C6E9DF55C6E9E155D8479A
:103F600006F58C60D84706F5A660D84706F5C06010
:103F7000D847A74F12213846FCF702FA07F128006C
:103F8000C7E90555C7E90755D84707F1F800D847ED
:103F900007F5E470D84707F52670D84707F55A703B
:103FA0001221FCF7EDF907F56470C7E9DF55C7E9A1
:103FB000E155D84707F58C60D84707F5A660D84784
:103FC00007F5C060D847DFF85082924CDFF84CA26A
:103FD0004FF4007101224B4640460094D047601CCC
:103FE0004FF4007102223346009008F11000D047D0
:103FF000E01C4FF4017102223B46009008F12000C2
:10400000D047874F87489FED8AAA9FED888A9FED0A
:10401000849A04959FED831ADFF81892B2EE040A91
:104020000297CDE900508048F0EE4A0AF0EE481AB7
:10403000B0EE492AF0EE4A2AC847DFF8FCA17F48D3
:104040009FED81BA9FED81CA9FED81DA7C4EF0EE43
:104050004A0AB0EE492AF0EE4A2A049502978AF8F5
:104060006850CAE916507748B0EE4B0AB0EE4C1AC9
:10407000F0EE4D1ACAF86070CDE90056C847754891
:10408000B0EE4B0AF0EE4A0AB0EE4C1AF0EE4D1AC2
:10409000B0EE492AF0EE4A2A04958DE8E000C847C0
:1040A0006D489FED6E0A9FED6E1AF0EE4A0AF0EE33
:1040B0004D1AB0EE492AF0EE4A2A04958DE8E00048
:1040C000C8476848D84750461821FCF759F9664850
:1040D000D84766486649674A674B684C704E0495F6
:1040E00002979FED810AF0EE4A0AB0EE4A1AF0EE0E
:1040F000481AB0EE492AF0EE4A2AC8F84870C0E9DA
:104100000043C0E902520161C0E91855C0E91A55DF
:104110005B485C4B5E4CC0E90035C0E9025201616E
:10412000C0E91855C0E91A555748584BC0E908343A
:10413000584B5A4CC0E90B35574B0577C3E900641F
:10414000C3E902521961C3E91855C3E91A55554B21
:10415000554C584EC3E90045C3E902521961C3E901
:104160001855C3E91A55514B374C1D77C3E9035411
:104170004F4C5F6183F85C50C4E90065C4E90252AA
:104180002161C4E91855C4E91A554B4C4B4EC4E99A
:104190000065C4E90252216149494C4AC4E91855F5
:1041A000C4E91A55C3E9135146495F6583F83C5089
:1041B000C3E90B5144495F6381F85C50C1E9135274
:1041C000434A4F6581F83C50C1E90B524F630D776C
:1041D000C1E903524F613F493F4ACAE90651CAE962
:1041E0000852CAE90A513D49C0E9035147613C48B8
:1041F000CDE900503B48C847BDEC125B01B0BDE8BB
:10420000F08F00BFD8040020195600084008002095
:10421000100F002000000020EC0100207157000862
:104220006F12833A00004842901D00200060EA4669
:104230000000000077550008600200200000C8431D
:1042400000002041881C00200000FA430000F042DA
:10425000000080460C1D0020041C00200000964435
:104260000000704208040020801F00205020002021
:1042700000606A460050C346CDCC4C3E6666663F41
:10428000C020002000409C448C03002000004040DF
:104290000000504100803B45981E00203333333FDF
:1042A0000AD7233E081F00200000C343CC02002091
:1042B000E0150020CDCCCC3D501600200000604021
:1042C00000004843000016432C03002000008C42ED
:1042D0000000884100409F400070A7400000484413
:1042E0000000A041141E00209A99993E10B500F0DC
:1042F00063F9C54C2046FCF7E8FC20460221FCF798
:104300002DF9BA4C2046FCF7E0FC20460221BDE81E
:104310001040FCF723B900BF10B588B00793002305
:1043200008240493CDE902338DF81830019101A9D6
:1043300007AB0594FCF725F908B010BDFEB50020C9
:104340000C4901900A6842F040020A60096801F0D5
:104350004001019101990221CDE90301012105905C
:10436000794802914FF4FF71019101A9FCF7B8FE61
:1043700006B080BD30380240A24840F2FF1102234F
:1043800000F14802A048FFF7C7BF00BF10B5714851
:104390009C4C90ED030A04F16000BCEEC00A10EEE4
:1043A000101A01F027FA04F15800022100F038FF3A
:1043B00018B1BDE8104000F01BBA10BD2DE9F84F50
:1043C0002DED028B60484FF6FF7101224FF001087E
:1043D000FCF760FFFFF78AFF00F050FC5B485C4988
:1043E000082200F16004204601F0E4F9594890EDFC
:1043F000030A2046BCEEC00A10EE101A01F0FAF9CA
:104400000A20FCF75DFE5449544A5548554B564C1A
:10441000564E574D594FC1E91464C1E916300A662A
:1044200040F20112544CA1F84C205249C5E9144104
:1044300005F15801C8C1A5F84C20514B524A5149C9
:10444000C3E91421514A524983F84C80524B82F8F7
:104450004C80C2E914014F4A5269DA624F4AC2E9FC
:10446000140182F84C80FCF71BFF4D4C9FED4D8AE8
:10447000DFF86899DFF838A1DFF8388105464FF09A
:10448000000B40F2F5174448B0EE480AD0ED0C0A94
:10449000204601F0EDF94448D4ED1B0A90ED110AD5
:1044A000424801F0E5F909F1200040F20621D04729
:1044B000B0F902000221012200EE100A2C48F8EEA9
:1044C000C00AB0EE480AC04709F1100640F20321C5
:1044D0003046D047B0F904000221012200EE100A54
:1044E0002748F8EEC00AB0EE480AC047304640F20E
:1044F0000121D047B0F904000221012200EE100A88
:104500002248F8EEC00AB0EE480AC047304640F2F2
:104510000221D047B0F904000221012200EE100A66
:104520001E48F8EEC00AB0EE480AC047FCF7B8FED5
:10453000401B6BF10001C01B71F10000A3D3BDEC67
:10454000028B01B0BDE8F08F001802407C01002012
:104550009019002000000020141E002000B8084719
:104560000000FA450000C8420000FA430000FA4487
:10457000901D002000008C4200409C4500409C465D
:10458000041C00200000F04100004843881C00206B
:104590000000C843C0160020000100200C1D0020B0
:1045A0005020002000000000CC020020C02000208D
:1045B0005F57000845550008F0B58BB001AC0125E8
:1045C0001C211C2620460995FBF7DAFE0E480E2713
:1045D000214608950A97FCF721F8044821460A96D7
:1045E0000697FCF71BF80BB0F0BD00BF28170020A2
:1045F00004484FF40071022300F150020248FFF713
:104600008BBE00BF7C0100200017002010B592B0C7
:10461000002401A81421CDE90A44CDE90844FBF7A0
:10462000AFFE26480094016841F0805101600068A7
:1046300000F080500090009800942148016841F4F7
:1046400040410160B421006800F440400090042023
:104650000F910621119002200E914FF480011090CD
:10466000CDE90C014FF480300790012006900098AE
:1046700006A8FCF7BFFF18B1EFF3108072B6FEE793
:10468000FCF7A8FE18B1EFF3108072B6FEE74FF406
:104690008050052105904FF4A05004900020039015
:1046A000022002900F20019001A8FCF7C9FE18B16A
:1046B000EFF3108072B6FEE712B010BD4038024032
:1046C00000700040164943F63910174A9FED181A3A
:1046D00021F8440F1348C1F80A20B0F96A03420ACE
:1046E000486248710A71020C000E88700F48CA7047
:1046F00090ED050A20EE010ABDEEC01A81ED0A1AFE
:10470000BDEEC00A10EE100A020A48720A72020CCC
:10471000000E88710748CA710E22FEF7BBBE00BFAB
:104720008C030020100F00201A4200FFC01600204A
:104730000000C842F41A0020264890F85210392987
:1047400020D190F8531039291CD190F85E10FF2920
:1047500018D190F85C1090F85D2080F8701080F807
:104760007120D0E9152312BA00EE102A1ABAB8EE59
:10477000C00A80ED190A00EE102AB8EEC00A80EDDA
:10478000180A01E090F87010134A92F86B20012A81
:1047900008BF012900D0704790ED180A9FED0F2A3D
:1047A00090ED191A0E4880EE020A90ED102A864804
:1047B00030EE020A80ED0C0A0A48B0F96A0300EEF6
:1047C000100A0948B8EEC00A31EE000A80ED020A6C
:1047D000704700BF8C030020EC0100200000C8429D
:1047E00050200020100F00200000002000000000DA
:1047F0002DE9F843724C0020E0706071A4F80100CC
:10480000704890F86080B8F1010F0DD0B8F1030F37
:1048100047D1B0F86C206C49D30746D193074AD5ED
:1048200001F10F03EE2543E0674990F8617006231C
:10483000D1E90F21A4F803207A1E6181F91EB2FA92
:1048400082F2B1FA81F152094909920142EA411119
:10485000BA1EB2FA82F2520941EA0216B0F85E10AC
:10486000B0F85C006671A1F58061A0F580600AB2C5
:1048700092FBF3F2150402EBE57282EAE572802501
:1048800005EA11211143617001B205EA102091FB84
:10489000F3F10A0401EBE27181EAE2710843A070CE
:1048A0006FE090F8617000266BE001F10D036E255A
:1048B000012665701E70130705D4530709D501F151
:1048C0000E03EE2502E001F110036E250126A5700E
:1048D0001E70CB6B90F8617090F86A0091F80490AC
:1048E0008D7991F80BC04FF0040EA4F803300B7AC9
:1048F0006072086C237291F9073060810EEA5310E0
:10490000002B00D55B4203F0020603F00103002DEB
:1049100030441844A0710EEAD200A7F1030240EA25
:104920008510B2FA82F240EAC9004FEA521208BF7B
:1049300040EA421091ED110A002240EA0C00B5EE67
:10494000400AF1EE10FA18BF012291F90C5040EA2A
:1049500042066671284601F0CAFB9FED150B53EC29
:10496000102B01F053FC9FED140B53EC102BDA0FBE
:1049700062F3DF7101F08CFB102101EAD5010843DD
:10498000E07187F0020088F002010C2208430E4912
:10499000B0FA80F0097840090843214646EAC01081
:1049A00060710A48BDE8F843FEF734BD00BF00BFA0
:1049B000F853E3A59BC4E43F0000000000000000A2
:1049C00038000020EC010020000100207C1B0020AA
:1049D00070B52DED048BB0EE408A30EE600AB0EE7B
:1049E000419A10EE100A01F0F9FD19EE106A044622
:1049F0000D46304601F0F2FD9FED110B53EC102BEC
:104A000001F004FC22462B4601F028FE10B938EED6
:104A1000498A0FE0304601F0E1FD9FED0B0B53ECAE
:104A2000102B01F0F3FB22462B4601F01EFE08B9C5
:104A300038EE098AB0EE480ABDEC048B70BD00BFA9
:104A4000000000000000E03F000000000000E0BFA8
:104A5000B0F90020891A042984BF4FF0FF30704755
:104A60000844407AFF2808BF4FF0FF30704700002D
:104A70002DE9F0410446A1F5C4700D46A1F522715F
:104A8000B0FA80F0B1FA81F1400949094840A5F532
:104A90006271B1FA81F149094840012840F0D5809E
:104AA000DDF82880B5F5C47F08D1B8F8000020846F
:104AB000B8F802006084B8F80400A084B5F5227F3D
:104AC00036D1B8F9000000EE100AB8EEC00A10EEB8
:104AD000100A01F083FD9FED5E0B56EC107B3A4609
:104AE000334601F093FB01F059F8A062B8F90200D7
:104AF00000EE100AB8EEC00A10EE100A01F06EFDCA
:104B00003A46334601F082FB01F048F8E062B8F91A
:104B1000040000EE100AB8EEC00A10EE100A01F010
:104B20005DFD3A46334601F071FB01F037F8206332
:104B3000B5F5627F40F08680B8F9000000EE100AFB
:104B4000B8EEC00A10EE100A01F048FD9FED400BD0
:104B500055EC106B32462B4601F058FB01F01EF865
:104B60002060B8F9020000EE100AB8EEC00A10EE9C
:104B7000100A01F033FD32462B4601F047FB01F0ED
:104B80000DF86060B8F9040000EE100AB8EEC00A33
:104B900010EE100A01F022FD32462B4601F036FBE2
:104BA00000F0FCFF9FED2C2A00EE100AA060BFEE83
:104BB000003AB5EE400A30EE021AF1EE10FAB8BF34
:104BC000B0EE410A84ED030A94ED041AB4EE431AE0
:104BD000F1EE10FA2ED0B4EE401AF1EE10FA29D010
:104BE0009FED1E4A30EE413AB4EE443AF1EE10FA2F
:104BF00008DA32EE411A94ED052A31EE001A31EE50
:104C0000021A15E09FED162AB4EE423AF1EE10FAC0
:104C10000ADD9FED142A30EE022A32EE411A94ED9D
:104C2000052A32EE011A03E094ED051A33EE011A5B
:104C300084ED051A207E84ED040A18B9012084ED64
:104C4000070A2076FCF72CFB6063BDE8F08100BF0B
:104C50007B14AE47E17A843F0000B443000034C3C4
:104C6000000034430000B4C310B5044634301421AE
:104C700000F0CAFA84F83C0010BD00005748122228
:104C800000F130012E48FEF76CB800BF70B5534DEF
:104C90000024B5F85A00B0F5B67F4FF0000038BFD9
:104CA0000120B5F85810B1F5B67F4FF0000138BFBC
:104CB00001210843B5F85C10B1F5B67F4FF0000153
:104CC00038BF01210843B5F85E10B1F5B67F4FF04B
:104CD000000138BF012141EA00061A483221403064
:104CE00000F092FA304385F86E000AD0144805F1BE
:104CF0003001122200F028F895F86E40002C18BF01
:104D00000124204670BD00BF70B586B00C4A9042A9
:104D100008BF12290BD1684600F028F82F489DE8FB
:104D20007E0058307EC0FCF7BBFA064908642B4869
:104D3000122200F130010248FEF713F806B070BDF0
:104D4000B01A00207C01002018B503681C682407F5
:104D500058BF18BD002492B200941C6800945B6890
:104D60000093009BBDE81840FDF7FBBFF0B50021A4
:104D7000C1821A49CA8E91F8313091F8324091F8C7
:104D80003350828191F8302063F30A22DB080280DD
:104D900091F8352064F34A13C2F30116438091F869
:104DA000407091F8343046729609067291F841606D
:104DB00066F30A275E0803F0010362F3CA16AA002D
:104DC000478142EA9412C68042EA83228280D1E976
:104DD0000E21C0F80E20C0F81210F0BDEC0100202A
:104DE0002DE9F0412DED0A8BB0EE408A04460029F2
:104DF00080ED000A51D0207F032853D001286ED0C7
:104E0000002840F0AD8094ED01AA94ED02BA94ED33
:104E1000059A94ED04CA0BEE09AA1CEE100A84ED63
:104E200001AA01F0DBFB9FED5E0B53EC102B01F0B0
:104E3000EDF907461BEE100A0D4601F0CFFB804648
:104E40000E46384629464246334601F0DFF938EE31
:104E50004A0A2CEE0C1A05460F4620EE010A10EE07
:104E6000100A01F0BBFB02460B462846394600F00B
:104E7000C7FE054619EE100A0F4601F0AFFB0246C9
:104E80000B462846394601F0C1F94246334600F048
:104E9000B7FE00F083FEA06062E0002084ED018A8E
:104EA000A06074E094ED010AD4ED020A94ED041AB6
:104EB000D4ED051A30EE480A00F0A6F894ED022A67
:104EC00094ED011A94ED053AB0EE424A02EE031A4F
:104ED00000EE034A84ED011A84ED024A40E094EDAD
:104EE000019A94ED02AA94ED05CA94ED04BAB0EECD
:104EF000490A1BEE100A0AEE0C0A84ED010A01F0C1
:104F00006DFB02460B4600F07BFE9FED230B024635
:104F10000B4651EC100B00F027FF00F03FFEB0EE07
:104F2000CA1A39EE480A02EE100AA0612AEE011AE6
:104F300001EE020A9FED1C2ABFEE001AB5EE400AF0
:104F4000B7EE000AF1EE10FAB8BFB0EE412AC8BFC2
:104F5000B0EE402A22EE0B0A0CEE40AA84ED02AA23
:104F600094ED030AB5EE400AF1EE10FA0FD094ED7D
:104F7000021AB4EE401AF1EE10FA06DCB1EE400A65
:104F8000B4EE401AF1EE10FA01DA84ED020ABDEC3B
:104F90000A8BBDE8F08100BF000000000000F03F78
:104FA00000000000000000C0000000000000000041
:104FB00080B530EE601A002130EE200A0020B5EEF8
:104FC000401AF1EE10FAB8BF4FF0FF31B5EE400ACB
:104FD000C8BF0121F1EE10FAB8BF4FF0FF30C8BFD3
:104FE0000120401A01F083F89FED050B53EC102BC4
:104FF00001F00CF900F0D2FD00EE100A80BD00BFF8
:10500000000000000000E03F2DE9F0472DED108B7F
:10501000B0EE418A20EEA11ADFF8E4A131EE009A49
:1050200028EE210A20EE210A8AED061A8AED079A57
:1050300010EE100A8AED050A01F0D0FA044619EEC6
:10504000100A0D4620F0004001F0C8FA9FED660BF3
:1050500053EC102B01F0DAF822462B4600F0D0FD7D
:1050600022462B4601F0D2F800F098FD09EE100A16
:10507000B0EE490A00F074FDB4EE400AF1EE10FA09
:1050800080F1AA809AED07AA9FED5ECA9AED059A73
:105090008AED080A9AED06FABFEE00DAB7EE00EAEA
:1050A000B5EE40AAB0EE4C1A30EE490AF1EE10FA15
:1050B000B8BFB0EE4D1AC8BFB0EE4E1A20EE010ACE
:1050C00010EE100A01F08AFA9FED490B53EC102BF9
:1050D00001F09CF804461FEE100A0D4601F07EFA1E
:1050E00002460B462046294600F08AFD00F056FD98
:1050F000CAF8240001F072FAB0EE4A0AF0EE490A4A
:1051000006460F46FFF754FF10EE100AB0EE40BA05
:1051100001F064FA9FED380B02460B4658EC109BE9
:105120004846414601F070F932463B4601F06EF8C0
:105130003FEE0A0A06460F4620EE0B0A10EE100A52
:1051400001F04CFA02460B463046394600F058FD55
:1051500000F024FD0AEE100AF0EE490ACAF8280011
:105160008AEE090A20EE08BAB0EE4A0AFFF720FFDD
:10517000B0EE409A20EE0B0A10EE100A01F02EFA63
:10518000B5EE40AA06460F46F1EE10FAB8BFB0EEF3
:105190004DCAC8BFB0EE4ECA2CEE080A10EE100A77
:1051A00001F01CFA044619EE100A0D4601F016FA39
:1051B0004A46434601F028F922462B4601F026F8DC
:1051C00032463B4601F020F900F0E8FC00EE100A00
:1051D000BDEC108BBDE8F087B0EE490A00F0C0FCD2
:1051E00050E700BF00BF00BF0000000000002040EB
:1051F000000000000000E03F000000000000F03F61
:105200000001002000000000B0B50C460546FCF788
:1052100047F82968411A0020A14228BF0120B0BDEB
:10522000B0B50C460546FCF73BF8B0FBF4F101FBCA
:105230001401281D002918BF012100F0DDF9A8790B
:10524000B0BD0000000000002DE9F0412DED048B01
:10525000B0EE418A90ED011A0446B0EE609A00EE7D
:10526000211A80ED001A20EE080A10EE100A01F053
:10527000B5F9804618EE100A0E4601F0AFF99FED21
:10528000100B02460B4651EC100B01F0BDF807461F
:1052900019EE100A0D4601F0A1F902460B463846F8
:1052A000294600F0B3FF4246334600F0A9FC00F067
:1052B00075FC606000EE100ABDEC048BBDE8F08167
:1052C000000000000000F03F70B52DED068BB0EE41
:1052D000408A0446022980ED0B0A0AD0012940F0D9
:1052E000868094F84D0070B194ED161A94ED172A4B
:1052F00013E094F84D0068B394ED16AA94ED172AC4
:1053000094ED189A49E094ED0E0A20EE002A30EE52
:10531000001A84ED161A84ED172A94ED083A94EDDC
:10532000090A94ED0C4A94ED0D5A04F1240038EE6C
:10533000436AB0EE407A06EE017A94ED121A84EDDB
:10534000106A26EE022A05EE047A01EE073A84ED91
:10535000083A48E094ED0E0AB0EE081A20EE01AAD1
:1053600020EE001A10EE100A20EE019A84ED16AA23
:1053700084ED189A01F032F99FED1F0B05460E4699
:1053800053EC102B00F042FF2A46334600F03EFF5C
:1053900000F004FC02EE100AE06594ED083A94ED8A
:1053A000094A94ED0A0A94ED121A94ED0C5A94ED00
:1053B0000D6A04F1280038EE437AF0EE440A47EE15
:1053C0000A0A84ED107A01EE203AF0EE400A47EE28
:1053D000020A84ED083A27EE092A46EE050A01EE94
:1053E000204A84ED094A01EE020A80ED000ABDEC74
:1053F000068B70BD00BF00BF000000000000084029
:1054000010B50446022907D0012938D194F84C0080
:10541000C0B394ED140A39E094F84C0048B994ED07
:105420000F0A30EE001A20EE000A84ED140A84ED13
:10543000151A94ED1D1AB5EE401AF1EE10FA36D099
:1054400094ED090AD4ED121AD4ED1C0A04F1780087
:10545000FFF7FAFE94ED1F0A94ED022A94ED011A6B
:1054600094ED083A94ED155A94ED144A32EE400A40
:1054700031EE431A25EE000A04EE010A2BE09FEDFF
:10548000300A2EE0E06B00EE100A206594ED011A60
:1054900094ED082A94ED153A94ED1B4A04F124008A
:1054A00031EE421A20EE010A03EE440A15E094EDB3
:1054B000023A94ED095A94ED150A94ED012A94EDFF
:1054C000084A94ED141A33EE453A32EE442A20EE9F
:1054D000030A01EE020A04F1280090ED001A30EEF2
:1054E000410A94F8801094F88100814203D9013078
:1054F00084F8810010BD94ED0D1A94ED112A00205E
:1055000084F8810080EE010AB1EE421AB4EE420A3C
:1055100084ED0C0AF1EE10FAC8BFB0EE420A05DCC9
:10552000B4EE410AF1EE10FA00DB10BDB4EE410A10
:10553000F1EE10FAB8BFB0EE410A84ED0C0A10BDCE
:1055400000000000B0B52DED028B0C461146B0EE08
:10555000608A0546FFF744FC2846B0EE480A21461B
:10556000FFF7B2FE28462146FFF74AFF95ED0C0AE9
:10557000BDEC028BB0BDB0B5089D0024C0ED192A6A
:10558000C0ED111A80ED122A80ED0D0A80ED0E1A81
:10559000C0ED0F0A4467C561079D8561059D0561E2
:1055A000049D80E82E00A0F84C4080ED052AB0BD97
:1055B00010B50023FF24052B02D0C4540133FAE7B1
:1055C00000239A4208BF10BDCC5C03550133F8E7B5
:1055D000084A00214FF07E5380F8BC10C0E92B131D
:1055E00080F89010C0F8B420C0E92013C0F88820DB
:1055F000704700BF6F12833A002242800278017028
:105600008B1A511A4270012B04BF0123C370012968
:1056100004BF01218170704780B5FFF7D9FF0549AC
:10562000C0F8B010C0F88410002180F8C01080F8D5
:10563000941080BD0000C8422DE9F04704460026C2
:105640004FF45A784FF000094FF0000A207A824553
:105650001AD265682046A95FFFF7FAF900FB0850E7
:105660000A211C30FFF7D0FD676805462046B95F68
:10567000FFF7EEF900FB087049EA050906F55A76CE
:105680000AF1010AC576E1E709F00100BDE8F087FB
:105690002DE9F0410446A1F5007008285DD8207A74
:1056A00000285AD02046FFF7D3F9411C55D0D4F832
:1056B00004E04FF45A720A9900FB02E20D88144686
:1056C0002BBA34F90A7F1B0C24F8083C4E8836BAF2
:1056D0004FEA164C24F806CC8E8836BA4FEA1648A4
:1056E0004FF6FF7624F8048C897924F8021CB9B2AD
:1056F000B14218BF8B421AD0E9BACD1B4FF45A7190
:1057000000FB01E715F57A6F05DA57F8141F2944F5
:1057100041F6FF7509E057F8141FB5F57A6F04DDFF
:10572000294441F6FF754D1B00E00D443D6012F821
:105730001A1F238022F80C8C22F80ECC31B90121DB
:1057400011704FF45A7100FB01E10B834FF45A7151
:1057500000FB01E4FBF7A4FDE061BDE8F08110B5BA
:105760004468FFF775F94FF45A7100FB014010BD12
:105770002DE9F041069F0E46054609301C4690462D
:105780003946FFF715FF04F10A004FF6FF71424654
:105790002E806C604AB10180013A17F8013B334416
:1057A00020F80A3C00F55A70F4E7284685F808808E
:1057B000BDE8F08110B50446C0E900120846114664
:1057C000FCF7C6FB6068042804D038B9206800687C
:1057D00034300BE020680068383007E02168082882
:1057E000096814BF01F1400001F13C0040F2DB51B7
:1057F000016010BD426800EE101A042A0FD0EAB909
:105800009FED181A9FED182AB8EE400A00EE012A03
:10581000BCEEC20A0068006880ED0D0A70479FED7B
:10582000111A9FED112AB8EE400A00EE012ABCEED3
:10583000C20A0068006880ED0E0A70479FED091AE1
:105840009FED092AB8EE400A082A00EE012ABCEEB4
:10585000C20A006810EE101A006814BF0164C16328
:10586000704700BF11C731410000FA43000000003B
:10587000F8B52DED108BC0ED120A80ED100A04462C
:1058800030EEC0CAB0EE608AD0E90C7084ED0CCA6C
:10589000C4E90D7094ED164A94ED132A94ED001AA4
:1058A00094F83C0094ED153A24EE009A30EEC20ACA
:1058B0002CEE01AA20EE03BA84ED179A84ED18AA03
:1058C00084ED14BA58B194ED050AB0EECC1AB4EEDA
:1058D000401AF1EE10FA20DBB4EE401A74E094F8AE
:1058E0003D00D0B194ED07FAB0EECCDAB4EE4FDA69
:1058F000F1EE10FA2DDA1CEE100A00F06FFE9FEDAB
:105900005C0B53EC102B00F081FC00F047F994ED98
:10591000060A20623FEE00EA3EE094ED010A2CEE1A
:10592000000A10EE100A00F059FE9FED510B53ECE7
:10593000102B00F06BFC0546606E0E4600F04EFE2C
:1059400002460B462846314600F05AF900F026F987
:105950003EE094ED060AB4EE4DFAF1EE10FA3FEE99
:1059600000EA1CDAB4EE4EDAF1EE10FA17DC30EE93
:105970004D1A3FEE011A81EE000A2CEE000A10EEDD
:10598000100A00F02BFE9FED3A0B53EC102B00F0A9
:105990003DFC00F003F9206200EE100A0AE0B4EECC
:1059A0004EDAF1EE10FAD1BF94ED080A0020206221
:1059B0009FED310A94ED011A94ED192AB4EE4EDAF6
:1059C00001EE002A84ED192AF1EE10FA01DD002023
:1059D000606694F83E0020B194ED020A04F14400A0
:1059E0000BE000EE107AD4E9090130EE4C0A84EDA8
:1059F000090AC4E90A0104F1080090ED001A94EDC7
:105A0000192A20EE010A94ED041A84ED1A0AB4EE64
:105A1000412AF1EE10FA06DCB1EE411AB4EE412A49
:105A2000F1EE10FA03DAB0EE412A84ED191A3AEEDB
:105A3000021A84ED138A31EE000A3BEE000A39EEB9
:105A4000001A94ED030A84ED1B1AB4EE401AF1EE2D
:105A500010FA06DCB1EE400AB4EE401AF1EE10FA8C
:105A600001DA84ED1B0ABDEC108B01B0F0BD00BF64
:105A7000FCA9F1D24D62503F0000000010B5074C68
:105A800000F00F03044AB0F1FF3F2344C8BF83185E
:105A90000801187010BD00BF00E400E014ED00E044
:105AA000FBF70CFCFEF7B2FDFDF798FDFDF750FD8E
:105AB000FDF712FDFDF72EFDFDF792FEFDF7ACFEA2
:105AC000FDF700FFFDF71CFEFDF74AFEFDF768FE3F
:105AD000FDF7BCFEFDF7DAFEFDF7C4FDFEF72EFC78
