:020000040800F2
:10000000A0270020510200087F2B0008532700087A
:100010007D2B00087B050008493300080000000024
:10002000000000000000000000000000832B00081A
:100030004306000800000000812B0008AD2B0008DB
:100040006B0200086B0200086B0200086B020008DC
:100050006B0200086B0200086B0200086B020008CC
:100060006B0200086B0200086B020008A50500087F
:10007000B10500086B020008BD0500086B0200080E
:100080006B020008C90500086B0200086B0200083B
:100090007D050008850500086B0200086B0200085A
:1000A0006B0200086B0200086B0200086B0200087C
:1000B000792C0008852C00086B0200086B020008F0
:1000C0006B0200086B0200086B0200086B0200085C
:1000D0006B020008253300086B020008313300086A
:1000E0006B0200086B0200086B0200086B0200083C
:1000F0006B0200086B0200086B0200086B0200082C
:100100006B0200086B020008912C00086B020008CB
:100110006B0200086B0200089D2C0008A92C000847
:100120006B020008D50500086B0200086B0200088E
:100130006B0200086B0200086B0200086B020008EB
:1001400091050008990500086B0200086B02000881
:100150006B020008E10500086B0200083D3300084F
:100160006B0200086B0200086B0200086B020008BB
:100170006B0200086B0200086B0200080000000020
:100180006B0200086B020008292F0008352F0008B9
:100190006B0200086B0200086B0200086B0200088B
:1001A00000000000000000006B02000800F002F8F0
:1001B00000F03EF80AA090E8000C82448344AAF1C3
:1001C0000107DA4501D100F033F8AFF2090EBAE8C1
:1001D0000F0013F0010F18BFFB1A43F0010318477B
:1001E0001061000030610000103A24BF78C878C167
:1001F000FAD8520724BF30C830C144BF04680C602D
:10020000704700000023002400250026103A28BF74
:1002100078C1FBD8520728BF30C148BF0B60704778
:100220001FB506F046F800F01BF91FBD10B510BD54
:1002300000F06EF91146FFF7F3FF05F01BFA00F02E
:100240008CF903B4FFF7F2FF03BC00F08FF9000054
:100250000948804709480047FEE7FEE7FEE7FEE75A
:10026000FEE7FEE7FEE7FEE7FEE7FEE70448054996
:10027000054A064B70470000692C0008AD010008D4
:10028000A0210020A0270020A0230020A0230020E0
:1002900053EA020C00F069802DE9F04B4FF00006A4
:1002A000002B1FBFB3FA83F503FA05F424FA05F611
:1002B0005E4012BF1643B2FA82F502FA05F4C5F1A8
:1002C00020051EBF22FA05FC44EA0C04203556EA3C
:1002D000044C4FEA144418BF641C4FF000084FF060
:1002E0000009904271EB030C39D3002919BFB1FA10
:1002F00081F701FA07F6B0FA80F700FA07F6C7F1BE
:1003000020071EBF20FA07FC46EA0C062037B6FB82
:10031000F4FCA7EB0507103F07F01F0BCBF12006FD
:100320002CFA06F60CFA0BFB44BFB3460026202F2E
:10033000A4BF5E464FF0000B5BEA060C08BF4FF00F
:10034000010B19EB0B0948EB0608ABFB027C06FB23
:1003500002CC0BFB03CCC01B71EB0C01C1E70B46BD
:10036000024641464846BDE8F08B13B5084318BF26
:100370004FF0FF300146AFF30080BDE81C407047EE
:10038000032A40F2308010F0030C00F0158011F8C1
:10039000013BBCF1020F624498BF11F801CB00F899
:1003A000013B38BF11F8013BA2F1040298BF00F8ED
:1003B00001CB38BF00F8013B11F0030300F06D8062
:1003C000083AC0F0088051F8043B083A51F804CBD1
:1003D000A0E80810F5E7121D5CBF51F8043B40F897
:1003E000043BAFF30080D20724BF11F8013B11F8A2
:1003F00001CB48BF11F8012B24BF00F8013B00F8E6
:1004000001CB48BF00F8012B70474FF0000200B548
:10041000134694469646203922BFA0E80C50A0E827
:100420000C50B1F12001BFF4F7AF090728BFA0E8D5
:100430000C5048BF0CC05DF804EB890028BF40F8A1
:10044000042B08BF704748BF20F8022B11F0804FE3
:1004500018BF00F8012B70477047704770470000C5
:1004600070B5064C7C44064D7D4404E0204601688E
:1004700008448047241DAC42F8D170BDA85E00003E
:10048000A85E000010B500F03BF8006810BD10B584
:10049000044600F035F8046010BD10B5203AC0F0F5
:1004A0000B80B1E81850A0E81850B1E81850A0E847
:1004B0001850203ABFF4F5AF5FEA027C24BFB1E8E0
:1004C0001850A0E8185044BF18C918C0BDE8104023
:1004D0005FEA827C24BF51F8043B40F8043B08BF2C
:1004E0007047D20728BF31F8023B48BF11F8012BF3
:1004F00028BF20F8023B48BF00F8012B70470000DE
:1005000000487047A000002000487047A00000206D
:100510007546FFF7F9FFAE4605006946534620F0E1
:100520000700854618B020B5FFF7A0FEBDE82040C3
:100530004FF000064FF000074FF000084FF0000B9F
:10054000AC46ACE8C009ACE8C009ACE8C009ACE80E
:10055000C00921F007018D46704710B50446AFF37E
:1005600000802046BDE81040FFF76BBE014918200F
:10057000ABBEFEE7260002007047FEE7034800F02E
:1005800035B900BF014800F031B900BF281700207D
:10059000034800F02BB900BF014800F027B900BFA5
:1005A00050170020014800F0E5BB00BFD81700201D
:1005B000014800F0DFBB00BF38180020014800F000
:1005C000D9BB00BF98180020014800F0D3BB00BF82
:1005D00078170020014800F0CDBB00BFF8180020BC
:1005E000014800F0C7BB00BF5819002010B50168D2
:1005F0006FF00F02182308A452FA81F2B2FBF3F352
:100600005F2AE35C40F2FF3421EA040188BF043131
:10061000C0E91613084610BD000610160006101695
:10062000B0B50468806825684028084625F4802510
:100630002560636008BF1046A06008BF0A46E260FC
:10064000B0BD7047EFF3108072B6FEE770B590F85A
:1006500020600468013EA568012E0CD815F0E05F0B
:100660000FD0C5F30165032D11D100F12401012044
:100670004FF4000232E000F1240101204FF4802207
:100680002CE000F1240101204FF4001226E00120AB
:10069000A8401860886818B14B6840EAC30301E0BD
:1006A0000868430504EB0510D1E903452343C0F86E
:1006B0008031C0F88451097D012905D100F5C2714E
:1006C0000B6843F480730B605168C0F88C1111689B
:1006D0000122C0F8881100F5C07100200B681A4390
:1006E0000A6070BD704770B590F82040013C012C45
:1006F00003D8046839B1256906E000F1240101201E
:100700004FF480226DE0E568AD0760D004EB011482
:10071000D4F8B05115F00405956004F5D875D4F8F7
:10072000B06119BFF6085660760D16602D6805F0A9
:100730000205D560D4F8B45105F00F051561D4F861
:10074000B451C5F307259561D4F8B4514FEA154566
:100750005561D4F8B8211A70026802EB0112D2F880
:10076000B8214FEA12225A70026802EB0112D2F845
:10077000B8214FEA12429A70026802EB0112D2F8D5
:10078000B8214FEA1262DA70026802EB0112D2F865
:10079000BC211A71026802EB0112D2F8BC214FEAA7
:1007A00012225A71026802EB0112D2F8BC214FEA00
:1007B00012429A71026802EB0112D2F8BC214FEA90
:1007C0001262DA71006841B100F1100107E000F136
:1007D000240101204FF4001203E000F10C0100207D
:1007E00020220B681A430A6070BD00002DE9F84F03
:1007F000044600684669D0F804908768D0F80CB0C9
:10080000D0F810A0D0F81880F10701D1002545E0FC
:10081000F9070FD001218160B80708D4780720D4E8
:10082000380700F1BB80204600F04BFA02E020467A
:1008300000F048FA0025F80518D520684FF48071BB
:100840008160B80509D478050ED438054EBF05F58A
:100850008045204600F037FA08E0204600F034FAE0
:1008600004E04FF40065E6E705F50055F80315D5FB
:1008700020684FF480318160B80309D478030BD429
:1008800038034EBF05F58035204600F01EFA05E01E
:10089000204600F01BFA01E005F50045300707D5BA
:1008A0001BF0100004D02068102145F40075C160D1
:1008B000700708D51BF0080005D020680821C1602A
:1008C000204600F08BF9B00706D52068C068800785
:1008D00002D0204600F084F9700607D51AF0100007
:1008E00004D02068102145F480650161B00608D568
:1008F0001AF0080005D0206808210161204600F0A8
:10090000DDF9F00606D520680069800702D0204690
:1009100000F0D5F9B00308D519F0100005D0206813
:1009200010214160204600F0CBF9F00308D519F002
:10093000080005D0206808214160204600F0C7F972
:10094000300444D55FEA49703ED506F480705FEA12
:10095000887108EA102040EA0500014648BF41F0CE
:100960000201B20558BF01465FEA48700D4648BF14
:1009700045F00405700558BF0D46300524D518F024
:10098000700021D010380009052818D8DFE800F0E1
:1009900003090C0F121545F0080510E04FF48055BF
:1009A00049E745F010050AE045F0200507E045F06D
:1009B000400504E045F0800501E045F480752068BD
:1009C000816921F0700181612068042141603DB19D
:1009D000606A284360622046BDE8F84FFFF782BE98
:1009E000BDE8F88F70B5C0B1044690F8200010B98A
:1009F000204600F06FF82068016841F001010160B5
:100A000000F00EFC054620684168C90707D100F0D8
:100A100007FC401B0B28F6D311E0012070BD0168D4
:100A200021F00201016000F0FBFB054620684168EF
:100A300089070BD500F0F4FB401B0B28F6D3606A46
:100A4000052140F400306062012040E0217E026810
:100A5000261D22F08003012908BF42F080030360B5
:100A6000617E026822F04003012908BF42F0400382
:100A70000360A17E026822F02003012908BF42F032
:100A800020030360E17E026842F01003012908BFE1
:100A900022F010030360217F026822F0080301297D
:100AA00008BF42F008030360617F026822F004037C
:100AB000012908BF42F0040303606ECE1A432A43A3
:100AC000013932431143C16100200121606284F881
:100AD000201070BDB0B586B0044601A81421FFF700
:100AE00094FC20683849884226D03849884269D128
:100AF000384801684A1C0260354851B9002100910C
:100B0000016941F000710161016901F0007100911A
:100B100000990021152414250091016841F0080175
:100B20000160006800F00800009003200190009828
:100B3000294800F500602AE000212548254B009156
:100B4000026942F08062026102691C68651C02F061
:100B500080621D600092009A4CB90091026942F0D7
:100B600000720261026902F000720092009A009124
:100B700041244025016841F002010160006800F055
:100B8000020000904FF44050019000981248092153
:100B9000059103210491002103910221029101A9F1
:100BA00000F05EFA28460021002200F0D5FB28461E
:100BB00000F0C4FB20460021002200F0CDFB2046BF
:100BC00000F0BCFB06B0B0BD00680040006400400F
:100BD00030380240680400200004024070470000E2
:100BE0002DE9F04385B005462D482C4E002100F13B
:100BF000680406F1500228462346FFF774FD294891
:100C000085421BD02848854245D106F15C0706F194
:100C10005003B66EA1CF0ECB8DE8A100CDE90364E1
:100C2000224C04F1300002F097FF94ED0D0A2048A9
:100C3000012105B0BDE8F04303F0EEB806F15C0C0D
:100C400006F15003DFF86C90DFF86C809CE8A1108F
:100C50000ECB8DE8A11009F120000494C04706F1E5
:100C60005003D6E91707D6E9195C0ECBCDE900078A
:100C700009F11000CDE9025C0494C04706F15C075D
:100C800006F15003B66EA1CF0ECB8DE8A100484609
:100C9000CDE90364C04705B0BDE8F08368020020D9
:100CA0007C0100202817002050170020F8030020A6
:100CB000D4020020F0010020CD46000870477047A4
:100CC000704770477047704770477047704770476C
:100CD00070B5866D044600F0A3FA054694F8350019
:100CE00002281ED12068216C026822F016020260E0
:100CF000426922F08002426109B9A16C19B1016810
:100D000021F008010160016821F001010160006823
:100D1000C0070AD000F084FA401B05280FD82068CD
:100D2000F5E78020606501200EE0E06D3F2101FACB
:100D300000F0B060012084F83500002004E020209D
:100D40006065032084F83500002184F8341070BDFC
:100D500090F83510022909D1052180F83510006876
:100D6000016821F001010160002070478021416588
:100D700001207047F8B504460020594A0821009028
:100D8000D4E9166015683768814039420CD0226872
:100D900013685B0708D5136823F004031360B16080
:100DA000616D41F00101616501218140394208D046
:100DB00022685269120604D5B160616D41F00201EA
:100DC000616504218140394208D022681268920787
:100DD00004D5B160616D41F004016165102181406D
:100DE000394217D020680268120713D5B160026833
:100DF0000168520306D4C90506D4016821F0080130
:100E0000016001E0080301D4216C00E0A16C09B18C
:100E100020468847E16D202000FA01F23A423BD09B
:100E200020680368DB0637D5B26094F83530026875
:100E3000052B19D122F016020260426922F08002CD
:100E40004261226C0AB9A26C1AB1026822F008024F
:100E500002603F208840B060002084F83400012008
:100E600084F83500216D37E0016852030CD4C905C0
:100E70000ED4016821F010010160002084F83400D4
:100E8000012084F8350003E0080301D4616C00E020
:100E9000E16B09B120468847606D00B3606DC00703
:100EA00019D005214FF4165084F83510B5FBF0F039
:100EB00021680A6822F001020A60009A0132824227
:100EC000009202D80A68D207F7D1002084F83400D3
:100ED000012084F83500E16C09B120468847F8BD4F
:100EE000340000202DE9F041044600F099F9ACB13E
:100EF0000546022084F835000020216884F834007B
:100F0000086820F0010008600868C00709D000F0F8
:100F100087F9401B052838D82168F5E70120BDE88E
:100F2000F0810868271D344AE8CF00EA020ED4E9B0
:100F3000050CD4E9072843EA0E032B4333433B4314
:100F40001843636A40EA0C001043042B40EA08028D
:100F50001FD1D4E90A53206B1A4340EA020008600B
:100F600051F8140F20F0030040EA050040F004029D
:100F7000B3B1BCF5005F24D0BCF1000F31D1022D1C
:100F800032D0012D27D0002D2DE00326202703206D
:100F900012E00A6051F8140F20F0070040EA030243
:100FA00020460A60FFF722FBE16D3F220027012661
:100FB00002FA01F181600020676584F83560BDE8C0
:100FC000F081032DECD8012640270120DFE805F051
:100FD000020C0203F0E7A3F1C070B0FA80F0400900
:100FE00004E0032D04D3DBD1C3F300600028D7D085
:100FF000012640270120DFE73F8010F0B0B504460E
:1010000090F83400012828D00120A56D84F8340020
:1010100094F8350001281DD1022084F83500002005
:1010200060652046FFF7FCFAE26D3F232068216CE3
:1010300003FA02F2AA60026842F01602026019B1D5
:10104000016841F008010160016841F0010101609F
:101050000020B0BD002084F834000220B0BD0000A4
:101060002DE9FC4F654A0A244FF0010B4FF00009AF
:101070004FF0000A9042624A08BF092402444FEA36
:10108000B223092B4FF0000338BF4FEAB22400947B
:10109000202B08BFBDE8FC8F0F680BFA0AF6374219
:1010A00000F0A5804F6807F00308A8F10104012CA7
:1010B00018D8032285684FEA4A0E02FA03F425EA9B
:1010C000040CCD689D4045EA0C058560C7F300150A
:1010D00005FA0AFC4568B54345EA0C056FEA040CBD
:1010E00045600CE00324B8F1030F9E4604FA03F4B4
:1010F0006FEA040C03D19E464FF0030821E0C46858
:101100008D68B8F1020F04EA0C0405FA0EF544EA02
:101110000504C46015D109F01C040F2202FA04F87A
:101120006FF0030202EA5A0707443D6A25EA0808FD
:101130000D6905FA04F444EA08043C624F6807F0BC
:101140000308056808FA0EF417F4403F05EA0C0599
:1011500044EA050404604AD000222AF00307019201
:101160002A4A146844F48044146014680F2204F47A
:101170008044019409F00C0402FA04FC214A019D08
:1011800096461744224ABD589046009A25EA0C0517
:1011900002FA04F42C4347F80840DEF808404F6890
:1011A000FA0244EA0605184A58BF24EA0605CEF8B2
:1011B0000850BD029446126842EA060458BF22EA6B
:1011C0000604CCF80040BD03DEF8042042EA060421
:1011D00058BF22EA0604CEF80440FD03DEF80020E2
:1011E00042EA060458BF22EA0604CEF8004009F19C
:1011F000040902330AF1010A4AE700BF0024024051
:101200000000FEBF003C01400C3C0140443802405D
:1012100008FCFFFF002A08BF090481617047000035
:1012200006480068704700BF0348044900780A6810
:1012300010440860704700BF00000020EC1F002031
:1012400080B50B48016841F400710160016841F408
:1012500080610160016841F480710160032000F049
:1012600097F80F2000F006F800F04EF8002080BD3F
:10127000003C024070B586B00446002564480195E4
:10128000016841F0020101606946006800F0020057
:101290000190019801A800F053F9049E00F06CF948
:1012A0001649002E164B40F2E7328D6118BF012619
:1012B000B040144EB0FBF6F00138C1E900300846EA
:1012C000C1E902520D6100F077FB054698B90B4861
:1012D00000F01CFC054670B91D2000F02FF80F2C03
:1012E00008D81D2021460022002500F035F893483B
:1012F000046000E00125284606B070BD001A0020F9
:101300000004004040420F0082B00020404901909C
:101310004A6842F480424A604A6802F4804201927C
:10132000019A0090086840F080500860086800F05A
:1013300080500090009802B0704700BF002808D489
:1013400000F01F010122400902FA01F1014A42F8AE
:101350002010704700E100E070B5134B4FF0FF35EF
:101360001B68C3F30223DC1E83F0070338BF00248D
:10137000042B28BF042305FA04F605FA03F3B2434D
:101380009943A1401143BDE8704003F037BB00BF53
:1013900005494FF6FF030A681A4060F30A22034822
:1013A00010430860704700BF0CED00E00000FA0534
:1013B0007CB50020174E184D01901548016841F08A
:1013C00080510160006800F0805001900198012078
:1013D0003060FFF725FF04462868C00306D4FFF7F6
:1013E0001FFF001BB0F57A7FF6D90DE00120706079
:1013F000FFF716FF04462868800307D4FFF710FFA5
:10140000001BB0F57A7FF6D903207CBD00207CBD9F
:101410004038024040000E42047000402DE9F04187
:10142000002860D0434B04468846D3F8000400F0FF
:101430000F00884207D283F80084D3F8000400F03C
:101440000F0040454FD12068810711D5410703D5D2
:10145000996841F4E0519960010703D5996841F416
:1014600060419960A1689A6822F0F0021143996086
:10147000C00731D1D3F8000400F00F00404507D970
:1014800083F80084D3F8000400F00F0040452AD10F
:101490002068410705D5E1689A6822F4E0521143BB
:1014A0009960000706D52069996821F4604141EAF6
:1014B000C00098601C4600F079F8A1681E4AC1F38C
:1014C0000311515CC840364908601C480068FFF7AA
:1014D000D1FE0020BDE8F0816068811E022905D29E
:1014E0001968890107D40120BDE8F08101281DD1C8
:1014F00019688903F7D599681D4621F0030108434F
:101500009860FFF78DFE064641F288376068A9684B
:101510002B4601F00C01B1EB800FABD0FFF780FE42
:10152000801BB842F2D90320BDE8F0811968890711
:10153000D9D5E0E700380240D66200080400002058
:1015400010B50F224FF4E0540260164A136803F0FE
:1015500003034360136803F0F0038360136803F42C
:10156000E053C360136804EAD3030361D2F8F803BD
:1015700000F00F00086010BD09480A490A4A0068D7
:101580000968C1F38221515CC8407047044805498D
:10159000054A00680968C1F34231515CC840704790
:1015A0003400002008380240E662000810B5134CF1
:1015B000606800F00C00082804D0042814BF10480C
:1015C000104810BD226820680023400202F03F024C
:1015D0000C485CBF42F20040C0F2F4002168C1F345
:1015E0008811A0FB0101FEF753FE21680222C1F31E
:1015F000014102EB4101B0FBF1F010BD04380240A3
:101600000024F400001BB7002DE9FC41002864D041
:1016100004460078C74EC0070BD0B06800F00C003D
:10162000042840F097803068800302D56068002865
:1016300053D0207880071AD5B06810F00C0F09D06D
:10164000B06800F00C00082840F0AA8070684002E2
:1016500000F1A6803068800702D5E06801283CD1FF
:101660002069316821F0F80141EAC000306020783B
:10167000000735D42078400746D4A76957B3B0682F
:1016800000F00C00082840F0CB80012F25D0E16944
:10169000706800F480028A421FD1216A00F03F0284
:1016A0008A421AD147F6C071626A0140B1EB821FCB
:1016B00013D1A16A4FF6FF72C903914300F440327F
:1016C000A1F580318A4208D1E16A00F07060B0EB88
:1016D000016F02D10020BDE8FC810120BDE8FC8142
:1016E00061699548002900F089800121C0F8801EB9
:1016F000FFF796FD0546706F8007BBD4FFF790FD9E
:10170000401B0228F7D988E0306C4FF00008C00079
:101710000CD4CDF804804FF00108306C40F08050BC
:101720003064306C00F0805001900198834F38682D
:10173000C00548D4386840F480703860FFF770FD09
:1017400005463868C0053ED4FFF76AFD401B0228F5
:10175000F7D962E0B06800F00C00082803D1706887
:1017600040023FF560AF6768B7F5803F07D030684B
:10177000B7F5A02F40F0A58040F48020306030689D
:1017800040F480303060FFF74BFD05463068800341
:101790003FF54FAFFFF744FD401B6428F6D93CE00E
:1017A000E06800285BD0644801210160FFF738FD44
:1017B0000546306880073FF553AFFFF731FD401B0A
:1017C0000228F6D929E0A768012F05D0306F052F30
:1017D00056D140F004003067306F40F001003067B0
:1017E000FFF71EFD054641F28837306F80075FD452
:1017F000FFF716FD401BB842F7D90EE00021C0F8F4
:10180000801EFFF70DFD0546706F80077FF532AF34
:10181000FFF706FD401B0228F6D90320BDE8FC8136
:101820004549002088460866FFF7FAFC0546022F66
:101830000AD14746306880015CD5FFF7F1FC411BB7
:1018400003200229F6D946E7306880017FF542AFD0
:10185000FFF7E6FC411B03200229F5D93BE7364898
:1018600000210160FFF7DCFC0546306880077FF54A
:10187000FEAEFFF7D5FC411B03200229F5D92AE76C
:1018800020F001003067306F20F004003067FFF770
:10189000C7FC0546002FA6D141F28837306F80077C
:1018A00006D5FFF7BDFC411B0320B942F6D912E76C
:1018B000B8F1000F3FF4E1AE306C20F0805030649E
:1018C000DBE620F480303060306820F48020306027
:1018D000FFF7A6FC0546002F7FF458AF06E0FFF7A0
:1018E0009FFC411B032064293FF6F5AE306880035E
:1018F000F5D49EE61C341FCC0843D90340EA82107D
:101900004FF6FF72914340EA0460A1F5803108432D
:10191000706001203866FFF783FC04463068800160
:101920003FF5D8AEFFF77CFC011B03200229F5D957
:10193000D1E600BF0038024000004742007000407E
:101940007047704710B590F83C300222012B30D020
:1019500080F83D20012280F83C2002680B68546822
:10196000B2F1804F24F0700444EA03049368546099
:1019700014D07F4CA24211D07E4CA2420ED07E4C9D
:10198000A2420BD07D4CA24208D07D4CA24205D091
:101990007C4CA24202D07C4CA24204D1496823F084
:1019A0008003194391600022012180F83C2080F8D7
:1019B0003D10104610BD00BF40B310B5044690F86E
:1019C0003D0028B9002084F83C00204600F020F8B3
:1019D0000220211D84F83D00206801F06BF90120F0
:1019E00084F8460084F83E0084F83F0084F8400004
:1019F00084F8410084F8420084F8430084F84400ED
:101A000084F8450084F83D00002010BD0120704797
:101A100010B586B0044601A81421FEF7F6FC206834
:101A200000F140404FEAB02005286AD8DFE800F016
:101A30000369692F42550020334900900A6842F03B
:101A400001020A600A6802F001020092009A009006
:101A500051F8102C42F0010241F8102C51F8101CE2
:101A600001F00101009101210591CDE9030002205F
:101A700001A90290032001900098F148FFF7F0FAC5
:101A80001C2000210022FFF767FC1C2037E000200B
:101A9000002200901C48016841F00801016001210A
:101AA000006800F00800009000983220FFF754FC16
:101AB000322024E00020002200901348016841F009
:101AC000100101600121006800F0100000900098F2
:101AD0003620FFF741FC362011E000200022009064
:101AE0000948016841F0200101600121006800F00F
:101AF0002000009000983720FFF72EFC3720FFF7DA
:101B00001DFC06B010BD00BF4038024090F83D10EB
:101B100001291CBF01207047022180F83D10006898
:101B2000C168B0F1804F41F00101C16014D010498B
:101B3000884211D00F4988420ED00F4988420BD0FD
:101B40000E49884208D00E49884205D00D49884286
:101B500002D00D49884204D1816801F007010629AD
:101B600003D0016841F0010101600020704700BF0F
:101B70000004004000080040000C00400018004035
:101B800000000140004001400004014010B590F801
:101B90003C2004460220012A70D084F83D00012038
:101BA0004FF6777384F83C00206882689A4382601D
:101BB0000A6812B3102A20D0202A1ED0302A1CD046
:101BC000402A21D0502A2BD0602A35D0B2F5005FB0
:101BD0003ED0B2F5805F4AD0702A50D1D1E90123BE
:101BE000C9681A4342EA0121826822F47F42114304
:101BF0008160816841F0770138E0816821F07001EF
:101C0000114341F0070131E04B68CA68194601F001
:101C100069F92068816841F0470121F0300125E031
:101C20004B68CA68194601F05DF92068816841F087
:101C3000570121F0200119E04B68CA68194601F0EC
:101C400062F92068816841F0670121F010010DE020
:101C5000D1E90123C9681A4342EA0121826822F4CA
:101C60007F4211438160816841F48041816000209E
:101C7000002184F83C10012184F83D1010BD0120A2
:101C8000F6E7704710B5044600680169890744BF4C
:101C9000C1685FEA817139D40169490744BFC168ED
:101CA0005FEA41713ED40169090744BFC1685FEA38
:101CB000017144D40169C90644BFC1685FEAC161CA
:101CC00049D40169C9071CBFC1685FEAC1714FD11E
:101CD0000169090644BFC1685FEA016150D4016926
:101CE000490644BFC1685FEA416151D40169890670
:101CF00044BFC1685FEA816100D410BD6FF020016C
:101D000001612046BDE81040FFF71BBE6FF00201E5
:101D10000161012121778069800741D02046FFF7CA
:101D2000B0FF43E06FF00401016102212177806977
:101D300010F4407F3ED02046FFF7A3FF40E06FF055
:101D40000801016104212177C06980073CD0204649
:101D5000FFF797FF3EE06FF0100101610821217746
:101D6000C06910F4407F39D02046FFF78AFF3BE07E
:101D70006FF001010161204600F0E0F82068A7E75C
:101D80006FF0800101612046FFF7DAFD2068A6E7C9
:101D90006FF040010161204600F0F2F82068A5E7ED
:101DA000204600F04FF8204600F0C7F800202077CA
:101DB000206871E7204600F045F8204600F0BDF8A5
:101DC0000020207720686EE7204600F03BF8204690
:101DD00000F0B3F80020207720686BE7204600F081
:101DE00031F8204600F0A9F800202077206868E745
:101DF00010B586B0044601A81421FEF706FB206842
:101E0000B0F1804F17D100200C4900900A6842F0D1
:101E100001020A60096801F00101009101210591A8
:101E2000CDE90300022001A902900420019000984E
:101E30000348FFF715F906B010BD00BF3038024067
:101E40000000024070470000B0B5044690F83C0026
:101E5000012804BF0220B0BD0D464FEAB2010120A7
:101E6000032984F83C0037D8DFE801F0020A122287
:101E70002068294600F086FF206850F8181F0EE001
:101E80002068294600F0A8FF206850F8181F16E0C7
:101E90002068294600F0D0FF206850F81C1F41F050
:101EA00008010160016821F00401016029690FE067
:101EB0002068294600F0F2FF206850F81C1F41F40A
:101EC00000610160016821F48061016029690902F3
:101ED0000268114301600020002184F83C10B0BD6D
:101EE00040B310B5044690F83D0028B9002084F8AE
:101EF0003C00204600F020F80220211D84F83D001F
:101F0000206800F0D7FE012084F8460084F83E00E7
:101F100084F83F0084F8400084F8410084F84200CF
:101F200084F8430084F8440084F8450084F83D00B8
:101F3000002010BD0120704770477047B0B50446BF
:101F400000680E4DA84202D1FFF76EF9206805F532
:101F50004061884202D102F063FD206805F500610E
:101F6000884202D100F00EFE206805F580518842BB
:101F700018BFB0BDBDE8B04003F09CBB00040040FA
:101F80007047BCB5044690F83E00202806D10125D4
:101F900029B122B194F83C00012802D1022528463B
:101FA000BCBD01252046256384F83C5001F056F95C
:101FB000206B0128F3D10020019020680168019175
:101FC00041680191019950E8030F216840F0100029
:101FD00041E803020AB12068F5E70025DFE7BCB558
:101FE000044690F83E00202806D1012529B122B1EF
:101FF00094F83C00012802D102252846BCBD0125E9
:102000002046256384F83C5001F070F9206B0128CC
:10201000F3D100200190206801680191416801918D
:10202000019950E8030F216840F0100041E80302D5
:102030000AB12068F5E70025DFE7000010B5044687
:1020400001F08EFE0748844218BF10BD06480121EA
:102050000D2280F82E1000F10E010248BDE810405C
:10206000FFF78FBF641B0020F803002070470000BB
:10207000F8B5044600680168C268466901F02F059A
:1020800002F02003202D05D123B12046BDE8F84001
:1020900001F020B85FEA017E08D006F0010612F4D4
:1020A000907F86F0010750D1002F4ED01140CA0614
:1020B000226B39D5012A37D10021009101680091A6
:1020C0004168009100994169490600F18C80E18DD9
:1020D000A28DE38D13B1511A0A0401D1F8BD206815
:1020E00050E8030F226820F4907042E80303002BAD
:1020F000F5D1206850E8050F226820F0010042E881
:102100000503002BF5D1202084F83E000020206339
:10211000206850E8030F226820F0100042E8030313
:10212000002BF5D189B2A2E00A0600F1A58049068C
:10213000D4D5C16821F04001C160202084F83D0061
:102140002046BDE8F84000F002BBCD0718BF12F4EE
:10215000807503D0256C45F00105256401F0040568
:102160004FF0010C8CEA95053D4303D1256C45F0F9
:102170000205256401F002058CEA55053D4303D1B3
:10218000256C45F004052564334318BF0123BEF1D7
:10219000000F04D51BB1236C43F008032364236CA8
:1021A000002B9BD01140890603D5204600F092FFFA
:1021B00020684069216C00F0400001F008014018DF
:1021C0006BD0204600F051FF20684169490678D560
:1021D00050E8050F216820F0400041E80502002A80
:1021E00061D02068F4E7A26B11684B689DB2002DA6
:1021F0003FF474AFA18D8D42BFF470AFE385D26917
:10220000B2F5807F30D050E8030F216820F4807051
:1022100041E803020AB12068F5E7206850E8050F9D
:10222000216820F0010041E80502002AF5D120686C
:1022300050E8050F216820F0400041E80502002A1F
:10224000F5D1202084F83E0000202063206850E86B
:10225000030F216820F0100041E80302002AF5D1A5
:10226000A06BFEF735FDA18DE08D081A81B22046E6
:10227000BDE8F840FFF7E2BE94F83D1021297FF455
:102280002DAFA168B1F5805F01D12169F1B1216A5B
:102290004A1C2262097841601FE02046FFF7E6FEF3
:1022A00000202064F8BDA06B58B113490165FEF70A
:1022B0004FFD00283FF412AFA06B016DBDE8F84060
:1022C00008472046BDE8F840FFF7D0BE216A31F844
:1022D000022B6FF35F2221624260E18C0139E184BD
:1022E00009047FF4FBAEC16821F08001C160C168C0
:1022F00041F04001C160F8BD412F000850B310B556
:10230000044690F83D0028B9002084F83C0020469F
:1023100000F022F8242084F83D002068C16821F4F0
:102320000051C160204600F037FF2068016921F4A8
:1023300090410161416921F02A014161C16841F484
:102340000051C16000202021206484F83D1084F8F1
:102350003E1010BD012070472DE9F04387B00446C0
:1023600002A81421FEF751F82068BA49884237D0F4
:10237000B949884200F08E80B849884200F0E48074
:10238000B749884200F03681B649884240F05E8104
:102390000020B54901900A6942F080420A610A6949
:1023A00002F080420192019A01900A6842F0100204
:1023B0000A60096801F010010191082106910321CA
:1023C000CDE90401022002A903904FF4C0700290ED
:1023D0000198A64800F54060FEF742FE52242DE128
:1023E0000026A1480196016941F48021016101693B
:1023F00001F48021019101990196016841F00801E1
:10240000016002A9006800F0080001900720069012
:102410000320CDE90460022003904FF44070029045
:102420000198924800F50060FEF71AFE914F934D17
:102430004FF000694FF48068142107F11800C5E9D6
:10244000000905F11400C5E90266C5F81080FDF722
:10245000DCFF2846FEF746FD08B1FEF7F3F8AC6353
:10246000A563874D07F148014020C5E9001905F132
:10247000080181E8410105F114001421FDF7C5FFB1
:102480002846FEF72FFD08B1FEF7DCF8AC63656364
:102490002724D3E00026ED480196416941F0200150
:1024A0004161416901F020010191019901960168A2
:1024B00041F04001016002A9006800F04000019075
:1024C000082006900320CDE90460022003904FF419
:1024D000844002900198654800F5A050FEF7C0FDC9
:1024E000644F634D4FF020694FF48068142107F565
:1024F0008360C5E9000905F11400C5E90266C5F865
:102500001080FDF782FF2846FEF7ECFC08B1FEF7CD
:1025100099F8AC63A563584D07F592614020C5E971
:10252000001905F1080181E8410105F114001421A9
:10253000FDF76BFF2846FEF7D5FC08B1FEF782F8E1
:10254000AC636563472479E00026E448019601699D
:1025500041F000410161016901F0004101910199DF
:102560000196016841F0100101600221006800F04D
:1025700010000190082006900320CDE90460CDE909
:10258000020102A90198394800F54060FEF768FD94
:10259000384F3C4D4FF020694FF48068142107F10B
:1025A0009000C5E9000905F11400C5E90266C5F807
:1025B0001080FDF72AFF2846FEF794FC08B1FEF7CD
:1025C00041F8AC63A563304D402005F10801C5E931
:1025D000007981E8410105F114001421FDF715FF90
:1025E0002846FEF77FFC08B1FEF72CF8AC63656364
:1025F000532423E00020B94901904A6942F01002B7
:102600004A614A6902F010020192019A01900A6837
:1026100042F002020A60096801F0020101910721FB
:1026200006910321CDE90401022002A90390C020F4
:10263000029001980D48FEF713FD25242046002145
:102640000022FEF789FE2046FEF778FE07B0BDE8BF
:10265000F08300BF0048004000140140007C0040AF
:102660000010014000780040303802400004024071
:10267000F818002010600240581900203818002077
:102680009818002078170020D8170020704770474E
:10269000F8B5044690F83D00202806D139B113461C
:1026A0002AB194F83C00012803D10220F8BD012092
:1026B000F8BD0025E3840120124E144F256484F8F0
:1026C0003C00A3842162606B2268C0E913650E4E52
:1026D0000432C0E90F76212684F83D60FEF78EFCB7
:1026E00020686FF0400184F83C50016050E8050F0D
:1026F000216840F0800041E805020AB12068F5E752
:102700000020F8BD4D2F0008653000082930000872
:1027100010B5034690F83D00202806D10120A9B14C
:10272000A2B193F83C00012801D1022010BD002085
:102730002124DA84186483F83D4019629A8483F86E
:102740003C001968CA6842F08002CA6010BD704738
:102750007047FEE7B0B50C480C4D092400214FF43A
:1027600080124FF48033C0E90054C0E90211C0E97F
:10277000043281618183FEF735F918B1BDE8B040BC
:10278000FDF760BFB0BD00BF281700200064004007
:10279000B0B50C480C4D122400214FF480124FF4B8
:1027A0008033C0E90054C0E90211C0E904328161FC
:1027B0008183FEF717F918B1BDE8B040FDF742BFBD
:1027C000B0BD00BF5017002000680040BCB500201D
:1027D00042491F4C01900A6842F400120A600A68DC
:1027E00002F400120192019A00900868002240F45D
:1027F000800008600868002100F4800000900098C4
:102800000B20A047134D0B20A8470C2000210022CD
:10281000A0470C20A8470E2000210022A0470E2030
:10282000A847112000210022A0471120A8473920E5
:1028300000210022A0473920A8474520002100227E
:10284000A04745202946BDE8BC4008473038024033
:10285000591300083D13000881B000211F48009162
:10286000026842F010020260026802F01002009258
:10287000009A0091026842F040020260026802F091
:1028800040020092009A0091026842F00102026048
:10289000026802F001020092009A0091026842F080
:1028A00002020260026802F002020092009A0091A5
:1028B000026842F008020260026802F00802009218
:1028C000009A0091016841F080010160006800F009
:1028D00080000090009801B0704700BF303802407F
:1028E00010B58EB0002401A81C21CDE90C44CDE91F
:1028F0000A44CDE90844FDF788FDE14880212C22F7
:102900004FF08043816144F61F61C0E90032C0E9A5
:1029100002410461FFF750F808B1FDF793FE4FF450
:1029200080500AA90A90D648FFF730F908B1FDF7A0
:1029300089FED348FFF7D4FA08B1FDF783FED048EB
:10294000002408A9CDE90844FEF7FCFF08B1FDF713
:1029500079FE4FF4FA7001A90822059403940290BD
:1029600060200190C648FFF76FFA08B1FDF76AFED4
:10297000C348FFF73DFA0EB010BD00BF10B586B0DA
:10298000C5488021F74C40F2E7325923816100218C
:10299000C0E90043C0E90212CDE904110161CDE9AB
:1029A0000211CDE90011FFF707F808B1FDF74AFE63
:1029B0004FF4805002A90290B748FFF7E7F808B13A
:1029C000FDF740FE00206946CDE90000B248FEF761
:1029D000B9FF08B1FDF736FE06B010BD1CB5B14811
:1029E00080210D4B00245922CDE90044816140F241
:1029F000E731C0E90032C0E90241FEF7DDFF08B16E
:102A0000FDF720FEA7486946CDE90044FEF79AFF8E
:102A100008B1FDF717FE1CBD001000401CB5A4480E
:102A200080210D4B00245922CDE90044816144F6F8
:102A30001F61C0E90032C0E90241FEF7BDFF08B1E5
:102A4000FDF700FE9A486946CDE90044FEF77AFF9B
:102A500008B1FDF7F7FD1CBD0014004010B50B4890
:102A60000B4C4FF4E13300210C22C0E90043C0E9D4
:102A70000211C0E90412C0E90611FFF73FFC18B1CA
:102A8000BDE81040FDF7DEBD10BD00BFEC1B00200F
:102A90000078004010B50B480B4C4FF4E133002197
:102AA0000C22C0E90043C0E90211C0E90412C0E9E8
:102AB0000611FFF723FC18B1BDE81040FDF7C2BDB9
:102AC00010BD00BF301C0020007C004070B50C48D9
:102AD0000C4D0D4E00210C224FF480634FF48054B6
:102AE000C0E90065C0E90241C0E90432C0E906114D
:102AF000FFF704FC18B1BDE87040FDF7A3BD70BD41
:102B0000201B0020A08601000010014010B50B48DA
:102B10000B4C4FF4E13300210C22C0E90043C0E923
:102B20000211C0E90412C0E90611FFF7E7FB18B172
:102B3000BDE81040FDF786BD10BD00BF641B00203E
:102B40000048004010B50B480B4C4FF4E133002116
:102B50000C22C0E90043C0E90211C0E90412C0E937
:102B60000611FFF7CBFB18B1BDE81040FDF76ABDB9
:102B700010BD00BFA81B002000140140FEE7FEE7C7
:102B80007047704710B5084C207810B100F012FE65
:102B900001E000F005FE2078012121EA000020700C
:102BA000BDE8104000F0A0BEE81F00207047000004
:102BB00010B592B0002401A81421CDE90A44CDE952
:102BC0000844FDF722FC26480094016841F080513A
:102BD0000160006800F08050009000980094214847
:102BE000016841F440410160B421006800F44040B4
:102BF000009004200F910621119002200E914FF4B5
:102C000080011090CDE90C014FF480300790012035
:102C10000690009806A8FEF7F7FC18B1EFF31080B5
:102C200072B6FEE7FEF7C4FB18B1EFF3108072B680
:102C3000FEE74FF48050052105904FF4A05004901A
:102C400000200390022002900F20019001A8FEF7BF
:102C5000E5FB18B1EFF3108072B6FEE712B010BDBD
:102C600040380240007000400248016841F47001A1
:102C70000160704788ED00E00148FFF703B800BF2E
:102C8000B81900200148FEF7FDBF00BF001A002060
:102C90000148FEF7F7BF00BF481A00200148FEF7C1
:102CA000F1BF00BF901A00200148FEF7EBBF00BF44
:102CB000D81A0020B0B50268B0F1804F0ED0274B73
:102CC00098420BD0264B984208D0264B984205D00C
:102CD000834B984202D0244B984203D14B6822F098
:102CE00070021A43B0F1804F20D01C4B98421DD087
:102CF0001B4B98421AD01B4B984217D01B4B984243
:102D000014D01B4B984211D01A4B98420ED0164B40
:102D100098420BD0724B984208D0174B984205D07E
:102D2000164B984202D0164B984203D1CB6822F43E
:102D300040721A434D6922F080020B688C682A4366
:102D40000260C4628362664B40F480629A4204BFB0
:102D50000969016301214161B0BD00BF0004004069
:102D600000080040000C0040000001400018004036
:102D7000001C00400020004000400140004801408D
:102D800000440140F0B5026A554E22F00102026291
:102D90000B688A68046A24F0020422434468856947
:102DA00025F073052B4340F48065B54205D1CF680B
:102DB00022F00C0227F004073A43B54205D1D1E9CD
:102DC000055624F440742C433443446083614968BD
:102DD00041630262F0BD00BFF0B5026A404E22F0CE
:102DE000100202620B688A68046A24F0200444EA34
:102DF00002124468856925F4E64545EA032C40F44F
:102E00008065B54207D1CF686FF0400322F0C00261
:102E100003EA07131A43B54207D1D1E9053524F473
:102E2000406444EA830343EA85044460C0F818C060
:102E3000496881630262F0BDF0B5026A284E22F44F
:102E4000807202620B688A68046A24F4007444EA9F
:102E500002224468C56925F0730545EA030C40F475
:102E60008065B54208D1CF6840F2FF4322F440624A
:102E70003F0227EA03031A43B54207D1D1E90535DA
:102E800024F4405444EA031343EA05144460C0F8B0
:102E90001CC04968C1630262F0BD00BF70B5026A20
:102EA0000F4E22F4805202620C688A68036A23F48F
:102EB000005343EA02324368C56925F4E64545EA12
:102EC000042440F48065B54204D14D6923F4804365
:102ED00043EA85134360C46149680164026270BDBE
:102EE0000004014010B5036A046A24F0010404627E
:102EF000846924F0F00444EA0212826123F00A0299
:102F00001143016210BD036A23F010030362836959
:102F100023F4704343EA0232036A826123F0A00281
:102F200042EA0111016270470148FFF7A1B800BFF2
:102F3000EC1B00200148FFF79BB800BF301C0020AD
:102F4000806B0021C185C184FFF790B810B5846BF8
:102F50002068416994F83D20212A08D111F08001B0
:102F600005D00020E084204600F0A6F820684069E3
:102F700094F83E10222907D110F0400004D0002020
:102F8000E085204600F071F8206C40F010002064CD
:102F90002046BDE81040FFF769B80168806B0968FA
:102FA000C9052FD40021C185016851E8031F0268BB
:102FB00021F4807142E80313002BF5D1016851E838
:102FC000051F026821F0010142E80513002BF5D12D
:102FD000016851E8051F026821F0400142E805132D
:102FE000002BF5D1202180F83E10016B012909D179
:102FF000016851E8031F026821F0100142E8031341
:10300000002BF5D1016B012918BFFFF73FBB818D64
:10301000FFF714B8806B016B012918BFFFF737BBAE
:10302000818D4908FFF70AB80168806B0968C905F6
:1030300048BFFFF78CBB0021C184016851E8051F20
:10304000026821F0800142E80513002BF5D10168E8
:1030500051E8031F026841F0400142E80313002BCE
:10306000F5D17047806BFFF773BB016851E8031F10
:10307000026821F4907142E80313002BF5D1016836
:1030800051E8051F026821F0010142E80513002BF9
:10309000F5D1016B012909D1016851E8031F0268CC
:1030A00021F0100142E80313002BF5D1202180F814
:1030B0003E10002101637047016851E8031F026858
:1030C00021F0C00142E80313002BF5D1202180F844
:1030D0003D10704781B090F83E10222920D18368BE
:1030E000B3F5805F08D10169002948D000F12801BB
:1030F0000A6803685B680AE0014651F8282F13B993
:103100000369002BF5D003685B6803F07F0313703D
:103110000A6801320A60C18D0139C185090401D0F4
:1031200001B070470168CA6822F02002CA60CA680C
:1031300022F48072CA604A6922F001024A612022A8
:1031400080F83E20026B012A22D10022026351E85E
:10315000031F026821F0100142E803130168002BED
:10316000F5D10A68D20606D5002200920A680092BC
:10317000496800910099818D01B0FEF75FBF016839
:10318000826A49686FF35F2122F8021B8262C2E7FC
:1031900001B0FFF77BBA0000B0B50446006804F147
:1031A00008030ECB056925F4405519432A4349F21B
:1031B0000C650261C26863691943E369AA43194354
:1031C0001143C1604169A26921F440711143416119
:1031D000214940F48060884202D1FEF7D7F901E02E
:1031E000FEF7CAF9E26919216368A0FB0101B2F593
:1031F000004F16D15A00DB0FFDF74AF864216FF03B
:103200006303B0FBF1F202FB0300322303EBC000C7
:10321000B0FBF1F14FF4F87000EA410001F0070152
:1032200013E09A009B0FFDF733F864216FF06303FE
:10323000B0FBF1F202FB0300322303EB0010B0FB02
:10324000F1F101F0F00001F00F0100EB0210084372
:1032500021688860B0BD00BF00140140F8B5134676
:10326000002504461E4E0A461F4F05648385816271
:10327000222084F83E00A06B2168C0E91365194E36
:103280000431C0E90F76FDF7B9FE009520680168AA
:10329000009141680091009984F83C50216949B13E
:1032A00050E8030F216840F4807041E803020AB13E
:1032B0002068F5E7206850E8050F216840F001001C
:1032C00041E80502002AF5D1206850E8050F216881
:1032D00040F0400041E80502002AF5D10020F8BD89
:1032E0004D2F0008153000089B2F00080023C285D1
:1032F000036481622221828580F83C3080F83E1090
:103300000168006918B1C86840F48070C8604869F5
:1033100040F001004861C86840F02000C86000200B
:10332000704700000148FEF7A3BE00BF201B00202D
:103330000148FEF79DBE00BF641B00200148FEF758
:1033400097BE00BFA81B0020FEE700002DE9F84F44
:103350002DED125B00F0FCFCDFF83493122148469F
:10336000FDF753F8DFF82CB3002609F12800C9E96E
:103370000566C9E90766D84709F1F800D84709F595
:10338000E470D84709F52670D847C34D1221284666
:10339000FDF73BF805F12800C5E90566C5E90766B4
:1033A000D84705F1F800D84705F5E470D84705F58A
:1033B0002670D84705F55A701221FDF726F805F555
:1033C0006470C5E9DF66C5E9E166D84705F58C603C
:1033D000D84705F5A660D84705F5C060D847AF4F78
:1033E00012213846FDF711F807F12800C7E90566F4
:1033F000C7E90766D84707F1F800D84707F5E47032
:10340000D84707F52670D84707F55A701221FCF700
:10341000FCFF07F56470C7E9DF66C7E9E166D847D6
:1034200007F58C60D84707F5A660D84707F5C06058
:10343000D847DFF870829A4CDFF86CA24FF4007125
:1034400001224B4640460094D047601C4FF4007167
:1034500002222B46009008F11000D047E01C4FF4E8
:10346000017102223B46009008F12000D0478F4FA7
:103470008F489FED92AA9FED908A9FED8C9A0496BB
:103480009FED8B1ADFF83892B2EE040A0297CDE96D
:1034900000608848F0EE4A0AF0EE481AB0EE492A79
:1034A000F0EE4A2AC847DFF81CA287489FED89BA88
:1034B0009FED89CA9FED89DA844DF0EE4A0AB0EE9D
:1034C000492AF0EE4A2A049602978AF81C60CAE953
:1034D00003607F48B0EE4B0AB0EE4C1AF0EE4D1A86
:1034E000CAF81470CDE90065C8477D48B0EE4B0AB4
:1034F000F0EE4A0AB0EE4C1AF0EE4D1AB0EE492A40
:10350000F0EE4A2A0496CDE900650297C84775484F
:103510009FED750A9FED751AF0EE4A0AF0EE4D1A0E
:10352000B0EE492AF0EE4A2A0496CDE900650297EA
:10353000C8476F48D84708F160001821FCF765FFBD
:103540006C48D8476C486D4A6D494FF07E544FF037
:103550008043744D8AF83C60049602979FED860A7A
:10356000F0EE4A0AB0EE4A1AF0EE481AB0EE492AD6
:10357000F0EE4A2AC0E90044C0E902310261C0E924
:103580001866C0E91A664C4B5E485F49614CC0E959
:103590000016C0E902630261C0E91866C0E91A6654
:1035A0005A485B499C46634BC0E910145A495C4C2D
:1035B000C0E9131659490677C1E911545A4DCC6434
:1035C000CF63C1E90A540C63584C594D0F6284E82B
:1035D00068102261C4E91866C4E91A66564B574C54
:1035E000C3E90046C3E9026C1A61C3E91866C3E97E
:1035F0001A66384B534CCAE90B63514BCAF8347006
:103600008AF85C60C3E90046C3E9026C1A61C3E949
:103610001866C3E91A664C4B4C4CC3E90046C3E933
:10362000026C1A614A4AC3E91866C3E91A664A4B32
:10363000CAE91362474ACAF8547082F85C60C2E96A
:103640001363576582F83C60C2E90B63434B5763D1
:103650001677C2E903635761414A434BC0E90362ED
:10366000404A476180F83C60C1E90062C1E90263F9
:10367000C1E904623D49C0E90B6147633C48CDE9BB
:1036800000603C48C847BDEC125B01B0BDE8F08F5C
:1036900040050020AD460008A8080020780F002053
:1036A00008000020F0010020AD4700086F12833AA7
:1036B00000004842001E00200060EA4600000000B2
:1036C0006F450008D40200200000C84300002041DC
:1036D000F81C00200000FA430000F0420000804681
:1036E0007C1D0020741C00200000964400007042E5
:1036F00070040020F01F0020C020002000606A46F7
:1037000000002042302100200000FA4494030020F1
:10371000000040400000504100803B45680200200E
:103720000050C34600007A45CDCC4CBE081F002097
:103730003333333F0AD7233E781F00200000C343B2
:1037400048160020CDCCCC3DB816002000006040CB
:103750000000164334030020000088410000484365
:1037600000008C4200409F400070A7400000484489
:103770000000A041841E00209A99993E10B588B09F
:103780000793002308240493CDE902338DF8183001
:10379000019101A907AB0594FCF758FF08B010BDD3
:1037A000094840F2FF11022300F148020748FFF7E1
:1037B000E5BF00BF04484FF40071022300F150023E
:1037C0000248FFF7DBBF00BF7C0100202817002064
:1037D000154916489FED171AC1F80A0043F639102B
:1037E00091ED110A0880124820EE010AB0F96A032F
:1037F000420A486248710A71020C000ECA70887051
:10380000BDEEC01A81ED0A1ABDEEC00A10EE100A14
:10381000020A48720A72020C000E88710648CA71C8
:103820000E22FEF735BF00BFF80300201A4200FF4A
:10383000780F00200000C842641B00202348817BD1
:1038400039291CD1C17B392919D1817EFF2916D193
:10385000017E427E80F82C1080F82D20D0E90423D0
:1038600012BA00EE102A1ABAB8EEC00A80ED080AA1
:1038700000EE102AB8EEC00A80ED070A01E090F8C9
:103880002C10134A92F85520012A08BF012900D0B4
:10389000704790ED070A9FED0F2A90ED081A0E4829
:1038A00080EE020A90ED102A804830EE020A80ED88
:1038B0000B0A0A48B0F96A0300EE100A0848B8EE8D
:1038C000C00A31EE000A80ED020A7047F8030020BA
:1038D000F00100200000C842C0200020780F002026
:1038E00008000020000000002DE9F047DFF82485E3
:1038F0006D4C002798F84A60E7706771A4F8017072
:10390000032E3DD0012E40F0B4806848806BA4F8AF
:10391000030098F84B00421EC11E0238B2FA82F230
:10392000B1FA81F1B0FA80F05209490940099201D7
:1039300042EA4111062241EA0017B8F848006771CF
:10394000A0F5806001B291FBF2F10B0401EBE37191
:1039500081EAE371802303EA102008436070B8F81D
:103960004600A0F5806001B203EA102091FBF2F15D
:103970000A0401EBE27181EAE2710843A07075E08C
:10398000B8F85620DFF8B0A8D00705D1900709D5C0
:103990000AF10D03EE2502E00AF10B036E2501206A
:1039A00065701870100705D4500709D50AF10C038B
:1039B000EE2502E00AF10E036E250120A5701870B5
:1039C000DAF838009AF802909AF803709AF809C069
:1039D0004FF0040E00236372A4F803009AF8060067
:1039E00020729AF904000EEA5015002800D54042D2
:1039F00000F0020100F001009AED100A2944084489
:103A000098F84B10B5EE400AA0710EEAD200F1EE24
:103A100010FA18BF01239AF90A5081F0030140EA15
:103A20008710394340EAC900C9B2B1FA81F14909A6
:103A300040EA411040EA0C0040EA4307284667711B
:103A400002F025F99FED140B53EC102B02F0AEF9A8
:103A50009FED130B53EC102BDA0F62F3DF7102F0C2
:103A6000E7F8102101EAD5010843E0710F48C06B67
:103A700060810E48B11E0C22B1FA81F1007849092B
:103A80000843214647EAC01060710948BDE8F04785
:103A9000FEF73EBE00BF00BFF853E3A59BC4E43F62
:103AA000000000000000000038000020000100209D
:103AB000EC1B00200000000070B52DED048BB0EE73
:103AC000408A30EE600AB0EE419A10EE100A02F021
:103AD00055FB19EE106A04460D46304602F04EFBC7
:103AE0009FED110B53EC102B02F060F922462B4690
:103AF00002F084FB10B938EE498A0FE0304602F03C
:103B00003DFB9FED0B0B53EC102B02F04FF92246BF
:103B10002B4602F07AFB08B938EE098AB0EE480A63
:103B2000BDEC048B70BD00BF000000000000E03F52
:103B3000000000000000E0BFB0F90020891A04294D
:103B400084BF4FF0FF3070470844407AFF2808BF19
:103B50004FF0FF30704700002DE9F0410446A1F519
:103B6000C4700D46A1F52271B0FA80F0B1FA81F16E
:103B7000400949094840A5F56271B1FA81F1490946
:103B80004840012840F0D580DDF82880B5F5C47F95
:103B900008D1B8F800002084B8F802006084B8F8B2
:103BA0000400A084B5F5227F36D1B8F9000000EEFC
:103BB000100AB8EEC00A10EE100A02F0DFFA9FED0C
:103BC0005E0B56EC107B3A46334602F0EFF801F0FC
:103BD000B5FDA062B8F9020000EE100AB8EEC00A06
:103BE00010EE100A02F0CAFA3A46334602F0DEF846
:103BF00001F0A4FDE062B8F9040000EE100AB8EE8E
:103C0000C00A10EE100A02F0B9FA3A46334602F042
:103C1000CDF801F093FD2063B5F5627F40F086801A
:103C2000B8F9000000EE100AB8EEC00A10EE100A53
:103C300002F0A4FA9FED400B55EC106B32462B4678
:103C400002F0B4F801F07AFD2060B8F9020000EE4D
:103C5000100AB8EEC00A10EE100A02F08FFA3246CF
:103C60002B4602F0A3F801F069FD6060B8F904008A
:103C700000EE100AB8EEC00A10EE100A02F07EFA4A
:103C800032462B4602F092F801F058FD9FED2C2AA7
:103C900000EE100AA060BFEE003AB5EE400A30EE2A
:103CA000021AF1EE10FAB8BFB0EE410A84ED030A31
:103CB00094ED041AB4EE431AF1EE10FA2ED0B4EEDD
:103CC000401AF1EE10FA29D09FED1E4A30EE413A2B
:103CD000B4EE443AF1EE10FA08DA32EE411A94EDFD
:103CE000052A31EE001A31EE021A15E09FED162A70
:103CF000B4EE423AF1EE10FA0ADD9FED142A30EEEE
:103D0000022A32EE411A94ED052A32EE011A03E03E
:103D100094ED051A33EE011A84ED051A207E84ED28
:103D2000040A18B9012084ED070A2076FDF778FA15
:103D30006063BDE8F08100BF7B14AE47E17A843F49
:103D40000000B443000034C3000034430000B4C397
:103D50003048122200F130011048FEF740B900BF90
:103D600010B586B00D4A904208BF12290DD16C469D
:103D7000204600F017F82748214618224230FCF769
:103D8000FFFAFDF74DFA064908642248122200F1B5
:103D900030010248FEF723F906B010BD201B0020B9
:103DA0007C010020F0B50021C1821A49CA8E91F829
:103DB000313091F8324091F83350828191F83020BF
:103DC00063F30A22DB08028091F8352064F34A137A
:103DD000C2F30116438091F8407091F83430467276
:103DE0009609067291F8416066F30A275E0803F0AF
:103DF000010362F3CA16AA00478142EA9412C68000
:103E000042EA83228280D1E90E12C0F80E10C0F877
:103E10001220F0BDF00100202DE9F0412DED0A8BBC
:103E2000B0EE408A0446002980ED000A51D0207F80
:103E3000032853D001286ED0002840F0AD8094EDC7
:103E400001AA94ED02BA94ED059A94ED04CA0BEE22
:103E500009AA1CEE100A84ED01AA02F08FF99FED69
:103E60005E0B53EC102B01F0A1FF07461BEE100A6E
:103E70000D4602F083F980460E46384629464246F2
:103E8000334601F093FF38EE4A0A2CEE0C1A054631
:103E90000F4620EE010A10EE100A02F06FF90246FA
:103EA0000B462846394601F07BFC054619EE100A00
:103EB0000F4602F063F902460B462846394601F0E8
:103EC00075FF4246334601F06BFC01F037FCA06001
:103ED00062E0002084ED018AA06074E094ED010AA4
:103EE000D4ED020A94ED041AD4ED051A30EE480A16
:103EF00000F0A6F894ED022A94ED011A94ED053A2B
:103F0000B0EE424A02EE031A00EE034A84ED011AB3
:103F100084ED024A40E094ED019A94ED02AA94EDFA
:103F200005CA94ED04BAB0EE490A1BEE100A0AEE77
:103F30000C0A84ED010A02F021F902460B4601F059
:103F40002FFC9FED230B02460B4651EC100B01F0AA
:103F5000DBFC01F0F3FBB0EECA1A39EE480A02EEC0
:103F6000100AA0612AEE011A01EE020A9FED1C2A36
:103F7000BFEE001AB5EE400AB7EE000AF1EE10FAF5
:103F8000B8BFB0EE412AC8BFB0EE402A22EE0B0AFD
:103F90000CEE40AA84ED02AA94ED030AB5EE400AA5
:103FA000F1EE10FA0FD094ED021AB4EE401AF1EED1
:103FB00010FA06DCB1EE400AB4EE401AF1EE10FA47
:103FC00001DA84ED020ABDEC0A8BBDE8F08100BF86
:103FD000000000000000F03F00000000000000C0F2
:103FE000000000000000000080B530EE601A0021E3
:103FF00030EE200A0020B5EE401AF1EE10FAB8BFFC
:104000004FF0FF31B5EE400AC8BF0121F1EE10FAC2
:10401000B8BF4FF0FF30C8BF0120401A01F037FE93
:104020009FED050B53EC102B01F0C0FE01F086FB59
:1040300000EE100A80BD00BF000000000000E03F5D
:104040002DE9F0472DED108BB0EE418A20EEA11A3C
:10405000DFF8E4A131EE009A28EE210A20EE210AD1
:104060008AED051A8AED069A10EE100A8AED040A06
:1040700002F084F8044619EE100A0D4620F00040C4
:1040800002F07CF89FED660B53EC102B01F08EFED6
:1040900022462B4601F084FB22462B4601F086FE89
:1040A00001F04CFB09EE100AB0EE490A01F028FBC2
:1040B000B4EE400AF1EE10FA80F1AA809AED06AA59
:1040C0009FED5ECA9AED049A8AED070A9AED05FA09
:1040D000BFEE00DAB7EE00EAB5EE40AAB0EE4C1A39
:1040E00030EE490AF1EE10FAB8BFB0EE4D1AC8BF73
:1040F000B0EE4E1A20EE010A10EE100A02F03EF861
:104100009FED490B53EC102B01F050FE04461FEEBF
:10411000100A0D4602F032F802460B4620462946A8
:1041200001F03EFB01F00AFBCAF8200002F026F87D
:10413000B0EE4A0AF0EE490A06460F46FFF754FF72
:1041400010EE100AB0EE40BA02F018F89FED380BEE
:1041500002460B4658EC109B4846414601F024FFAE
:1041600032463B4601F022FE3FEE0A0A06460F4663
:1041700020EE0B0A10EE100A02F000F802460B4681
:104180003046394601F00CFB01F0D8FA0AEE100A6D
:10419000F0EE490ACAF824008AEE090A20EE08BAAD
:1041A000B0EE4A0AFFF720FFB0EE409A20EE0B0A6D
:1041B00010EE100A01F0E2FFB5EE40AA06460F46E7
:1041C000F1EE10FAB8BFB0EE4DCAC8BFB0EE4ECA9D
:1041D0002CEE080A10EE100A01F0D0FF044619EE8A
:1041E000100A0D4601F0CAFF4A46434601F0DCFEC4
:1041F00022462B4601F0DAFD32463B4601F0D4FE62
:1042000001F09CFA00EE100ABDEC108BBDE8F087BF
:10421000B0EE490A01F074FA50E700BF00BF00BFDA
:104220000000000000002040000000000000E03F0F
:10423000000000000000F03F00010020000000002E
:104240002DE9F0412DED048BB0EE418A90ED011A7D
:104250000446B0EE609A00EE211A80ED001A20EEBE
:10426000080A10EE100A01F089FF804618EE100AC5
:104270000E4601F083FF9FED100B02460B4651ECFA
:10428000100B01F091FE074619EE100A0D4601F0E1
:1042900075FF02460B463846294601F087FD424627
:1042A000334601F07DFA01F049FA606000EE100A31
:1042B000BDEC048BBDE8F081000000000000F03F81
:1042C00070B52DED068BB0EE408A0446022980EDD4
:1042D0000B0A0AD0012940F0868094F84D0070B195
:1042E00094ED161A94ED172A13E094F84D0068B374
:1042F00094ED16AA94ED172A94ED189A49E094EDDE
:104300000E0A20EE002A30EE001A84ED161A84ED13
:10431000172A94ED083A94ED090A94ED0C4A94EDAD
:104320000D5A04F1240038EE436AB0EE407A06EEEE
:10433000017A94ED121A84ED106A26EE022A05EE37
:10434000047A01EE073A84ED083A48E094ED0E0A4B
:10435000B0EE081A20EE01AA20EE001A10EE100AA4
:1043600020EE019A84ED16AA84ED189A01F006FF5A
:104370009FED1F0B05460E4653EC102B01F016FD6A
:104380002A46334601F012FD01F0D8F902EE100A78
:10439000E06594ED083A94ED094A94ED0A0A94ED2B
:1043A000121A94ED0C5A94ED0D6A04F1280038EEBF
:1043B000437AF0EE440A47EE0A0A84ED107A01EEE1
:1043C000203AF0EE400A47EE020A84ED083A27EE62
:1043D000092A46EE050A01EE204A84ED094A01EE5B
:1043E000020A80ED000ABDEC068B70BD00BF00BF65
:1043F000000000000000084010B50446022907D064
:10440000012938D194F84C00C0B394ED140A39E076
:1044100094F84C0048B994ED0F0A30EE001A20EEE3
:10442000000A84ED140A84ED151A94ED1D1AB5EEF8
:10443000401AF1EE10FA36D094ED090AD4ED121AB2
:10444000D4ED1C0A04F17800FFF7FAFE94ED1F0A80
:1044500094ED022A94ED011A94ED083A94ED155A60
:1044600094ED144A32EE400A31EE431A25EE000A6A
:1044700004EE010A2BE09FED300A2EE0E06B00EE27
:10448000100A206594ED011A94ED082A94ED153A6E
:1044900094ED1B4A04F1240031EE421A20EE010A89
:1044A00003EE440A15E094ED023A94ED095A94EDB6
:1044B000150A94ED012A94ED084A94ED141A33EE8E
:1044C000453A32EE442A20EE030A01EE020A04F1D4
:1044D000280090ED001A30EE410A94F8801094F80C
:1044E0008100814203D9013084F8810010BD94ED30
:1044F0000D1A94ED112A002084F8810080EE010A43
:10450000B1EE421AB4EE420A84ED0C0AF1EE10FA52
:10451000C8BFB0EE420A05DCB4EE410AF1EE10FA73
:1045200000DB10BDB4EE410AF1EE10FAB8BFB0EEF8
:10453000410A84ED0C0A10BD00000000B0B52DED5D
:10454000028B0C461146B0EE608A0546FFF764FC0C
:104550002846B0EE480A2146FFF7B2FE284621461B
:10456000FFF74AFF95ED0C0ABDEC028BB0BDB0B56C
:10457000089D0024C0ED192AC0ED111A80ED122A01
:1045800080ED0D0A80ED0E1AC0ED0F0A4467C5617B
:10459000079D8561059D0561049D80E82E00A0F8BA
:1045A0004C4080ED052AB0BD90ED011A90ED042A33
:1045B00090ED053A80ED000A30EE411A21EE021A24
:1045C000B1EE432AB4EE431A80ED031AF1EE10FA6D
:1045D000C8BFB0EE431A04DCB4EE421AF1EE10FA92
:1045E00008DAB4EE421AF1EE10FAB8BFB0EE421A91
:1045F00080ED031A80ED010A704790ED041A90EDEA
:10460000062A80ED000A21EE000AB1EE421AB4EE4D
:10461000420A80ED030AF1EE10FAC8BFB0EE420A7A
:1046200005DCB4EE410AF1EE10FA00DB7047B4EE9F
:10463000410AF1EE10FAB8BFB0EE410A80ED030A6C
:10464000704710B50023FF24052B02D0C45401335A
:10465000FAE700239A4208BF10BDCC5C0355013332
:10466000F8E70000084A00214FF07E5380F8BC10A4
:10467000C0E92B1380F89010C0F8B420C0E92013D3
:10468000C0F88820704700BF6F12833A0022428032
:10469000027801708B1A511A4270012B04BF01235A
:1046A000C370012904BF01218170704780B5FFF7F5
:1046B000D9FF0549C0F8B010C0F88410002180F877
:1046C000C01080F8941080BD0000C8422DE9F04170
:1046D0000446A1F5007008285DD8207A00285AD039
:1046E0002046FFF729FA411C55D0D4F804E04FF4D6
:1046F0005A720A9900FB02E20D8814462BBA34F96B
:104700000A7F1B0C24F8083C4E8836BA4FEA164C38
:1047100024F806CC8E8836BA4FEA16484FF6FF7654
:1047200024F8048C897924F8021CB9B2B14218BF6C
:104730008B421AD0E9BACD1B4FF45A7100FB01E746
:1047400015F57A6F05DA57F8141F294441F6FF75FD
:1047500009E057F8141FB5F57A6F04DD294441F6D6
:10476000FF754D1B00E00D443D6012F81A1F2380B9
:1047700022F80C8C22F80ECC31B9012111704FF4C3
:104780005A7100FB01E10B834FF45A7100FB01E405
:10479000FCF746FDE061BDE8F08110B54468FFF725
:1047A000CBF94FF45A7100FB014010BD2DE9F041E7
:1047B000069F0E46054609301C4690463946FFF7CF
:1047C00040FF04F10A004FF6FF7142462E806C60F4
:1047D0004AB10180013A17F8013B334420F80A3C02
:1047E00000F55A70F4E7284685F80880BDE8F081A6
:1047F000F8B52DED0E8BC0ED120A80ED100A0446BF
:1048000030EEC0BAB0EE608AD0E90C7084ED0CBA1C
:10481000C4E90D7094ED164A94ED132A94ED001A34
:1048200094F83C0094ED153A24EE009A30EEC20A5A
:104830002BEE01AA20EE030A84ED179A84ED18AA44
:1048400084ED140A58B194ED050AB0EECB1AB4EE1B
:10485000401AF1EE10FA20DBB4EE401A74E094F83E
:104860003D00D0B194ED07EAB0EECBCAB4EE4ECA2B
:10487000F1EE10FA2DDA1BEE100A01F07FFC9FED2D
:104880005C0B53EC102B01F091FA00F057FF94ED04
:10489000060A20623EEE00DA3EE094ED010A2BEEBD
:1048A000000A10EE100A01F069FC9FED510B53EC69
:1048B000102B01F07BFA0546606E0E4601F05EFC9F
:1048C00002460B462846314600F06AFF00F036FFEC
:1048D0003EE094ED060AB4EE4CEAF1EE10FA3EEE3C
:1048E00000DA1CDAB4EE4DCAF1EE10FA17DC30EE45
:1048F0004C1A3EEE011A81EE000A2BEE000A10EE71
:10490000100A01F03BFC9FED3A0B53EC102B01F029
:104910004DFA00F013FF206200EE100A0AE0B4EE38
:104920004DCAF1EE10FAD1BF94ED080A00202062C2
:104930009FED310A94ED011A94ED192AB4EE4DCA97
:1049400001EE002A84ED192AF1EE10FA01DD0020B3
:10495000606694F83E0020B194ED020A04F1440030
:104960000BE000EE107AD4E9090130EE4B0A84ED39
:10497000090AC4E90A0104F1080090ED001A94ED57
:10498000192A20EE010A94ED041A84ED1A0AB4EEF5
:10499000412AF1EE10FA06DCB1EE411AB4EE412ADA
:1049A000F1EE10FA03DAB0EE412A84ED191A3AEE6C
:1049B000021A84ED138A31EE000A39EE001A94EDE2
:1049C000030A84ED1B1AB4EE401AF1EE10FA06DC6D
:1049D000B1EE400AB4EE401AF1EE10FA01DA84EDBD
:1049E0001B0ABDEC0E8B01B0F0BD00BF00BF00BFC5
:1049F000FCA9F1D24D62503F0000000010B5074CF9
:104A000000F00F03044AB0F1FF3F2344C8BF8318EE
:104A10000801187010BD00BF00E400E014ED00E0D4
:104A20002DE9F84F2DED088BDFF8BCBBA24CDFF869
:104A3000BC5B02219BF85800B0FA80F04209204686
:104A4000A847DFF8AC0B0421814690F86C0080F099
:104A500001022046A847DBF804000821C07E80F050
:104A600001022046A847DBF81400C17E90F88303BA
:104A70000843102180F001022046A847DBF82400FB
:104A8000C17E90F883030843202180F00102204674
:104A9000A847DFF8600B9FED89AA9FED891ADFF820
:104AA000584B0BF12005DFF8546B40F2052190EDD7
:104AB0000B0A3AEE400A80EE010ABDEEC00A10EE83
:104AC000100AA0722846B047B0F90200DFF830ABF8
:104AD00040F2052100EE100A2846B8EEC0BA9AED61
:104AE000050AB8EEC09AB047B0F902009FED758A8A
:104AF000DFF8107B00EE100AB0EE481AF8EEC00A9C
:104B0000B0EE490AB8473BEE400ADFF8FC8A284677
:104B100040F20521B0EEC00ABDEEC00A88ED020ADF
:104B2000B047B0F9020040F2052100EE100A284615
:104B3000B8EEC0BA9AED060AB8EEC09AB047B0F91E
:104B40000200B0EE481A00EE100AF8EEC00AB0EE0D
:104B5000490AB8473BEE400A284640F20521B0EE2C
:104B6000C00ABDEEC00A88ED030AB047B0F90200E2
:104B700040F2052100EE100A2846B8EEC0BA9AEDC0
:104B8000070AB8EEC09AB047B0F90200B0EE481A72
:104B900000EE100AF8EEC00AB0EE490AB8473BEE44
:104BA000400A284640F20521B0EEC00ABDEEC00A18
:104BB00088ED040AB047B0F9020040F2052100EE8A
:104BC000100A2846B8EEC0BA9AED080AB8EEC09AA4
:104BD000B047B0F90200B0EE481A00EE100AF8EE45
:104BE000C00AB0EE490AB8473BEE400A284640F2F8
:104BF0000521B0EEC00ABDEEC00A88ED050AB04737
:104C0000B0F9020040F2052100EE100A2846B8EE85
:104C1000C0BA9AED090AB8EEC09AB047B0F90200DE
:104C2000B0EE481A00EE100AF8EEC00AB0EE490ADB
:104C3000B8473BEE400A284640F20521B0EEC00AD4
:104C4000BDEEC00A88ED060AB047B0F9020040F296
:104C5000052100EE100A2846B8EEC0BA9AED0A0AFD
:104C6000B8EEC09AB047B0F90200B0EE481A00EEB4
:104C7000100AF8EEC00AB0EE490AB8473BEE400A07
:104C80004F46B0EEC00ABDEEC00AD8F80800D8F80A
:104C9000101088ED070A8842BCBFDAF81420CAF861
:104CA00010208142BCBFDAF81C00CAF8100020793D
:104CB00000284BD122E000BF0018024000809D4434
:104CC0005E0BB64100F8FF45FCA9F1D24D6240BF32
:104CD00039B4C876BE9F8ABF9A9999999999B9BFF4
:104CE000333333333333C3BF9A9999999999B93F81
:104CF000333333333333C33F00E0D3449AED040AF4
:104D0000284640F20521B8EEC08AFFF746FDB0F90B
:104D100002001FED141A00EE100AF8EEC00AB0EE01
:104D2000480AFEF7C9FE284640F20521B0EE408A47
:104D3000FFF733FDB0F9020000EE100AB8EEC00A2A
:104D400038EE400ABDEEC00A84ED0E0A9AED070A5D
:104D5000284640F20521B8EEC09AFFF71EFDB0F9D3
:104D600002001FED288A00EE100AB0EE481AF8EE95
:104D7000C00AB0EE490AFEF79FFE284640F2052120
:104D8000B0EE409AFFF709FDB0F9020000EE100AFC
:104D9000B8EEC00A39EE400ABDEEC00A207984EDB3
:104DA0000F0A012835D1D8E906018842BCBFDAF8DC
:104DB0002420CAF810208142BABFDAF82860CAF865
:104DC0001060DAF81060284640F20521FFF7E5FC94
:104DD000B0F902001FED451A00EE100AF8EEC00A05
:104DE00000EE106AB8EEC00AFEF766FE284640F2F2
:104DF0000521B0EE409AFFF7D0FCB0F9020000EEBA
:104E0000100AB8EEC00A39EE400ABDEEC00A84EDC1
:104E10000E0A9BF84A009BF84B1041F00202012851
:104E200008BF032A6BD0012808BF022967D00328D6
:104E300040F0D680033A8B1EB2FA82F2B3FA83F3C3
:104E400052095B091A4300F0CB80BBF84E0050B307
:104E500000B200EE100AB8EEC00A10EE100A01F01F
:104E60008DF91FED670B53EC102B00F09FFF0546EB
:104E7000E06A0E4601F082F902460B4628463146AA
:104E800000F08EFC00F05AFCE062D8F8040001F05B
:104E900075F902460B462846314600F081FC00F0C9
:104EA0004DFCC8F80400DFF86C07BBF85010B0F9EF
:104EB0007003002900F0A580542800F3A28008B2F6
:104EC00000EE100AB8EEC00A10EE100A01F056F912
:104ED0001FED810B53EC102B00F068FF0546DAF84C
:104EE00008000E4601F04AF92A46334600F058FC05
:104EF00000F024FCCAF8080000EE100A85E0BBF8B8
:104F000042006FF00E05A0F5806000B20F2804DDAE
:104F10001FED8F9B1FED8EAB05E0A8421DDA1FED44
:104F20008E9B1FED8DABE06A01F028F902460B461F
:104F300051EC1A0B00F034FC00F000FCE062D8F8F1
:104F4000040001F01BF902460B4651EC190B00F06E
:104F500027FC00F0F3FBC8F80400D8F8340002285E
:104F600008D0012809D198ED0E0AB8EEC00A84EDE8
:104F70000B0A02E0D8F82400E062D8F830000228DA
:104F800004BFD8F82000CAF80800BBF84400A0F518
:104F9000806000B2102804DB9AED020AB6EE001A17
:104FA00005E09AED020AA84205DABEEE001A30EEDC
:104FB000010A8AED020A1FEDB01AB4EE410AF1EEC1
:104FC00010FA01DDDB4808E09FEDDB1AB4EE410A80
:104FD000F1EE10FA80F27181D748CAF808006CE14E
:104FE00081F0010180F00200002208432264A4F84D
:104FF00007200FF2186008BF04300068CAF80C00E0
:105000005BE155280FDC9AED020A1FEDC5AAB4EE4C
:105010004A0AF1EE10FA06DC9FEDC7AAB4EE4A0A7E
:10502000F1EE10FA01DA8AED02AABBF9560000216E
:105030000025002804F1540048BF0121FFF726FB9A
:10504000BBF8561004F15800C1F38021FFF71EFB96
:1050500094F8570010B12564A4F807509BF84A0053
:105060009BF84B1081F0010180F003000843B0FA77
:1050700080F0410904F17400FFF708FBE07994F82F
:10508000771008449BF84B1000F00100E0719BF88A
:105090004A0081F0020180F003000843B0FA80F07A
:1050A000410904F17800FFF7F1FA94F87B0008B1A8
:1050B00001202072BBF85600C0F340314046FFF794
:1050C000E5FABBF8561004F15000C1F38031FFF748
:1050D000DDFA98F8020020B19848CAF80C000120C7
:1050E000607294F8520020B19548CAF80C00002074
:1050F0006072BBF85610880604D59148CAF80C00B7
:105100000020607204F14C00C1F38011FFF7BEFA79
:10511000A07894F84E100844BBF8561000F0010037
:10512000A07004F15C00C1F30011FFF7AFFABBF807
:105130005610C1F30010E07008B10020207194F8FF
:105140004E0008B10020E07094F85E0008B1002025
:10515000A070C9B204F16400C909FFF797FA94F886
:10516000660038B194ED0B0A9FED751A30EE010A16
:1051700084ED0B0ABBF85610DFF89C5404F168006C
:10518000C1F34021A847607994F86B1008440106E8
:1051900000EBD17101F0FE01401ABBF856106071AE
:1051A00004F16000C1F30021A847207994F862104F
:1051B0000844010600EBD17101F0FE01401ABBF872
:1051C0005610207104F16C00C1F3C021A847BBF850
:1051D000561004F17000C1F30031A847A07994F88B
:1051E0006E1094F87220401A1044A07140B2052845
:1051F00001DD062002E0002801DC0020A07194F807
:105200005B0070B9E07901280BD094ED100A9FED96
:105210004D1A0020B4EE410AF1EE10FA08BF012049
:1052200002E04848206401209BF85410012909D16C
:1052300040B194ED110A9FEDE61A30EE010A84EDBB
:10524000110A3AE0A1B99BF85510012910D197F83D
:105250002D1080F00100013918BF0121084307D14A
:10526000002094ED110A9FEDDB1A87F82D00E4E78A
:10527000207A012821D1BBF84600A0F5806000B259
:10528000012816DB00F003FD9FEDD50B53EC102B2E
:1052900000F08CFD0546606C0E4600F06FFF024684
:1052A0000B462846314600F07BFA00F047FA60646E
:1052B00003E0B0F1FF3F40F37B8194ED0A1A94EDD7
:1052C0000B0AD64E01209FEDD93ADFF85893A0463D
:1052D00031EE001AB087D24884ED0C1A84ED0D1A15
:1052E00097ED111A7061D04830EE412AB0EEC22A13
:1052F000C9F85800B4EE432AF1EE10FAC4BF84EDA9
:105300000B1AB0EE410AA0783C4601281CD198F94E
:10531000060040F292414FF4AF7210FB021000EE13
:10532000100AC348B8EEC00A1830FFF766F998EDC6
:105330000B0A0CE000E0D34400404E440000B443AC
:10534000000034430000E145B94800214162B84DF6
:1053500005F13400FFF728F9D8ED0B0A94ED110A96
:10536000B44F3046B847D6ED1B0A94ED180A4846AC
:10537000B8470120B04E99ED1B2A95ED101AB0499F
:10538000A44C95ED090AAF4DC14688F801004FF4D1
:105390008070B087A94832EE011A31EE000AC6E9E2
:1053A0000610B4F96C1388ED120A05F1200000EE26
:1053B000101A0121B8EEC00AFEF72EFDB4F96A03F7
:1053C000DAED020A00EE100A3046B8EEC00AB8471D
:1053D000D6ED1B0A95ED090A9B48B847DFF874A281
:1053E0009A4E9B48BAF90410706505F1400000EE32
:1053F000101A0121B8EEC00AFEF70EFD824FBAF96D
:105400000200BFEE002A97ED0B0A01EE100AB8EE7B
:10541000C11AB4EE420AF1EE10FA16D0B4EE410A07
:10542000F1EE10FA11D09FED8C3A31EE402AB4EE35
:10543000432AF1EE10FA0BDA38EE400A97ED0A2A09
:1054400030EE010A30EE020A16E097ED0A0A15E086
:105450009FED823AB4EE432AF1EE10FA08DD9FED9B
:10546000802A31EE022A32EE400A97ED0A2A01E044
:1054700097ED0A0A32EE000A87ED0A0A87ED0B1A49
:1054800099ED111A3046F1EE410AFFF7B1F9DFF854
:10549000D481D6ED1B0A95ED110A4046FFF7A8F915
:1054A000BAF90600002800D5404242F6E161884280
:1054B00002DB0120F86302E0F86B012802D1002032
:1054C000C8F86C000BF1100599ED108A40F201212B
:1054D0002846FFF762F9B0F90400634E0221012269
:1054E00000EE100A3046F8EEC00AB0EE480AFFF7A8
:1054F00025F899ED108A284640F20221FFF74DF970
:10550000B0F90400594D0221012200EE100A28468C
:10551000F8EEC00AB1EE480AFFF710F89BF84A000F
:1055200099F80010022808BF012149B15048002411
:105530001821C0E902441830FAF767FFBC6414E090
:1055400099ED120ABDEEC00A10EE100A00BA000C66
:10555000A7F848003C4890ED1B0ABDEEC00A10EECB
:10556000100A00BA000CA7F84A0098ED1B0ABDEE1D
:10557000C00A10EE100A96ED0C0A00BA000CA7F84B
:105580005400BDEEC00A10EE100A95ED0C0A00BAE8
:10559000000CA7F85000BDEEC00A10EE100A00BAC9
:1055A000000CA7F85200BDEC088B01B0BDE8F08FED
:1055B00000F06DFB9FED080B53EC102B00F0F6FB99
:1055C0000546606C0E4600F0D9FD2A4633466AE671
:1055D0000000D24300F8FF469A9999999999E9BF3A
:1055E0009A9999999999E93FF001002015120008BC
:1055F000F8030020001E0020000100209B47000847
:1056000008000020B93A00087C0100200000344363
:105610000000B443780F00208D460008C020002011
:105620000000E040302100200000F041000016445E
:1056300068020020F1470008081F00200000964380
:1056400000002042D4020020781F002048160020CD
:10565000000020414005002000F87FC500F87F458C
:1056600000F8FFC5B8160020F81C00207C1D0020A3
:10567000F01F0020FBF7E4FDFDF79AFAFDF7ECF8C8
:10568000FDF7A4F8FDF766F8FDF782F8FDF7E6F9F7
:10569000FDF700FAFDF756FAFDF770F9FDF79EF9F0
:1056A000FDF714FAFDF71CF9FDF730FAFDF7B6F92E
:1056B000FEE700001CB5FEF78BF80F4C94F82E00A7
:1056C00020B1FEF7BBF8002084F82E000B480068DC
:1056D0000168090758BF1CBD00210D220191016816
:1056E000019104F10E01406801900198034802B055
:1056F000BDE81040FCF745BCF8030020641B002007
:1057000010B52DED028BB1EEC08A18EE100A20F014
:105710000040C0F1FF40C00F0AD010EE100A20F088
:105720000040C0F1FF40C00F04BF0120FAF7AFFEF8
:10573000B0EE480ABDEC028B10BD000021F0004223
:1057400001F00043A2F16052B2F5801F28BFD2F1F0
:105750007F6C0BD95FEA001C43EAC20242EB507037
:1057600018BF704728BF20F001007047B2F5801FB6
:10577000BCBF184670474FEA410C1CF5001F02D20F
:10578000084600F0A3BD70B500F0BAFB0000008928
:10579000FFF7F6BF4FF00040A0F580007047000013
:1057A00010B591EA030F48BF83F0004300F1048471
:1057B000841A71EB030C05D2121943EB0C03001B86
:1057C00061EB0C014FEA1154A4EB135CDFF81CE110
:1057D0001EEA430F18BF9EEA445F73D021EA0451CA
:1057E00023EA0E0343F48013DCF1200E32D322FAB5
:1057F0000CFE10EB0E0023FA0CFE41EB0E01CCF177
:10580000200E03FA0EFE10EB0E00CCF1200E51F12B
:105810000001B1F5801F32D201EB045112FA0EF2F1
:10582000BDE8104058BF7047401C38BF5FEA4202D5
:1058300018BF7047002814BF20F0010041F100019B
:105840004FEA410313F5001F38BF7047A1F1C04173
:1058500000F0A4BB012A43EB0302ACF1200CDCF105
:105860001F0E32BF4FF0000E23FA0CF310EB0300B3
:1058700041EB0451B4EB115FD0D0A1EB045101F521
:105880008011490801EB04515FEA30000ED350F15A
:10589000000038BF12FA0EFE08D1BDE81040C9E77B
:1058A000401C38BF5FEA4202CAD1C3E7BDE81040DE
:1058B0004FEA410313F5001F38BF7047A1F1C04103
:1058C00000F06CBB9EEA445F08D011EA5E0FBDE8B1
:1058D000104004BF01F0004100207047BDE81040B7
:1058E00070B500F00DFB00BF64FBBE3E0000E0FFA2
:1058F000491058BFC1F140415B1058BFC3F140434C
:105900008B42EFF3008070472DE9C04130B4DFF8DF
:10591000A0C23CEA111418BF3CEA131400F0EC805A
:105920001CEA111481EA030544EAD57418BF1CEA85
:10593000131500F0C780A4EB050404F17F7404F58F
:1059400000344FF0004545EAC12145EAC32341EA4E
:10595000505143EA52534FEAC0204FEAC2229942C3
:1059600008BF904200F09C804FEA13650FF240168A
:10597000765D4FEA134506FB05F7C7F1807706FB16
:1059800007F74FEAD737A7FB03687642A7FB06CE97
:10599000C8F5803838BFA8F1010807FB08E6A6FB68
:1059A000028C4FF0000EE6FB03CEDCF1000CCEF1D2
:1059B000004E38BFAEF1010EA6FB0C584FF00007A9
:1059C000E6FB0E87A1FB08C6A0FB07CE16EB0E0672
:1059D0004FF0000545F10005E1FB076515F1E04ECC
:1059E0007EBFA4F580345FEA46066D4116F180075C
:1059F00045F100054FEA172747EA05674FEA1525E5
:105A00004FEA0666A6F1DE46B6F1805F1FD938463A
:105A100005EBC47124F0010C01EB0C11BCF1FE6F1D
:105A200002D8F0BCBDE8008124425CBF01F5801EB5
:105A30009EEAC47F02D4F0BCBDE80081244238D481
:105A4000A1F1C041F0BCBDE8004100F0A7BA4FEAA7
:105A5000D02040EA41504FEAD1214FEAD22242EA17
:105A600043524FEAD323A7FB028607FB036605FBDD
:105A700002661EEA0E0F58BFA6EB0056B6EB0056A4
:105A80004FEA520E4EEAC37E18EB0E0E56EB530E43
:105A9000BDD518EB02085E417F1C55F10005B6E745
:105AA0004FF480154FF000074FF000064FF000084C
:105AB000ADE701F1C04101F000414FF00000F0BC42
:105AC000BDE800810CEA131511EA0C1F00D00CE0B0
:105AD00013EA0C1F00F025804FF0000081EA03015B
