:020000040800F2
:10000000082A002075020008913B00083D380008CE
:100010008D3B00085908000841440008000000001A
:10002000000000000000000000000000973B0008F6
:10003000E709000800000000953B0008993B000814
:100040008F0200088F0200088F0200088F0200084C
:100050008F0200088F0200088F0200088F0200083C
:100060008F0200088F0200088F0200088F0200082C
:100070008F0200088F0200088F0200088F0200081C
:100080008F0200088F0200088F0200088F0200080C
:100090005D0800086D0800088F0200088F02000844
:1000A0008F0200088F0200088F0200088F020008EC
:1000B0008F0200088F0200088F0200088F020008DC
:1000C0008F0200088F0200088F0200088F020008CC
:1000D0008F020008114400088F0200082144000824
:1000E0008F0200088F0200088F0200088F020008AC
:1000F0008F0200088F0200088F0200088F0200089C
:100100008F0200088F020008B53B00088F0200082C
:100110008F0200088F020008C53B00088F0200080C
:100120008F0200089D080008AD0800088F02000833
:100130008F0200088F0200088F0200088F0200085B
:100140007D0800088D0800088F0200088F02000853
:100150008F020008BD080008CD08000831440008DF
:100160008F0200088F0200088F0200088F0200082B
:100170008F0200088F0200088F02000800000000B4
:100180008F0200088F02000800F002F800F063F808
:100190000AA090E8000C82448344AAF10107DA45E2
:1001A00001D100F058F8AFF2090EBAE80F0013F0D1
:1001B000010F18BFFB1A43F001031847EC9400002D
:1001C0000C9500000A444FF0000C10F8013B13F0AE
:1001D000070408BF10F8014B1D1108BF10F8015BA0
:1001E000641E05D010F8016B641E01F8016BF9D193
:1001F00013F0080F1EBF10F8014BAD1C0C1B09D1EA
:100200006D1E58BF01F801CBFAD505E014F8016B5B
:1002100001F8016B6D1EF9D59142D6D370470000ED
:100220000023002400250026103A28BF78C1FBD8FF
:10023000520728BF30C148BF0B607047642900F0E7
:10024000F980002070471FB508F005FF00F010FA94
:100250001FBD10B510BD00F0A7FA1146FFF7F3FF60
:1002600007F0F0FF00F0C5FA03B4FFF7F2FF03BC9C
:1002700000F0C8FA0948804709480047FEE7FEE752
:10028000FEE7FEE7FEE7FEE7FEE7FEE7FEE7FEE746
:1002900004480549054A064B70470000A13B000889
:1002A0008901000808240020082A002008260020D0
:1002B0000826002053EA020C00F069802DE9F04B7B
:1002C0004FF00006002B1FBFB3FA83F503FA05F4C5
:1002D00024FA05F65E4012BF1643B2FA82F502FA1E
:1002E00005F4C5F120051EBF22FA05FC44EA0C0402
:1002F000203556EA044C4FEA144418BF641C4FF0F2
:1003000000084FF00009904271EB030C39D300292B
:1003100019BFB1FA81F701FA07F6B0FA80F700FACF
:1003200007F6C7F120071EBF20FA07FC46EA0C06B5
:100330002037B6FBF4FCA7EB0507103F07F01F0BB7
:10034000CBF120060CFA0BFB2CFA06F644BFB346A1
:100350000026202FA4BF5E464FF0000B5BEA060C80
:1003600008BF4FF0010B19EB0B09ABFB027C48EB0C
:100370000608C01B06FB02CC0BFB03CC71EB0C0187
:10038000C1E70B46024641464846BDE8F08B13B52F
:100390004FF000004FF00001AFF30080BDE81C40BB
:1003A000704700000FB41CB5074B06AA7B44694692
:1003B0000090059800F0D7F90020694600F0E6F9B2
:1003C0001CBC5DF814FB0000DD0300002DE9F041CA
:1003D0000E460446002020622046E168884730B37C
:1003E000252805D0D4E901219047206A401CF2E776
:1003F000E168204600278847050018D0A5F1410094
:10040000192802D820354FF4006732462946204685
:100410002760FFF713FF40B1012804D0F61D26F036
:1004200007060836D8E7361DD6E72846DAE7206AF9
:10043000BDE8F0812DE9F0410646002410687529D9
:10044000314616A510D0AFF30080002802DA4042F2
:1004500013A507E031688A0701D512A502E0490714
:1004600004D511A5012401E0AFF3008000210A2288
:1004700006F1240709E0B0FBF2FCB0FBF2F302FB4B
:100480001C00303078541846491C0028F3D123460C
:100490002A463046BDE8F04100F007B900000000F0
:1004A0002D0000002B0000002000000010B5431CB0
:1004B00002E010F8011B71B18107FAD14FF001324F
:1004C00002C88C1A8C4314EAC211F9D0C01A0A0669
:1004D00003D0C01E10BDC01A10BD0A0401D0801E7A
:1004E00010BD0902FCD0401E10BD032A40F230802E
:1004F00010F0030C00F0158011F8013BBCF1020F65
:10050000624498BF11F801CB00F8013B38BF11F8E5
:10051000013BA2F1040298BF00F801CB38BF00F8FC
:10052000013B11F0030300F02580083AC0F0088079
:1005300051F8043B083A51F804CBA0E80810F5E75D
:10054000121D5CBF51F8043B40F8043BAFF3008040
:10055000D20724BF11F8013B11F801CB48BF11F8B5
:10056000012B24BF00F8013B00F801CB48BF00F885
:10057000012B704710B5203AC0F00B80B1E818503D
:10058000203AA0E81850B1E81850A0E81850BFF47D
:10059000F5AF5FEA027C24BFB1E81850A0E818501C
:1005A00044BF18C918C0BDE810405FEA827C24BF70
:1005B00051F8043B40F8043B08BF7047D20728BFFE
:1005C00031F8023B48BF11F8012B28BF20F8023B4D
:1005D00048BF00F8012B70474FF000020429C0F01B
:1005E000128010F0030C00F01B80CCF1040CBCF165
:1005F000020F18BF00F8012BA8BF20F8022BA1EBB7
:100600000C0100F00DB85FEAC17C24BF00F8012B9B
:1006100000F8012B48BF00F8012B70474FF0000293
:1006200000B5134694469646203922BFA0E80C50E8
:10063000A0E80C50B1F12001BFF4F7AF090728BFC3
:10064000A0E80C5048BF0CC05DF804EB890028BF3F
:1006500040F8042B08BF704748BF20F8022B11F068
:10066000804F18BF00F8012B7047704770477047E4
:1006700070B5064C7C44064D7D4403E02068204460
:100680008047241DAC42F9D170BD0000509000009D
:100690005090000010B500F07FF8006810BD10B554
:1006A000044600F079F8046010BD2DE9F0470D46CE
:1006B00099469246044600F124080168880604D54C
:1006C000E06921F01001216000E00120A84201DD75
:1006D000471B00E00027A1697A1902EB0900081AFC
:1006E000A0612078C00602D42046AFF30080002627
:1006F00008E0D4E901211AF806009047206A401C5E
:10070000761C20624E45F4DB2078C0060AD52046D0
:10071000AFF3008006E0D4E9012130209047206A41
:10072000401C2062381EA7F10107F4DC07E0D4E981
:10073000012118F805009047206A401C2062281EFD
:10074000A5F10105F3DC2046AFF300802078000618
:1007500002D50220BDE8F0870120FBE701694A1CB1
:1007600002610878704700B58FB0CDE901310021F2
:10077000059105497944CDE9031011466846FFF714
:1007800025FE0FB000BD0000E5FFFFFF0A6802F87C
:10079000010B0A607047000000487047A823002042
:1007A00000487047A82300207546FFF7F9FFAE46C2
:1007B00005006946534620F00700854618B020B56D
:1007C000FFF766FDBDE820404FF000064FF0000740
:1007D0004FF000084FF0000B21F00701AC46ACE8E9
:1007E000C009ACE8C009ACE8C009ACE8C0098D4656
:1007F000704710B50446AFF300802046BDE81040B6
:10080000FFF732BD01491820ABBEFEE7260002000B
:100810007047000070B505464FF42A720D4928460E
:10082000FFF7A8FE2C4605F1280006F08DFBA0F18D
:100830002804A03006F088FBA0F1C804A03006F020
:1008400083FBA0F5B474A03006F07EFBA0F5027423
:1008500070BD00007090000800BFFEE710B50248B0
:1008600000F0D6FA10BD0000241E002010B502488A
:1008700000F0CEFA10BD0000241E002010B5024882
:1008800000F0C6FA10BD00004C1E002010B5024852
:1008900000F0BEFA10BD00004C1E002010B502484A
:1008A00000F03CFE10BD0000F020002010B5024812
:1008B00000F034FE10BD00003020002010B50248CA
:1008C00000F02CFE10BD00009020002010B5024862
:1008D00000F024FE10BD0000D01F00200146087863
:1008E00010381823B0FBF3F20848805CC865032A6F
:1008F00005D908686FF30900001D886503E00868E2
:100900006FF309008865886D704700001893000830
:10091000014600208A6A8B69CBB932B1012A0DD019
:10092000022A03D0032A10D10EE000BFCB6A03F0E5
:100930008073B3F1807F00D1012007E0CB6AB3F16F
:10094000C07F00D1012001E000E000BF34E08B69EE
:10095000B3F5005F1AD132B1012A07D0022A03D0C1
:10096000032A11D10AE000BF01200EE0CB6A03F098
:100970008073B3F1807F00D1012006E0CB6AB3F130
:10098000C07F00D1012000E000BF15E032B1012A94
:1009900005D0022A04D0032A0CD103E000BF00BF17
:1009A000012008E0CB6A03F08073B3F1807F00D1AF
:1009B000012000E000BF00BF704730B50468246824
:1009C00024F4802405682C60046863608468402CEB
:1009D00004D10468A2600468E16003E00468A160D7
:1009E0000468E26030BD704772B600BFFEE710B524
:1009F000024692F82030012B01D0022B06D110685C
:100A00004069084314686061002010BD506A40F4DA
:100A1000802050620120F8E7F0B504460D461E46DE
:100A200094F8207020688368A86800B900E000BFCF
:100A3000012F01D0022F7CD103F0806030B903F088
:100A4000006018B903F08050002873D0C3F301612F
:100A5000022905D9606A40F4000060620120F0BDFF
:100A6000012088403060A86860B9B5F800C0E86827
:100A700040EA4C5C206800F5C07000EB0110C0F843
:100A800000C00FE0D5E901C040EACC00D5F80CC0A9
:100A900040EA0C00D4F800C00CF5C07C0CEB011C43
:100AA000CCF80000D5F810C0206800F5C07000EB4D
:100AB0000110C0F804C0287D01280ED1206800F57F
:100AC000C07000EB0110406840F4807C206800F5A5
:100AD000C07000EB0110C0F804C0D079000692F895
:100AE00006C040EA0C4092F805C040EA0C2C107990
:100AF0004CEA000C206800F5C07000EB0110C0F853
:100B00000CC0D078000692F802C040EA0C4092F87F
:100B100001C040EA0C2092F800C040EA0C00D4F872
:100B200000C00CF5C07C0CEB011CCCF80800206860
:100B300001E016E00FE000F5C07000EB0110006866
:100B400040F0010C206800F5C07000EB0110C0F807
:100B500000C0002083E7606A40F40010606201205A
:100B60007DE7606A40F480206062012077E7000042
:100B7000F0B504460A46216894F82050012D01D0B2
:100B8000022D7ED1424901F50071086840F0010054
:100B90000860086820F47C5008600868566A40EADB
:100BA00006200860107D00F01F06012000FA06F301
:100BB000C8699843C861A1F50071D069C8B9D1F876
:100BC0000C029843C1F80C02908880B2968940EAE2
:100BD000064601F51070576940F83760108880B2FA
:100BE000168940EA064601F51070576900EBC70008
:100BF0004660D069012819D1D1F80C021843C1F818
:100C00000C02908880B2168840EA064601F5107002
:100C1000576940F83760908980B2168940EA0646E5
:100C200001F51070576900EBC7004660906928B95C
:100C3000D1F804029843C1F8040204E0D1F8040298
:100C40001843C1F80402106928B9D1F81402984376
:100C5000C1F8140204E0D1F814021843C1F81402D8
:100C6000106A012804D1D1F81C021843C1F81C02F3
:100C7000D1F8000220F00100C1F800020020F0BD10
:100C8000FFE7606A40F4802060620120F7E700001F
:100C900000640040704770B5044694F82050012D60
:100CA00001D0022D7DD151B92068C06800F0030049
:100CB00080B9606A40F400106062012070BD206855
:100CC000006900F0030028B9606A40F40010606217
:100CD0000120F3E7206800F5D87000EB01100068F0
:100CE00000F004009060906840B9206800F5D8706A
:100CF00000EB01100068400D106007E0206800F56F
:100D0000D87000EB01100068C0085060206800F542
:100D1000D87000EB0110006800F00200D06020687D
:100D200000F5D87000EB0110406800F00F00106172
:100D3000206800F5D87000EB0110406800F47F4097
:100D4000000A9061206800F5D87000EB011040683F
:100D5000000C5061206800F5D87000EB011080682D
:100D60001870206800F5D87000EB0110806800F45E
:100D70007F40000A5870206800F5D87000EB011021
:100D8000806800F47F00000C9870206800F5D8702F
:100D900000EB01108068000ED870206800F5D87054
:100DA00000E02FE000EB0110C0681871206800F52A
:100DB000D87000EB0110C06800F47F40000A587141
:100DC000206800F5D87000EB0110C06800F47F00C7
:100DD000000C9871206800F5D87000EB0110C06815
:100DE000000ED87131B92068C06840F02000266834
:100DF000F06005E02068006940F02000266830615E
:100E000000205BE7606A40F480206062012055E7C3
:100E10002DE9F05F04460025206846692068D0F877
:100E20000490206887682068D0F80CA02068D0F86B
:100E300010B02068D0F8188006F00100002855D0C6
:100E400007F00100C0B101202168886007F00200AE
:100E500018B1204600F0F1FA0EE007F0040010B1DE
:100E600045F4006508E007F0080010B145F480552E
:100E700002E0204600F0E0FA07F48070C8B14FF4B9
:100E800080702168886007F4007018B1204600F077
:100E9000D6FA0EE007F4806010B145F4005508E082
:100EA00007F4006010B145F4804502E0204600F0F0
:100EB000C5FA07F48030C8B14FF4803021688860EB
:100EC00007F4003018B1204600F0BBFA0EE007F43A
:100ED000802010B145F4004508E007F4002010B16F
:100EE00045F4803502E0204600F0AAFA06F008003A
:100EF00038B10AF0100020B145F4007510202168C7
:100F0000C86006F0040040B10AF0080028B10820CB
:100F10002168C860204600F01DFA06F0020038B1D2
:100F20002068C06800F0030010B1204600F014FAF9
:100F300006F0400038B10BF0100020B145F4806598
:100F400010202168086106F0200040B10BF0080075
:100F500028B1082021680861204600F03BFA06F01D
:100F6000100038B12068006900F0030010B120467D
:100F700000F031FA06F4003040B109F0100028B159
:100F8000102021684860204600F026FA06F48030E0
:100F900040B109F0080028B10820216848602046C7
:100FA00000F050FA06F4004088B309F0040078B36A
:100FB00006F4807020B108F0010008B145F0010589
:100FC00006F4007020B108F0020008B145F00205F7
:100FD00006F4806020B108F0040008B145F0040573
:100FE00006F40060A0B108F0700088B108F070004D
:100FF000402817D006DC10280BD020280CD0302831
:1010000019D10CE0502810D0602814D110E01DE058
:1010100019E045F008050FE045F010050CE045F03B
:10102000200509E045F0400506E045F0800503E0B5
:1010300045F4807500E000BF00BF2068806920F0A3
:101040007000216888610420216848602DB1606AC1
:10105000284360622046FFF71DFEBDE8F09F70B593
:1010600004460CB9012070BD94F8200010B9204648
:1010700000F0B0F82068006840F0010021680860C6
:1010800000F040FD05460DE000F03CFD401B0A2845
:1010900008D9606A40F400306062052084F82000BE
:1010A0000120E0E72068406800F001000028EBD054
:1010B0002068006820F002002168086000F022FD2E
:1010C00005460DE000F01EFD401B0A2808D9606AA5
:1010D00040F400306062052084F820000120C2E75F
:1010E0002068406800F002000028EBD1207E012833
:1010F00006D12068006840F080002168086005E0A3
:101100002068006820F0800021680860607E012867
:1011100006D12068006840F040002168086005E0C2
:101120002068006820F0400021680860A07E012847
:1011300006D12068006840F020002168086005E0C2
:101140002068006820F0200021680860E07E012807
:1011500006D12068006820F010002168086005E0D2
:101160002068006840F0100021680860207F012896
:1011700006D12068006840F008002168086005E09A
:101180002068006820F0080021680860607F01285E
:1011900006D12068006840F004002168086005E07E
:1011A0002068006820F0040021680860D4E902018A
:1011B000084321690843616908436168491E08437F
:1011C0002168C86100206062012084F820000020AE
:1011D00049E7000010B586B00446142101A8FFF7C6
:1011E0001DFA56492068884249D155480068401C7C
:1011F000534908600846006801280FD100BF00204D
:1012000000905048006840F000704E490860084661
:10121000006800F00070009000BF00BF00BF002019
:10122000009048481038006840F0080045491039DF
:1012300008600846006800F00800009000BF00BF8A
:1012400003200190022002900020039003200490CC
:101250000920059001A93C4800F054FB00221146EA
:10126000142000F0D9FC142000F0C6FC0022114626
:10127000152000F0D1FC152000F0BEFC5CE03349E5
:101280002068884258D100BF002000902D48006897
:1012900040F080602B4908600846006800F08060DC
:1012A000009000BF00BF26480068401C2449086029
:1012B0000846006801280FD100BF00200090214897
:1012C000006840F000701F4908600846006800F0A0
:1012D0000070009000BF00BF00BF002000901948C0
:1012E0001038006840F002001649103908600846BE
:1012F000006800F00200009000BF00BF6020019075
:101300000220029000200390032004900920059001
:1013100001A90F4800F0F6FA00221146402000F023
:101320007BFC402000F068FC00221146412000F0C8
:1013300073FC412000F060FC06B010BD006400406A
:10134000E800002040380240000C024000680040E5
:10135000000402407047000010B586B00446174BE9
:10136000174A00212046FFF796FC164884420FD109
:10137000124804901248D0E90413C2688069CDE98C
:101380000113009203900E480EC80F4805F067FF46
:101390000E4884420FD10948094B0490D3E9040256
:1013A000D9689B69CDE90223CDE9001004480EC835
:1013B000074805F09FFE06B010BD00009C0000200D
:1013C00068170020241E0020781200204C1E0020E8
:1013D000B812002070477047704770B5044694F803
:1013E0002000012822D1022084F820002068006813
:1013F00020F001002168086000F084FB05460DE044
:1014000000F080FB401B0A2808D9606A40F40030D5
:101410006062052084F82000012070BD20684068CB
:1014200000F001000028EBD16062F6E7606A40F44A
:10143000002060620120F0E77047704770477047F6
:1014400070477047704770B50446A56D00F05AFBB1
:10145000064694F83500022808D08020606500BF59
:10146000002084F8340000BF012070BD20680068AF
:1014700020F01600216808602068406920F0800094
:1014800021684861206C08B9A06C28B12068006808
:1014900020F00800216808602068006820F0010042
:1014A0002168086010E000F02DFB801B05280BD997
:1014B00020206065032084F8350000BF002084F8F8
:1014C000340000BF0320D0E72068006800F001006E
:1014D0000028E8D194F85C103F208840A8600120E3
:1014E00084F8350000BF002084F8340000BF00BF3E
:1014F000BBE7014691F83500022803D080204865FB
:1015000001207047052081F835000868006820F048
:1015100001000A6810600020F3E70000F8B50446F7
:10152000002000908C4800684FF41651B0FBF1F792
:10153000A56D2E6894F85C1008208840304098B162
:101540002068006800F0040070B12068006820F096
:1015500004002168086094F85C1008208840A860A6
:10156000606D40F00100606594F85C1001208840D7
:10157000304068B12068406900F0800040B194F8C4
:101580005C1001208840A860606D40F0020060653A
:1015900094F85C1004208840304068B120680068EE
:1015A00000F0020040B194F85C1004208840A8606C
:1015B000606D40F00400606594F85C101020884075
:1015C000304078B32068006800F0080050B394F809
:1015D0005C1010208840A8602068006800F480201B
:1015E00080B12068006800F4002028B9206CC8B1E0
:1015F0002046216C884715E0A06C98B12046A16C6C
:1016000088470FE02068006800F4807028B92068DF
:10161000006820F0080021680860206C10B12046A6
:10162000216C884794F85C102020884030400028C6
:1016300065D02068006800F0100000285FD094F8A2
:101640005C1020208840A86094F83500052828D137
:101650002068006820F01600216808602068406952
:1016600020F0800021684861206C08B9A06C28B186
:101670002068006820F008002168086094F85C1079
:101680003F208840A860012084F8350000BF00207A
:1016900084F8340000BF206D10B12046216D8847CA
:1016A000F8BD2068006800F4802080B120680068E0
:1016B00000F4002028B9606C10B12046616C8847A6
:1016C0001DE0E06BD8B12046E16B884717E0206849
:1016D000006800F4807068B92068006820F010008D
:1016E00021680860012084F8350000BF002084F8DC
:1016F000340000BFE06B10B12046E16B8847606D9D
:1017000038B3606D00F00100F0B1052084F83500B9
:101710002068006820F001002168086000BF009880
:10172000401C0090B84200D905E02068006800F035
:1017300001000028F3D100BF012084F8350000BF6C
:10174000002084F8340000BFE06C10B12046E16C4A
:10175000884700BFA4E70000F80000202DE9F04111
:101760000446002500F0CEF9074614B90120BDE873
:10177000F081606A00B100BF022084F8350000BF2C
:10178000002084F8340000BF2068006820F00100C9
:10179000216808600AE000F0B5F9C01B052805D9EA
:1017A00020206065032084F83500E0E720680068A9
:1017B00000F001000028EED12068056821480540AE
:1017C000D4E901010843E1680843216908436169DC
:1017D0000843A1690843E1690843216A08430543B6
:1017E000606A042803D1D4E90B010843054320684B
:1017F00005602068456925F00705606A0543606A51
:1018000004280DD1A06A0543E06A48B12046FFF7DD
:101810007FF828B140206065012084F83500A6E7F4
:10182000206845612046FFF759F8064694F85C1099
:101830003F208840B06000206065012084F83500BA
:10184000002094E73F8010F02DE9F04704460D4654
:1018500016461F464FF00008D4F8589000BF94F881
:101860003400012802D10220BDE8F087012084F86D
:10187000340000BF94F83500012825D1022084F8F7
:101880003500002060653B46324629462046FFF77A
:1018900094F894F85C103F208840C9F8080020684C
:1018A000006840F0160021680860206C28B12068AC
:1018B000006840F00800216808602068006840F077
:1018C00001002168086006E000BF002084F83400B1
:1018D00000BF4FF002084046C6E7000070B504465E
:1018E00000F010F906462546681C10B1044800783F
:1018F000054400BF00F006F9801BA842FAD370BD72
:10190000F4000020F8B502460B4600250024002014
:101910000021D6E0012606FA01F51E6806EA050454
:10192000AC4274D11E7906F00306012E04D01E7954
:1019300006F00306022E13D190684F000326BE4026
:10194000B0434F00DE68BE403043906050680126CF
:101950008E40B0431E79C6F300168E40304350606F
:101960001E7906F00306032E09D0D0684F00032627
:10197000BE40B0434F009E68BE403043D0601E79E9
:1019800006F00306022E13D1CF0802F1200656F806
:1019900027004E07F70E0F26BE40B0434F07FF0E3D
:1019A0001E69BE403043CF0802F1200646F82700EA
:1019B00010684F000326BE40B0431E7906F00306B0
:1019C0004F00BE40304310605E6806F44036002E83
:1019D00076D000BF002600963C4E366846F480461E
:1019E0003A4F3E603E46366806F48046009600BF99
:1019F00000BF374E8F0856F827008E07370F0F2687
:101A0000BE40B043334EB24202D1002624E057E03C
:101A1000314EB24201D101261EE0304EB24201D118
:101A2000022619E02E4EB24201D1032614E02D4EBB
:101A3000B24201D104260FE02B4EB24201D105265D
:101A40000AE02A4EB24201D1062605E0284EB242F3
:101A500001D1072600E008268F073F0FBE40304324
:101A60001B4E8F0846F82700224E3068A0435E6860
:101A700006F4801606B120431E4E3060361D3068D5
:101A8000A0435E6806F4001606B12043194E361DC9
:101A90003060184E361F3068A0435E6806F400368A
:101AA00006B12043134E361F3060361F3068A04306
:101AB0005E6806F4803606B120430E4E083E306064
:101AC000491C1029FFF426AFF8BD0000443802403D
:101AD00008380140000002400004024000080240B3
:101AE000000C0240001002400014024000180240A6
:101AF000001C0240083C01400AB1816101E00B0476
:101B0000836170470148006870470000EC000020C6
:101B10000348006803490978084401490860704790
:101B2000EC000020F400002010B50D48006840F4DF
:101B300000700B4908600846006840F48060086047
:101B40000846006840F480700860032000F0A2F8A6
:101B50000F2000F007F800F02BF8002010BD000067
:101B6000003C024070B504460E4800784FF47A718C
:101B7000B1FBF0F00C490968B1FBF0F5284600F024
:101B80002BFC08B1012070BD102C07D20022214689
:101B9000501E00F041F80548046001E00120F2E722
:101BA0000020F0E7F4000020F8000020F000002002
:101BB00008B500BF002000900E48006840F4804047
:101BC0000C4908600846006800F48040009000BF9F
:101BD00000BF00BF00200090081F006840F0805048
:101BE000091F08600846006800F08050009000BFA0
:101BF00000BF08BD4438024001460846002809DB02
:101C000000F01F0301229A4043099B0003F1E023E7
:101C1000C3F8002100BF70472DE9F05F80460D46F4
:101C20001646002705F0B2FC074639462A463346D9
:101C300001F00700C0F1070ABAF1040F02D94FF012
:101C4000040A01E0C0F1070AD14600F1040ABAF122
:101C5000070F02D24FF0000A01E0A0F1030AD446B8
:101C60004FF0010A0AFA09FAAAF1010A0AEA020A7D
:101C70000AFA0CFA4FF0010B0BFA0CFBABF1010B5B
:101C80000BEA030B4AEA0B042146404605F086FCAA
:101C9000BDE8F09F00BF00F00702064B19684FF641
:101CA000FF031940044B0B4343EA0221014B196027
:101CB00000BF70470CED00E00000FA0570B5044667
:101CC0000D460CB9012070BD5848006800F00700AF
:101CD000A84209D255490D700846006800F0070077
:101CE000A84201D00120EEE7207800F0020002288F
:101CF0001DD1207800F00400042805D14C4800686C
:101D000040F4E0504A490860207800F008000828B4
:101D100005D14748006840F46040454908604448A0
:101D2000006820F0F000A16808434149086020786D
:101D300000F00100A8B36068012807D13C480838CA
:101D40000068C0F34040B8B90120BCE760680228D1
:101D500002D06068032807D1354808380068C0F30E
:101D6000406048B90120AEE7314808380068C0F348
:101D7000400008B90120A6E72D48006820F00300C4
:101D8000616808432A490860FFF7BCFE064609E07F
:101D9000FFF7B8FE801B41F28831884202D9032048
:101DA00091E707E02248006800F00C006168B0EBA2
:101DB000810FEDD11D48006800F00700A84209D945
:101DC0001A490D700846006800F00700A84201D0CB
:101DD000012078E7207800F00400042807D1144897
:101DE000006820F4E050E168084311490860207859
:101DF00000F00800082808D10D48006820F4604071
:101E0000216940EAC1000A49086000F03FF808492A
:101E10000968C1F30311074A515CC84006490860CC
:101E200006480068FFF79EFE00204CE7003C024099
:101E30000838024020930008F8000020F00000203D
:101E40000148006870470000F800002000B5FFF767
:101E5000F7FF04490968C1F38221034A515CC84075
:101E600000BD0000083802403093000800B5FFF7BD
:101E7000E7FF04490968C1F34231034A515CC84095
:101E800000BD000008380240309300082DE9F047FB
:101E9000002400250026A1462548006800F00C001B
:101EA00020B1042805D008283AD105E0DFF8849055
:101EB00039E0DFF8849036E01D48001F006800F02C
:101EC0003F041B48001F006800F4800078B11A48E6
:101ED0001749091F0968C1F38811A0FB0170014669
:101EE000224600233846FEF7E5F905460EE0114884
:101EF0000F49091F0968C1F38811A0FB0170014651
:101F0000224600233846FEF7D5F905460848001F4B
:101F10000068C0F30140401C4600B5FBF6F902E042
:101F2000DFF8109000BF00BF4846BDE8F087000012
:101F3000083802400024F400001BB700F8B504463E
:101F40000CB90120F8BD207800F00100002874D001
:101F5000F948006800F00C0004280DD0F64800682D
:101F600000F00C00082813D1F348001F006800F4AB
:101F70008000B0F5800F0BD1EF4808380068C0F33F
:101F80004040002859D06068002856D10120D9E788
:101F900000BF6068B0F5803F08D1E74808380068A6
:101FA00040F48030E449083908601EE06068B0F50C
:101FB000A02F0DD1E0480838006840F48020DE49A9
:101FC000083908600846006840F4803008600CE07A
:101FD000D9480838006820F48030D74908390860AB
:101FE0000846006820F48020086000BF606890B157
:101FF000FFF788FD054606E0FFF784FD401B6428D7
:1020000001D903209EE7CC4808380068C0F340405F
:102010000028F1D011E0FFF775FD054606E0FFF757
:1020200071FD401B642801D903208BE7C2480838A2
:102030000068C0F340400028F1D1207800F0020091
:1020400002285FD1BC48006800F00C0058B1BA48C3
:10205000006800F00C0008281CD1B748001F006879
:1020600000F48000B0B9B44808380068C0F34000FC
:1020700020B1E068012801D0012063E7AE480838AC
:10208000006820F0F800216940EAC100AA49083937
:10209000086037E0E06800B30120A8490860FFF756
:1020A00031FD054606E0FFF72DFD401B022801D952
:1020B000032047E7A04808380068C0F34000002824
:1020C000F1D09D480838006820F0F800216940EA06
:1020D000C10099490839086014E000209749086058
:1020E000FFF710FD054606E0FFF70CFD401B022838
:1020F00001D9032026E7904808380068C0F3400063
:102100000028F1D1207800F0080008282CD160695F
:10211000A8B101208A490860FFF7F4FC054606E0F3
:10212000FFF7F0FC401B022801D903200AE7824890
:102130006C300068C0F340000028F1D014E00020AB
:102140007F490860FFF7DEFC054606E0FFF7DAFC92
:10215000401B022801D90320F4E677486C30006860
:10216000C0F340000028F1D1207800F004000428DA
:1021700070D1002770483830006800F0805090B966
:1021800000BF002000906C483830006840F080505C
:102190006949383108600846006800F080500090B6
:1021A00000BF00BF01276748006800F48070B0B925
:1021B0006448006840F4807062490860FFF7A2FC40
:1021C000054606E0FFF79EFC401B022801D90320CC
:1021D000B8E65C48006800F480700028F2D000BFC8
:1021E000A068012808D154486830006840F0010018
:1021F0005149683108601DE0A06805280DD14E489E
:102200006830006840F004004B49683108600846B7
:10221000006840F0010008600CE047486830006842
:1022200020F001004449683108600846006820F049
:102230000400086000BFA068A8B1FFF763FC054672
:1022400009E0FFF75FFC401B41F28831884202D968
:10225000032077E626E0384868300068C0F3400085
:102260000028EED013E0FFF74DFC054608E0FFF72D
:1022700049FC401B41F28831884201D9032061E6C4
:102280002D4868300068C0F340000028EFD1012FCE
:1022900007D129483830006820F08050264938316D
:1022A000086000BFA069002845D02348006800F0FE
:1022B0000C0008285DD0A069022845D100201F49E4
:1022C0000866FFF71FFC054606E0FFF71BFC401BF6
:1022D000022801D9032035E6174808380068C0F302
:1022E00040600028F1D1D4E907010843616A40EA5F
:1022F00081110122A06AC2EB500041EA00412C206A
:10230000005D41EA00600C49091F086001200B498B
:102310000866FFF7F7FB054606E0FFF7F3FB401BF7
:10232000022801D903200DE6034808380068C0F3ED
:1023300040600028F1D049E00838024000004742E0
:10234000800E474200700040002021490866FFF7D8
:10235000D9FB054606E0FFF7D5FB401B022801D953
:102360000320EFE51B480068C0F340600028F2D16D
:102370002CE0A069012800D1E4E51648001D06689C
:10238000A069012820D006F48001E06981421BD1B8
:1023900006F03F01206A814216D147F6C0703040F6
:1023A000616AB0EB811F0FD106F440310122A06AAF
:1023B000C2EB5000B1EB004F06D106F070612C204B
:1023C000005DB1EB006F01D00120BBE50020B9E555
:1023D000000047420038024070B504462546681E9A
:1023E000B0F1807F01D301200FE0681E4FF0E021A3
:1023F00048610F214FF0FF3005F0D0F800204FF07A
:10240000E021886107200861002070BD7047704797
:1024100030B502460B4600BF92F83C00012801D1BE
:10242000022030BD012082F83C0000BF022082F86B
:102430003D00106844681068816824F070041868D2
:10244000044310684460184D1068A8421BD01068FF
:10245000B0F1804F17D0154D1068A84213D0144D1D
:102460001068A8420FD0134D1068A8420BD0124D2F
:102470001068A84207D0114D1068A84203D0104D33
:102480001068A84205D121F0800158680143106806
:102490008160012082F83D0000BF002082F83C00EE
:1024A00000BF00BFBDE70000000001400004004085
:1024B00000080040000C00400004014000400140C2
:1024C0000018004010B504460CB9012010BD94F866
:1024D0003D0028B9002084F83C00204600F026F892
:1024E000022084F83D00211D206801F073FB0120CB
:1024F00084F8460000BF84F83E0001213F200155CA
:10250000402001554120015500BF00BF012084F843
:10251000420043200155442001554520015500BF8C
:10252000012084F83D000020D0E7000038B50446C3
:102530001C492068884218D100BF002000901A482A
:10254000006840F00800184908600846006800F07C
:102550000800009000BF00BF002201213220FFF7D9
:102560005BFB3220FFF748FB1BE0104920688842E4
:1025700017D100BF002000900B48006840F0100009
:10258000094908600846006800F01000009000BF8C
:1025900000BF002201213620FFF73EFB3620FFF767
:1025A0002BFB38BD000C00404038024000100040BA
:1025B000014691F83D00012801D00120704702201A
:1025C00081F83D000868C06840F001000B68D860E1
:1025D0001A4B086898421BD00868B0F1804F17D09A
:1025E000174B0868984213D0164B086898420FD0D2
:1025F000154B086898420BD0144B0868984207D0D6
:10260000134B0868984203D0124B086898420CD1CB
:102610000868806800F00702062A0CD00868006885
:1026200040F001000B68186005E00868006840F0A1
:1026300001000B6818600020C0E7000000000140A6
:102640000004004000080040000C0040000401406D
:1026500000400140001800402DE9F04104460D46BD
:10266000002700BF94F83C00012802D10220BDE8F9
:10267000F081012084F83C0000BF022084F83D0076
:102680002068866826F0770626F47F4620688660F4
:102690002868502833D00CDC202850D004DC0028D7
:1026A0004BD0102851D149E0302849D040284CD196
:1026B00039E060282DD0702807D0B0F5805F03D0B6
:1026C000B0F5005F41D10DE041E0D5E902136A6841
:1026D000206801F0EBFA2068866846F077062068EB
:1026E000866034E0D5E902136A68206801F0DEFAFA
:1026F0002068806840F480402168886027E0EA68AC
:102700006968206801F0E6FA5021206801F0D9FAE2
:102710001DE0EA686968206801F0EFFA602120682E
:1027200001F0CFFA13E0EA686968206801F0D2FA94
:102730004021206801F0C5FA09E000BF00BF00BFDA
:102740002968206801F0BDFA01E0012700BF00BF41
:10275000012084F83D0000BF002084F83C0000BF49
:10276000384684E7704710B5044620680069C0F316
:102770004000D8B12068C068C0F34000B0B16FF02D
:10278000020021680861012020772068806900F03C
:10279000030018B12046FFF7E5FF05E0204600F0F2
:1027A000ADF8204600F0ABF80020207720680069E3
:1027B000C0F38000D8B12068C068C0F38000B0B119
:1027C0006FF004002168086102202077206880698A
:1027D00000F4407018B12046FFF7C4FF05E0204622
:1027E00000F08CF8204600F08AF80020207720685E
:1027F0000069C0F3C000D8B12068C068C0F3C00051
:10280000B0B16FF0080021680861042020772068CB
:10281000C06900F0030018B12046FFF7A3FF05E0F0
:10282000204600F06BF8204600F069F80020207781
:1028300020680069C0F30010D8B12068C068C0F3F8
:102840000010B0B16FF010002168086108202077F7
:102850002068C06900F4407018B12046FFF782FF7D
:1028600005E0204600F04AF8204600F048F8002035
:1028700020772068006900F0010058B12068C06826
:1028800000F0010030B16FF00100216808612046BE
:1028900000F036F820680069C0F3C01058B1206815
:1028A000C068C0F3C01030B16FF0800021680861CB
:1028B0002046FFF7ABFD20680069C0F3801058B1D7
:1028C0002068C068C0F3801030B16FF0400021680C
:1028D0000861204600F058FB20680069C0F34010F2
:1028E00058B12068C068C0F3401030B16FF02000CC
:1028F000216808612046FFF78AFD10BD70477047C8
:1029000010B52DED0C8B0446FE48844277D1FE486D
:102910000078002874D19FEDFD0AFD4880ED000A83
:10292000FC4880ED000AFC49B1F90810484206F065
:1029300036F841EC190B9FEDF90B53EC102B06F018
:1029400059F841EC180B05F09BFDF6490860084664
:10295000006806F00FFB41EC1A0B9FEDF30B53ECF4
:10296000102B05F0BFFD41EC190B9FEDF10B53EC63
:10297000102B06F03FF841EC180B05F081FDEE49F5
:102980000860084690ED000A04F0DEFFEB4880ED99
:10299000000AE94890ED000A05F07EF8E84880ED6D
:1029A000000ADD48C07D01280BD0DB48007E0128ED
:1029B00007D0D948407E012803D0D748807E01281F
:1029C0007AD1D548C07D01281BD1D348B0F9060083
:1029D00000EE100AB8EEC00ADA48D0ED000A20EE88
:1029E000200AFFEE000A20EE200AD74880ED000AF8
:1029F000002190ED000AD54802F02EFE02E0A1E28F
:102A000049E100BFC448407E012843D1D04890F935
:102A1000000005F0C4FF41EC1B0B9FEDCE0B53EC07
:102A2000102B05F0E7FF41EC190BC748006806F0D2
:102A3000A1FA41EC1A0B53EC192B05F053FD41ECB4
:102A4000180B05F01DFDC04908600121BE4890ED3E
:102A5000000ABE4802F000FEBB4890ED000ADFED20
:102A6000BF0AB4EEE00AF1EE10FA04DB9FEDBB0AF8
:102A700080ED000A2CE0B44890ED000ADFEDB80AC2
:102A8000B4EEE00AF1EE10FA22D89FEDB50A80ED1F
:102A9000000A1DE0A048807E012819D09E48C07D14
:102AA000012810D19C48007C012806D19FEDAD0A79
:102AB000AD4880ED000A0BE04CE09FEDAC0AAA485F
:102AC00080ED000A04E09FEDAA0AA74880ED000A05
:102AD0009148807EF0BB9048B0F90A0000EE900A61
:102AE000F8EEE00AB0EE600A0121A24802F0B4FD5F
:102AF0008948B0F90C0000EE900AF8EEE00AB0EE5A
:102B0000600A01219C4802F0A7FD9A4890ED010A55
:102B10008A48D0ED000A20EE200A9748D0ED010A3D
:102B2000874890ED001A00EEC10A8F48D0ED000AE8
:102B300020EE200A774880ED000A8E4890ED010AC9
:102B40007F48D0ED000A20EE200A8B48D0ED010A24
:102B50007A4800E00BE090ED001A00EE810A82480E
:102B6000D0ED000A20EE200A694880ED000A6A4A8A
:102B7000B2F90A10002901DB0A4600E04A420F2A96
:102B800009DC654AB2F90C00002801DB024600E0CE
:102B900042420F2A0FDD6048407E012805D19FED9B
:102BA000770A774880ED000A14E09FED760A7448B2
:102BB00080ED000A0EE05848407E012805D19FEDC7
:102BC0006F0A6F4880ED000A04E09FED6F0A6C48C1
:102BD00080ED000A6A48006806F0CCF941EC1B0B56
:102BE0005A4890ED010A10EE101A084606F0C2F994
:102BF00041EC1D0B9FED650B53EC102B05F0FAFE1D
:102C000041EC1C0B53EC1B2B05F0F4FE41EC1A0BB2
:102C100005F036FC08EE100A3D48006806F0AAF9F7
:102C200041EC1C0B9FED5B0B53EC102B05F0E2FE0F
:102C300041EC1B0B9FED590B53EC102B05F0DAFE0A
:102C400041EC1A0B05F01CFC08EE900A31480068B4
:102C500006F090F941EC1C0B9FED4E0B53EC102B42
:102C600005F0C8FE41EC1B0B9FED4C0B53EC102BF9
:102C700005F0C0FE41EC1A0B05F002FC09EE100A4B
:102C8000DFED481AB0EE481AF0EE680AB0EE490AD5
:102C9000454802F031FE1C4800781F49097F012990
:102CA00000D100E00021084378B19FED180A3E48AA
:102CB00080ED030A80ED020A80ED010A80ED000A32
:102CC0009FED120A204880ED000A40F201213748AA
:102CD00004F0B4FA00EE100AB8EEC00AB0EE408A72
:102CE0003148D0ED030A324890ED031A70EE810AA4
:102CF000B0EE600A01221146F0EE480A2D4803F0BA
:102D000043FB59E0BC1E00205400002000000000DE
:102D100034000020300000203C160020AA825149D7
:102D20009D80A63F3C00002000000000008056402F
:102D3000514CDE0033DF913F400000202000002096
:102D4000240000202C00002028000020DC1500209A
:102D5000750000207B14AE47E17A843F00C0DA455D
:102D600000C0DAC53333D33F50000020D1225B3F8F
:102D70007B14AE3EFC1500201C1600206666A63FA4
:102D800038000020666626409A99993F00000000AE
:102D90000000F03FFB5C6DC5FED238409A999999CE
:102DA0009999C93F00008046141300207812002032
:102DB000301300204C13002040F20221654804F03B
:102DC0003DFA00EE100AB8EEC00AB0EE408A624842
:102DD000D0ED020A614890ED021A70EE810AF1EE20
:102DE000600AB0EE600A01221146F0EE480A5C4823
:102DF00003F0CAFA40F20321564804F01FFA00EE2D
:102E0000100AB8EEC00AB0EE408A5348D0ED010A6D
:102E1000524890ED011A70EE810AF1EE600AB0EEB0
:102E2000600A01221146F0EE480A4E4803F0ACFA5F
:102E30004FF40171474804F001FA00EE100AB8EEB1
:102E4000C00AB0EE408A4448D0ED000A434890EDF5
:102E5000001A70EE810AB0EE600A01221146F0EE0F
:102E6000480A414803F090FA40F20121394804F041
:102E7000E5F9404200EE100AB8EEC00AB0EE408A12
:102E800001213A4802F0E8FB40F20221314804F007
:102E9000D5F9404200EE100AB8EEC00AB0EE408A02
:102EA0000121334802F0D8FB40F20321294804F005
:102EB000C5F900EE100AB8EEC00AB0EE408A012152
:102EC0002C4802F0C9FB4FF40171224804F0B6F916
:102ED00000EE100AB8EEC00AB0EE408A0121264882
:102EE00002F0BAFB254890ED0C0ABDEEC00A10EEC8
:102EF000100A01B20122224802F0F6F9184890EDBA
:102F00000C0ABDEEC00A10EE100A01B202221C48E3
:102F100002F0EAF9134890ED0C0ABDEEC00A10EE7B
:102F2000100A01B20322164802F0DEF90E4890EDB5
:102F30000C0ABDEEC00A10EE100A01B204221048BD
:102F400002F0D2F90F48844201D101F0F5FABDEC4C
:102F50000C8B10BD781200201413002030130020B9
:102F6000D013002054140020D81400205C15002039
:102F70007C1500209C150020BC1500204C1300205F
:102F800009000020741E00207047F8B504460E4664
:102F9000174694F83E00202836D106B10FB901201B
:102FA000F8BD00BF94F83C00012801D10220F7E7EA
:102FB000012084F83C0000BF20633A463146204699
:102FC00001F0D0F90546EDB9206B012819D100BFF9
:102FD0000020009020680068009020684068009001
:102FE00000BF00BF00BF00BF21680C3151E8001FC7
:102FF00041F0100021680C3141E80002002AF3D1B1
:1030000000E001252846CBE70220C9E7F0B587B0EC
:1030100004460D4627462E460B4887420CD1122EF9
:103020000AD101A802F0A4FA162201A90748FDF767
:103030005CFA074802F06FFF122206490248FFF7C8
:10304000A4FF00BF07B0F0BD481F0020FA1D0020FC
:10305000C4000020101E0020704700002DE9F84F2A
:103060000446206805682068C668206847694FF0F4
:103070000009CA4605F00F09B9F1000F0AD105F0A1
:10308000200038B106F0200020B1204600F06FFF8C
:10309000BDE8F88FB9F1000F7CD007F0010018B936
:1030A00006F49070002875D005F0010030B106F4E8
:1030B000807018B1206C40F00100206405F004001D
:1030C00030B107F0010018B1206C40F0020020641C
:1030D00005F0020030B107F0010018B1206C40F09B
:1030E0000400206405F0080048B106F0200010B983
:1030F00007F0010018B1206C40F008002064206C3B
:10310000002846D005F0200028B106F0200010B1BC
:10311000204600F02CFF20684069C0F3801A206C24
:1031200000F0080010B9BAF1000F2DD0204600F0D1
:10313000C5FE2068406900F04000402820D100BF53
:1031400000BF2168143151E8001F21F040002168C0
:10315000143141E80002002AF3D100BFA06B50B146
:103160007548A16B0865A06BFEF7C3F988B1A06B29
:10317000016D88470DE02046FFF76EFF09E009E08A
:103180002046FFF769FF04E02046FFF765FF0020B7
:1031900020647DE7206B012876D105F0100000281F
:1031A00072D006F010000028FAD000BF0020009076
:1031B00020680068009020684068009000BF00BF51
:1031C0002068406900F0400040285ED1A06B006894
:1031D00040681FFA80F8B8F1000F54D0A08D404528
:1031E00051DDA4F82E80A06BC069B0F5807F43D07C
:1031F00000BF00BF21680C3151E8001F21F480702E
:1032000021680C3141E80002002AF3D100BF00BF61
:1032100000BF2168143151E8001F21F0010021682E
:10322000143141E80002002AF3D100BF00BF00BF03
:103230002168143151E8001F21F040002168143149
:1032400041E80002002AF3D100BF202084F83E00AC
:103250000020206300BF00BF21680C3151E8001F2F
:1032600021F0100021680C3141E80002002AF3D15E
:1032700000BFA06BFEF7E7F8A08DE28D801A81B247
:103280002046FFF7C3FE03E740E0A08DE18D401A22
:103290001FFA80F8E08DC0B3B8F1000F35D000BF41
:1032A00000BF21680C3151E8001F21F490702168A3
:1032B0000C3141E80002002AF3D100BF00BF00BF7B
:1032C0002168143151E8001F21F0010021681431F8
:1032D00041E80002002AF3D100BF202084F83E001C
:1032E0000020206300BF00BF21680C3151E8001F9F
:1032F00021F0100021680C3141E80002002AF3D1CE
:1033000000BF41462046FFF781FEC1E605F0800080
:1033100030B106F0800018B1204601F048F8B7E659
:1033200005F0400030B106F0400018B1204600F032
:10333000FBFDADE600BFABE6233D000810B504463B
:103340000CB9012010BDA06900B100E000BF94F8E5
:103350003D0028B9002084F83C00204600F028F801
:10336000242084F83D002068C06820F400502168C3
:10337000C860204600F078FE2068006920F4904084
:10338000216808612068406920F02A0021684861AE
:103390002068C06840F400502168C86000202064A4
:1033A000202084F83D0084F83E000020CAE7000099
:1033B00010B586B00446142101A8FDF72FF9AA49DB
:1033C000206888427ED100BF00200090A748006896
:1033D00040F01000A54908600846006800F01000A1
:1033E000009000BF00BF00BF002000909F4814382D
:1033F000006840F002009D491439086008460068E2
:1034000000F00200009000BF00BF00BF002000904D
:103410000846006840F0010008600846006800F0B7
:103420000100009000BF00BF8020019002200290A8
:1034300000200390032004900720059001A98C48E8
:10344000FEF760FA4FF40070019002200290002015
:103450000390032004900720059001A98548FEF7FA
:1034600051FA8548854908604FF000604860402166
:10347000824881600021C1604FF4806101610021B8
:1034800041618161C16101624162FEF767F908B182
:10349000FDF7AAFA00BF79486063846300BF7648ED
:1034A0007838774908604FF0006048600021744820
:1034B0008160C1604FF480610161002141618161DF
:1034C000C16100E014E001624162FEF747F908B112
:1034D000FDF78AFA00BF6A48A063846300BF002238
:1034E00011462520FEF798FB2520FEF785FBB8E066
:1034F0006449206888423BD100BF002000905B48AF
:10350000001F006840F480205849091F08600846E1
:10351000006800F48020009000BF00BF00BF0020C2
:10352000009052481438006840F004004F491439A4
:1035300008600846006800F00400009000BF00BF6B
:103540004FF440600190022002900020039003207D
:1035500004900720059001A94B48FEF7D3F90022FB
:1035600011462720FEF758FB2720FEF745FB78E0A1
:1035700046492068884274D100BF002000903B4833
:10358000006840F02000394908600846006800F0F3
:103590002000009000BF00BF00BF00200090334813
:1035A0001438006840F0400030491439086008467B
:1035B000006800F04000009000BF00BF4FF484405E
:1035C0000190022002900020039003200490082024
:1035D000059001A92E48FEF795F9274818382D497E
:1035E00008604FF02060486040212A488160002137
:1035F000C1604FF480610161002141618161C1615D
:1036000001624162FEF7AAF808B1FDF7EDF900BFCB
:1036100020486063846300BF174890381E490860E3
:103620008005486000211C488160C1604FF48061C2
:103630000161002141618161C16101624162FEF766
:103640008DF808B1FDF7D0F900BF1348A06384637B
:1036500000BF002211464720FEF7DEFA4720FEF7A2
:10366000CBFA06B010BD0000001001404438024003
:103670000004024000000240B8640240D01F002055
:1036800030200020004800400008024000140140A3
:103690000018024090200020F020002070B5044661
:1036A0000D46164694F83E00202816D105B10EB9F5
:1036B000012070BD00BF94F83C00012801D1022018
:1036C000F7E7012084F83C0000BF00202063324669
:1036D0002946204600F0DEFDEBE70220E9E770B561
:1036E00004460D46164694F83E00202816D105B132
:1036F0000EB9012070BD00BF94F83C00012801D133
:103700000220F7E7012084F83C0000BF002020637E
:1037100032462946204600F025FEEBE70220E9E785
:1037200010B50446204601F0B5F9204602F0A4FE8B
:1037300010BD7047F7B50446154694F83D002028A3
:1037400046D1019800B10DB90120FEBD00BF94F82B
:103750003C00012801D10220F7E7012084F83C0059
:1037600000BF01982062A584E58400202064212008
:1037700084F83D001748616BC8631748616B0864A3
:103780001648616BC8640020616B086501AE236850
:103790001A1D31682B46606BFEF756F86FF040003B
:1037A0002168086000BF002084F83C0000BF00BF13
:1037B00000BF2168143151E8001F41F080002168EA
:1037C000143141E80002002AF3D100BF0020BCE719
:1037D0000220BAE7573E0008AF3E0008373D000818
:1037E00010B5034693F83D00202823D101B10AB952
:1037F000012010BD00BF93F83C00012801D1022038
:10380000F7E7012083F83C0000BF19629A84DA844C
:1038100000201864212083F83D0000BF002083F8B9
:103820003C0000BF1868C06840F080001C68E06081
:103830000020DEE70220DCE77047704700BFFEE7AC
:1038400010B50E480E4908600620486000210C485B
:103850008160C1604FF4403101614FF480114161DA
:103860000021017641768176C17601774177FDF7B7
:10387000F6FB08B1FDF7B8F810BD00000064004089
:10388000241E002010B50E480E490860062048602E
:1038900000210C488160C1604FF4403101614FF458
:1038A000801141610021017641768176C1760177F0
:1038B0004177FDF7D4FB08B1FDF796F810BD000085
:1038C000006800404C1E002008B500BF002000909A
:1038D0001648006840F480001449086008460068F3
:1038E00000F48000009000BF00BF00221146392084
:1038F000FEF792F93920FEF77FF9002211463A20AF
:10390000FEF78AF93A20FEF777F9002211464520A2
:10391000FEF782F94520FEF76FF900221146462096
:10392000FEF77AF94620FEF767F908BD3038024005
:1039300000B587B0142102A8FCF770FE00BF00207C
:1039400001903548006840F002003349086008469D
:10395000006800F00200019000BF00BF00BF00201F
:1039600001900846006840F0400008600846006882
:1039700000F04000019000BF00BF00BF0020019098
:103980000846006840F0010008600846006800F042
:103990000100019000BF00BF00BF00200190084659
:1039A000006840F0080008600846006800F0080061
:1039B000019000BF00BF00BF0020019008460068D2
:1039C00040F0040008600846006800F00400019020
:1039D00000BF00BF00BF002001900846006840F013
:1039E000800008600846006800F08000019000BF79
:1039F00000BF002209150948FEF77EF84FF48060E9
:103A000002900120039000200490059002A9034831
:103A1000FDF778FF07B000BD30380240001C0240BF
:103A200000B587B0002003900490059006900190A7
:103A3000029015481549086053204860002113483A
:103A4000816040F2E731C160002101618021816124
:103A5000FEF738FD08B1FCF7C7FF4FF48050039024
:103A600003A90A48FEF7F8FD08B1FCF7BDFF0020E6
:103A70000190029001A90548FEF7CAFC08B1FCF7C5
:103A8000B3FF07B000BD0000000C0040741E002012
:103A90001CB50020009001900E480F49086053208B
:103AA000486000210C48816040F2E731C16080210C
:103AB0008161FEF707FD08B1FCF796FF002000903A
:103AC000019069460448FEF7A3FC08B1FCF78CFF9F
:103AD0001CBD000000100040BC1E002010B50B48AB
:103AE0000B4908604FF4E1304860002108488160CC
:103AF000C16001610C21416100218161C161FFF759
:103B00001DFC08B1FCF770FF10BD00000010014063
:103B1000041F002010B50C480C4908600C48486090
:103B20004FF48051094881600021C1604FF48061E9
:103B300001610C21416100218161C161FFF7FEFB40
:103B400008B1FCF751FF10BD00480040481F00209D
:103B5000A086010010B50B480B4908604FF4E13016
:103B60004860002108488160C16001610C21416109
:103B700000218161C161FFF7E1FB08B1FCF734FF6F
:103B800010BD0000001401408C1F002000BFFEE7A4
:103B900000BFFEE77047704710B5FDF7B9FF10BDD5
:103BA0000348006840F47000014908607047000055
:103BB00088ED00E010B50248FEF7D5FD10BD00000D
:103BC000741E002010B50248FEF7CDFD10BD0000A8
:103BD000BC1E002010B50268294B98420ED0B0F1EF
:103BE000804F0BD0274B984208D0274B984205D0E6
:103BF000264B984202D0264B984203D122F0700205
:103C00004B681A431E4B984220D0B0F1804F1DD014
:103C10001C4B98421AD01C4B984217D01B4B984211
:103C200014D01B4B984211D01A4B98420ED01A4B0D
:103C300098420BD0194B984208D0194B984205D0A6
:103C4000184B984202D0184B984203D122F440728C
:103C5000CB681A4322F080034C6943EA04020260F5
:103C60008B68C3620B688362054B984202D0084B95
:103C7000984201D10B6903630123436110BD000029
:103C8000000001400004004000080040000C00401B
:103C90000004014000400140004401400048014050
:103CA00000180040001C00400020004030B50C46C9
:103CB000816821F47F4142EA03252543294381603D
:103CC00030BD0A46816821F0700142F007031943B4
:103CD0008160704730B50B461446026A056A25F0CC
:103CE00001050562816921F0F00141EA041122F029
:103CF0000A021A438161026230BD30B50B46144698
:103D0000056A25F0100505628169026A21F4704197
:103D100041EA043122F0A00242EA03128161026208
:103D200030BD70B50546AC6B0020E085E0842046D0
:103D3000FFF792F970BD70B506460025B46B206898
:103D40004069C0F3C01594F83D00212805D125B184
:103D50000020E084204600F0F7F820684069C0F3B6
:103D6000801594F83E00222805D125B10020E08579
:103D7000204600F0A3F8206C40F01000206420469C
:103D8000FFF76AF970BD70B50546AC6B286800682E
:103D900000F48070002842D1E08500BF00BF216898
:103DA0000C3151E8001F21F4807021680C3141E88A
:103DB0000002002AF3D100BF00BF00BF2168143108
:103DC00051E8001F21F001002168143141E8000290
:103DD000002AF3D100BF00BF00BF2168143151E8B1
:103DE000001F21F040002168143141E80002002A40
:103DF000F3D100BF202084F83E00206B01280ED1B3
:103E000000BF00BF21680C3151E8001F21F01000F5
:103E100021680C3141E80002002AF3D100BF206B79
:103E2000012804D1A18D2046FFF7F0F802E02046DA
:103E3000FFF776FC70BD70B50546AC6B206B0128B2
:103E400005D1A08D41082046FFF7E0F802E02046AA
:103E5000FFF76FFC70BD70B50546AC6B2868006855
:103E600000F48070F8B90020E08400BF00BF216832
:103E7000143151E8001F21F080002168143141E81D
:103E80000002002AF3D100BF00BF00BF21680C313F
:103E900051E8001F41F0400021680C3141E8000268
:103EA000002AF3D102E02046FFF7C6FC70BD70B5D2
:103EB0000446A56B2846FFF7C0FC70BD00BF00BFDD
:103EC00002680C3252E8002F22F4907102680C3222
:103ED00042E80013002BF3D100BF00BF00BF02680F
:103EE000143252E8002F22F001010268143242E835
:103EF0000013002BF3D100BF016B01290ED100BFCD
:103F000000BF02680C3252E8002F22F01001026854
:103F10000C3242E80013002BF3D100BF202180F8BF
:103F20003E1000210163704710B504462068C06848
:103F300020F040002168C860202084F83D00204621
:103F4000FFF77AFC002010BD00BF00BF02680C32F2
:103F500052E8002F22F0C00102680C3242E8001340
:103F6000002BF3D100BF202180F83D107047F8B539
:103F7000044694F83E00222873D1A068B0F5805F13
:103F80000CD1206950B90025A66A20684068C0F3AA
:103F900008003080A06A801CA06215E0A56A002697
:103FA000A068B0F5805F03D0A06828B9206918B96F
:103FB00020684068287004E02068406800F07F00B6
:103FC0002870A06A401CA062E08D401E80B2E0858F
:103FD000002844D12068C06820F020002168C86013
:103FE0002068C06820F480702168C860206840693B
:103FF00020F0010021684861202084F83E00206BF9
:10400000012826D10020206300BF00BF21680C31A9
:1040100051E8001F21F0100021680C3141E8000236
:10402000002AF3D100BF2068006800F010001028BB
:104030000AD100BF0020009020680068009020682E
:104040004068009000BF00BFA18D2046FEF7DEFF54
:1040500002E02046FFF764FB0020F8BD01E00020ED
:10406000FBE70220F9E700002DE9F84F044620683D
:10407000006920F44050E168084321680861216923
:10408000A068084361690843E1690843009020681B
:10409000C06849F20C618843009908432168C860F0
:1040A0002068406920F44070A16908432168486194
:1040B00076492068884203D075492068884203D138
:1040C000FDF7D4FE814602E0FDF7C0FE8146E069BF
:1040D000B0F5004F6CD102206168A0FB015003468F
:1040E0001920A9FB007001462A463846FCF7E2F881
:1040F0006421B0FBF1F04FEA001A02206168A0FBD6
:1041000001510B461920A9FB00712A463846FCF7DD
:10411000D1F8834602206168A0FB015003461920B4
:10412000A9FB00712A463846FCF7C4F86421B0FBAD
:10413000F1F000EBC00101EB0010ABEB800032218D
:1041400001EBC0006421B0FBF1F000F0F8000AEBD5
:10415000400A02206168A0FB015003461920A9FB18
:10416000007001462A463846FCF7A4F88346022030
:104170006168A0FB015003461920A9FB00712A4683
:104180003846FCF797F86421B0FBF1F000EBC00172
:1041900001EB0010ABEB8000322101EBC000642189
:1041A000B0FBF1F000F007005044216888606AE03D
:1041B00004206168A0FB015003461920A9FB007090
:1041C00001462A463846FCF775F8824604206168A5
:1041D000A0FB015003461920A9FB007001462A46A6
:1041E0003846FCF767F86421B0FBF1F000EBC00142
:1041F00001EB0010AAEB8000322101EB00106421DA
:10420000B0FBF1F000F0F00A04206168A0FB01703F
:1042100003461920A9FB00513A462846FCF74AF804
:104220006421B0FBF1F00AEB001A04206168A0FBE6
:1042300001510B461920A9FB00712A463846FCF7AC
:1042400039F8834604206168A0FB01500346192019
:10425000A9FB007001462A463846FCF72BF864217A
:10426000B0FBF1F000EBC00101EB0010ABEB800004
:10427000322101EB00106421B0FBF1F000F00F00DF
:10428000504421688860BDE8F88F000000100140AC
:104290000014014077B581B0044615460298A0622B
:1042A000A58500202064222084F83E002A48A16BC6
:1042B000C8632A48A16B08642948A16BC864002020
:1042C000A16B086502AE32682368191D2B46A06BEE
:1042D000FDF7BAFA00BF0020009020680068009047
:1042E00020684068009000BF00BF00BF002084F835
:1042F0003C0000BF206970B100BF00BF21680C31D5
:1043000051E8001F41F4807021680C3141E800023F
:10431000002AF3D100BF00BF00BF2168143151E86B
:10432000001F41F001002168143141E80002002A19
:10433000F3D100BF00BF00BF2168143151E8001F56
:1043400041F040002168143141E80002002AF3D115
:1043500000BF002004B070BD873D0008373E000854
:10436000373D000810B5034699629A85DA8500202A
:104370001864222083F83E0000BF002083F83C0030
:1043800000BF186928B11868C06840F480701C68C4
:10439000E0601868406940F001001C6860611868BE
:1043A000C06840F020001C68E060002010BD01469D
:1043B00091F83D00212828D18868B0F5805F0BD1A5
:1043C000086948B90A6A1088C0F308000B68586089
:1043D000086A801C086205E00B6A581C086218789D
:1043E0000B685860C88C401E80B2C88458B90868F1
:1043F000C06820F080000B68D8600868C06840F092
:1044000040000B68D860002070470220FCE70000E5
:1044100010B50248FEF722FE10BD0000041F002068
:1044200010B50248FEF71AFE10BD0000481F00201C
:1044300010B50248FEF712FE10BD00008C1F0020D0
:1044400000BFFEE730B595B005460C46284602F0A1
:10445000DFFB022002F0D8F91E2002F0D3FB03207C
:1044600002F0D8F9012C15D14FF43970142116A39C
:104470000122CDE9001016A109A802F06DF8212251
:104480000CA96846FCF776F8124809A90EC902F093
:104490004DFC14E04FF4397014210FA30122CDE933
:1044A00000100BA109A802F057F821220CA96846B8
:1044B000FCF760F8074809A90EC902F037FC02F0C2
:1044C000B3F815B030BD00004D434C3A4F4E0000DC
:1044D0006D636C00841700204D434C3A4F464600F4
:1044E00010B500F05DFA0748FCF777FF0221054898
:1044F000FCF77DFA0448FCF770FF02210248FCF744
:1045000076FA10BD241E00204C1E00207FB586B018
:1045100005460C46164608200490002001900290A3
:10452000039000948DF8140009AB32466946284682
:10453000FCF772FA0AB070BD10B50223024A1902E4
:104540000248FFF7E3FF10BD09000020241E0020F1
:1045500010B52DED0E8B88B000BFDC4890F87506C5
:1045600008B9012019E06421D94801F0E7FC08B935
:10457000002012E0D54890F8750601280CD10220E1
:1045800002F046FB0021022001F092FF02F04CF8FD
:104590000020CE4981F87506012001287ED1CD4842
:1045A00000780128FAD1C94802F0E0FB002875D054
:1045B000C64802F04FFB0028F9D0C74991F9160010
:1045C00004F0EDF941EC1A0B9FEDC40B53EC102BEA
:1045D00003F088FF41EC190B03F052FFC14908605A
:1045E0000846006804F0C6FC41EC1E0B9FEDBE0BB4
:1045F00053EC102B04F01EF841EC1D0B9FEDBC0B8F
:1046000053EC102B04F0F6F941EC1C0BB0EE4C0A05
:10461000F0EE6C0A02F0E8FFB0EE40BAF0EE60BADD
:104620009FEDB50B53EC102B51EC1B0B04F0E2F992
:1046300041EC1A0B9FEDB20B53EC102B04F0DAF99E
:1046400041EC190B03F01CFFAF490860A249B1F916
:10465000060004F0A4F941EC1B0B9FEDAC0B53ECEE
:10466000102B04F0C7F941EC1A0B9FEDAA0B53EC89
:10467000102B04F0BFF941EC190B03F001FFA7491F
:104680000860084690ED000A03F05EF9B0EE408A3B
:10469000A24890ED000A03F0FFF900E012E1F0EE0D
:1046A000408A022002F0B4FA022002F0ADF89648E7
:1046B00090ED000ABCEEC00A40F28A200021CDE94C
:1046C00000108DED020A40F226230A4694A104A8A8
:1046D00002F040F8BDF81C00ADF800009DF81E0087
:1046E0008DF80200794804A90EC902F097FA8648AD
:1046F00090ED000ABCEEC00A40F2F6400021CDE980
:1047000000108DED020A40F25A530A4685A104A812
:1047100002F020F8BDF81C00ADF800009DF81E0066
:104720008DF80200694804A90EC902F077FA042046
:1047300002F06AF8744890ED000ABCEEC00A40F23C
:10474000F6407149D1ED000AFCEEE00ACDED000A19
:1047500001908DED020A40F28A23002272A104A882
:1047600001F0F8FFBDF81C00ADF800009DF81E0038
:104770008DF80200554804A90EC902F04FFA002036
:1047800002F042F8052002F045F89FED680A28EE95
:10479000800ADFED660A00EE880ADFED650A30EE7A
:1047A000200ABCEEC00ADFED610A68EE200A9FED28
:1047B0005F1A41EE680A9FED5F1A70EE810AFCEE07
:1047C000E00A9FED5D1A28EE811ADFED581A01EE1E
:1047D000881ADFED571A31EE211ABCEEC11A8DEDA1
:1047E000001ACDED010A8DED020A9FED530A28EE65
:1047F000000ADFED4E0A00EEE80ADFED4E0A30EE69
:10480000200ABCEEC00A10EE103A02224BA104A806
:1048100001F0A0FFBDF81C00ADF800009DF81E00DF
:104820008DF80200294804A90EC902F0F7F944489E
:1048300090ED000AF2EE0E0AB4EEE00AF1EE10FA84
:1048400003D2032001F0E0FF02E0002001F0DCFFD2
:10485000052001F0DFFF3A4890ED000A10EE101A33
:10486000084604F087FB41EC1B0B9FED360B53EC25
:10487000102B04F0BFF841EC1A0B9FED340B53ECF6
:10488000102B03F02FFE41EC190B04F05BF80446EB
:10489000FA20E62140F224430122CDE900140290DF
:1048A0002CA104A802F054F9BDF81C00ADF80000DA
:1048B0009DF81E008DF80200044804A90EC902F0FC
:1048C000ADF900BF08B0BDEC0E8B10BD8417002001
:1048D000B4000020760000203C1600209EEFA7C602
:1048E0004B773F40BC000020000000000080664085
:1048F0004AD8124DFB2109400000000000804540CD
:104900000000000000000840C0000020AA825149B9
:104910009D80A63F514CDE0033DF913F40000020D8
:104920006D7A31006D7A32006D7A330000004842B2
:104930000000344300003E44000048C2647031006F
:10494000B81200203333333333B33040000000005B
:10495000009090406364630070B5FFF7C1FD00F004
:10496000FBFD00F057FA01F07BFD00F05FFA0A2032
:10497000FCF7B4FFFDF7C6F8002504460CE0FDF790
:10498000C1F80021021B61EB05014FF4FA7300200E
:104990009A1A884100D200E0F1E700BF70BD000024
:1049A00000B58BB001200990002006900590019081
:1049B0000290039004900790012008900E200A9026
:1049C00001A90648FCF7D4F80E2006901C200A9096
:1049D00001A90348FCF7CCF80BB000BD241E002051
:1049E0004C1E002000B593B0302107A8FBF716FE3F
:1049F000142102A8FBF712FE00BF002001902348FB
:104A0000006840F08050214908600846006800F0C6
:104A10008050019000BF00BF002001901C4800683A
:104A200040F480401A4908600846006800F480405D
:104A3000019000BF012007900004089002200D9013
:104A400041050E9106210F91A8211091022111918B
:104A50000421129107A8FDF771FA08B1FBF7C4FF12
:104A60000F20029002200390002004904FF4A050E9
:104A700005904FF480500690052102A8FDF71EF91D
:104A800008B1FBF7B1FF13B000BD00004038024091
:104A90000070004010B52DED0A8B0446BF488442DB
:104AA0007DD1BF480078AA287AD10C22BC49213197
:104AB000BA48FEF7F3FDBA4890F82C00AA2805D0B2
:104AC0000020B749087000F0A5F960E1B44890F8FB
:104AD0002100C011B249C870084690F8210000F0CA
:104AE0007F0008710846007900EB40004000888193
:104AF0000846C07820B908468089404200B28881C3
:104B0000A74890F82200C011A5494870084690F8BF
:104B1000220000F07F0088700846807800EB40009B
:104B2000400048810846407820B908464089404204
:104B300000B248819A48B0F823009949C8800846D5
:104B4000408D0881084690F82500C009087708467E
:104B500090F82500C0F38010C875084690F825002D
:104B6000C0F340100876084690F82500C0F3C00056
:104B70004876084690F82500C0F30010887608466D
:104B800090F82500C0F38000C876084690F825000C
:104B9000C0F340004877084690F8250001E0FAE0AD
:104BA000F0E000F001008877084690F826008010B9
:104BB00008B1012000E0002079498873084690F888
:104BC000260000F0020091F8261001F001010843D0
:104BD0007349C87308740846807B012804D10846CD
:104BE000007C404240B208746D4890F8290000F003
:104BF00001006B4981F82000084690F82700001159
:104C000008B1012000E0002065490875084690F8C9
:104C1000270000F00F004875487D03F0D7FE41ECF7
:104C2000190B9FED600B53EC102B03F0E3FE41ECEE
:104C3000180B03F057FE40B2594988750846007DAD
:104C4000012804D10846807D404240B2887554480E
:104C500090F8280040B25249C8740846C17E5348B3
:104C600002F05EF95148807818B100F035FB00F091
:104C7000DDF84B48C07C4E4908704E4890F9000062
:104C800091F90010884247D04A4890F9000003F09B
:104C900086FE41EC1B0B9FED480B53EC102B03F0F1
:104CA000A9FE41EC1A0B9FED460B53EC102B03F0C1
:104CB00019FC41EC190B03F0E3FB08EE100AB0EE0F
:104CC000480A022000F064FB3A4890F9000003F023
:104CD00066FE41EC1C0B9FED380B53EC102B03F0E0
:104CE00089FE41EC1B0B9FED360B53EC102B03F0B0
:104CF000F9FB41EC1A0B9FED340B53EC102B04F035
:104D00004FF841EC190B03F0BBFB08EE100AB0EEB4
:104D1000480A022000F0F4FA2148417F2C4802F0B2
:104D2000FFF82B4880782A49C978084320B11C48ED
:104D3000417F0220FFF786FB1948817F254802F05A
:104D4000EFF8244880782349C978084320B11448F3
:104D5000817F022000F064FB1148007C08B1012033
:104D600000E0002001461C4802F0DAF81A4880787A
:104D70001949C978084350B10948017C022000F064
:104D80009DFB04E0012206490448FEF7A8FC044804
:104D9000543001F0C0F8BDEC0A8B10BD041F002098
:104DA0003C160020F6285C8FC2F5F83F5A00002020
:104DB0007500002074000020B81E85EB51B8BE3F7E
:104DC000EC51B81E85EBE13F9A9999999999C93FA1
:104DD0005E000020620000206600002002460B46B4
:104DE000B2F90000191A002902DA4FF0FF307047BB
:104DF000052902DB4FF0FF30F9E702F10900405CC2
:104E0000FF2802D14FF0FF30F1E702F10900405CCA
:104E1000EDE7000010B5012202490348FEF75FFCF0
:104E200010BD00003C160020041F002000B52DED31
:104E30000A8B95B00020FE490870FE4981F8EE0209
:104E4000012001F0E5FE062001F0DEFC022001F069
:104E5000E1FC052001F0DEFC4FF4077040F2B631B2
:104E6000CDE9000140F2A2330022F3A1029011A883
:104E700001F070FCBDF85000ADF800009DF8520044
:104E80008DF80200EB4811A90EC901F0C7FE4FF4DE
:104E9000077040F2DE31CDE9000140F2CA33002252
:104EA000E6A1029011A801F055FCBDF85000ADF844
:104EB00000009DF852008DF80200DE4811A90EC9CD
:104EC00001F0ACFE40F226204FF4707140F23A221D
:104ED0000B46CDE9002102900022D9A111A801F0D2
:104EE00039FCBDF85000ADF800009DF852008DF877
:104EF0000200D04811A90EC901F090FE40F2122024
:104F00004FF470714FF4FF720B46CDE9002102900F
:104F10000022CCA111A801F01DFCBDF85000ADF895
:104F200000009DF852008DF80200C24811A90EC978
:104F300001F074FE042001F067FC022001F06AFC1D
:104F40000C2040F2E11140F2C5330122CDE90010FE
:104F5000BDA111A801F062FDBDF85000ADF8000040
:104F60009DF852008DF80200B24811A90EC901F057
:104F700055FE062001F048FC022001F04BFC4FF4E6
:104F8000167040F28A21002240F22623CDE900214A
:104F90000290AFA111A801F0DDFBBDF85000ADF803
:104FA00000009DF852008DF80200A24811A90EC918
:104FB00001F034FE4FF4167040F2F641002240F248
:104FC0005A53CDE900210290A2A111A801F0C2FB21
:104FD000BDF85000ADF800009DF852008DF80200B9
:104FE000944811A90EC901F019FE40F25A5040F23E
:104FF0002622CDE900201346002297A1029011A895
:1050000001F0A8FBBDF85000ADF800009DF852007B
:105010008DF80200874811A90EC901F0FFFD8F48E5
:1050200090F9000003F0BBFC41EC1B0B9FED8C0BD7
:1050300053EC102B03F0DEFC41EC1A0B9FED8A0BB6
:1050400053EC102B03F04EFA41EC190B03F018FA55
:1050500008EE100AB0EE480A012000F051F97F482E
:1050600090F9000003F09BFC41EC1C0B9FED800BC2
:1050700053EC102B03F0BEFC41EC1B0B9FED7A0BA5
:1050800053EC102B03F02EFA41EC1A0B9FED7A0B28
:1050900053EC102B03F084FE41EC190B03F0F0F9F4
:1050A00008EE100AB0EE480A012000F071F97448C9
:1050B000417F0120FFF7C6F97148817F012000F090
:1050C000AFF96F4890F82010012000F0F7F90220A6
:1050D00001F09AFB142001F095FD012001F09AFBEC
:1050E000FA20810067A30022CDE9001066A109A87B
:1050F00001F032FA21220CA96846FBF73BFA4D4831
:1051000009A90EC901F012FE072001F07DFB012064
:1051100001F080FB4FF4827040F2B451DC2240F287
:105120002443CDE900210290002258A111A801F0EA
:105130000FFDBDF85000ADF800009DF852008DF84D
:1051400002003C4811A90EC901F068FD002001F0E1
:105150005BFB052001F05EFBFA2040F2B551E62230
:1051600040F22443CDE900210290012248A111A878
:1051700001F0EEFCBDF85000ADF800009DF85200C3
:105180008DF802002B4811A90EC901F047FD02203D
:1051900001F03AFB012001F03DFB4FF4917040F229
:1051A0001E51BE220B46CDE900210290002239A1FA
:1051B00011A801F0CDFCBDF85000ADF800009DF83D
:1051C00052008DF802001B4811A90EC901F026FDFE
:1051D000002001F019FB052001F01CFBE6204FF434
:1051E0003E71B4220B46CDE90021029000222AA193
:1051F00011A801F0ADFCBDF85000ADF800009DF81D
:1052000052008DF802000B4811A90EC901F006FDED
:10521000072001F0F9FA052001F0FCFAE62040F23F
:105220002A31CDE9000140F2C62302221BA137E05A
:1052300076000020841700207734000077350000C6
:105240007736000077370000717575750000000033
:105250006D7A31006D7A32006D7A3300740000206F
:10526000B81E85EB51B8BE3FEC51B81E85EBE13F4F
:105270009A9999999999B93F333333333333D33F5B
:105280003C16002043443A006364770063640000E6
:105290006364630063646C006470000064703100D8
:1052A000029011A801F056FABDF85000ADF80000C8
:1052B0009DF852008DF80200054811A90EC901F0B1
:1052C000ADFC01200349087015B0BDEC0A8B00BD90
:1052D00084170020760000200120024981F875061D
:1052E000704700008417002030B5C1F30724531E17
:1052F00000F81340012505EB4303C15430BD000005
:1053000010B52DED028B98B00446B0EE408A2046D1
:1053100001F07EFC022001F077FA1E2001F072FC01
:10532000032001F077FA00201590169017909FED5A
:10533000130A28EE000ABDEEC00A10EE102A10A1D2
:1053400015A8FBF72FF84FF45270142115AB01226A
:10535000CDE900100CA109A801F0FEF821220CA94A
:105360006846FBF707F9094809A90EC901F0DEFCF8
:1053700001F05AF918B0BDEC028B10BD0080BB459E
:1053800058544C3A25640000677976008417002051
:1053900010B52DED028B98B00446B0EE408A204641
:1053A00001F036FC022001F02FFA1E2001F02AFC49
:1053B000032001F02FFA00201590169017909FED12
:1053C000130A28EE000ABDEEC00A10EE102A10A142
:1053D00015A8FAF7E7FF40F21630142115AB0122A9
:1053E000CDE900100CA109A801F0B6F821220CA902
:1053F0006846FBF7BFF8094809A90EC901F096FCF9
:1054000001F012F918B0BDEC028B10BD00007A4516
:1054100059443A256400000072706D008417002022
:1054200030B595B005460C46284601F0F1FB022048
:1054300001F0EAF91E2001F0E5FB032001F0EAF992
:10544000012C15D140F2B220142116A30122CDE97E
:10545000001016A109A801F07FF821220CA96846C6
:10546000FBF788F8124809A90EC901F05FFC14E0A7
:1054700040F2B22014210FA30122CDE900100BA1AC
:1054800009A801F069F821220CA96846FBF772F817
:10549000074809A90EC901F049FC01F0C5F815B08B
:1054A00030BD0000434D3A4F4E000000636D0000D8
:1054B00084170020434D3A4F4646000030B595B062
:1054C00005460C46284601F0A3FB022001F09CF99A
:1054D0001E2001F097FB032001F09CF9012C15D14F
:1054E0004FF42070142116A30122CDE9001016A15B
:1054F00009A801F031F821220CA96846FBF73AF817
:10550000124809A90EC901F011FC14E04FF42070F3
:1055100014210FA30122CDE900100BA109A801F06D
:105520001BF821220CA96846FBF724F8074809A9B3
:105530000EC901F0FBFB01F077F815B030BD00009B
:1055400046503A4F4E00000066700000841700205D
:1055500046503A4F4646000010B512220249034811
:10556000FDF713FD10BD0000101E0020481F002095
:1055700010B586B0044618216846FBF74FF8354849
:1055800000783449497840EA0120C0F30A00ADF8B8
:10559000000030484078C0102E49897840EA411018
:1055A000C0F30A00ADF802002A488078801129492A
:1055B000C97840EA81002749097940EA8120C0F38F
:1055C0000A00ADF8040023480079401021494979C8
:1055D00040EAC110C0F30A00ADF806001D4840794A
:1055E000001180088DF808001A484079C0F30110B6
:1055F0008DF80900174880791649C97940EA0120D9
:1056000000B2ADF80A001348007A1249497A40EA1C
:10561000012001B2ADF80C100E48807A0D49C97A0C
:1056200040EA012001B2ADF80E100A48017B8DF866
:105630001010417B8DF81110807B0649C97B40EA30
:105640000120ADF81200162269462046FAF74DFFF8
:1056500006B010BD101E002030B52DED108B87B0A8
:105660000446B0EE408A0D4684ED008A5DB994EDA3
:10567000000A84ED010A9FED950A84ED020A07B045
:10568000BDEC108B30BD207F20B1012873D00328E2
:1056900070D1C5E094ED010AD4ED020A94ED051A2B
:1056A00000EE810A84ED010A94ED050A10EE101A4D
:1056B000084603F05FFC41EC1C0B94ED040A20EE5D
:1056C000000AD4ED010A94ED001A70EEC10A20EE32
:1056D000200A10EE101A084603F04CFC41EC1E0B99
:1056E00094ED020A10EE101A084603F043FCCDE9CF
:1056F000040194ED040A10EE101A084603F03AFC77
:105700009FED730B53EC102BCDE900019DED000BC9
:1057100051EC100B03F06EF9CDE902019DED040B85
:1057200053EC102B9DED020B51EC100B03F062F9C2
:1057300041EC1F0B53EC1E2B03F032FB41EC1D0B15
:1057400053EC1C2B03F056F941EC1A0B94ED020AB2
:1057500010EE101A084603F00DFC41EC1B0B53EC45
:105760001A2B02F0BFFE41EC190B02F089FEA0607B
:1057700082E000E07FE094ED040A10EE101A084683
:1057800003F0F8FB41EC1B0B9FED530B53EC102B7C
:1057900003F030F941EC1A0B53EC1A2B9FED500B30
:1057A00051EC100B02F046FF41EC190B02F068FEC1
:1057B000A061D4ED020AB0EE600A01F0B7FED4EDAC
:1057C000020A60EE200A94ED010A94ED001A30EE10
:1057D000410A94ED061A00EE810AB0EE409A00F0FC
:1057E00089FB00EE100AB8EEC00AD4ED040AF1EE0F
:1057F000600A20EE200AF0EE408A94ED010AD4ED12
:10580000020A94ED051A00EE810A84ED010A94ED76
:10581000020AD4ED050A08EEA00A84ED020A2BE084
:1058200094ED012AD4ED002A32EE622AB0EE420A4B
:1058300094ED052AF0EE421A94ED042AB0EE421AD5
:1058400094ED022AF0EE420A00F016FAF0EE408AD9
:1058500094ED010AD4ED020A94ED051A00EE810AD6
:1058600084ED010A94ED020AD4ED050A08EEA00ABF
:1058700084ED020A00E000BF00BF94ED030AB5EE1C
:10588000C00AF1EE10FA1ED094ED020AD4ED030A1C
:10589000B4EEE00AF1EE10FA04DD94ED030A84EDB3
:1058A000020A10E094ED020AD4ED030AF1EE600A58
:1058B000B4EEE00AF1EE10FA05D294ED030AB1EE6F
:1058C000400A84ED020A00BFD9E600000000000093
:1058D00000000000000000C00000000000000040C8
:1058E000000000000000F03FC0ED030A80ED040A54
:1058F00080ED051A0177704710B52DED108B84B03F
:105900000446F0EE408AB0EE608AB0EE419AF0EEC6
:10591000619A9FEDBF0A84ED060A84ED050AF5EE53
:10592000C09AF1EE10FA17D0B0EE680A01F0FEFD51
:10593000F0EE000A69EEA00A80EE201A84ED051A46
:10594000B0EE480A01F0F2FDF0EE000A69EEA00A9E
:1059500080EE201A84ED061A19EE100A03F00AFBF5
:10596000CDE9000118EE100A03F004FB41EC1B0B1B
:1059700094ED050A10EE101A084603F0FBFA41EC0C
:105980001D0B9FEDA40B53EC102B03F031F941ECF0
:105990001C0B53EC1B2B03F02DF841EC1E0B18EEE7
:1059A000900A03F0E7FA41EC1B0B94ED060A10EEA7
:1059B000101A084603F0DEFA41EC1D0B9FED950B23
:1059C00053EC102B03F014F941EC1C0B53EC1B2B84
:1059D00003F010F841EC1A0B53EC1E2B02F082FD81
:1059E00041EC1F0B9DED000B53EC102B03F0D8F98D
:1059F000CDE902019DED020B51EC100B02F040FDD0
:105A0000206019EE100A03F0B5FA41EC1E0B18EEF7
:105A1000100A03F0AFFA41EC1B0B94ED050A10EEEF
:105A2000101A084603F0A6FA41EC1D0B9FED790B06
:105A300053EC102B03F0DCF841EC1C0B53EC1B2B4C
:105A400002F0D8FFCDE9000118EE900A03F092FAB7
:105A500041EC1B0B94ED060A10EE101A084603F0F9
:105A600089FA41EC1D0B9FED6B0B53EC102B03F0EF
:105A7000BFF841EC1C0B53EC1B2B02F0BBFF41ECBD
:105A80001A0B9DED000B53EC102B03F089F941EC40
:105A90001F0B53EC1E2B02F025FDCDE902019DEDFD
:105AA000020B51EC100B02F0EBFC606019EE100AD7
:105AB00003F060FA41EC1F0B18EE100A03F05AFADB
:105AC00041EC1B0B94ED050A10EE101A084603F08A
:105AD00051FA41EC1D0B9FED4F0B53EC102B03F0D3
