:020000040800F2
:10000000A027002051020008533B00082B370008AE
:10001000513B00087B050008514200080000000029
:10002000000000000000000000000000573B000836
:100030004306000800000000553B0008593B00083B
:100040006B0200086B0200086B0200086B020008DC
:100050006B0200086B0200086B0200086B020008CC
:100060006B0200086B0200086B020008A50500087F
:10007000B10500086B020008BD0500086B0200080E
:100080006B020008C90500086B0200086B0200083B
:100090007D050008850500086B0200086B0200085A
:1000A0006B0200086B0200086B0200086B0200087C
:1000B0006D3B00086B0200086B0200086B02000831
:1000C0006B0200086B0200086B0200086B0200085C
:1000D0006B0200082D4200086B020008394200083C
:1000E0006B0200086B0200086B0200086B0200083C
:1000F0006B0200086B0200086B0200086B0200082C
:100100006B0200086B020008793B00086B020008D4
:100110006B0200086B020008853B0008913B000859
:100120006B020008D50500086B0200086B0200088E
:100130006B0200086B0200086B0200086B020008EB
:1001400091050008990500086B0200086B02000881
:100150006B020008E10500086B0200084542000838
:100160006B0200086B0200086B0200086B020008BB
:100170006B0200086B0200086B0200080000000020
:100180006B0200086B020008313E00083D3E00088B
:100190006B0200086B0200086B0200086B0200088B
:1001A00000000000000000006B02000800F002F8F0
:1001B00000F03EF80AA090E8000C82448344AAF1C3
:1001C0000107DA4501D100F033F8AFF2090EBAE8C1
:1001D0000F0013F0010F18BFFB1A43F0010318477B
:1001E000386D0000586D0000103A24BF78C878C1FF
:1001F000FAD8520724BF30C830C144BF04680C602D
:10020000704700000023002400250026103A28BF74
:1002100078C1FBD8520728BF30C148BF0B60704778
:100220001FB506F04AFE00F01BF91FBD10B510BD4A
:1002300000F06EF91146FFF7F3FF05F039FE00F00C
:100240008CF903B4FFF7F2FF03BC00F08FF9000054
:100250000948804709480047FEE7FEE7FEE7FEE75A
:10026000FEE7FEE7FEE7FEE7FEE7FEE70448054996
:10027000054A064B704700005D3B0008AD010008D1
:10028000A0210020A0270020A0230020A0230020E0
:1002900053EA020C00F069802DE9F04B4FF00006A4
:1002A000002B1FBFB3FA83F503FA05F424FA05F611
:1002B0005E4012BF1643B2FA82F502FA05F4C5F1A8
:1002C00020051EBF22FA05FC44EA0C04203556EA3C
:1002D000044C4FEA144418BF641C4FF000084FF060
:1002E0000009904271EB030C39D3002919BFB1FA10
:1002F00081F701FA07F6B0FA80F700FA07F6C7F1BE
:1003000020071EBF20FA07FC46EA0C062037B6FB82
:10031000F4FCA7EB0507103F07F01F0BCBF12006FD
:100320002CFA06F60CFA0BFB44BFB3460026202F2E
:10033000A4BF5E464FF0000B5BEA060C08BF4FF00F
:10034000010B19EB0B0948EB0608ABFB027C06FB23
:1003500002CC0BFB03CCC01B71EB0C01C1E70B46BD
:10036000024641464846BDE8F08B13B5084318BF26
:100370004FF0FF300146AFF30080BDE81C407047EE
:10038000032A40F2308010F0030C00F0158011F8C1
:10039000013BBCF1020F624498BF11F801CB00F899
:1003A000013B38BF11F8013BA2F1040298BF00F8ED
:1003B00001CB38BF00F8013B11F0030300F06D8062
:1003C000083AC0F0088051F8043B083A51F804CBD1
:1003D000A0E80810F5E7121D5CBF51F8043B40F897
:1003E000043BAFF30080D20724BF11F8013B11F8A2
:1003F00001CB48BF11F8012B24BF00F8013B00F8E6
:1004000001CB48BF00F8012B70474FF0000200B548
:10041000134694469646203922BFA0E80C50A0E827
:100420000C50B1F12001BFF4F7AF090728BFA0E8D5
:100430000C5048BF0CC05DF804EB890028BF40F8A1
:10044000042B08BF704748BF20F8022B11F0804FE3
:1004500018BF00F8012B70477047704770470000C5
:1004600070B5064C7C44064D7D4404E0204601688E
:1004700008448047241DAC42F8D170BDD06A00000A
:10048000D06A000010B500F03BF8006810BD10B550
:10049000044600F035F8046010BD10B5203AC0F0F5
:1004A0000B80B1E81850A0E81850B1E81850A0E847
:1004B0001850203ABFF4F5AF5FEA027C24BFB1E8E0
:1004C0001850A0E8185044BF18C918C0BDE8104023
:1004D0005FEA827C24BF51F8043B40F8043B08BF2C
:1004E0007047D20728BF31F8023B48BF11F8012BF3
:1004F00028BF20F8023B48BF00F8012B70470000DE
:1005000000487047A000002000487047A00000206D
:100510007546FFF7F9FFAE4605006946534620F0E1
:100520000700854618B020B5FFF7A0FEBDE82040C3
:100530004FF000064FF000074FF000084FF0000B9F
:10054000AC46ACE8C009ACE8C009ACE8C009ACE80E
:10055000C00921F007018D46704710B50446AFF37E
:1005600000802046BDE81040FFF76BBE014918200F
:10057000ABBEFEE7260002007047FEE7034800F02E
:10058000B3B900BF014800F0AFB900BF3017002079
:10059000034800F0A9B900BF014800F0A5B900BFA9
:1005A00058170020014800F08FBC00BFE017002062
:1005B000014800F089BC00BF40180020014800F04D
:1005C00083BC00BFA0180020014800F07DBC00BF24
:1005D00080170020014800F077BC00BF0019002000
:1005E000014800F071BC00BF6019002010B501681F
:1005F0006FF00F02182308A452FA81F2B2FBF3F352
:100600005F2AE35C40F2FF3421EA040188BF043131
:10061000C0E91613084610BD000610160006101695
:10062000B0B50468806825684028084625F4802510
:100630002560636008BF1046A06008BF0A46E260FC
:10064000B0BD7047EFF3108072B6FEE790F820203F
:10065000013A012A04D8006800F11402002004E0E5
:1006600000F1240201204FF4802113681943116026
:10067000704770B590F820600468013EA568012EAF
:100680000CD815F0E05F0FD0C5F30165032D11D133
:1006900000F1240101204FF4000232E000F12401B6
:1006A00001204FF480222CE000F1240101204FF4BE
:1006B000001226E00120A8401860886818B14B6835
:1006C00040EAC30301E00868430504EB0510D1E9E3
:1006D00003452343C0F88031C0F88451097D0129C6
:1006E00005D100F5C2710B6843F480730B6051684B
:1006F000C0F88C1111680122C0F8881100F5C07192
:1007000000200B681A430A6070BD0000F0B590F835
:100710002020013A012A29D83048026842F001021B
:100720000260026822F47C520260CD694C694A6A18
:10073000036843EA02220123012D026004F01F0234
:1007400003FA02F2C36923EA0203C3616FEA0203F8
:1007500012D025BBC5681D40C56000EBC405CE683E
:100760008F8847EA06462E640D4611E0416A41F43F
:10077000802141620120F0BDC5681543C56000EBD2
:10078000C4050E688F8847EA06462E6401F10C0501
:100790008E682D8800EBC40445EA0645656444680C
:1007A0008F690E69096A44EA0205002F08BF04EA4E
:1007B00003054560002E446944EA020508BF04EAC7
:1007C00003050129456102D1C1691143C161016875
:1007D00021F0010101600020F0BD00BF0066004073
:1007E000704770B590F82040013C012C03D8046894
:1007F00039B1256906E000F1240101204FF480227F
:100800006DE0E568AD0760D004EB0114D4F8B05199
:1008100015F00405956004F5D875D4F8B06119BFDA
:10082000F6085660760D16602D6805F00205D56055
:10083000D4F8B45105F00F051561D4F8B451C5F3DF
:1008400007259561D4F8B4514FEA15455561D4F8A0
:10085000B8211A70026802EB0112D2F8B8214FEAEF
:1008600012225A70026802EB0112D2F8B8214FEA44
:1008700012429A70026802EB0112D2F8B8214FEAD4
:100880001262DA70026802EB0112D2F8BC211A710E
:10089000026802EB0112D2F8BC214FEA12225A710F
:1008A000026802EB0112D2F8BC214FEA12429A719F
:1008B000026802EB0112D2F8BC214FEA1262DA712F
:1008C000006841B100F1100107E000F124010120AE
:1008D0004FF4001203E000F10C01002020220B680D
:1008E0001A430A6070BD00002DE9F84F0446006805
:1008F0004669D0F804908768D0F80CB0D0F810A002
:10090000D0F81880F10701D1002545E0F9070FD094
:1009100001218160B80708D4780720D4380700F196
:10092000BB80204600F076FA02E0204600F073FA21
:100930000025F80518D520684FF480718160B8054E
:1009400009D478050ED438054EBF05F580452046FC
:1009500000F062FA08E0204600F05FFA04E04FF48D
:100960000065E6E705F50055F80315D520684FF456
:1009700080318160B80309D478030BD438034EBFAB
:1009800005F58035204600F049FA05E0204600F0E4
:1009900046FA01E005F50045300707D51BF01000C9
:1009A00004D02068102145F40075C160700708D597
:1009B0001BF0080005D020680821C160204600F027
:1009C0008BF9B00706D52068C068800702D02046A2
:1009D00000F084F9700607D51AF0100004D02068E2
:1009E000102145F480650161B00608D51AF00800B1
:1009F00005D0206808210161204600F0DDF9F006ED
:100A000006D520680069800702D0204600F0D5F99D
:100A1000B00308D519F0100005D0206810214160FE
:100A2000204600F0CBF9F00308D519F0080005D0F6
:100A3000206808214160204600F0F2F9300444D5D6
:100A40005FEA49703ED506F480705FEA887108EA73
:100A5000102040EA0500014648BF41F00201B205FE
:100A600058BF01465FEA48700D4648BF45F004058F
:100A7000700558BF0D46300524D518F0700021D000
:100A800010380009052818D8DFE800F003090C0F1A
:100A9000121545F0080510E04FF4805549E745F080
:100AA00010050AE045F0200507E045F0400504E0A8
:100AB00045F0800501E045F480752068816921F0EA
:100AC000700181612068042141603DB1606A284362
:100AD00060622046BDE8F84FFFF782BEBDE8F88FA0
:100AE00070B5C0B1044690F8200010B9204600F05F
:100AF0006FF82068016841F00101016000F04AFCD4
:100B0000054620684168C90707D100F043FC401B37
:100B10000B28F6D311E0012070BD016821F002011D
:100B2000016000F037FC05462068416889070BD555
:100B300000F030FC401B0B28F6D3606A052140F41E
:100B400000306062012040E0217E0268261D22F014
:100B50008003012908BF42F080030360617E0268C0
:100B600022F04003012908BF42F040030360A17E48
:100B7000026822F02003012908BF42F0200303602D
:100B8000E17E026842F01003012908BF22F0100341
:100B90000360217F026822F00803012908BF42F0A8
:100BA00008030360617F026822F00403012908BF83
:100BB00042F0040303606ECE1A432A4301393243E4
:100BC0001143C16100200121606284F8201070BDD2
:100BD000B0B586B0044601A81421FFF716FC2068C2
:100BE0003849884226D03849884269D13848016856
:100BF0004A1C0260354851B900210091016941F059
:100C000000710161016901F00071009100990021FA
:100C1000152414250091016841F008010160006865
:100C200000F008000090032001900098294800F58A
:100C300000602AE000212548254B0091026942F01E
:100C40008062026102691C68651C02F080621D609E
:100C50000092009A4CB90091026942F00072026160
:100C6000026902F000720092009A0091412440252E
:100C7000016841F002010160006800F0020000908C
:100C80004FF440500190009812480921059103212A
:100C90000491002103910221029101A900F09AFA26
:100CA00028460021002200F0E3FB284600F0D2FB9A
:100CB00020460021002200F0DBFB204600F0CAFBAA
:100CC00006B0B0BD0068004000640040303802400B
:100CD0007004002000040240704700002DE9F0433A
:100CE00085B005462D482C4E002100F1740406F114
:100CF000500228462346FFF774FD294885421BD041
:100D00002848854245D106F15C0706F15003B66ECE
:100D1000A1CF0ECB8DE8A100CDE90364224C04F1F4
:100D2000300004F05DF894ED0D0A2048012105B073
:100D3000BDE8F04304F010BA06F15C0C06F1500374
:100D4000DFF86C90DFF86C809CE8A1100ECB8DE88A
:100D5000A11009F120000494C04706F15003D6E920
:100D60001707D6E9195C0ECBCDE9000709F1100091
:100D7000CDE9025C0494C04706F15C0706F150031C
:100D8000B66EA1CF0ECB8DE8A1004846CDE9036435
:100D9000C04705B0BDE8F083700200207C01002050
:100DA000301700205817002000040020DC0200202B
:100DB000F8010020A55A0008704770477047B0B589
:100DC000044690F8200001281BD1022084F820005E
:100DD0002068016821F00101016000F0DBFA05469E
:100DE00020684068C00712D000F0D4FA401B0B28DE
:100DF000F6D3606A40F400306062052084F8200079
:100E000003E0606A40F4002060620120B0BD002071
:100E10006062B0BD70477047704770477047704759
:100E2000704770B5866D044600F0B4FA054694F834
:100E3000350002281ED12068216C026822F01602BB
:100E40000260426922F08002426109B9A16C19B1C5
:100E5000016821F008010160016821F001010160D1
:100E60000068C0070AD000F095FA401B05280FD88B
:100E70002068F5E78020606501200EE0E06D3F21ED
:100E800001FA00F0B060012084F83500002004E091
:100E900020206065032084F83500002184F8341098
:100EA00070BD90F83510022909D1052180F8351060
:100EB0000068016821F00101016000207047802175
:100EC0004165012070470000F8B504460020594AEA
:100ED00008210090D4E916601568376881403942CE
:100EE0000CD0226813685B0708D5136823F004034D
:100EF0001360B160616D41F00101616501218140C4
:100F0000394208D022685269120604D5B160616D79
:100F100041F00201616504218140394208D0226814
:100F20001268920704D5B160616D41F004016165FA
:100F300010218140394217D020680268120713D56A
:100F4000B16002680168520306D4C90506D401687D
:100F500021F00801016001E0080301D4216C00E0E8
:100F6000A16C09B120468847E16D202000FA01F20A
:100F70003A423BD020680368DB0637D5B26094F86C
:100F800035300268052B19D122F016020260426941
:100F900022F080024261226C0AB9A26C1AB1026886
:100FA00022F0080202603F208840B060002084F8F0
:100FB0003400012084F83500216D37E001685203C8
:100FC0000CD4C9050ED4016821F010010160002085
:100FD00084F83400012084F8350003E0080301D4CC
:100FE000616C00E0E16B09B120468847606D00B399
:100FF000606DC00719D005214FF4165084F83510E4
:10100000B5FBF0F021680A6822F001020A60009A3C
:1010100001328242009202D80A68D207F7D100203A
:1010200084F83400012084F83500E16C09B12046D1
:101030008847F8BD340000202DE9F041044600F057
:10104000A9F9ACB10546022084F8350000202168DA
:1010500084F83400086820F0010008600868C007C0
:1010600009D000F097F9401B052838D82168F5E72A
:101070000120BDE8F0810868271D344AE8CF00EA66
:10108000020ED4E9050CD4E9072843EA0E032B43EA
:1010900033433B431843636A40EA0C001043042B7C
:1010A00040EA08021FD1D4E90A53206B1A4340EAF0
:1010B0000200086051F8140F20F0030040EA050018
:1010C00040F00402B3B1BCF5005F24D0BCF1000FC6
:1010D00031D1022D32D0012D27D0002D2DE0032655
:1010E0002027032012E00A6051F8140F20F00700B7
:1010F00040EA030220460A60FFF778FAE16D3F22DA
:101100000027012602FA01F181600020676584F85A
:101110003560BDE8F081032DECD801264027012081
:10112000DFE805F0020C0203F0E7A3F1C070B0FAAB
:1011300080F0400904E0032D04D3DBD1C3F3006049
:101140000028D7D0012640270120DFE73F8010F09C
:10115000B0B5044690F83400012828D00120A56DD0
:1011600084F8340094F8350001281DD1022084F859
:101170003500002060652046FFF752FAE26D3F23FC
:101180002068216C03FA02F2AA60026842F016029B
:10119000026019B1016841F008010160016841F085
:1011A000010101600020B0BD002084F8340002205D
:1011B000B0BD0000B0B5044600F0ECF80546974815
:1011C000611C007818BF044400F0E4F8401BA04202
:1011D000FAD3B0BD2DE9FC4F654A0A244FF0010B4C
:1011E0004FF000094FF0000A9042624A08BF0924FC
:1011F00002444FEAB223092B4FF0000338BF4FEAF5
:10120000B2240094202B08BFBDE8FC8F0F680BFAB6
:101210000AF6374200F0A5804F6807F00308A8F1EE
:101220000104012C18D8032285684FEA4A0E02FAFD
:1012300003F425EA040CCD689D4045EA0C05856061
:10124000C7F3001505FA0AFC4568B54345EA0C05E5
:101250006FEA040C45600CE00324B8F1030F9E46CE
:1012600004FA03F46FEA040C03D19E464FF003081E
:1012700021E0C4688D68B8F1020F04EA0C0405FA95
:101280000EF544EA0504C46015D109F01C040F22D0
:1012900002FA04F86FF0030202EA5A0707443D6AB3
:1012A00025EA08080D6905FA04F444EA08043C62DA
:1012B0004F6807F00308056808FA0EF417F4403F7A
:1012C00005EA0C0544EA050404604AD000222AF02D
:1012D000030701922A4A146844F480441460146895
:1012E0000F2204F48044019409F00C0402FA04FC77
:1012F000214A019D96461744224ABD589046009ABD
:1013000025EA0C0502FA04F42C4347F80840DEF8FD
:1013100008404F68FA0244EA0605184A58BF24EA12
:101320000605CEF80850BD029446126842EA06044B
:1013300058BF22EA0604CCF80040BD03DEF80420C2
:1013400042EA060458BF22EA0604CEF80440FD0330
:10135000DEF8002042EA060458BF22EA0604CEF86E
:10136000004009F1040902330AF1010A4AE700BF0B
:10137000002402400000FEBF003C01400C3C014044
:101380004438024008FCFFFF002A08BF09048161BD
:101390007047000005480068704700BF1F480349B8
:1013A00000780A6810440860704700BFE81F0020FA
:1013B00080B50B48016841F400710160016841F497
:1013C00080610160016841F480710160032000F0D8
:1013D0006BF80F2000F006F800F022F8002080BD26
:1013E000003C024070B50D4E04464FF47A713078DF
:1013F000B1FBF0F0A2490968B1FBF0F000F010FB7E
:1014000001250F2C08D838B94FF0FF3021460022B3
:10141000002500F02DF87460284670BD2C000020D7
:1014200082B00020404901904A6842F480424A60FC
:101430004A6802F480420192019A0090086840F0E4
:1014400080500860086800F080500090009802B05A
:10145000704700BF002808D400F01F010122400996
:1014600002FA01F1014A42F82010704700E100E061
:1014700070B5134B4FF0FF351B68C3F30223DC1E1E
:1014800083F0070338BF0024042B28BF042305FA88
:1014900004F605FA03F3B2439943A1401143BDE8B2
:1014A000704004F0F3BC00BF05494FF6FF030A6823
:1014B0001A4060F30A22034810430860704700BFD7
:1014C0000CED00E00000FA057CB50020174E184D29
:1014D00001901548016841F080510160006800F0FA
:1014E00080500190019801203060FFF753FF0446BF
:1014F0002868C00306D4FFF74DFF001BB0F57A7FC4
:10150000F6D90DE001207060FFF744FF044628681B
:10151000800307D4FFF73EFF001BB0F57A7FF6D9B2
:1015200003207CBD00207CBD4038024040000E42BC
:10153000047000402DE9F041002860D0434B044680
:101540008846D3F8000400F00F00884207D283F8E1
:101550000084D3F8000400F00F0040454FD120680C
:10156000810711D5410703D5996841F4E05199608D
:10157000010703D5996841F460419960A1689A68B0
:1015800022F0F00211439960C00731D1D3F8000472
:1015900000F00F00404507D983F80084D3F8000419
:1015A00000F00F0040452AD12068410705D5E168C9
:1015B0009A6822F4E05211439960000706D5206929
:1015C000996821F4604141EAC00098601C4600F02F
:1015D0005DF8A1681E4AC1F30311515CC840284957
:1015E00008601C480068FFF7FDFE0020BDE8F081A0
:1015F0006068811E022905D21968890107D401207B
:10160000BDE8F08101281DD119688903F7D59968D3
:101610001D4621F0030108439860FFF7BBFE064614
:1016200041F288376068A9682B4601F00C01B1EBE4
:10163000800FABD0FFF7AEFE801BB842F2D903207B
:10164000BDE8F08119688907D9D5E0E70038024084
:10165000006F00083000002009480A490A4A006863
:101660000968C1F38221515CC840704704480549AC
:10167000054A00680968C1F34231515CC8407047AF
:101680003400002008380240106F000810B5134CD9
:10169000606800F00C00082804D0042814BF10482B
:1016A000104810BD226820680023400202F03F026B
:1016B0000C485CBF42F20040C0F2F4002168C1F364
:1016C0008811A0FB0101FEF7E3FD21680222C1F3AE
:1016D000014102EB4101B0FBF1F010BD04380240C2
:1016E0000024F400001BB7002DE9FC41002864D061
:1016F00004460078C74EC0070BD0B06800F00C005D
:10170000042840F097803068800302D56068002884
:1017100053D0207880071AD5B06810F00C0F09D08C
:10172000B06800F00C00082840F0AA807068400201
:1017300000F1A6803068800702D5E06801283CD11E
:101740002069316821F0F80141EAC000306020785A
:10175000000735D42078400746D4A76957B3B0684E
:1017600000F00C00082840F0CB80012F25D0E16963
:10177000706800F480028A421FD1216A00F03F02A3
:101780008A421AD147F6C071626A0140B1EB821FEA
:1017900013D1A16A4FF6FF72C903914300F440329E
:1017A000A1F580318A4208D1E16A00F07060B0EBA7
:1017B000016F02D10020BDE8FC810120BDE8FC8161
:1017C00061699548002900F089800121C0F8801ED8
:1017D000FFF7E0FD0546706F8007BBD4FFF7DAFD29
:1017E000401B0228F7D988E0306C4FF00008C00099
:1017F0000CD4CDF804804FF00108306C40F08050DC
:101800003064306C00F0805001900198834F38684C
:10181000C00548D4386840F480703860FFF7BAFDDE
:1018200005463868C0053ED4FFF7B4FD401B0228CA
:10183000F7D962E0B06800F00C00082803D17068A6
:1018400040023FF560AF6768B7F5803F07D030686A
:10185000B7F5A02F40F0A58040F4802030603068BC
:1018600040F480303060FFF795FD05463068800316
:101870003FF54FAFFFF78EFD401B6428F6D93CE0E3
:10188000E06800285BD0644801210160FFF782FD19
:101890000546306880073FF553AFFFF77BFD401BDF
:1018A0000228F6D929E0A768012F05D0306F052F4F
:1018B00056D140F004003067306F40F001003067CF
:1018C000FFF768FD054641F28837306F80075FD427
:1018D000FFF760FD401BB842F7D90EE00021C0F8C9
:1018E000801EFFF757FD0546706F80077FF532AF0A
:1018F000FFF750FD401B0228F6D90320BDE8FC810C
:101900004549002088460866FFF744FD0546022F3A
:101910000AD14746306880015CD5FFF73BFD411B8B
:1019200003200229F6D946E7306880017FF542AFEF
:10193000FFF730FD411B03200229F5D93BE736486C
:1019400000210160FFF726FD0546306880077FF51E
:10195000FEAEFFF71FFD411B03200229F5D92AE740
:1019600020F001003067306F20F004003067FFF78F
:1019700011FD0546002FA6D141F28837306F800750
:1019800006D5FFF707FD411B0320B942F6D912E740
:10199000B8F1000F3FF4E1AE306C20F080503064BD
:1019A000DBE620F480303060306820F48020306046
:1019B000FFF7F0FC0546002F7FF458AF06E0FFF775
:1019C000E9FC411B032064293FF6F5AE3068800333
:1019D000F5D49EE61C341FCC0843D90340EA82109C
:1019E0004FF6FF72914340EA0460A1F5803108434D
:1019F000706001203866FFF7CDFC04463068800136
:101A00003FF5D8AEFFF7C6FC011B03200229F5D92C
:101A1000D1E600BF0038024000004742007000409D
:101A2000411E0020B0EB116F1CBF01207047044A1B
:101A3000F023516003490B700721906011607047DB
:101A400010E000E023ED00E07047704710B590F81B
:101A50003C300222012B30D080F83D20012280F85A
:101A60003C2002680B685468B2F1804F24F0700487
:101A700044EA03049368546014D07F4CA24211D00E
:101A80007E4CA2420ED07E4CA2420BD07D4CA24294
:101A900008D07D4CA24205D07C4CA24202D07C4CA6
:101AA000A24204D1496823F08003194391600022C7
:101AB000012180F83C2080F83D10104610BD00BF89
:101AC00040B310B5044690F83D0028B9002084F8D2
:101AD0003C00204600F020F80220211D84F83D0043
:101AE000206802F05BF8012084F8460084F83E008C
:101AF00084F83F0084F8400084F8410084F84200F4
:101B000084F8430084F8440084F8450084F83D00DC
:101B1000002010BD0120704710B586B0044601A812
:101B20001421FEF772FC206800F140404FEAB0201B
:101B300005286AD8DFE800F00369692F42550020C4
:101B4000334900900A6842F001020A600A6802F014
:101B500001020092009A009051F8102C42F001020C
:101B600041F8102C51F8101C01F0010100910121E5
:101B70000591CDE90300022001A902900320019004
:101B80000098F148FFF726FB1C2000210022FFF7F8
:101B90006FFC1C2037E00020002200901C480168E8
:101BA00041F0080101600121006800F00800009088
:101BB00000983220FFF75CFC322024E00020002255
:101BC00000901348016841F0100101600121006894
:101BD00000F01000009000983620FFF749FC3620F6
:101BE00011E00020002200900948016841F0200126
:101BF00001600121006800F020000090009837206B
:101C0000FFF736FC3720FFF725FC06B010BD00BFFC
:101C10004038024090F83D1001291CBF0120704758
:101C2000022180F83D100068C168B0F1804F41F09A
:101C30000101C16014D01049884211D00F49884277
:101C40000ED00F4988420BD00E49884208D00E4969
:101C5000884205D00D49884202D00D49884204D1FE
:101C6000816801F00701062903D0016841F00101F4
:101C700001600020704700BF0004004000080040E1
:101C8000000C0040001800400000014000400140EE
:101C90000004014010B590F83C2004460220012ABF
:101CA00070D084F83D0001204FF6777384F83C0033
:101CB000206882689A4382600A6812B3102A20D092
:101CC000202A1ED0302A1CD0402A21D0502A2BD0C6
:101CD000602A35D0B2F5005F3ED0B2F5805F4AD0C1
:101CE000702A50D1D1E90123C9681A4342EA01217F
:101CF000826822F47F4211438160816841F077015C
:101D000038E0816821F07001114341F0070131E0B2
:101D10004B68CA68194602F069F82068816841F08A
:101D2000470121F0300125E04B68CA68194602F0EE
:101D30005DF82068816841F0570121F0200119E029
:101D40004B68CA68194602F062F82068816841F061
:101D5000670121F010010DE0D1E90123C9681A43A0
:101D600042EA0121826822F47F4211438160816846
:101D700041F4804181600020002184F83C10012161
:101D800084F83D1010BD0120F6E7704710B50446F9
:101D900000680169890744BFC1685FEA817139D46D
:101DA0000169490744BFC1685FEA41713ED40169D6
:101DB000090744BFC1685FEA017144D40169C906DB
:101DC00044BFC1685FEAC16149D40169C9071CBF4A
:101DD000C1685FEAC1714FD10169090644BFC1689A
:101DE0005FEA016150D40169490644BFC1685FEAF6
:101DF000416151D40169890644BFC1685FEA8161CC
:101E000000D410BD6FF0200101612046BDE81040F4
:101E1000FFF71BBE6FF0020101610121217780698C
:101E2000800741D02046FFF7B0FF43E06FF0040188
:101E3000016102212177806910F4407F3ED0204665
:101E4000FFF7A3FF40E06FF0080101610421217753
:101E5000C06980073CD02046FFF797FF3EE06FF057
:101E60001001016108212177C06910F4407F39D049
:101E70002046FFF78AFF3BE06FF001010161204639
:101E800000F056F92068A7E76FF080010161204655
:101E9000FFF7DAFD2068A6E76FF0400101612046F8
:101EA00001F05AF82068A5E7204600F04FF82046D8
:101EB00000F0C7F800202077206871E7204600F086
:101EC00045F8204600F0BDF80020207720686EE736
:101ED000204600F03BF8204600F0B3F800202077C1
:101EE00020686BE7204600F031F8204600F0A9F8A2
:101EF00000202077206868E710B586B0044601A866
:101F00001421FEF782FA2068B0F1804F17D100202B
:101F10000C4900900A6842F001020A60096801F069
:101F20000101009101210591CDE90300022001A9E1
:101F300002900420019000980348FFF74BF906B087
:101F400010BD00BF30380240000002407047000062
:101F5000B0B5044690F83C00012804BF0220B0BD93
:101F60000D464FEAB2010120032984F83C0037D81E
:101F7000DFE801F0020A12222068294601F086FEFD
:101F8000206850F8181F0EE02068294601F0A8FECE
:101F9000206850F8181F16E02068294601F0D0FE8E
:101FA000206850F81C1F41F008010160016821F011
:101FB0000401016029690FE02068294601F0F2FE62
:101FC000206850F81C1F41F400610160016821F491
:101FD00080610160296909020268114301600020E3
:101FE000002184F83C10B0BD40B310B5044690F811
:101FF0003D0028B9002084F83C00204600F020F87D
:102000000220211D84F83D00206801F0C7FD012059
:1020100084F8460084F83E0084F83F0084F84000CD
:1020200084F8410084F8420084F8430084F84400B6
:1020300084F8450084F83D00002010BD0120704761
:102040007047704770B5044641B1082909D004298A
:1020500014BF04F1410004F13F0004E004F13E002C
:1020600001E004F14000007801281CBF012070BD90
:10207000022041B1082909D0042914BF84F8410085
:1020800084F83F0004E084F83E0001E084F840005A
:102090002068012201F0EAFD2068B0F1804F1FD0D6
:1020A0001B4988421CD01B4A904219D01A4B9842B7
:1020B00016D01A4CA04213D0194DA84205D0194E83
:1020C000B0420DD0184EB0420FD1466CB0F1804FE7
:1020D00046F40046466403D0884218BF90420AD1B5
:1020E000816801F00701062903D0016841F0010170
:1020F0000160002070BD9842F2D0A042F0D0A8420A
:10210000EED008498842EBD007498842E8D0ECE796
:102110000004004000080040000C0040001800408F
:1021200000000140004001400004014000000000A8
:102130002DE9F84F2DED0A7BDFF87C1D88422FD06A
:10214000DFF8781D884200F0BB82DFF8741D8842FA
:1021500040F08F8602F082FCDFF8684D94F82E0084
:1021600020B102F0B1FC002084F82E00DFF8580DF9
:1021700000680168090740F17C8600210D22019169
:102180000168019104F10E01406801900198DFF8A7
:10219000380DBDEC0A7B01B0BDE8F04F00F0DDBEAC
:1021A000DFF834BDA24CDFF8345D02219BF8580003
:1021B000B0FA80F042092046A847DFF8080D042154
:1021C000814690F86C0080F001022046A847DBF8B9
:1021D00004000821C07E80F001022046A847DBF8F9
:1021E0001400C17E90F883030843102180F001029F
:1021F0002046A847DBF82400C17E90F883030843FB
:10220000202180F001022046A847DFF8D40C9FED82
:1022100089AA9FED891ADFF8BC4C0BF12005DFF885
:10222000C46C40F2052190ED0B0A3AEE400A80EEB4
:10223000010ABDEEC00A10EE100A20732846B0470E
:10224000B0F90200DFF8A0AC40F2052100EE100A60
:102250002846B8EEC0BA9AED050AB8EEC09AB04763
:10226000B0F902009FED758ADFF8807C00EE100A5D
:10227000B0EE481AF8EEC00AB0EE490AB8473BEE95
:10228000400ADFF8488C284640F20521B0EEC00A2B
:10229000BDEEC00A88ED030AB047B0F9020040F273
:1022A000052100EE100A2846B8EEC0BA9AED060ADB
:1022B000B8EEC09AB047B0F90200B0EE481A00EE8E
:1022C000100AF8EEC00AB0EE490AB8473BEE400AE1
:1022D000284640F20521B0EEC00ABDEEC00A88EDE6
:1022E000040AB047B0F9020040F2052100EE100ADE
:1022F0002846B8EEC0BA9AED070AB8EEC09AB047C1
:10230000B0F90200B0EE481A00EE100AF8EEC00A6A
:10231000B0EE490AB8473BEE400A284640F2052194
:10232000B0EEC00ABDEEC00A88ED050AB047B0F9AC
:10233000020040F2052100EE100A2846B8EEC0BAAD
:102340009AED080AB8EEC09AB047B0F90200B0EEB4
:10235000481A00EE100AF8EEC00AB0EE490AB84773
:102360003BEE400A284640F20521B0EEC00ABDEE21
:10237000C00A88ED060AB047B0F9020040F2052114
:1023800000EE100A2846B8EEC0BA9AED090AB8EE77
:10239000C09AB047B0F90200B0EE481A00EE100A39
:1023A000F8EEC00AB0EE490AB8473BEE400A2846AC
:1023B00040F20521B0EEC00ABDEEC00A88ED070A62
:1023C000B047B0F9020040F2052100EE100A28469D
:1023D000B8EEC0BA9AED0A0AB8EEC09AB047B0F9A2
:1023E0000200B0EE481A00EE100AF8EEC00AB0EE95
:1023F000490AB8473BEE400A4F46B0EEC00ABDEE70
:10240000C00AD8F80C00D8F8141088ED080A8842E1
:10241000BCBFDAF81420CAF810208142BCBFDAF839
:102420001C00CAF81000A079002861D138E000BF74
:102430000018024000809D445E0BB64100F8FF4545
:10244000FCA9F1D24D6240BF39B4C876BE9F8ABFA5
:102450009A9999999999B9BF333333333333C3BFB9
:10246000FCA9F1D24D62503F4AD8124DFB211940D0
:102470009A9999999999E93F0000C84200BF00BF15
:102480009A9999999999C93F000000000000E03F8E
:102490009A9999999999B93F333333333333C33F79
:1024A0009AED040A284640F20521B8EEC08A03F0EE
:1024B00060FBB0F902001FED1F1A00EE100AF8EEE3
:1024C000C00AB0EE480A02F03BFC284640F2052163
:1024D000B0EE408A03F04DFBB0F9020000EE100AA6
:1024E000B8EEC00A38EE400ABDEEC00A84ED0F0A0D
:1024F0009AED070A284640F20521B8EEC09A03F08B
:1025000038FBB0F902001FED338A00EE100AB0EE7E
:10251000481AF8EEC00AB0EE490A02F011FC28464B
:1025200040F20521B0EE409A03F023FBB0F902001F
:1025300000EE100AB8EEC00A39EE400ABDEEC00A3D
:10254000A07984ED100A012835D1D8E90701884225
:10255000BCBFDAF82420CAF810208142BABFDAF8EA
:102560002860CAF81060DAF81060284640F20521A9
:1025700003F0FFFAB0F902001FED501A00EE100A46
:10258000F8EEC00A00EE106AB8EEC00A02F0D8FBFE
:10259000284640F20521B0EE409A03F0EAFAB0F97D
:1025A000020000EE100AB8EEC00A39EE400ABDEE95
:1025B000C00A84ED0F0A9BF84A009BF84B1041F0CB
:1025C0000202012808BF032A6BD0012808BF022994
:1025D00067D0032840F06A81033A8B1EB2FA82F278
:1025E000B3FA83F352095B091A4300F05F81BBF829
:1025F0004E0050B300B200EE100AB8EEC00A10EE62
:10260000100A04F0BFFB1FED720B53EC102B04F00B
:10261000D1F90546206B0E4604F0B4FB02460B468A
:102620002846314603F0C0FE03F08CFE2063D8F844
:10263000080004F0A7FB02460B462846314603F08B
:10264000B3FE03F07FFEC8F80800DFF8AC08BBF863
:102650005010B0F97003002900F03981542800F3BC
:10266000368108B200EE100AB8EEC00A10EE100A69
:1026700004F088FB1FED8C0B53EC102B04F09AF93F
:102680000546DAF808000E4604F07CFB2A4633467D
:1026900003F08AFE03F056FECAF8080000EE100AA6
:1026A00019E1BBF842006FF00E05A0F5806000B2A2
:1026B0000F2840F38A801FED9A9B1FED99AB8AE0AB
:1026C000DFF80898D9F82400D9F82C6004F05AFBF8
:1026D0001FED9D0B53EC102B03F066FE03F032FE52
:1026E000C9F8240004F04EFB1FEDA10B58EC105B61
:1026F0002A46434604F05EF9074630460C4604F08D
:1027000041FB02460B463846214604F053F91FEDC3
:10271000A80B53EC102B04F04DF903F013FEDFF877
:10272000B0A700EE100AD0471FEDAD1AD9F824006B
:10273000D9F82C4020EE018A04F024FB2A464346B7
:1027400004F038F9064620460F4604F01BFB02460B
:102750000B463046394604F02DF91FEDB70B53EC0C
:10276000102B04F027F903F0EDFD00EE100AD0471E
:10277000D9F82400D9F82C4028EE008A04F002FB96
:102780002A46434604F016F9054620460E4604F054
:10279000F9FA02460B462846314604F00BF91FEDC4
:1027A000C60B53EC102B04F005F903F0CBFD00EE43
:1027B000100AD047DFF81C4728EE000A89ED0C0A02
:1027C000A07878B302F0E0F82EE0A8421DDA1FED01
:1027D000D09B1FEDCFAB206B04F0D4FA02460B4622
:1027E00051EC1A0B03F0E0FD03F0ACFD2063D8F8C8
:1027F000080004F0C7FA02460B4651EC190B03F02F
:10280000D3FD03F09FFDC8F80800D8F84000022867
:1028100016D0012817D198ED110AB8EEC00A84ED40
:102820000C0A10E001F074FFA078012121EA0000F9
:10283000A070BDEC0A7B01B0BDE8F04F02F098B982
:10284000D8F830002063D8F83C00022804BFD8F83C
:102850002800CAF80800BBF84400A0F5806000B268
:10286000102804DB9AED020AB6EE001A05E09AED94
:10287000020AA84205DABEEE001A30EE010A8AED1D
:10288000020A9FEDDF1AB4EE410AF1EE10FA01DD03
:10289000DB4808E09FEDDB1AB4EE410AF1EE10FAD6
:1028A00080F27181D748CAF808006CE181F001011B
:1028B00080F00200002208436264A4F809200FF2AD
:1028C000306008BF04300068CAF80C005BE155288E
:1028D0000FDC9AED020A9FEDCAAAB4EE4A0AF1EEA5
:1028E00010FA06DC9FEDC7AAB4EE4A0AF1EE10FA20
:1028F00001DA8AED02AABBF9560000210025002862
:1029000004F1580048BF012103F080F8BBF85610CD
:1029100004F15C00C1F3802103F078F894F85B00C7
:1029200010B16564A4F809509BF84A009BF84B105D
:1029300081F0010180F003000843B0FA80F0410902
:1029400004F1780003F062F8607A94F87B10084490
:102950009BF84B1000F0010060729BF84A0081F078
:10296000020180F003000843B0FA80F041094046BC
:1029700003F04CF898F8030008B10120A072BBF8EE
:10298000561008F10400C1F3403103F03FF8BBF8E2
:10299000561004F15400C1F3803103F037F898F871
:1029A000060020B19848CAF80C000120E07294F8A3
:1029B000560020B19548CAF80C000020E072BBF820
:1029C0005610880604D59148CAF80C000020E07221
:1029D00004F15000C1F3801103F018F8207994F845
:1029E00052100844BBF8561000F00100207104F1A9
:1029F0006000C1F3001103F009F8BBF85610C1F3F1
:102A00000010607108B10020A07194F8520008B164
:102A10000020607194F8620008B100202071C9B2F2
:102A200004F16800C90902F0F1FF94F86A0038B1B6
:102A300094ED0C0A9FED751A30EE010A84ED0C0A34
:102A4000BBF85610DFF8B45404F16C00C1F3402118
:102A5000A847E07994F86F100844010600EBD171A3
:102A600001F0FE01401ABBF85610E07104F1640059
:102A7000C1F30021A847A07994F866100844010624
:102A800000EBD17101F0FE01401ABBF85610A071A5
:102A900004F17000C1F3C021A847BBF8561004F13F
:102AA0007400C1F30031A847207A94F8721094F8AA
:102AB0007620401A1044207240B2052801DD06201D
:102AC00002E0002801DC0020207294F85F0070B959
:102AD000607A01280BD094ED110A9FED4D1A002069
:102AE000B4EE410AF1EE10FA08BF012002E04848B6
:102AF000606401209BF85410012909D140B194ED84
:102B0000120A9FEDE61A30EE010A84ED120A3AE04D
:102B1000A1B99BF85510012910D197F82D1080F01C
:102B20000100013918BF0121084307D1002094EDAD
:102B3000120A9FEDDB1A87F82D00E4E7A07A01283E
:102B400021D1BBF84600A0F5806000B2012816DB59
:102B500003F0A1FE9FEDD40B53EC102B03F02AFFE2
:102B60000546A06C0E4604F00DF902460B462846B9
:102B7000314603F019FC03F0E5FBA06403E0B0F17B
:102B8000FF3F40F37B8194ED0B1A94ED0C0ADC4E71
:102B900001209FEDDF3ADFF87093A04631EE001A76
:102BA000B087D84884ED0D1A84ED0E1A97ED111AEE
:102BB0007061D64830EE412AB0EEC22AC9F85800FA
:102BC000B4EE432AF1EE10FAC4BF84ED0C1AB0EE55
:102BD000410A20793C4601281CD198F9080040F2AE
:102BE00092414FF4AF7210FB021000EE100AC94878
:102BF000B8EEC00A183002F0C0FE98ED0C0A0CE0E6
:102C000000E0D34400404E440000B443000034438D
:102C10000000E145BF4800214162BE4D05F134008E
:102C200002F082FED8ED0C0A94ED110ABA4F30463C
:102C3000B847D6ED1B0A94ED180A4846B84701205C
:102C4000B64E99ED1B2A95ED101AB649AA4C95ED92
:102C5000090AB54DC14688F803004FF48070B0876B
:102C6000AF4832EE011A31EE000AC6E90610B4F997
:102C70006C1388ED130A05F1200000EE101A0121F3
:102C8000B8EEC00A02F068FAB4F96A03DAED020A93
:102C900000EE100A3046B8EEC00AB847D6ED1B0A5F
:102CA00095ED090AA148B847DFF88CA2A04EA148CB
:102CB000BAF90410706505F1400000EE101A012108
:102CC000B8EEC00A02F048FA804FBAF90200BFEE2F
:102CD000002A97ED0E0A01EE100AB8EEC11AB4EE02
:102CE000420AF1EE10FA16D0B4EE410AF1EE10FAF3
:102CF00011D09FED923A31EE402AB4EE432AF1EE24
:102D000010FA0BDA38EE400A97ED0D2A30EE010A80
:102D100030EE020A16E097ED0D0A15E09FED883AB5
:102D2000B4EE432AF1EE10FA08DD9FED862A31EE6B
:102D3000022A32EE400A97ED0D2A01E097ED0D0AC6
:102D400032EE000A87ED0D0A87ED0E1A99ED121A80
:102D50003046F1EE410A02F093FFDFF8EC81D6ED48
:102D60001B0A95ED110A404602F08AFFBAF90600E7
:102D7000002800D5404242F6E161884202DB012092
:102D8000B86402E0B86C012802D10020C8F86C00D9
:102D90000BF1100599ED118A40F20121284602F04D
:102DA000E8FEB0F90400694E0221012200EE100A8B
:102DB0003046F8EEC00AB0EE480A02F07FFD99ED09
:102DC000118A284640F2022102F0D3FEB0F9040035
:102DD0005F4D0221012200EE100A2846F8EEC00ADB
:102DE000B1EE480A02F06AFD9BF84A0099F800101B
:102DF000022808BF012149B1564800241821C0E922
:102E000002441830FDF701FB7C6514E099ED130ACC
:102E1000BDEEC00A10EE100A00BA000CA7F854006C
:102E2000424890ED1B0ABDEEC00A10EE100A00BA2F
:102E3000000CA7F8560098ED1B0ABDEEC00A10EE74
:102E4000100A96ED0C0A00BA000CA7F86000BDEE5F
:102E5000C00A10EE100A95ED0C0A00BA000CA7F893
:102E60005C00BDEEC00A10EE100A00BA000CA7F814
:102E70005E00BDEC0A7B01B0BDE8F08F03F00BFDF6
:102E80009FED0B0B53EC102B03F094FD0546A06C4B
:102E90000E4603F077FF2A4633466AE60000D24327
:102EA00000F8FF4600BF00BF9A9999999999E93FA8
:102EB0009A9999999999E9BF501A0020081A002007
:102EC000981A002000040020241B00207C01002010
:102ED0000160000800010020F801002089130008AB
:102EE000C01D0020735B000800000020414D000859
:102EF000000034430000B443800F00200D5A000846
:102F0000C02000200000E040302100200000F041FF
:102F10000000164470020020815C0008C81E0020DA
:102F20000000964300002042DC020020381F0020F1
:102F300050160020000020414805002000F87FC501
:102F400000F87F4500F8FFC5C0160020B81C00201F
:102F50003C1D0020F01F00207047BCB5044690F8CF
:102F60003E00202806D1012529B122B194F83C0069
:102F7000012802D102252846BCBD01252046256333
:102F800084F83C5001F0EEF8206B0128F3D10020CA
:102F9000019020680168019141680191019950E810
:102FA000030F216840F0100041E803020AB12068D5
:102FB000F5E70025DFE7BCB5044690F83E00202881
:102FC00006D1012529B122B194F83C00012802D193
:102FD00002252846BCBD01252046256384F83C50C7
:102FE00001F008F9206B0128F3D10020019020683E
:102FF0000168019141680191019950E8030F21682E
:1030000040F0100041E803020AB12068F5E700250E
:10301000DFE7000010B5044602F02EF807488442AE
:1030200018BF10BD064801210D2280F82E1000F1B6
:103030000E010248BDE81040FFF78FBF241B00209F
:103040000004002070470000F8B5044600680168DD
:10305000C268466901F02F0502F02003202D05D13A
:1030600023B12046BDE8F84000F0B8BF5FEA017E1A
:1030700008D006F0010612F4907F86F0010750D1C7
:10308000002F4ED01140CA06226B39D5012A37D104
:103090000021009101680091416800910099416907
:1030A000490600F18C80E18DA28DE38D13B1511A98
:1030B0000A0401D1F8BD206850E8030F226820F40B
:1030C000907042E80303002BF5D1206850E8050F0B
:1030D000226820F0010042E80503002BF5D12020F2
:1030E00084F83E0000202063206850E8030F226827
:1030F00020F0100042E80303002BF5D189B2A2E0D2
:103100000A0600F1A5804906D4D5C16821F0400126
:10311000C160202084F83D002046BDE8F84000F062
:1031200002BBCD0718BF12F4807503D0256C45F0A3
:103130000105256401F004054FF0010C8CEA9505AA
:103140003D4303D1256C45F00205256401F00205DD
:103150008CEA55053D4303D1256C45F004052564F3
:10316000334318BF0123BEF1000F04D51BB1236CFC
:1031700043F008032364236C002B9BD01140890685
:1031800003D5204600F02AFF20684069216C00F03A
:10319000400001F0080140186BD0204600F0E9FE25
:1031A00020684169490678D550E8050F216820F06C
:1031B000400041E80502002A61D02068F4E7A26BD4
:1031C00011684B689DB2002D3FF474AFA18D8D4204
:1031D000BFF470AFE385D269B2F5807F30D050E89C
:1031E000030F216820F4807041E803020AB12068CF
:1031F000F5E7206850E8050F216820F0010041E85C
:103200000502002AF5D1206850E8050F216820F05A
:10321000400041E80502002AF5D1202084F83E0054
:1032200000202063206850E8030F216820F0100080
:1032300041E80302002AF5D1A06BFDF7F2FDA18D54
:10324000E08D081A81B22046BDE8F840FFF7E2BEE3
:1032500094F83D1021297FF42DAFA168B1F5805F6E
:1032600001D12169F1B1216A4A1C226209784160C9
:103270001FE02046FFF7E6FE00202064F8BDA06BAB
:1032800058B113490165FDF70CFE00283FF412AF59
:10329000A06B016DBDE8F84008472046BDE8F84046
:1032A000FFF7D0BE216A31F8022B6FF35F22216253
:1032B0004260E18C0139E18409047FF4FBAEC1680E
:1032C00021F08001C160C16841F04001C160F8BDDA
:1032D000493E000850B310B5044690F83D0028B9A7
:1032E000002084F83C00204600F022F8242084F8D6
:1032F0003D002068C16821F40051C160204600F003
:10330000CFFE2068016921F490410161416921F0FB
:103310002A014161C16841F40051C16000202021AF
:10332000206484F83D1084F83E1010BD01207047E1
:103330002DE9F04387B0044602A81421FDF765F893
:103340002068BA49884237D0B949884200F08E8057
:10335000B849884200F0E480B749884200F03681DD
:10336000B649884240F05E810020B54901900A6963
:1033700042F080420A610A6902F080420192019A99
:1033800001900A6842F010020A60096801F0100119
:103390000191082106910321CDE90401022002A92F
:1033A00003904FF4C07002900198A64800F5406069
:1033B000FDF710FF52242DE10026A1480196016976
:1033C00041F480210161016901F480210191019999
:1033D0000196016841F00801016002A9006800F04F
:1033E00008000190072006900320CDE90460022028
:1033F00003904FF4407002900198924800F50060ED
:10340000FDF7E8FE914F934D4FF000694FF480684F
:10341000142107F11800C5E9000905F11400C5E9F8
:103420000266C5F81080FCF7F0FF2846FDF704FEA1
:1034300008B1FDF707F9AC63A563874D07F14801B3
:103440004020C5E9001905F1080181E8410105F1B5
:1034500014001421FCF7D9FF2846FDF7EDFD08B153
:10346000FDF7F0F8AC6365632724D3E00026ED4850
:103470000196416941F020014161416901F020015B
:10348000019101990196016841F04001016002A992
:10349000006800F040000190082006900320CDE96C
:1034A0000460022003904FF4844002900198654824
:1034B00000F5A050FDF78EFE644F634D4FF020697C
:1034C0004FF48068142107F58360C5E9000905F110
:1034D0001400C5E90266C5F81080FCF796FF28467F
:1034E000FDF7AAFD08B1FDF7ADF8AC63A563584D33
:1034F00007F592614020C5E9001905F1080181E84E
:10350000410105F114001421FCF77FFF2846FDF767
:1035100093FD08B1FDF796F8AC636563472479E045
:103520000026E4480196016941F00041016101690A
:1035300001F00041019101990196016841F01001EB
:1035400001600221006800F0100001900820069040
:103550000320CDE90460CDE9020102A901983948B0
:1035600000F54060FDF736FE384F3C4D4FF02069C6
:103570004FF48068142107F19000C5E9000905F1B6
:103580001400C5E90266C5F81080FCF73EFF284626
:10359000FDF752FD08B1FDF755F8AC63A563304D5A
:1035A000402005F10801C5E9007981E8410105F1F4
:1035B00014001421FCF729FF2846FDF73DFD08B152
:1035C000FDF740F8AC636563532423E00020B9495C
:1035D00001904A6942F010024A614A6902F0100201
:1035E0000192019A01900A6842F002020A60096899
:1035F00001F002010191072106910321CDE90401A7
:10360000022002A90390C020029001980D48FDF706
:10361000E1FD2524204600210022FDF729FF204658
:10362000FDF718FF07B0BDE8F08300BF0048004079
:1036300000140140007C0040001001400078004070
:10364000303802400004024000190020106002409F
:103650006019002040180020A018002080170020CA
:10366000E017002070477047F8B5044690F83D0019
:10367000202806D139B113462AB194F83C0001281C
:1036800003D10220F8BD0120F8BD0025E38401200C
:10369000124E144F256484F83C00A3842162606BB1
:1036A0002268C0E913650E4E0432C0E90F76212668
:1036B00084F83D60FDF74CFD20686FF0400184F810
:1036C0003C50016050E8050F216840F0800041E85F
:1036D00005020AB12068F5E70020F8BD553E000854
:1036E0006D3F0008313F000810B5034690F83D00DB
:1036F000202806D10120A9B1A2B193F83C000128ED
:1037000001D1022010BD00202124DA84186483F83E
:103710003D4019629A8483F83C001968CA6842F0F7
:103720008002CA6010BD70477047FEE7B0B50C4814
:103730000C4D092400214FF480124FF48033C0E96E
:103740000054C0E90211C0E9043281618183FDF7B0
:10375000C7F918B1BDE8B040FCF774BFB0BD00BFF9
:103760003017002000640040B0B50C480C4D122406
:1037700000214FF480124FF48033C0E90054C0E9B7
:103780000211C0E9043281618183FDF7A9F918B102
:10379000BDE8B040FCF756BFB0BD00BF58170020D1
:1037A00000680040BCB5002042491F4C01900A68E7
:1037B00042F400120A600A6802F400120192019AAF
:1037C00000900868002240F480000860086800212A
:1037D00000F48000009000980B20A047134D0B20B0
:1037E000A8470C2000210022A0470C20A8470E204B
:1037F00000210022A0470E20A8471120002100220E
:10380000A0471120A847392000210022A0473920D5
:10381000A847452000210022A04745202946BDE8B1
:10382000BC400847303802407114000855140008A5
:1038300081B000211F480091026842F0100202602E
:10384000026802F010020092009A0091026842F0B1
:1038500040020260026802F040020092009A009169
:10386000026842F001020260026802F00102009266
:10387000009A0091026842F002020260026802F0BF
:1038800002020092009A0091026842F0080202606F
:10389000026802F008020092009A0091016841F06B
:1038A00080010160006800F080000090009801B085
:1038B000704700BF3038024010B58EB0002401A818
:1038C0001C21CDE90C44CDE90A44CDE90844FCF7BC
:1038D0009CFDA84880212C224FF08043816144F652
:1038E0001F61C0E90032C0E902410461FEF7E8F857
:1038F00008B1FCF7A7FE4FF480500AA90A909D4832
:10390000FEF7C8F908B1FCF79DFE9A48FEF76CFB7C
:1039100008B1FCF797FE9748002408A9CDE90844B0
:10392000FEF794F808B1FCF78DFE4FF4FA7001A988
:103930000822059403940290602001908D48FEF7C0
:1039400007FB08B1FCF77EFE8A48FEF7D5FA0EB0F9
:1039500010BD00BF10B586B089488021BB4C40F235
:10396000E732592381610021C0E90043C0E9021216
:10397000CDE904110161CDE90211CDE90011FEF795
:103980009FF808B1FCF75EFE4FF4805002A9029048
:103990007B48FEF77FF908B1FCF754FE002069462A
:1039A000CDE900007648FEF751F808B1FCF74AFE71
:1039B00006B010BD1CB5754880210D4B002459225E
:1039C000CDE90044816140F2E731C0E90032C0E94D
:1039D0000241FEF775F808B1FCF734FE6B48694602
:1039E000CDE90044FEF732F808B1FCF72BFE1CBD10
:1039F000001000401CB5684880210D4B002459225E
:103A0000CDE90044816141F60921C0E90032C0E9F5
:103A10000241FEF755F808B1FCF714FE5E4869460E
:103A2000CDE90044FEF712F808B1FCF70BFE1CBD0F
:103A30000014004010B50B480B4C4FF4E13300214B
:103A40000C22C0E90043C0E90211C0E90412C0E938
:103A50000611FFF73FFC18B1BDE81040FCF7F2BDBE
:103A600010BD00BFAC1B00200078004010B5F54829
:103A70000A4C4FF4E13300210C22C0E90043C0E9B5
:103A80000211C0E90412C0E90611FFF723FC18B1C6
:103A9000BDE81040FCF7D6BD10BD00BF007C004063
:103AA00070B50C480C4D0D4E00210C224FF4806374
:103AB0004FF48054C0E90065C0E90241C0E9043216
:103AC000C0E90611FFF706FC18B1BDE87040FCF72D
:103AD000B9BD70BDE01A0020A086010000100140B1
:103AE00010B50B480B4C4FF4E13300210C22C0E918
:103AF0000043C0E90211C0E90412C0E90611FFF752
:103B0000E9FB18B1BDE81040FCF79CBD10BD00BF3B
:103B1000241B00200048004010B50B480B4C4FF40C
:103B2000E13300210C22C0E90043C0E90211C0E9E1
:103B30000412C0E90611FFF7CDFB18B1BDE8104033
:103B4000FCF780BD10BD00BF681B002000140140C1
:103B5000FEE7FEE770477047FDF720BC02480168AA
:103B600041F470010160704788ED00E00148FEF704
:103B70000DB900BFC01900200148FEF707B900BF0A
:103B8000081A00200148FEF701B900BF501A0020B2
:103B90000148FEF7FBB800BF981A0020B0B50268D4
:103BA000B0F1804F0ED0274B98420BD0264B984255
:103BB00008D0264B984205D08B4B984202D0244B1C
:103BC000984203D14B6822F070021A43B0F1804F43
:103BD00020D01C4B98421DD01B4B98421AD01B4B37
:103BE000984217D01B4B984214D01B4B984211D0CF
:103BF0001A4B98420ED0164B98420BD07A4B9842F3
:103C000008D0174B984205D0164B984202D0164B5D
:103C1000984203D1CB6822F440721A434D6922F0D6
:103C200080020B688C682A430260C46283626E4B18
:103C300040F480629A4204BF096901630121416135
:103C4000B0BD00BF0004004000080040000C004070
:103C50000000014000180040001C0040002000400F
:103C600000400140004801400044014010B501F00F
:103C70001F010123046A8B4002FA01F124EA0303C5
:103C80000362026A1143016210BD0000F0B5026ACE
:103C9000554E22F0010202620B688A68046A24F021
:103CA000020422434468856925F073052B4340F4E0
:103CB0008065B54205D1CF6822F00C0227F00407D9
:103CC0003A43B54205D1D1E9055624F440742C435A
:103CD000344344608361496841630262F0BD00BFC0
:103CE000F0B5026A404E22F0100202620B688A6848
:103CF000046A24F0200444EA02124468856925F429
:103D0000E64545EA032C40F48065B54207D1CF680B
:103D10006FF0400322F0C00203EA07131A43B542D2
:103D200007D1D1E9053524F4406444EA830343EA2A
:103D300085044460C0F818C0496881630262F0BD20
:103D4000F0B5026A284E22F4807202620B688A681B
:103D5000046A24F4007444EA02224468C56925F028
:103D6000730545EA030C40F48065B54208D1CF687D
:103D700040F2FF4322F440623F0227EA03031A4362
:103D8000B54207D1D1E9053524F4405444EA031380
:103D900043EA05144460C0F81CC04968C16302626C
:103DA000F0BD00BF70B5026A0F4E22F4805202626D
:103DB0000C688A68036A23F4005343EA02324368BA
:103DC000C56925F4E64545EA042440F48065B5421A
:103DD00004D14D6923F4804343EA85134360C461F1
:103DE00049680164026270BD0004014010B5036AB5
:103DF000046A24F001040462846924F0F00444EAB3
:103E00000212826123F00A021143016210BD036AAB
:103E100023F010030362836923F4704343EA023200
:103E2000036A826123F0A00242EA01110162704735
:103E30000148FFF709B900BFAC1B00200148FFF79C
:103E400003B900BFF01B0020806B0021C185C18435
:103E5000FFF7F8B810B5846B2068416994F83D20ED
:103E6000212A08D111F0800105D00020E0842046ED
:103E700000F0A6F82068406994F83E10222907D186
:103E800010F0400004D00020E085204600F071F8DA
:103E9000206C40F0100020642046BDE81040FFF781
:103EA000D1B80168806B0968C9052FD40021C1858C
:103EB000016851E8031F026821F4807142E803138E
:103EC000002BF5D1016851E8051F026821F00101BE
:103ED00042E80513002BF5D1016851E8051F02687F
:103EE00021F0400142E80513002BF5D1202180F894
:103EF0003E10016B012909D1016851E8031F0268D6
:103F000021F0100142E80313002BF5D1016B0129C8
:103F100018BFFFF7A7BB818DFFF77CB8806B016BE3
:103F2000012918BFFFF79FBB818D4908FFF772B8C1
:103F30000168806B0968C90548BFFFF7F4BB002121
:103F4000C184016851E8051F026821F0800142E840
:103F50000513002BF5D1016851E8031F026841F0F9
:103F6000400142E80313002BF5D17047806BFFF747
:103F7000DBBB016851E8031F026821F4907142E83D
:103F80000313002BF5D1016851E8051F026821F0E9
:103F9000010142E80513002BF5D1016B012909D17C
:103FA000016851E8031F026821F0100142E8031381
:103FB000002BF5D1202180F83E10002101637047CD
:103FC000016851E8031F026821F0C00142E80313B1
:103FD000002BF5D1202180F83D10704781B090F87A
:103FE0003E10222920D18368B3F5805F08D1016992
:103FF000002948D000F128010A6803685B680AE0DC
:10400000014651F8282F13B90369002BF5D0036836
:104010005B6803F07F0313700A6801320A60C18D88
:104020000139C185090401D001B070470168CA682F
:1040300022F02002CA60CA6822F48072CA604A690B
:1040400022F001024A61202280F83E20026B012A00
:1040500022D10022026351E8031F026821F01001FF
:1040600042E803130168002BF5D10A68D20606D591
:10407000002200920A680092496800910099818D9F
:1040800001B0FEF7C7BF0168826A49686FF35F211C
:1040900022F8021B8262C2E701B0FFF7E3BA000018
:1040A000B0B50446006804F108030ECB056925F499
:1040B000405519432A4349F20C650261C26863699D
:1040C0001943E369AA4319431143C1604169A269D5
:1040D00021F4407111434161214940F480608842DC
:1040E00002D1FDF7C3FA01E0FDF7B6FAE269192142
:1040F0006368A0FB0101B2F5004F16D15A00DB0F37
:10410000FCF7C6F864216FF06303B0FBF1F202FB29
:104110000300322303EBC000B0FBF1F14FF4F87061
:1041200000EA410001F0070113E09A009B0FFCF741
:10413000AFF864216FF06303B0FBF1F202FB030000
:10414000322303EB0010B0FBF1F101F0F00001F0BD
:104150000F0100EB0210084321688860B0BD00BF6A
:1041600000140140F8B51346002504461E4E0A46C9
:104170001F4F056483858162222084F83E00A06B76
:104180002168C0E91365194E0431C0E90F76FCF7C8
:10419000DFFF009520680168009141680091009957
:1041A00084F83C50216949B150E8030F216840F47C
:1041B000807041E803020AB12068F5E7206850E802
:1041C000050F216840F0010041E80502002AF5D101
:1041D000206850E8050F216840F0400041E80502E2
:1041E000002AF5D10020F8BD553E00081D3F00080B
:1041F000A33E00080023C2850364816222218285D8
:1042000080F83C3080F83E100168006918B1C86839
:1042100040F48070C860486940F001004861C86897
:1042200040F02000C8600020704700000148FEF701
:104230000BBF00BFE01A00200148FEF705BF00BF1A
:10424000241B00200148FEF7FFBE00BF681B0020B2
:10425000FEE700002DE9F84F2DED125B00F0C6FEE1
:10426000DFF8349312214846FCF7CFF8DFF82CB37F
:10427000002609F12800C9E90566C9E90766D8479B
:1042800009F1F800D84709F5E470D84709F5267018
:10429000D847C34D12212846FCF7B7F805F128008E
:1042A000C5E90566C5E90766D84705F1F800D847AE
:1042B00005F5E470D84705F52670D84705F55A701E
:1042C0001221FCF7A2F805F56470C5E9DF66C5E9BF
:1042D000E166D84705F58C60D84705F5A660D84754
:1042E00005F5C060D847AF4F12213846FCF78DF86E
:1042F00007F12800C7E90566C7E90766D84707F14F
:10430000F800D84707F5E470D84707F52670D84776
:1043100007F55A701221FCF778F807F56470C7E9C1
:10432000DF66C7E9E166D84707F58C60D84707F52F
:10433000A660D84707F5C060D847DFF870829A4C6E
:10434000DFF86CA24FF4007101224B464046009406
:10435000D047601C4FF4007102222B46009008F1F8
:104360001000D047E01C4FF4017102223B46009040
:1043700008F12000D0478F4F8F489FED92AA9FED04
:10438000908A9FED8C9A04969FED8B1ADFF83892F5
:10439000B2EE040A0297CDE900608848F0EE4A0ABE
:1043A000F0EE481AB0EE492AF0EE4A2AC847DFF884
:1043B0001CA287489FED89BA9FED89CA9FED89DAD3
:1043C000844DF0EE4A0AB0EE492AF0EE4A2A0496ED
:1043D00002978AF81C60CAE903607F48B0EE4B0A76
:1043E000B0EE4C1AF0EE4D1ACAF81470CDE9006523
:1043F000C8477D48B0EE4B0AF0EE4A0AB0EE4C1AC0
:10440000F0EE4D1AB0EE492AF0EE4A2A0496CDE9B4
:1044100000650297C84775489FED750A9FED751AAC
:10442000F0EE4A0AF0EE4D1AB0EE492AF0EE4A2AB2
:104430000496CDE900650297C8476F48D84708F150
:1044400060001821FBF7E1FF6C48D8476C486D4AC3
:104450006D494FF07E544FF08043744D8AF83C60B4
:10446000049602979FED860AF0EE4A0AB0EE4A1AC9
:10447000F0EE481AB0EE492AF0EE4A2AC0E90044AC
:10448000C0E902310261C0E91866C0E91A664C4B06
:104490005E485F49614CC0E90016C0E902630261F1
:1044A000C0E91866C0E91A665A485B499C46634BE6
:1044B000C0E910145A495C4CC0E9131659490677F3
:1044C000C1E911545A4DCC64CF63C1E90A540C635D
:1044D000584C594D0F6284E868102261C4E918668F
:1044E000C4E91A66564B574CC3E90046C3E9026C4F
:1044F0001A61C3E91866C3E91A66384B534CCAE916
:104500000B63514BCAF834708AF85C60C3E900460B
:10451000C3E9026C1A61C3E91866C3E91A664C4B19
:104520004C4CC3E90046C3E9026C1A614A4AC3E92C
:104530001866C3E91A664A4BCAE91362474ACAF8C1
:10454000547082F85C60C2E91363576582F83C607E
:10455000C2E90B63434B57631677C2E903635761A4
:10456000414A434BC0E90362404A476180F83C60DE
:10457000C1E90062C1E90263C1E904623D49C0E9E1
:104580000B6147633C48CDE900603C48C847BDEC3F
:10459000125B01B0BDE8F08F480500202D5A0008DD
:1045A000B0080020800F002000000020F80100204B
:1045B000855B00086F12833A00004842C01D00204E
:1045C0000060EA4600000000EF580008DC0200200E
:1045D0000000C84300002041B81C00200000FA433E
:1045E0000000F042000080463C1D0020341C0020EA
:1045F000000096440000704278040020F01F002064
:10460000C020002000606A460000204230210020C7
:104610000000FA449C03002000004040000050418C
:1046200000803B45700200200050C34600007A45E0
:10463000CDCC4CBEC81E00203333333F0AD7233EB7
:10464000381F00200000C34350160020CDCCCC3DC5
:10465000C016002000006040000016433C0300200C
:10466000000088410000484300008C4200409F4009
:104670000070A740000048440000A041441E0020F4
:104680009A99993E10B500F063F9C54C2046FCF7A5
:1046900096FB20460221FBF7D9FFBA4C2046FCF7D7
:1046A0008EFB20460221BDE81040FBF7CFBF00BFC4
:1046B00010B588B00793002308240493CDE9023392
:1046C0008DF81830019101A907AB0594FBF7D1FFD4
:1046D00008B010BDFEB500200C4901900A6842F0F8
:1046E00040020A60096801F040010191019902212C
:1046F000CDE9030101210590794802914FF4FF7142
:10470000019101A9FCF766FD06B080BD303802407A
:10471000A24840F2FF11022300F15402A048FFF723
:10472000C7BF00BF10B571489C4C90ED030A04F15F
:104730006C00BCEEC00A10EE101A01F065FA04F12C
:104740006400022100F028FF18B1BDE8104000F01D
:104750000FBA10BD2DE9F84F2DED028B60484FF6D2
:10476000FF7101224FF00108FCF70EFEFFF78AFFF0
:1047700000F03CFC5B485C49082200F16C042046D8
:1047800001F022FA594890ED030A2046BCEEC00A17
:1047900010EE101A01F038FA0A20FCF70BFD54490C
:1047A000544A5548554B564C564E574D594FC1E9F2
:1047B0001464C1E916300A6640F20112544CA1F8A3
:1047C0004C205249C5E9144105F15801C8C1A5F86A
:1047D0004C20514B524A5149C3E91421514A524984
:1047E00083F84C80524B82F84C80C2E914014F4A46
:1047F000526CDA624F4AC2E9140182F84C80FCF72D
:10480000C9FD4D4C9FED4D8ADFF84499DFF838A182
:10481000DFF8388105464FF0000B40F2F5174448A9
:10482000B0EE480AD0ED0C0A204601F029FA4448BF
:10483000D4ED1B0A90ED010A424801F021FA09F17A
:10484000200040F20621D047B0F9020002210122E7
:1048500000EE100A2C48F8EEC00AB0EE480AC04735
:1048600009F1100640F203213046D047B0F90400A8
:104870000221012200EE100A2748F8EEC00AB0EE2D
:10488000480AC047304640F20121D047B0F9040041
:104890000221012200EE100A2248F8EEC00AB0EE12
:1048A000480AC047304640F20221D047B0F9040020
:1048B0000221012200EE100A1E48F8EEC00AB0EEF6
:1048C000480AC047FCF766FD401B6BF10001C01BA6
:1048D00071F10000A3D3BDEC028B01B0BDE8F08FF5
:1048E000001802407C010020C019002000000020B8
:1048F000441E002000B808470000FA450000C842E6
:104900000000FA430000FA44C01D002000008C4261
:1049100000409C4500409C46341C00200000F041B3
:1049200000004843B81C00200000C84300040020D9
:10493000000100203C1D0020C020002000000000DD
:104940003C03002030210020735B0008BD580008A4
:10495000F0B58BB001AC01251C211C262046099521
:10496000FBF753FD0E480E27214608950A97FBF7E3
:10497000CDFE044821460A960697FBF7C7FE0BB00A
:10498000F0BD00BF5817002004484FF40071022307
:1049900000F15C020248FFF78BBE00BF7C010020E3
:1049A0003017002010B592B0002401A81421CDE9E1
:1049B0000A44CDE90844FBF728FD26480094016825
:1049C00041F080510160006800F080500090009834
:1049D00000942148016841F440410160B42100681D
:1049E00000F44040009004200F9106211190022015
:1049F0000E914FF480011090CDE90C014FF48030FE
:104A0000079001200690009806A8FCF76DFE18B1EB
:104A1000EFF3108072B6FEE7FCF756FD18B1EFF326
:104A2000108072B6FEE74FF48050052105904FF4D8
:104A3000A050049000200390022002900F200190CB
:104A400001A8FCF777FD18B1EFF3108072B6FEE70E
:104A500012B010BD403802400070004015491648A1
:104A60009FED171AC1F80A0043F6391091ED110AAB
:104A70000880124820EE010AB0F96A03420A48622F
:104A800048710A71020C000ECA708870BDEEC01A1F
:104A900081ED0A1ABDEEC00A10EE100A020A487231
:104AA0000A72020C000E88710648CA710E22FEF7C7
:104AB000DBBD00BF000400201A4200FF800F002071
:104AC0000000C842241B00202348817B39291CD1C7
:104AD000C17B392919D1817EFF2916D1017E427E01
:104AE00080F82C1080F82D20D0E9042312BA00EEB3
:104AF000102A1ABAB8EEC00A80ED080A00EE102A91
:104B0000B8EEC00A80ED070A01E090F82C10134AB5
:104B100092F85520012A08BF012900D0704790ED76
:104B2000070A9FED0F2A90ED081A0E4880EE020A40
:104B300090ED102A7F4830EE020A80ED0C0A0A48F8
:104B4000B0F96A0300EE100A0848B8EEC00A31EE68
:104B5000000A80ED020A704700040020F8010020DE
:104B60000000C842C0200020800F0020000000206C
:104B70002DE9F047DFF8D8856D4C002798F84A609A
:104B8000E7706771A4F80170032E3DD0012E40F04C
:104B9000B4806848C06BA4F8030098F84B00421E2C
:104BA000C11E0238B2FA82F2B1FA81F1B0FA80F095
:104BB000520949094009920142EA4111062241EA9B
:104BC0000017B8F848006771A0F5806001B291FB4A
:104BD000F2F10B0401EBE37181EAE371802303EA54
:104BE000102008436070B8F84600A0F5806001B25C
:104BF00003EA102091FBF2F10A0401EBE27181EA71
:104C0000E2710843A07075E0B8F85620DFF868A993
:104C1000D00705D1900709D50AF10F03EE2502E070
:104C20000AF10D036E25012065701870100705D478
:104C3000500709D50AF10E03EE2502E00AF1100330
:104C40006E250120A5701870DAF83C009AF80490DF
:104C50009AF805709AF80BC04FF0040E00236372A7
:104C6000A4F803009AF8080020729AF906000EEAE8
:104C70005015002800D5404200F0020100F001006C
:104C80009AED110A2944084498F84B10B5EE400AF1
:104C9000A0710EEAD200F1EE10FA18BF01239AF9C2
:104CA0000C5081F0030140EA8710394340EAC90003
:104CB000C9B2B1FA81F1490940EA411040EA0C0059
:104CC00040EA43072846677101F0E5FD9FED140BAC
:104CD00053EC102B01F06EFE9FED130B53EC102BD9
:104CE000DA0F62F3DF7101F0A7FD102101EAD501AF
:104CF0000843E0710F48006C60810E48B11E0C2221
:104D0000B1FA81F1007849090843214647EAC01009
:104D100060710948BDE8F047FEF7E6BC00BF00BF80
:104D2000F853E3A59BC4E43F00000000000000002E
:104D30003800002000010020AC1B00200000000013
:104D400070B52DED048BB0EE408A30EE600AB0EE07
:104D5000419A10EE100A02F015F819EE106A044696
:104D60000D46304602F00EF89FED110B53EC102B60
:104D700001F020FE22462B4602F044F810B938EE2E
:104D8000498A0FE0304601F0FDFF9FED0B0B53EC1D
:104D9000102B01F00FFE22462B4602F03AF808B91C
:104DA00038EE098AB0EE480ABDEC048B70BD00BF36
:104DB000000000000000E03F000000000000E0BF35
:104DC000B0F90020891A042984BF4FF0FF307047E2
:104DD0000844407AFF2808BF4FF0FF3070470000BA
:104DE0002DE9F0410446A1F5C4700D46A1F52271EC
:104DF000B0FA80F0B1FA81F1400949094840A5F5BF
:104E00006271B1FA81F149094840012840F0D5802A
:104E1000DDF82880B5F5C47F08D1B8F800002084FB
:104E2000B8F802006084B8F80400A084B5F5227FC9
:104E300036D1B8F9000000EE100AB8EEC00A10EE44
:104E4000100A01F09FFF9FED5E0B56EC107B3A4677
:104E5000334601F0AFFD01F075FAA062B8F9020027
:104E600000EE100AB8EEC00A10EE100A01F08AFF38
:104E70003A46334601F09EFD01F064FAE062B8F96B
:104E8000040000EE100AB8EEC00A10EE100A01F09D
:104E900079FF3A46334601F08DFD01F053FA206365
:104EA000B5F5627F40F08680B8F9000000EE100A88
:104EB000B8EEC00A10EE100A01F064FF9FED400B3F
:104EC00055EC106B32462B4601F074FD01F03AFAB6
:104ED0002060B8F9020000EE100AB8EEC00A10EE29
:104EE000100A01F04FFF32462B4601F063FD01F03E
:104EF00029FA6060B8F9040000EE100AB8EEC00AA2
:104F000010EE100A01F03EFF32462B4601F052FD32
:104F100001F018FA9FED2C2A00EE100AA060BFEEF7
:104F2000003AB5EE400A30EE021AF1EE10FAB8BFC0
:104F3000B0EE410A84ED030A94ED041AB4EE431A6C
:104F4000F1EE10FA2ED0B4EE401AF1EE10FA29D09C
:104F50009FED1E4A30EE413AB4EE443AF1EE10FABB
:104F600008DA32EE411A94ED052A31EE001A31EEDC
:104F7000021A15E09FED162AB4EE423AF1EE10FA4D
:104F80000ADD9FED142A30EE022A32EE411A94ED2A
:104F9000052A32EE011A03E094ED051A33EE011AE8
:104FA00084ED051A207E84ED040A18B9012084EDF1
:104FB000070A2076FCF7EEF96063BDE8F08100BFD8
:104FC0007B14AE47E17A843F0000B443000034C351
:104FD000000034430000B4C310B50446343014213B
:104FE00000F0CEFA84F83C0010BD000058481222B0
:104FF00000F130012F48FDF7DEBF00BF70B5544D02
:105000000024B5F84400B0F5B67F4FF0000038BF7B
:105010000120B5F84210B1F5B67F4FF0000138BF5E
:1050200001210843B5F84610B1F5B67F4FF00001F5
:1050300038BF01210843B5F84810B1F5B67F4FF0ED
:10504000000138BF012141EA00061B4832214C30E3
:1050500000F096FA304385F858000AD0154805F15B
:105060003001122200F02AF895F85840002C18BFA1
:105070000124204670BD00BF10B586B00D4A904295
:1050800008BF12290DD16C46204600F029F830489F
:10509000214618224230FBF773F9FCF77BF90649E9
:1050A000C8642B48122200F130010248FDF783FF4B
:1050B00006B010BDE01A00207C01002018B503687E
:1050C0001C68240758BF18BD002492B200941C68C5
:1050D00000945B680093009BBDE81840FDF76BBF30
:1050E000F0B50021C1821A49CA8E91F8313091F889
:1050F000324091F83350828191F8302063F30A22D4
:10510000DB08028091F8352064F34A13C2F30116DC
:10511000438091F8407091F83430467296090672D7
:1051200091F8416066F30A275E0803F0010362F319
:10513000CA16AA00478142EA9412C68042EA832234
:105140008280D1E90E12C0F80E10C0F81220F0BD16
:10515000F8010020000000002DE9F0412DED0A8B40
:10516000B0EE408A0446002980ED000A51D0207F2D
:10517000032853D001286ED0002840F0AD8094ED74
:1051800001AA94ED02BA94ED059A94ED04CA0BEECF
:1051900009AA1CEE100A84ED01AA01F0F3FD9FEDAF
:1051A0005E0B53EC102B01F005FC07461BEE100ABA
:1051B0000D4601F0E7FD80460E4638462946424638
:1051C000334601F0F7FB38EE4A0A2CEE0C1A05467E
:1051D0000F4620EE010A10EE100A01F0D3FD024640
:1051E0000B462846394601F0DFF8054619EE100A4D
:1051F0000F4601F0C7FD02460B462846394601F02E
:10520000D9FB4246334601F0CFF801F09BF8A0608D
:1052100062E0002084ED018AA06074E094ED010A50
:10522000D4ED020A94ED041AD4ED051A30EE480AC2
:1052300000F0A6F894ED022A94ED011A94ED053AD7
:10524000B0EE424A02EE031A00EE034A84ED011A60
:1052500084ED024A40E094ED019A94ED02AA94EDA7
:1052600005CA94ED04BAB0EE490A1BEE100A0AEE24
:105270000C0A84ED010A01F085FD02460B4601F09F
:1052800093F89FED230B02460B4651EC100B01F0F7
:105290003FF901F057F8B0EECA1A39EE480A02EEAB
:1052A000100AA0612AEE011A01EE020A9FED1C2AE3
:1052B000BFEE001AB5EE400AB7EE000AF1EE10FAA2
:1052C000B8BFB0EE412AC8BFB0EE402A22EE0B0AAA
:1052D0000CEE40AA84ED02AA94ED030AB5EE400A52
:1052E000F1EE10FA0FD094ED021AB4EE401AF1EE7E
:1052F00010FA06DCB1EE400AB4EE401AF1EE10FAF4
:1053000001DA84ED020ABDEC0A8BBDE8F08100BF32
:10531000000000000000F03F00000000000000C09E
:10532000000000000000000080B530EE601A00218F
:1053300030EE200A0020B5EE401AF1EE10FAB8BFA8
:105340004FF0FF31B5EE400AC8BF0121F1EE10FA6F
:10535000B8BF4FF0FF30C8BF0120401A01F09BFAE0
:105360009FED050B53EC102B01F024FB00F0EAFF3E
:1053700000EE100A80BD00BF000000000000E03F0A
:105380002DE9F0472DED108BB0EE418A20EEA11AE9
:10539000DFF8E4A131EE009A28EE210A20EE210A7E
:1053A0008AED061A8AED079A10EE100A8AED050AB0
:1053B00001F0E8FC044619EE100A0D4620F000400A
:1053C00001F0E0FC9FED660B53EC102B01F0F2FABC
:1053D00022462B4600F0E8FF22462B4601F0EAFA6F
:1053E00000F0B0FF09EE100AB0EE490A00F0D0FE5E
:1053F000B4EE400AF1EE10FA80F1AA809AED07AA05
:105400009FED5ECA9AED059A8AED080A9AED06FAB2
:10541000BFEE00DAB7EE00EAB5EE40AAB0EE4C1AE5
:1054200030EE490AF1EE10FAB8BFB0EE4D1AC8BF1F
:10543000B0EE4E1A20EE010A10EE100A01F0A2FCA6
:105440009FED490B53EC102B01F0B4FA04461FEE0C
:10545000100A0D4601F096FC02460B4620462946EE
:1054600000F0A2FF00F06EFFCAF8240001F08AFCF1
:10547000B0EE4A0AF0EE490A06460F46FFF754FF1F
:1054800010EE100AB0EE40BA01F07CFC9FED380B34
:1054900002460B4658EC109B4846414601F088FBFB
:1054A00032463B4601F086FA3FEE0A0A06460F46B0
:1054B00020EE0B0A10EE100A01F064FC02460B46C7
:1054C0003046394600F070FF00F03CFF0AEE100A4B
:1054D000F0EE490ACAF828008AEE090A20EE08BA56
:1054E000B0EE4A0AFFF720FFB0EE409A20EE0B0A1A
:1054F00010EE100A01F046FCB5EE40AA06460F4633
:10550000F1EE10FAB8BFB0EE4DCAC8BFB0EE4ECA49
:105510002CEE080A10EE100A01F034FC044619EED5
:10552000100A0D4601F02EFC4A46434601F040FBAE
:1055300022462B4601F03EFA32463B4601F038FB4C
:1055400000F000FF00EE100ABDEC108BBDE8F08704
:10555000B0EE490A00F01CFE50E700BF00BF00BFDC
:105560000000000000002040000000000000E03FBC
:10557000000000000000F03F0001002000000000DB
:10558000B0B50C460546FBF705FF2968411A002017
:10559000A14228BF0120B0BDB0B50C460546FBF7BF
:1055A000F9FEB0FBF4F101FB1401281D002918BF1E
:1055B000012100F02BFAA879B0BD00000000000026
:1055C0002DE9F0412DED048BB0EE418A90ED011AEA
:1055D0000446B0EE609A00EE211A80ED001A20EE2B
:1055E000080A10EE100A01F0CDFB804618EE100AF2
:1055F0000E4601F0C7FB9FED100B02460B4651EC27
:10560000100B01F0D5FA074619EE100A0D4601F00D
:10561000B9FB02460B463846294601F0CBF9424613
:10562000334600F0C1FE00F08DFE606000EE100A0F
:10563000BDEC048BBDE8F081000000000000F03FED
:1056400070B52DED068BB0EE408A0446022980ED40
:105650000B0A0AD0012940F0868094F84D0070B101
:1056600094ED161A94ED172A13E094F84D0068B3E0
:1056700094ED16AA94ED172A94ED189A49E094ED4A
:105680000E0A20EE002A30EE001A84ED161A84ED80
:10569000172A94ED083A94ED090A94ED0C4A94ED1A
:1056A0000D5A04F1240038EE436AB0EE407A06EE5B
:1056B000017A94ED121A84ED106A26EE022A05EEA4
:1056C000047A01EE073A84ED083A48E094ED0E0AB8
:1056D000B0EE081A20EE01AA20EE001A10EE100A11
:1056E00020EE019A84ED16AA84ED189A01F04AFB87
:1056F0009FED1F0B05460E4653EC102B01F05AF997
:105700002A46334601F056F900F01CFE02EE100A5C
:10571000E06594ED083A94ED094A94ED0A0A94ED97
:10572000121A94ED0C5A94ED0D6A04F1280038EE2B
:10573000437AF0EE440A47EE0A0A84ED107A01EE4D
:10574000203AF0EE400A47EE020A84ED083A27EECE
:10575000092A46EE050A01EE204A84ED094A01EEC7
:10576000020A80ED000ABDEC068B70BD00BF00BFD1
:10577000000000000000084010B50446022907D0D0
:10578000012938D194F84C00C0B394ED140A39E0E3
:1057900094F84C0048B994ED0F0A30EE001A20EE50
:1057A000000A84ED140A84ED151A94ED1D1AB5EE65
:1057B000401AF1EE10FA36D094ED090AD4ED121A1F
:1057C000D4ED1C0A04F17800FFF7FAFE94ED1F0AED
:1057D00094ED022A94ED011A94ED083A94ED155ACD
:1057E00094ED144A32EE400A31EE431A25EE000AD7
:1057F00004EE010A2BE09FED300A2EE0E06B00EE94
:10580000100A206594ED011A94ED082A94ED153ADA
:1058100094ED1B4A04F1240031EE421A20EE010AF5
:1058200003EE440A15E094ED023A94ED095A94ED22
:10583000150A94ED012A94ED084A94ED141A33EEFA
:10584000453A32EE442A20EE030A01EE020A04F140
:10585000280090ED001A30EE410A94F8801094F878
:105860008100814203D9013084F8810010BD94ED9C
:105870000D1A94ED112A002084F8810080EE010AAF
:10588000B1EE421AB4EE420A84ED0C0AF1EE10FABF
:10589000C8BFB0EE420A05DCB4EE410AF1EE10FAE0
:1058A00000DB10BDB4EE410AF1EE10FAB8BFB0EE65
:1058B000410A84ED0C0A10BD00000000B0B52DEDCA
:1058C000028B0C461146B0EE608A0546FFF744FC99
:1058D0002846B0EE480A2146FFF7B2FE2846214688
:1058E000FFF74AFF95ED0C0ABDEC028BB0BDB0B5D9
:1058F000089D0024C0ED192AC0ED111A80ED122A6E
:1059000080ED0D0A80ED0E1AC0ED0F0A4467C561E7
:10591000079D8561059D0561049D80E82E00A0F826
:105920004C4080ED052AB0BD90ED011A90ED042A9F
:1059300090ED053A80ED000A30EE411A21EE021A90
:10594000B1EE432AB4EE431A80ED031AF1EE10FAD9
:10595000C8BFB0EE431A04DCB4EE421AF1EE10FAFE
:1059600008DAB4EE421AF1EE10FAB8BFB0EE421AFD
:1059700080ED031A80ED010A704790ED041A90ED56
:10598000062A80ED000A21EE000AB1EE421AB4EEBA
:10599000420A80ED030AF1EE10FAC8BFB0EE420AE7
:1059A00005DCB4EE410AF1EE10FA00DB7047B4EE0C
:1059B000410AF1EE10FAB8BFB0EE410A80ED030AD9
:1059C000704710B50023FF24052B02D0C4540133C7
:1059D000FAE700239A4208BF10BDCC5C035501339F
:1059E000F8E70000084A00214FF07E5380F8BC1011
:1059F000C0E92B1380F89010C0F8B420C0E9201340
:105A0000C0F88820704700BF6F12833A002242809E
:105A1000027801708B1A511A4270012B04BF0123C6
:105A2000C370012904BF01218170704780B5FFF761
:105A3000D9FF0549C0F8B010C0F88410002180F8E3
:105A4000C01080F8941080BD0000C8422DE9F047D6
:105A5000044600264FF45A784FF000094FF0000A30
:105A6000207A82451AD265682046A95FFFF7A8F917
:105A700000FB08500A211C30FFF782FD67680546CD
:105A80002046B95FFFF79CF900FB087049EA050959
:105A900006F55A760AF1010AC576E1E709F0010038
:105AA000BDE8F0872DE9F0410446A1F50070082813
:105AB0005DD8207A00285AD02046FFF781F9411C92
:105AC00055D0D4F804E04FF45A720A9900FB02E270
:105AD0000D8814462BBA34F90A7F1B0C24F8083CB5
